{
	"contracts/CroudFunding.sol": {
		"CroudFunding": {
			"abi": [
				{
					"inputs": [
						{
							"internalType": "string",
							"name": "_name",
							"type": "string"
						},
						{
							"internalType": "string",
							"name": "_description",
							"type": "string"
						},
						{
							"internalType": "uint256",
							"name": "_goal",
							"type": "uint256"
						},
						{
							"internalType": "uint256",
							"name": "_durationInDays",
							"type": "uint256"
						}
					],
					"stateMutability": "nonpayable",
					"type": "constructor"
				},
				{
					"inputs": [
						{
							"internalType": "string",
							"name": "_name",
							"type": "string"
						},
						{
							"internalType": "uint256",
							"name": "_amount",
							"type": "uint256"
						}
					],
					"name": "addTier",
					"outputs": [],
					"stateMutability": "nonpayable",
					"type": "function"
				},
				{
					"inputs": [
						{
							"internalType": "address",
							"name": "",
							"type": "address"
						}
					],
					"name": "backers",
					"outputs": [
						{
							"internalType": "uint256",
							"name": "totalContribution",
							"type": "uint256"
						}
					],
					"stateMutability": "view",
					"type": "function"
				},
				{
					"inputs": [],
					"name": "deadline",
					"outputs": [
						{
							"internalType": "uint256",
							"name": "",
							"type": "uint256"
						}
					],
					"stateMutability": "view",
					"type": "function"
				},
				{
					"inputs": [],
					"name": "description",
					"outputs": [
						{
							"internalType": "string",
							"name": "",
							"type": "string"
						}
					],
					"stateMutability": "view",
					"type": "function"
				},
				{
					"inputs": [
						{
							"internalType": "uint256",
							"name": "_tierIndex",
							"type": "uint256"
						}
					],
					"name": "fund",
					"outputs": [],
					"stateMutability": "payable",
					"type": "function"
				},
				{
					"inputs": [],
					"name": "getContractBalance",
					"outputs": [
						{
							"internalType": "uint256",
							"name": "",
							"type": "uint256"
						}
					],
					"stateMutability": "view",
					"type": "function"
				},
				{
					"inputs": [],
					"name": "goal",
					"outputs": [
						{
							"internalType": "uint256",
							"name": "",
							"type": "uint256"
						}
					],
					"stateMutability": "view",
					"type": "function"
				},
				{
					"inputs": [
						{
							"internalType": "address",
							"name": "_backer",
							"type": "address"
						},
						{
							"internalType": "uint256",
							"name": "_tierIndex",
							"type": "uint256"
						}
					],
					"name": "hasFundedTier",
					"outputs": [
						{
							"internalType": "bool",
							"name": "",
							"type": "bool"
						}
					],
					"stateMutability": "view",
					"type": "function"
				},
				{
					"inputs": [],
					"name": "name",
					"outputs": [
						{
							"internalType": "string",
							"name": "",
							"type": "string"
						}
					],
					"stateMutability": "view",
					"type": "function"
				},
				{
					"inputs": [],
					"name": "owner",
					"outputs": [
						{
							"internalType": "address",
							"name": "",
							"type": "address"
						}
					],
					"stateMutability": "view",
					"type": "function"
				},
				{
					"inputs": [],
					"name": "refund",
					"outputs": [],
					"stateMutability": "nonpayable",
					"type": "function"
				},
				{
					"inputs": [
						{
							"internalType": "uint256",
							"name": "_index",
							"type": "uint256"
						}
					],
					"name": "removeTier",
					"outputs": [],
					"stateMutability": "nonpayable",
					"type": "function"
				},
				{
					"inputs": [],
					"name": "state",
					"outputs": [
						{
							"internalType": "enum CroudFunding.CampaginState",
							"name": "",
							"type": "uint8"
						}
					],
					"stateMutability": "view",
					"type": "function"
				},
				{
					"inputs": [
						{
							"internalType": "uint256",
							"name": "",
							"type": "uint256"
						}
					],
					"name": "tiers",
					"outputs": [
						{
							"internalType": "string",
							"name": "name",
							"type": "string"
						},
						{
							"internalType": "uint256",
							"name": "amount",
							"type": "uint256"
						},
						{
							"internalType": "uint256",
							"name": "backers",
							"type": "uint256"
						}
					],
					"stateMutability": "view",
					"type": "function"
				},
				{
					"inputs": [],
					"name": "withdraw",
					"outputs": [],
					"stateMutability": "nonpayable",
					"type": "function"
				}
			],
			"devdoc": {
				"kind": "dev",
				"methods": {},
				"version": 1
			},
			"evm": {
				"assembly": "    /* \"contracts/CroudFunding.sol\":57:3547  contract CroudFunding {... */\n  mstore(0x40, 0x80)\n    /* \"contracts/CroudFunding.sol\":792:1181  constructor(... */\n  callvalue\n  dup1\n  iszero\n  tag_1\n  jumpi\n  revert(0x00, 0x00)\ntag_1:\n  pop\n  mload(0x40)\n  sub(codesize, bytecodeSize)\n  dup1\n  bytecodeSize\n  dup4\n  codecopy\n  dup2\n  dup2\n  add\n  0x40\n  mstore\n  dup2\n  add\n  swap1\n  tag_2\n  swap2\n  swap1\n  tag_3\n  jump\t// in\ntag_2:\n    /* \"contracts/CroudFunding.sol\":956:961  _name */\n  dup4\n    /* \"contracts/CroudFunding.sol\":949:953  name */\n  0x00\n    /* \"contracts/CroudFunding.sol\":949:961  name = _name */\n  swap1\n  dup2\n  tag_6\n  swap2\n  swap1\n  tag_7\n  jump\t// in\ntag_6:\n  pop\n    /* \"contracts/CroudFunding.sol\":989:1001  _description */\n  dup3\n    /* \"contracts/CroudFunding.sol\":975:986  description */\n  0x01\n    /* \"contracts/CroudFunding.sol\":975:1001  description = _description */\n  swap1\n  dup2\n  tag_8\n  swap2\n  swap1\n  tag_7\n  jump\t// in\ntag_8:\n  pop\n    /* \"contracts/CroudFunding.sol\":1022:1027  _goal */\n  dup2\n    /* \"contracts/CroudFunding.sol\":1015:1019  goal */\n  0x02\n    /* \"contracts/CroudFunding.sol\":1015:1027  goal = _goal */\n  dup2\n  swap1\n  sstore\n  pop\n    /* \"contracts/CroudFunding.sol\":1089:1095  1 days */\n  0x015180\n    /* \"contracts/CroudFunding.sol\":1071:1086  _durationInDays */\n  dup2\n    /* \"contracts/CroudFunding.sol\":1071:1095  _durationInDays * 1 days */\n  tag_9\n  swap2\n  swap1\n  tag_10\n  jump\t// in\ntag_9:\n    /* \"contracts/CroudFunding.sol\":1052:1067  block.timestamp */\n  timestamp\n    /* \"contracts/CroudFunding.sol\":1052:1096  block.timestamp + (_durationInDays * 1 days) */\n  tag_11\n  swap2\n  swap1\n  tag_12\n  jump\t// in\ntag_11:\n    /* \"contracts/CroudFunding.sol\":1041:1049  deadline */\n  0x03\n    /* \"contracts/CroudFunding.sol\":1041:1096  deadline = block.timestamp + (_durationInDays * 1 days) */\n  dup2\n  swap1\n  sstore\n  pop\n    /* \"contracts/CroudFunding.sol\":1118:1128  msg.sender */\n  caller\n    /* \"contracts/CroudFunding.sol\":1110:1115  owner */\n  0x04\n  0x00\n    /* \"contracts/CroudFunding.sol\":1110:1128  owner = msg.sender */\n  0x0100\n  exp\n  dup2\n  sload\n  dup2\n  0xffffffffffffffffffffffffffffffffffffffff\n  mul\n  not\n  and\n  swap1\n  dup4\n  0xffffffffffffffffffffffffffffffffffffffff\n  and\n  mul\n  or\n  swap1\n  sstore\n  pop\n    /* \"contracts/CroudFunding.sol\":1150:1170  CampaginState.Active */\n  0x00\n    /* \"contracts/CroudFunding.sol\":1142:1147  state */\n  0x04\n  0x14\n    /* \"contracts/CroudFunding.sol\":1142:1170  state = CampaginState.Active */\n  0x0100\n  exp\n  dup2\n  sload\n  dup2\n  0xff\n  mul\n  not\n  and\n  swap1\n  dup4\n  0x02\n  dup2\n  gt\n  iszero\n  tag_13\n  jumpi\n  tag_14\n  tag_15\n  jump\t// in\ntag_14:\ntag_13:\n  mul\n  or\n  swap1\n  sstore\n  pop\n    /* \"contracts/CroudFunding.sol\":792:1181  constructor(... */\n  pop\n  pop\n  pop\n  pop\n    /* \"contracts/CroudFunding.sol\":57:3547  contract CroudFunding {... */\n  jump(tag_16)\n    /* \"#utility.yul\":7:82   */\ntag_17:\n    /* \"#utility.yul\":40:46   */\n  0x00\n    /* \"#utility.yul\":73:75   */\n  0x40\n    /* \"#utility.yul\":67:76   */\n  mload\n    /* \"#utility.yul\":57:76   */\n  swap1\n  pop\n    /* \"#utility.yul\":7:82   */\n  swap1\n  jump\t// out\n    /* \"#utility.yul\":88:205   */\ntag_18:\n    /* \"#utility.yul\":197:198   */\n  0x00\n    /* \"#utility.yul\":194:195   */\n  0x00\n    /* \"#utility.yul\":187:199   */\n  revert\n    /* \"#utility.yul\":211:328   */\ntag_19:\n    /* \"#utility.yul\":320:321   */\n  0x00\n    /* \"#utility.yul\":317:318   */\n  0x00\n    /* \"#utility.yul\":310:322   */\n  revert\n    /* \"#utility.yul\":334:451   */\ntag_20:\n    /* \"#utility.yul\":443:444   */\n  0x00\n    /* \"#utility.yul\":440:441   */\n  0x00\n    /* \"#utility.yul\":433:445   */\n  revert\n    /* \"#utility.yul\":457:574   */\ntag_21:\n    /* \"#utility.yul\":566:567   */\n  0x00\n    /* \"#utility.yul\":563:564   */\n  0x00\n    /* \"#utility.yul\":556:568   */\n  revert\n    /* \"#utility.yul\":580:682   */\ntag_22:\n    /* \"#utility.yul\":621:627   */\n  0x00\n    /* \"#utility.yul\":672:674   */\n  0x1f\n    /* \"#utility.yul\":668:675   */\n  not\n    /* \"#utility.yul\":663:665   */\n  0x1f\n    /* \"#utility.yul\":656:661   */\n  dup4\n    /* \"#utility.yul\":652:666   */\n  add\n    /* \"#utility.yul\":648:676   */\n  and\n    /* \"#utility.yul\":638:676   */\n  swap1\n  pop\n    /* \"#utility.yul\":580:682   */\n  swap2\n  swap1\n  pop\n  jump\t// out\n    /* \"#utility.yul\":688:868   */\ntag_23:\n    /* \"#utility.yul\":736:813   */\n  0x4e487b7100000000000000000000000000000000000000000000000000000000\n    /* \"#utility.yul\":733:734   */\n  0x00\n    /* \"#utility.yul\":726:814   */\n  mstore\n    /* \"#utility.yul\":833:837   */\n  0x41\n    /* \"#utility.yul\":830:831   */\n  0x04\n    /* \"#utility.yul\":823:838   */\n  mstore\n    /* \"#utility.yul\":857:861   */\n  0x24\n    /* \"#utility.yul\":854:855   */\n  0x00\n    /* \"#utility.yul\":847:862   */\n  revert\n    /* \"#utility.yul\":874:1155   */\ntag_24:\n    /* \"#utility.yul\":957:984   */\n  tag_61\n    /* \"#utility.yul\":979:983   */\n  dup3\n    /* \"#utility.yul\":957:984   */\n  tag_22\n  jump\t// in\ntag_61:\n    /* \"#utility.yul\":949:955   */\n  dup2\n    /* \"#utility.yul\":945:985   */\n  add\n    /* \"#utility.yul\":1087:1093   */\n  dup2\n    /* \"#utility.yul\":1075:1085   */\n  dup2\n    /* \"#utility.yul\":1072:1094   */\n  lt\n    /* \"#utility.yul\":1051:1069   */\n  0xffffffffffffffff\n    /* \"#utility.yul\":1039:1049   */\n  dup3\n    /* \"#utility.yul\":1036:1070   */\n  gt\n    /* \"#utility.yul\":1033:1095   */\n  or\n    /* \"#utility.yul\":1030:1118   */\n  iszero\n  tag_62\n  jumpi\n    /* \"#utility.yul\":1098:1116   */\n  tag_63\n  tag_23\n  jump\t// in\ntag_63:\n    /* \"#utility.yul\":1030:1118   */\ntag_62:\n    /* \"#utility.yul\":1138:1148   */\n  dup1\n    /* \"#utility.yul\":1134:1136   */\n  0x40\n    /* \"#utility.yul\":1127:1149   */\n  mstore\n    /* \"#utility.yul\":917:1155   */\n  pop\n    /* \"#utility.yul\":874:1155   */\n  pop\n  pop\n  jump\t// out\n    /* \"#utility.yul\":1161:1290   */\ntag_25:\n    /* \"#utility.yul\":1195:1201   */\n  0x00\n    /* \"#utility.yul\":1222:1242   */\n  tag_65\n  tag_17\n  jump\t// in\ntag_65:\n    /* \"#utility.yul\":1212:1242   */\n  swap1\n  pop\n    /* \"#utility.yul\":1251:1284   */\n  tag_66\n    /* \"#utility.yul\":1279:1283   */\n  dup3\n    /* \"#utility.yul\":1271:1277   */\n  dup3\n    /* \"#utility.yul\":1251:1284   */\n  tag_24\n  jump\t// in\ntag_66:\n    /* \"#utility.yul\":1161:1290   */\n  swap2\n  swap1\n  pop\n  jump\t// out\n    /* \"#utility.yul\":1296:1604   */\ntag_26:\n    /* \"#utility.yul\":1358:1362   */\n  0x00\n    /* \"#utility.yul\":1448:1466   */\n  0xffffffffffffffff\n    /* \"#utility.yul\":1440:1446   */\n  dup3\n    /* \"#utility.yul\":1437:1467   */\n  gt\n    /* \"#utility.yul\":1434:1490   */\n  iszero\n  tag_68\n  jumpi\n    /* \"#utility.yul\":1470:1488   */\n  tag_69\n  tag_23\n  jump\t// in\ntag_69:\n    /* \"#utility.yul\":1434:1490   */\ntag_68:\n    /* \"#utility.yul\":1508:1537   */\n  tag_70\n    /* \"#utility.yul\":1530:1536   */\n  dup3\n    /* \"#utility.yul\":1508:1537   */\n  tag_22\n  jump\t// in\ntag_70:\n    /* \"#utility.yul\":1500:1537   */\n  swap1\n  pop\n    /* \"#utility.yul\":1592:1596   */\n  0x20\n    /* \"#utility.yul\":1586:1590   */\n  dup2\n    /* \"#utility.yul\":1582:1597   */\n  add\n    /* \"#utility.yul\":1574:1597   */\n  swap1\n  pop\n    /* \"#utility.yul\":1296:1604   */\n  swap2\n  swap1\n  pop\n  jump\t// out\n    /* \"#utility.yul\":1610:1749   */\ntag_27:\n    /* \"#utility.yul\":1699:1705   */\n  dup3\n    /* \"#utility.yul\":1694:1697   */\n  dup2\n    /* \"#utility.yul\":1689:1692   */\n  dup4\n    /* \"#utility.yul\":1683:1706   */\n  mcopy\n    /* \"#utility.yul\":1740:1741   */\n  0x00\n    /* \"#utility.yul\":1731:1737   */\n  dup4\n    /* \"#utility.yul\":1726:1729   */\n  dup4\n    /* \"#utility.yul\":1722:1738   */\n  add\n    /* \"#utility.yul\":1715:1742   */\n  mstore\n    /* \"#utility.yul\":1610:1749   */\n  pop\n  pop\n  pop\n  jump\t// out\n    /* \"#utility.yul\":1755:2189   */\ntag_28:\n    /* \"#utility.yul\":1844:1849   */\n  0x00\n    /* \"#utility.yul\":1869:1935   */\n  tag_73\n    /* \"#utility.yul\":1885:1934   */\n  tag_74\n    /* \"#utility.yul\":1927:1933   */\n  dup5\n    /* \"#utility.yul\":1885:1934   */\n  tag_26\n  jump\t// in\ntag_74:\n    /* \"#utility.yul\":1869:1935   */\n  tag_25\n  jump\t// in\ntag_73:\n    /* \"#utility.yul\":1860:1935   */\n  swap1\n  pop\n    /* \"#utility.yul\":1958:1964   */\n  dup3\n    /* \"#utility.yul\":1951:1956   */\n  dup2\n    /* \"#utility.yul\":1944:1965   */\n  mstore\n    /* \"#utility.yul\":1996:2000   */\n  0x20\n    /* \"#utility.yul\":1989:1994   */\n  dup2\n    /* \"#utility.yul\":1985:2001   */\n  add\n    /* \"#utility.yul\":2034:2037   */\n  dup5\n    /* \"#utility.yul\":2025:2031   */\n  dup5\n    /* \"#utility.yul\":2020:2023   */\n  dup5\n    /* \"#utility.yul\":2016:2032   */\n  add\n    /* \"#utility.yul\":2013:2038   */\n  gt\n    /* \"#utility.yul\":2010:2122   */\n  iszero\n  tag_75\n  jumpi\n    /* \"#utility.yul\":2041:2120   */\n  tag_76\n  tag_21\n  jump\t// in\ntag_76:\n    /* \"#utility.yul\":2010:2122   */\ntag_75:\n    /* \"#utility.yul\":2131:2183   */\n  tag_77\n    /* \"#utility.yul\":2176:2182   */\n  dup5\n    /* \"#utility.yul\":2171:2174   */\n  dup3\n    /* \"#utility.yul\":2166:2169   */\n  dup6\n    /* \"#utility.yul\":2131:2183   */\n  tag_27\n  jump\t// in\ntag_77:\n    /* \"#utility.yul\":1850:2189   */\n  pop\n    /* \"#utility.yul\":1755:2189   */\n  swap4\n  swap3\n  pop\n  pop\n  pop\n  jump\t// out\n    /* \"#utility.yul\":2209:2564   */\ntag_29:\n    /* \"#utility.yul\":2276:2281   */\n  0x00\n    /* \"#utility.yul\":2325:2328   */\n  dup3\n    /* \"#utility.yul\":2318:2322   */\n  0x1f\n    /* \"#utility.yul\":2310:2316   */\n  dup4\n    /* \"#utility.yul\":2306:2323   */\n  add\n    /* \"#utility.yul\":2302:2329   */\n  slt\n    /* \"#utility.yul\":2292:2414   */\n  tag_79\n  jumpi\n    /* \"#utility.yul\":2333:2412   */\n  tag_80\n  tag_20\n  jump\t// in\ntag_80:\n    /* \"#utility.yul\":2292:2414   */\ntag_79:\n    /* \"#utility.yul\":2443:2449   */\n  dup2\n    /* \"#utility.yul\":2437:2450   */\n  mload\n    /* \"#utility.yul\":2468:2558   */\n  tag_81\n    /* \"#utility.yul\":2554:2557   */\n  dup5\n    /* \"#utility.yul\":2546:2552   */\n  dup3\n    /* \"#utility.yul\":2539:2543   */\n  0x20\n    /* \"#utility.yul\":2531:2537   */\n  dup7\n    /* \"#utility.yul\":2527:2544   */\n  add\n    /* \"#utility.yul\":2468:2558   */\n  tag_28\n  jump\t// in\ntag_81:\n    /* \"#utility.yul\":2459:2558   */\n  swap2\n  pop\n    /* \"#utility.yul\":2282:2564   */\n  pop\n    /* \"#utility.yul\":2209:2564   */\n  swap3\n  swap2\n  pop\n  pop\n  jump\t// out\n    /* \"#utility.yul\":2570:2647   */\ntag_30:\n    /* \"#utility.yul\":2607:2614   */\n  0x00\n    /* \"#utility.yul\":2636:2641   */\n  dup2\n    /* \"#utility.yul\":2625:2641   */\n  swap1\n  pop\n    /* \"#utility.yul\":2570:2647   */\n  swap2\n  swap1\n  pop\n  jump\t// out\n    /* \"#utility.yul\":2653:2775   */\ntag_31:\n    /* \"#utility.yul\":2726:2750   */\n  tag_84\n    /* \"#utility.yul\":2744:2749   */\n  dup2\n    /* \"#utility.yul\":2726:2750   */\n  tag_30\n  jump\t// in\ntag_84:\n    /* \"#utility.yul\":2719:2724   */\n  dup2\n    /* \"#utility.yul\":2716:2751   */\n  eq\n    /* \"#utility.yul\":2706:2769   */\n  tag_85\n  jumpi\n    /* \"#utility.yul\":2765:2766   */\n  0x00\n    /* \"#utility.yul\":2762:2763   */\n  0x00\n    /* \"#utility.yul\":2755:2767   */\n  revert\n    /* \"#utility.yul\":2706:2769   */\ntag_85:\n    /* \"#utility.yul\":2653:2775   */\n  pop\n  jump\t// out\n    /* \"#utility.yul\":2781:2924   */\ntag_32:\n    /* \"#utility.yul\":2838:2843   */\n  0x00\n    /* \"#utility.yul\":2869:2875   */\n  dup2\n    /* \"#utility.yul\":2863:2876   */\n  mload\n    /* \"#utility.yul\":2854:2876   */\n  swap1\n  pop\n    /* \"#utility.yul\":2885:2918   */\n  tag_87\n    /* \"#utility.yul\":2912:2917   */\n  dup2\n    /* \"#utility.yul\":2885:2918   */\n  tag_31\n  jump\t// in\ntag_87:\n    /* \"#utility.yul\":2781:2924   */\n  swap3\n  swap2\n  pop\n  pop\n  jump\t// out\n    /* \"#utility.yul\":2930:4096   */\ntag_3:\n    /* \"#utility.yul\":3047:3053   */\n  0x00\n    /* \"#utility.yul\":3055:3061   */\n  0x00\n    /* \"#utility.yul\":3063:3069   */\n  0x00\n    /* \"#utility.yul\":3071:3077   */\n  0x00\n    /* \"#utility.yul\":3120:3123   */\n  0x80\n    /* \"#utility.yul\":3108:3117   */\n  dup6\n    /* \"#utility.yul\":3099:3106   */\n  dup8\n    /* \"#utility.yul\":3095:3118   */\n  sub\n    /* \"#utility.yul\":3091:3124   */\n  slt\n    /* \"#utility.yul\":3088:3208   */\n  iszero\n  tag_89\n  jumpi\n    /* \"#utility.yul\":3127:3206   */\n  tag_90\n  tag_18\n  jump\t// in\ntag_90:\n    /* \"#utility.yul\":3088:3208   */\ntag_89:\n    /* \"#utility.yul\":3268:3269   */\n  0x00\n    /* \"#utility.yul\":3257:3266   */\n  dup6\n    /* \"#utility.yul\":3253:3270   */\n  add\n    /* \"#utility.yul\":3247:3271   */\n  mload\n    /* \"#utility.yul\":3298:3316   */\n  0xffffffffffffffff\n    /* \"#utility.yul\":3290:3296   */\n  dup2\n    /* \"#utility.yul\":3287:3317   */\n  gt\n    /* \"#utility.yul\":3284:3401   */\n  iszero\n  tag_91\n  jumpi\n    /* \"#utility.yul\":3320:3399   */\n  tag_92\n  tag_19\n  jump\t// in\ntag_92:\n    /* \"#utility.yul\":3284:3401   */\ntag_91:\n    /* \"#utility.yul\":3425:3499   */\n  tag_93\n    /* \"#utility.yul\":3491:3498   */\n  dup8\n    /* \"#utility.yul\":3482:3488   */\n  dup3\n    /* \"#utility.yul\":3471:3480   */\n  dup9\n    /* \"#utility.yul\":3467:3489   */\n  add\n    /* \"#utility.yul\":3425:3499   */\n  tag_29\n  jump\t// in\ntag_93:\n    /* \"#utility.yul\":3415:3499   */\n  swap5\n  pop\n    /* \"#utility.yul\":3218:3509   */\n  pop\n    /* \"#utility.yul\":3569:3571   */\n  0x20\n    /* \"#utility.yul\":3558:3567   */\n  dup6\n    /* \"#utility.yul\":3554:3572   */\n  add\n    /* \"#utility.yul\":3548:3573   */\n  mload\n    /* \"#utility.yul\":3600:3618   */\n  0xffffffffffffffff\n    /* \"#utility.yul\":3592:3598   */\n  dup2\n    /* \"#utility.yul\":3589:3619   */\n  gt\n    /* \"#utility.yul\":3586:3703   */\n  iszero\n  tag_94\n  jumpi\n    /* \"#utility.yul\":3622:3701   */\n  tag_95\n  tag_19\n  jump\t// in\ntag_95:\n    /* \"#utility.yul\":3586:3703   */\ntag_94:\n    /* \"#utility.yul\":3727:3801   */\n  tag_96\n    /* \"#utility.yul\":3793:3800   */\n  dup8\n    /* \"#utility.yul\":3784:3790   */\n  dup3\n    /* \"#utility.yul\":3773:3782   */\n  dup9\n    /* \"#utility.yul\":3769:3791   */\n  add\n    /* \"#utility.yul\":3727:3801   */\n  tag_29\n  jump\t// in\ntag_96:\n    /* \"#utility.yul\":3717:3801   */\n  swap4\n  pop\n    /* \"#utility.yul\":3519:3811   */\n  pop\n    /* \"#utility.yul\":3850:3852   */\n  0x40\n    /* \"#utility.yul\":3876:3940   */\n  tag_97\n    /* \"#utility.yul\":3932:3939   */\n  dup8\n    /* \"#utility.yul\":3923:3929   */\n  dup3\n    /* \"#utility.yul\":3912:3921   */\n  dup9\n    /* \"#utility.yul\":3908:3930   */\n  add\n    /* \"#utility.yul\":3876:3940   */\n  tag_32\n  jump\t// in\ntag_97:\n    /* \"#utility.yul\":3866:3940   */\n  swap3\n  pop\n    /* \"#utility.yul\":3821:3950   */\n  pop\n    /* \"#utility.yul\":3989:3991   */\n  0x60\n    /* \"#utility.yul\":4015:4079   */\n  tag_98\n    /* \"#utility.yul\":4071:4078   */\n  dup8\n    /* \"#utility.yul\":4062:4068   */\n  dup3\n    /* \"#utility.yul\":4051:4060   */\n  dup9\n    /* \"#utility.yul\":4047:4069   */\n  add\n    /* \"#utility.yul\":4015:4079   */\n  tag_32\n  jump\t// in\ntag_98:\n    /* \"#utility.yul\":4005:4079   */\n  swap2\n  pop\n    /* \"#utility.yul\":3960:4089   */\n  pop\n    /* \"#utility.yul\":2930:4096   */\n  swap3\n  swap6\n  swap2\n  swap5\n  pop\n  swap3\n  pop\n  jump\t// out\n    /* \"#utility.yul\":4102:4201   */\ntag_33:\n    /* \"#utility.yul\":4154:4160   */\n  0x00\n    /* \"#utility.yul\":4188:4193   */\n  dup2\n    /* \"#utility.yul\":4182:4194   */\n  mload\n    /* \"#utility.yul\":4172:4194   */\n  swap1\n  pop\n    /* \"#utility.yul\":4102:4201   */\n  swap2\n  swap1\n  pop\n  jump\t// out\n    /* \"#utility.yul\":4207:4387   */\ntag_34:\n    /* \"#utility.yul\":4255:4332   */\n  0x4e487b7100000000000000000000000000000000000000000000000000000000\n    /* \"#utility.yul\":4252:4253   */\n  0x00\n    /* \"#utility.yul\":4245:4333   */\n  mstore\n    /* \"#utility.yul\":4352:4356   */\n  0x22\n    /* \"#utility.yul\":4349:4350   */\n  0x04\n    /* \"#utility.yul\":4342:4357   */\n  mstore\n    /* \"#utility.yul\":4376:4380   */\n  0x24\n    /* \"#utility.yul\":4373:4374   */\n  0x00\n    /* \"#utility.yul\":4366:4381   */\n  revert\n    /* \"#utility.yul\":4393:4713   */\ntag_35:\n    /* \"#utility.yul\":4437:4443   */\n  0x00\n    /* \"#utility.yul\":4474:4475   */\n  0x02\n    /* \"#utility.yul\":4468:4472   */\n  dup3\n    /* \"#utility.yul\":4464:4476   */\n  div\n    /* \"#utility.yul\":4454:4476   */\n  swap1\n  pop\n    /* \"#utility.yul\":4521:4522   */\n  0x01\n    /* \"#utility.yul\":4515:4519   */\n  dup3\n    /* \"#utility.yul\":4511:4523   */\n  and\n    /* \"#utility.yul\":4542:4560   */\n  dup1\n    /* \"#utility.yul\":4532:4613   */\n  tag_102\n  jumpi\n    /* \"#utility.yul\":4598:4602   */\n  0x7f\n    /* \"#utility.yul\":4590:4596   */\n  dup3\n    /* \"#utility.yul\":4586:4603   */\n  and\n    /* \"#utility.yul\":4576:4603   */\n  swap2\n  pop\n    /* \"#utility.yul\":4532:4613   */\ntag_102:\n    /* \"#utility.yul\":4660:4662   */\n  0x20\n    /* \"#utility.yul\":4652:4658   */\n  dup3\n    /* \"#utility.yul\":4649:4663   */\n  lt\n    /* \"#utility.yul\":4629:4647   */\n  dup2\n    /* \"#utility.yul\":4626:4664   */\n  sub\n    /* \"#utility.yul\":4623:4707   */\n  tag_103\n  jumpi\n    /* \"#utility.yul\":4679:4697   */\n  tag_104\n  tag_34\n  jump\t// in\ntag_104:\n    /* \"#utility.yul\":4623:4707   */\ntag_103:\n    /* \"#utility.yul\":4444:4713   */\n  pop\n    /* \"#utility.yul\":4393:4713   */\n  swap2\n  swap1\n  pop\n  jump\t// out\n    /* \"#utility.yul\":4719:4860   */\ntag_36:\n    /* \"#utility.yul\":4768:4772   */\n  0x00\n    /* \"#utility.yul\":4791:4794   */\n  dup2\n    /* \"#utility.yul\":4783:4794   */\n  swap1\n  pop\n    /* \"#utility.yul\":4814:4817   */\n  dup2\n    /* \"#utility.yul\":4811:4812   */\n  0x00\n    /* \"#utility.yul\":4804:4818   */\n  mstore\n    /* \"#utility.yul\":4848:4852   */\n  0x20\n    /* \"#utility.yul\":4845:4846   */\n  0x00\n    /* \"#utility.yul\":4835:4853   */\n  keccak256\n    /* \"#utility.yul\":4827:4853   */\n  swap1\n  pop\n    /* \"#utility.yul\":4719:4860   */\n  swap2\n  swap1\n  pop\n  jump\t// out\n    /* \"#utility.yul\":4866:4959   */\ntag_37:\n    /* \"#utility.yul\":4903:4909   */\n  0x00\n    /* \"#utility.yul\":4950:4952   */\n  0x20\n    /* \"#utility.yul\":4945:4947   */\n  0x1f\n    /* \"#utility.yul\":4938:4943   */\n  dup4\n    /* \"#utility.yul\":4934:4948   */\n  add\n    /* \"#utility.yul\":4930:4953   */\n  div\n    /* \"#utility.yul\":4920:4953   */\n  swap1\n  pop\n    /* \"#utility.yul\":4866:4959   */\n  swap2\n  swap1\n  pop\n  jump\t// out\n    /* \"#utility.yul\":4965:5072   */\ntag_38:\n    /* \"#utility.yul\":5009:5017   */\n  0x00\n    /* \"#utility.yul\":5059:5064   */\n  dup3\n    /* \"#utility.yul\":5053:5057   */\n  dup3\n    /* \"#utility.yul\":5049:5065   */\n  shl\n    /* \"#utility.yul\":5028:5065   */\n  swap1\n  pop\n    /* \"#utility.yul\":4965:5072   */\n  swap3\n  swap2\n  pop\n  pop\n  jump\t// out\n    /* \"#utility.yul\":5078:5471   */\ntag_39:\n    /* \"#utility.yul\":5147:5153   */\n  0x00\n    /* \"#utility.yul\":5197:5198   */\n  0x08\n    /* \"#utility.yul\":5185:5195   */\n  dup4\n    /* \"#utility.yul\":5181:5199   */\n  mul\n    /* \"#utility.yul\":5220:5317   */\n  tag_109\n    /* \"#utility.yul\":5250:5316   */\n  0xffffffffffffffffffffffffffffffffffffffffffffffffffffffffffffffff\n    /* \"#utility.yul\":5239:5248   */\n  dup3\n    /* \"#utility.yul\":5220:5317   */\n  tag_38\n  jump\t// in\ntag_109:\n    /* \"#utility.yul\":5338:5377   */\n  tag_110\n    /* \"#utility.yul\":5368:5376   */\n  dup7\n    /* \"#utility.yul\":5357:5366   */\n  dup4\n    /* \"#utility.yul\":5338:5377   */\n  tag_38\n  jump\t// in\ntag_110:\n    /* \"#utility.yul\":5326:5377   */\n  swap6\n  pop\n    /* \"#utility.yul\":5410:5414   */\n  dup1\n    /* \"#utility.yul\":5406:5415   */\n  not\n    /* \"#utility.yul\":5399:5404   */\n  dup5\n    /* \"#utility.yul\":5395:5416   */\n  and\n    /* \"#utility.yul\":5386:5416   */\n  swap4\n  pop\n    /* \"#utility.yul\":5459:5463   */\n  dup1\n    /* \"#utility.yul\":5449:5457   */\n  dup7\n    /* \"#utility.yul\":5445:5464   */\n  and\n    /* \"#utility.yul\":5438:5443   */\n  dup5\n    /* \"#utility.yul\":5435:5465   */\n  or\n    /* \"#utility.yul\":5425:5465   */\n  swap3\n  pop\n    /* \"#utility.yul\":5154:5471   */\n  pop\n  pop\n    /* \"#utility.yul\":5078:5471   */\n  swap4\n  swap3\n  pop\n  pop\n  pop\n  jump\t// out\n    /* \"#utility.yul\":5477:5537   */\ntag_40:\n    /* \"#utility.yul\":5505:5508   */\n  0x00\n    /* \"#utility.yul\":5526:5531   */\n  dup2\n    /* \"#utility.yul\":5519:5531   */\n  swap1\n  pop\n    /* \"#utility.yul\":5477:5537   */\n  swap2\n  swap1\n  pop\n  jump\t// out\n    /* \"#utility.yul\":5543:5685   */\ntag_41:\n    /* \"#utility.yul\":5593:5602   */\n  0x00\n    /* \"#utility.yul\":5626:5679   */\n  tag_113\n    /* \"#utility.yul\":5644:5678   */\n  tag_114\n    /* \"#utility.yul\":5653:5677   */\n  tag_115\n    /* \"#utility.yul\":5671:5676   */\n  dup5\n    /* \"#utility.yul\":5653:5677   */\n  tag_30\n  jump\t// in\ntag_115:\n    /* \"#utility.yul\":5644:5678   */\n  tag_40\n  jump\t// in\ntag_114:\n    /* \"#utility.yul\":5626:5679   */\n  tag_30\n  jump\t// in\ntag_113:\n    /* \"#utility.yul\":5613:5679   */\n  swap1\n  pop\n    /* \"#utility.yul\":5543:5685   */\n  swap2\n  swap1\n  pop\n  jump\t// out\n    /* \"#utility.yul\":5691:5766   */\ntag_42:\n    /* \"#utility.yul\":5734:5737   */\n  0x00\n    /* \"#utility.yul\":5755:5760   */\n  dup2\n    /* \"#utility.yul\":5748:5760   */\n  swap1\n  pop\n    /* \"#utility.yul\":5691:5766   */\n  swap2\n  swap1\n  pop\n  jump\t// out\n    /* \"#utility.yul\":5772:6041   */\ntag_43:\n    /* \"#utility.yul\":5882:5921   */\n  tag_118\n    /* \"#utility.yul\":5913:5920   */\n  dup4\n    /* \"#utility.yul\":5882:5921   */\n  tag_41\n  jump\t// in\ntag_118:\n    /* \"#utility.yul\":5943:6034   */\n  tag_119\n    /* \"#utility.yul\":5992:6033   */\n  tag_120\n    /* \"#utility.yul\":6016:6032   */\n  dup3\n    /* \"#utility.yul\":5992:6033   */\n  tag_42\n  jump\t// in\ntag_120:\n    /* \"#utility.yul\":5984:5990   */\n  dup5\n    /* \"#utility.yul\":5977:5981   */\n  dup5\n    /* \"#utility.yul\":5971:5982   */\n  sload\n    /* \"#utility.yul\":5943:6034   */\n  tag_39\n  jump\t// in\ntag_119:\n    /* \"#utility.yul\":5937:5941   */\n  dup3\n    /* \"#utility.yul\":5930:6035   */\n  sstore\n    /* \"#utility.yul\":5848:6041   */\n  pop\n    /* \"#utility.yul\":5772:6041   */\n  pop\n  pop\n  pop\n  jump\t// out\n    /* \"#utility.yul\":6047:6120   */\ntag_44:\n    /* \"#utility.yul\":6092:6095   */\n  0x00\n    /* \"#utility.yul\":6113:6114   */\n  0x00\n    /* \"#utility.yul\":6106:6114   */\n  swap1\n  pop\n    /* \"#utility.yul\":6047:6120   */\n  swap1\n  jump\t// out\n    /* \"#utility.yul\":6126:6315   */\ntag_45:\n    /* \"#utility.yul\":6203:6235   */\n  tag_123\n  tag_44\n  jump\t// in\ntag_123:\n    /* \"#utility.yul\":6244:6309   */\n  tag_124\n    /* \"#utility.yul\":6302:6308   */\n  dup2\n    /* \"#utility.yul\":6294:6300   */\n  dup5\n    /* \"#utility.yul\":6288:6292   */\n  dup5\n    /* \"#utility.yul\":6244:6309   */\n  tag_43\n  jump\t// in\ntag_124:\n    /* \"#utility.yul\":6179:6315   */\n  pop\n    /* \"#utility.yul\":6126:6315   */\n  pop\n  pop\n  jump\t// out\n    /* \"#utility.yul\":6321:6507   */\ntag_46:\n    /* \"#utility.yul\":6381:6501   */\ntag_126:\n    /* \"#utility.yul\":6398:6401   */\n  dup2\n    /* \"#utility.yul\":6391:6396   */\n  dup2\n    /* \"#utility.yul\":6388:6402   */\n  lt\n    /* \"#utility.yul\":6381:6501   */\n  iszero\n  tag_128\n  jumpi\n    /* \"#utility.yul\":6452:6491   */\n  tag_129\n    /* \"#utility.yul\":6489:6490   */\n  0x00\n    /* \"#utility.yul\":6482:6487   */\n  dup3\n    /* \"#utility.yul\":6452:6491   */\n  tag_45\n  jump\t// in\ntag_129:\n    /* \"#utility.yul\":6425:6426   */\n  0x01\n    /* \"#utility.yul\":6418:6423   */\n  dup2\n    /* \"#utility.yul\":6414:6427   */\n  add\n    /* \"#utility.yul\":6405:6427   */\n  swap1\n  pop\n    /* \"#utility.yul\":6381:6501   */\n  jump(tag_126)\ntag_128:\n    /* \"#utility.yul\":6321:6507   */\n  pop\n  pop\n  jump\t// out\n    /* \"#utility.yul\":6513:7056   */\ntag_47:\n    /* \"#utility.yul\":6614:6616   */\n  0x1f\n    /* \"#utility.yul\":6609:6612   */\n  dup3\n    /* \"#utility.yul\":6606:6617   */\n  gt\n    /* \"#utility.yul\":6603:7049   */\n  iszero\n  tag_131\n  jumpi\n    /* \"#utility.yul\":6648:6686   */\n  tag_132\n    /* \"#utility.yul\":6680:6685   */\n  dup2\n    /* \"#utility.yul\":6648:6686   */\n  tag_36\n  jump\t// in\ntag_132:\n    /* \"#utility.yul\":6732:6761   */\n  tag_133\n    /* \"#utility.yul\":6750:6760   */\n  dup5\n    /* \"#utility.yul\":6732:6761   */\n  tag_37\n  jump\t// in\ntag_133:\n    /* \"#utility.yul\":6722:6730   */\n  dup2\n    /* \"#utility.yul\":6718:6762   */\n  add\n    /* \"#utility.yul\":6915:6917   */\n  0x20\n    /* \"#utility.yul\":6903:6913   */\n  dup6\n    /* \"#utility.yul\":6900:6918   */\n  lt\n    /* \"#utility.yul\":6897:6946   */\n  iszero\n  tag_134\n  jumpi\n    /* \"#utility.yul\":6936:6944   */\n  dup2\n    /* \"#utility.yul\":6921:6944   */\n  swap1\n  pop\n    /* \"#utility.yul\":6897:6946   */\ntag_134:\n    /* \"#utility.yul\":6959:7039   */\n  tag_135\n    /* \"#utility.yul\":7015:7037   */\n  tag_136\n    /* \"#utility.yul\":7033:7036   */\n  dup6\n    /* \"#utility.yul\":7015:7037   */\n  tag_37\n  jump\t// in\ntag_136:\n    /* \"#utility.yul\":7005:7013   */\n  dup4\n    /* \"#utility.yul\":7001:7038   */\n  add\n    /* \"#utility.yul\":6988:6999   */\n  dup3\n    /* \"#utility.yul\":6959:7039   */\n  tag_46\n  jump\t// in\ntag_135:\n    /* \"#utility.yul\":6618:7049   */\n  pop\n  pop\n    /* \"#utility.yul\":6603:7049   */\ntag_131:\n    /* \"#utility.yul\":6513:7056   */\n  pop\n  pop\n  pop\n  jump\t// out\n    /* \"#utility.yul\":7062:7179   */\ntag_48:\n    /* \"#utility.yul\":7116:7124   */\n  0x00\n    /* \"#utility.yul\":7166:7171   */\n  dup3\n    /* \"#utility.yul\":7160:7164   */\n  dup3\n    /* \"#utility.yul\":7156:7172   */\n  shr\n    /* \"#utility.yul\":7135:7172   */\n  swap1\n  pop\n    /* \"#utility.yul\":7062:7179   */\n  swap3\n  swap2\n  pop\n  pop\n  jump\t// out\n    /* \"#utility.yul\":7185:7354   */\ntag_49:\n    /* \"#utility.yul\":7229:7235   */\n  0x00\n    /* \"#utility.yul\":7262:7313   */\n  tag_139\n    /* \"#utility.yul\":7310:7311   */\n  0x00\n    /* \"#utility.yul\":7306:7312   */\n  not\n    /* \"#utility.yul\":7298:7303   */\n  dup5\n    /* \"#utility.yul\":7295:7296   */\n  0x08\n    /* \"#utility.yul\":7291:7304   */\n  mul\n    /* \"#utility.yul\":7262:7313   */\n  tag_48\n  jump\t// in\ntag_139:\n    /* \"#utility.yul\":7258:7314   */\n  not\n    /* \"#utility.yul\":7343:7347   */\n  dup1\n    /* \"#utility.yul\":7337:7341   */\n  dup4\n    /* \"#utility.yul\":7333:7348   */\n  and\n    /* \"#utility.yul\":7323:7348   */\n  swap2\n  pop\n    /* \"#utility.yul\":7236:7354   */\n  pop\n    /* \"#utility.yul\":7185:7354   */\n  swap3\n  swap2\n  pop\n  pop\n  jump\t// out\n    /* \"#utility.yul\":7359:7654   */\ntag_50:\n    /* \"#utility.yul\":7435:7439   */\n  0x00\n    /* \"#utility.yul\":7581:7610   */\n  tag_141\n    /* \"#utility.yul\":7606:7609   */\n  dup4\n    /* \"#utility.yul\":7600:7604   */\n  dup4\n    /* \"#utility.yul\":7581:7610   */\n  tag_49\n  jump\t// in\ntag_141:\n    /* \"#utility.yul\":7573:7610   */\n  swap2\n  pop\n    /* \"#utility.yul\":7643:7646   */\n  dup3\n    /* \"#utility.yul\":7640:7641   */\n  0x02\n    /* \"#utility.yul\":7636:7647   */\n  mul\n    /* \"#utility.yul\":7630:7634   */\n  dup3\n    /* \"#utility.yul\":7627:7648   */\n  or\n    /* \"#utility.yul\":7619:7648   */\n  swap1\n  pop\n    /* \"#utility.yul\":7359:7654   */\n  swap3\n  swap2\n  pop\n  pop\n  jump\t// out\n    /* \"#utility.yul\":7659:9054   */\ntag_7:\n    /* \"#utility.yul\":7776:7813   */\n  tag_143\n    /* \"#utility.yul\":7809:7812   */\n  dup3\n    /* \"#utility.yul\":7776:7813   */\n  tag_33\n  jump\t// in\ntag_143:\n    /* \"#utility.yul\":7878:7896   */\n  0xffffffffffffffff\n    /* \"#utility.yul\":7870:7876   */\n  dup2\n    /* \"#utility.yul\":7867:7897   */\n  gt\n    /* \"#utility.yul\":7864:7920   */\n  iszero\n  tag_144\n  jumpi\n    /* \"#utility.yul\":7900:7918   */\n  tag_145\n  tag_23\n  jump\t// in\ntag_145:\n    /* \"#utility.yul\":7864:7920   */\ntag_144:\n    /* \"#utility.yul\":7944:7982   */\n  tag_146\n    /* \"#utility.yul\":7976:7980   */\n  dup3\n    /* \"#utility.yul\":7970:7981   */\n  sload\n    /* \"#utility.yul\":7944:7982   */\n  tag_35\n  jump\t// in\ntag_146:\n    /* \"#utility.yul\":8029:8096   */\n  tag_147\n    /* \"#utility.yul\":8089:8095   */\n  dup3\n    /* \"#utility.yul\":8081:8087   */\n  dup3\n    /* \"#utility.yul\":8075:8079   */\n  dup6\n    /* \"#utility.yul\":8029:8096   */\n  tag_47\n  jump\t// in\ntag_147:\n    /* \"#utility.yul\":8123:8124   */\n  0x00\n    /* \"#utility.yul\":8147:8151   */\n  0x20\n    /* \"#utility.yul\":8134:8151   */\n  swap1\n  pop\n    /* \"#utility.yul\":8179:8181   */\n  0x1f\n    /* \"#utility.yul\":8171:8177   */\n  dup4\n    /* \"#utility.yul\":8168:8182   */\n  gt\n    /* \"#utility.yul\":8196:8197   */\n  0x01\n    /* \"#utility.yul\":8191:8809   */\n  dup2\n  eq\n  tag_149\n  jumpi\n    /* \"#utility.yul\":8853:8854   */\n  0x00\n    /* \"#utility.yul\":8870:8876   */\n  dup5\n    /* \"#utility.yul\":8867:8944   */\n  iszero\n  tag_150\n  jumpi\n    /* \"#utility.yul\":8919:8928   */\n  dup3\n    /* \"#utility.yul\":8914:8917   */\n  dup8\n    /* \"#utility.yul\":8910:8929   */\n  add\n    /* \"#utility.yul\":8904:8930   */\n  mload\n    /* \"#utility.yul\":8895:8930   */\n  swap1\n  pop\n    /* \"#utility.yul\":8867:8944   */\ntag_150:\n    /* \"#utility.yul\":8970:9037   */\n  tag_151\n    /* \"#utility.yul\":9030:9036   */\n  dup6\n    /* \"#utility.yul\":9023:9028   */\n  dup3\n    /* \"#utility.yul\":8970:9037   */\n  tag_50\n  jump\t// in\ntag_151:\n    /* \"#utility.yul\":8964:8968   */\n  dup7\n    /* \"#utility.yul\":8957:9038   */\n  sstore\n    /* \"#utility.yul\":8826:9048   */\n  pop\n    /* \"#utility.yul\":8161:9048   */\n  jump(tag_148)\n    /* \"#utility.yul\":8191:8809   */\ntag_149:\n    /* \"#utility.yul\":8243:8247   */\n  0x1f\n    /* \"#utility.yul\":8239:8248   */\n  not\n    /* \"#utility.yul\":8231:8237   */\n  dup5\n    /* \"#utility.yul\":8227:8249   */\n  and\n    /* \"#utility.yul\":8277:8314   */\n  tag_152\n    /* \"#utility.yul\":8309:8313   */\n  dup7\n    /* \"#utility.yul\":8277:8314   */\n  tag_36\n  jump\t// in\ntag_152:\n    /* \"#utility.yul\":8336:8337   */\n  0x00\n    /* \"#utility.yul\":8350:8558   */\ntag_153:\n    /* \"#utility.yul\":8364:8371   */\n  dup3\n    /* \"#utility.yul\":8361:8362   */\n  dup2\n    /* \"#utility.yul\":8358:8372   */\n  lt\n    /* \"#utility.yul\":8350:8558   */\n  iszero\n  tag_155\n  jumpi\n    /* \"#utility.yul\":8443:8452   */\n  dup5\n    /* \"#utility.yul\":8438:8441   */\n  dup10\n    /* \"#utility.yul\":8434:8453   */\n  add\n    /* \"#utility.yul\":8428:8454   */\n  mload\n    /* \"#utility.yul\":8420:8426   */\n  dup3\n    /* \"#utility.yul\":8413:8455   */\n  sstore\n    /* \"#utility.yul\":8494:8495   */\n  0x01\n    /* \"#utility.yul\":8486:8492   */\n  dup3\n    /* \"#utility.yul\":8482:8496   */\n  add\n    /* \"#utility.yul\":8472:8496   */\n  swap2\n  pop\n    /* \"#utility.yul\":8541:8543   */\n  0x20\n    /* \"#utility.yul\":8530:8539   */\n  dup6\n    /* \"#utility.yul\":8526:8544   */\n  add\n    /* \"#utility.yul\":8513:8544   */\n  swap5\n  pop\n    /* \"#utility.yul\":8387:8391   */\n  0x20\n    /* \"#utility.yul\":8384:8385   */\n  dup2\n    /* \"#utility.yul\":8380:8392   */\n  add\n    /* \"#utility.yul\":8375:8392   */\n  swap1\n  pop\n    /* \"#utility.yul\":8350:8558   */\n  jump(tag_153)\ntag_155:\n    /* \"#utility.yul\":8586:8592   */\n  dup7\n    /* \"#utility.yul\":8577:8584   */\n  dup4\n    /* \"#utility.yul\":8574:8593   */\n  lt\n    /* \"#utility.yul\":8571:8750   */\n  iszero\n  tag_156\n  jumpi\n    /* \"#utility.yul\":8644:8653   */\n  dup5\n    /* \"#utility.yul\":8639:8642   */\n  dup10\n    /* \"#utility.yul\":8635:8654   */\n  add\n    /* \"#utility.yul\":8629:8655   */\n  mload\n    /* \"#utility.yul\":8687:8735   */\n  tag_157\n    /* \"#utility.yul\":8729:8733   */\n  0x1f\n    /* \"#utility.yul\":8721:8727   */\n  dup10\n    /* \"#utility.yul\":8717:8734   */\n  and\n    /* \"#utility.yul\":8706:8715   */\n  dup3\n    /* \"#utility.yul\":8687:8735   */\n  tag_49\n  jump\t// in\ntag_157:\n    /* \"#utility.yul\":8679:8685   */\n  dup4\n    /* \"#utility.yul\":8672:8736   */\n  sstore\n    /* \"#utility.yul\":8594:8750   */\n  pop\n    /* \"#utility.yul\":8571:8750   */\ntag_156:\n    /* \"#utility.yul\":8796:8797   */\n  0x01\n    /* \"#utility.yul\":8792:8793   */\n  0x02\n    /* \"#utility.yul\":8784:8790   */\n  dup9\n    /* \"#utility.yul\":8780:8794   */\n  mul\n    /* \"#utility.yul\":8776:8798   */\n  add\n    /* \"#utility.yul\":8770:8774   */\n  dup9\n    /* \"#utility.yul\":8763:8799   */\n  sstore\n    /* \"#utility.yul\":8198:8809   */\n  pop\n  pop\n  pop\n    /* \"#utility.yul\":8161:9048   */\ntag_148:\n  pop\n    /* \"#utility.yul\":7751:9054   */\n  pop\n  pop\n  pop\n    /* \"#utility.yul\":7659:9054   */\n  pop\n  pop\n  jump\t// out\n    /* \"#utility.yul\":9060:9240   */\ntag_51:\n    /* \"#utility.yul\":9108:9185   */\n  0x4e487b7100000000000000000000000000000000000000000000000000000000\n    /* \"#utility.yul\":9105:9106   */\n  0x00\n    /* \"#utility.yul\":9098:9186   */\n  mstore\n    /* \"#utility.yul\":9205:9209   */\n  0x11\n    /* \"#utility.yul\":9202:9203   */\n  0x04\n    /* \"#utility.yul\":9195:9210   */\n  mstore\n    /* \"#utility.yul\":9229:9233   */\n  0x24\n    /* \"#utility.yul\":9226:9227   */\n  0x00\n    /* \"#utility.yul\":9219:9234   */\n  revert\n    /* \"#utility.yul\":9246:9656   */\ntag_10:\n    /* \"#utility.yul\":9286:9293   */\n  0x00\n    /* \"#utility.yul\":9309:9329   */\n  tag_160\n    /* \"#utility.yul\":9327:9328   */\n  dup3\n    /* \"#utility.yul\":9309:9329   */\n  tag_30\n  jump\t// in\ntag_160:\n    /* \"#utility.yul\":9304:9329   */\n  swap2\n  pop\n    /* \"#utility.yul\":9343:9363   */\n  tag_161\n    /* \"#utility.yul\":9361:9362   */\n  dup4\n    /* \"#utility.yul\":9343:9363   */\n  tag_30\n  jump\t// in\ntag_161:\n    /* \"#utility.yul\":9338:9363   */\n  swap3\n  pop\n    /* \"#utility.yul\":9398:9399   */\n  dup3\n    /* \"#utility.yul\":9395:9396   */\n  dup3\n    /* \"#utility.yul\":9391:9400   */\n  mul\n    /* \"#utility.yul\":9420:9450   */\n  tag_162\n    /* \"#utility.yul\":9438:9449   */\n  dup2\n    /* \"#utility.yul\":9420:9450   */\n  tag_30\n  jump\t// in\ntag_162:\n    /* \"#utility.yul\":9409:9450   */\n  swap2\n  pop\n    /* \"#utility.yul\":9599:9600   */\n  dup3\n    /* \"#utility.yul\":9590:9597   */\n  dup3\n    /* \"#utility.yul\":9586:9601   */\n  div\n    /* \"#utility.yul\":9583:9584   */\n  dup5\n    /* \"#utility.yul\":9580:9602   */\n  eq\n    /* \"#utility.yul\":9560:9561   */\n  dup4\n    /* \"#utility.yul\":9553:9562   */\n  iszero\n    /* \"#utility.yul\":9533:9616   */\n  or\n    /* \"#utility.yul\":9510:9649   */\n  tag_163\n  jumpi\n    /* \"#utility.yul\":9629:9647   */\n  tag_164\n  tag_51\n  jump\t// in\ntag_164:\n    /* \"#utility.yul\":9510:9649   */\ntag_163:\n    /* \"#utility.yul\":9294:9656   */\n  pop\n    /* \"#utility.yul\":9246:9656   */\n  swap3\n  swap2\n  pop\n  pop\n  jump\t// out\n    /* \"#utility.yul\":9662:9853   */\ntag_12:\n    /* \"#utility.yul\":9702:9705   */\n  0x00\n    /* \"#utility.yul\":9721:9741   */\n  tag_166\n    /* \"#utility.yul\":9739:9740   */\n  dup3\n    /* \"#utility.yul\":9721:9741   */\n  tag_30\n  jump\t// in\ntag_166:\n    /* \"#utility.yul\":9716:9741   */\n  swap2\n  pop\n    /* \"#utility.yul\":9755:9775   */\n  tag_167\n    /* \"#utility.yul\":9773:9774   */\n  dup4\n    /* \"#utility.yul\":9755:9775   */\n  tag_30\n  jump\t// in\ntag_167:\n    /* \"#utility.yul\":9750:9775   */\n  swap3\n  pop\n    /* \"#utility.yul\":9798:9799   */\n  dup3\n    /* \"#utility.yul\":9795:9796   */\n  dup3\n    /* \"#utility.yul\":9791:9800   */\n  add\n    /* \"#utility.yul\":9784:9800   */\n  swap1\n  pop\n    /* \"#utility.yul\":9819:9822   */\n  dup1\n    /* \"#utility.yul\":9816:9817   */\n  dup3\n    /* \"#utility.yul\":9813:9823   */\n  gt\n    /* \"#utility.yul\":9810:9846   */\n  iszero\n  tag_168\n  jumpi\n    /* \"#utility.yul\":9826:9844   */\n  tag_169\n  tag_51\n  jump\t// in\ntag_169:\n    /* \"#utility.yul\":9810:9846   */\ntag_168:\n    /* \"#utility.yul\":9662:9853   */\n  swap3\n  swap2\n  pop\n  pop\n  jump\t// out\n    /* \"#utility.yul\":9859:10039   */\ntag_15:\n    /* \"#utility.yul\":9907:9984   */\n  0x4e487b7100000000000000000000000000000000000000000000000000000000\n    /* \"#utility.yul\":9904:9905   */\n  0x00\n    /* \"#utility.yul\":9897:9985   */\n  mstore\n    /* \"#utility.yul\":10004:10008   */\n  0x21\n    /* \"#utility.yul\":10001:10002   */\n  0x04\n    /* \"#utility.yul\":9994:10009   */\n  mstore\n    /* \"#utility.yul\":10028:10032   */\n  0x24\n    /* \"#utility.yul\":10025:10026   */\n  0x00\n    /* \"#utility.yul\":10018:10033   */\n  revert\n    /* \"contracts/CroudFunding.sol\":57:3547  contract CroudFunding {... */\ntag_16:\n  dataSize(sub_0)\n  dup1\n  dataOffset(sub_0)\n  0x00\n  codecopy\n  0x00\n  return\nstop\n\nsub_0: assembly {\n        /* \"contracts/CroudFunding.sol\":57:3547  contract CroudFunding {... */\n      mstore(0x40, 0x80)\n      jumpi(tag_1, lt(calldatasize, 0x04))\n      shr(0xe0, calldataload(0x00))\n      dup1\n      0x7284e416\n      gt\n      tag_17\n      jumpi\n      dup1\n      0x8ece7b91\n      gt\n      tag_18\n      jumpi\n      dup1\n      0x8ece7b91\n      eq\n      tag_13\n      jumpi\n      dup1\n      0xb85dfb80\n      eq\n      tag_14\n      jumpi\n      dup1\n      0xc19d93fb\n      eq\n      tag_15\n      jumpi\n      dup1\n      0xca1d209d\n      eq\n      tag_16\n      jumpi\n      jump(tag_1)\n    tag_18:\n      dup1\n      0x7284e416\n      eq\n      tag_9\n      jumpi\n      dup1\n      0x7497211b\n      eq\n      tag_10\n      jumpi\n      dup1\n      0x7adba527\n      eq\n      tag_11\n      jumpi\n      dup1\n      0x8da5cb5b\n      eq\n      tag_12\n      jumpi\n      jump(tag_1)\n    tag_17:\n      dup1\n      0x3ccfd60b\n      gt\n      tag_19\n      jumpi\n      dup1\n      0x3ccfd60b\n      eq\n      tag_5\n      jumpi\n      dup1\n      0x40193883\n      eq\n      tag_6\n      jumpi\n      dup1\n      0x590e1ae3\n      eq\n      tag_7\n      jumpi\n      dup1\n      0x6f9fb98a\n      eq\n      tag_8\n      jumpi\n      jump(tag_1)\n    tag_19:\n      dup1\n      0x039af9eb\n      eq\n      tag_2\n      jumpi\n      dup1\n      0x06fdde03\n      eq\n      tag_3\n      jumpi\n      dup1\n      0x29dcb0cf\n      eq\n      tag_4\n      jumpi\n    tag_1:\n      revert(0x00, 0x00)\n        /* \"contracts/CroudFunding.sol\":511:530  Tier[] public tiers */\n    tag_2:\n      callvalue\n      dup1\n      iszero\n      tag_20\n      jumpi\n      revert(0x00, 0x00)\n    tag_20:\n      pop\n      tag_21\n      0x04\n      dup1\n      calldatasize\n      sub\n      dup2\n      add\n      swap1\n      tag_22\n      swap2\n      swap1\n      tag_23\n      jump\t// in\n    tag_22:\n      tag_24\n      jump\t// in\n    tag_21:\n      mload(0x40)\n      tag_25\n      swap4\n      swap3\n      swap2\n      swap1\n      tag_26\n      jump\t// in\n    tag_25:\n      mload(0x40)\n      dup1\n      swap2\n      sub\n      swap1\n      return\n        /* \"contracts/CroudFunding.sol\":85:103  string public name */\n    tag_3:\n      callvalue\n      dup1\n      iszero\n      tag_27\n      jumpi\n      revert(0x00, 0x00)\n    tag_27:\n      pop\n      tag_28\n      tag_29\n      jump\t// in\n    tag_28:\n      mload(0x40)\n      tag_30\n      swap2\n      swap1\n      tag_31\n      jump\t// in\n    tag_30:\n      mload(0x40)\n      dup1\n      swap2\n      sub\n      swap1\n      return\n        /* \"contracts/CroudFunding.sol\":166:189  uint256 public deadline */\n    tag_4:\n      callvalue\n      dup1\n      iszero\n      tag_32\n      jumpi\n      revert(0x00, 0x00)\n    tag_32:\n      pop\n      tag_33\n      tag_34\n      jump\t// in\n    tag_33:\n      mload(0x40)\n      tag_35\n      swap2\n      swap1\n      tag_36\n      jump\t// in\n    tag_35:\n      mload(0x40)\n      dup1\n      swap2\n      sub\n      swap1\n      return\n        /* \"contracts/CroudFunding.sol\":2533:2843  function withdraw() public onlyOwner{... */\n    tag_5:\n      callvalue\n      dup1\n      iszero\n      tag_37\n      jumpi\n      revert(0x00, 0x00)\n    tag_37:\n      pop\n      tag_38\n      tag_39\n      jump\t// in\n    tag_38:\n      stop\n        /* \"contracts/CroudFunding.sol\":141:160  uint256 public goal */\n    tag_6:\n      callvalue\n      dup1\n      iszero\n      tag_40\n      jumpi\n      revert(0x00, 0x00)\n    tag_40:\n      pop\n      tag_41\n      tag_42\n      jump\t// in\n    tag_41:\n      mload(0x40)\n      tag_43\n      swap2\n      swap1\n      tag_36\n      jump\t// in\n    tag_43:\n      mload(0x40)\n      dup1\n      swap2\n      sub\n      swap1\n      return\n        /* \"contracts/CroudFunding.sol\":2976:3367  function refund() public {... */\n    tag_7:\n      callvalue\n      dup1\n      iszero\n      tag_44\n      jumpi\n      revert(0x00, 0x00)\n    tag_44:\n      pop\n      tag_45\n      tag_46\n      jump\t// in\n    tag_45:\n      stop\n        /* \"contracts/CroudFunding.sol\":2853:2966  function getContractBalance() public view returns (uint256) {... */\n    tag_8:\n      callvalue\n      dup1\n      iszero\n      tag_47\n      jumpi\n      revert(0x00, 0x00)\n    tag_47:\n      pop\n      tag_48\n      tag_49\n      jump\t// in\n    tag_48:\n      mload(0x40)\n      tag_50\n      swap2\n      swap1\n      tag_36\n      jump\t// in\n    tag_50:\n      mload(0x40)\n      dup1\n      swap2\n      sub\n      swap1\n      return\n        /* \"contracts/CroudFunding.sol\":109:135  string  public description */\n    tag_9:\n      callvalue\n      dup1\n      iszero\n      tag_51\n      jumpi\n      revert(0x00, 0x00)\n    tag_51:\n      pop\n      tag_52\n      tag_53\n      jump\t// in\n    tag_52:\n      mload(0x40)\n      tag_54\n      swap2\n      swap1\n      tag_31\n      jump\t// in\n    tag_54:\n      mload(0x40)\n      dup1\n      swap2\n      sub\n      swap1\n      return\n        /* \"contracts/CroudFunding.sol\":2314:2522  function removeTier(uint256 _index) public onlyOwner{... */\n    tag_10:\n      callvalue\n      dup1\n      iszero\n      tag_55\n      jumpi\n      revert(0x00, 0x00)\n    tag_55:\n      pop\n      tag_56\n      0x04\n      dup1\n      calldatasize\n      sub\n      dup2\n      add\n      swap1\n      tag_57\n      swap2\n      swap1\n      tag_23\n      jump\t// in\n    tag_57:\n      tag_58\n      jump\t// in\n    tag_56:\n      stop\n        /* \"contracts/CroudFunding.sol\":3377:3535  function hasFundedTier(address _backer, uint256 _tierIndex) public view returns (bool){... */\n    tag_11:\n      callvalue\n      dup1\n      iszero\n      tag_59\n      jumpi\n      revert(0x00, 0x00)\n    tag_59:\n      pop\n      tag_60\n      0x04\n      dup1\n      calldatasize\n      sub\n      dup2\n      add\n      swap1\n      tag_61\n      swap2\n      swap1\n      tag_62\n      jump\t// in\n    tag_61:\n      tag_63\n      jump\t// in\n    tag_60:\n      mload(0x40)\n      tag_64\n      swap2\n      swap1\n      tag_65\n      jump\t// in\n    tag_64:\n      mload(0x40)\n      dup1\n      swap2\n      sub\n      swap1\n      return\n        /* \"contracts/CroudFunding.sol\":195:215  address public owner */\n    tag_12:\n      callvalue\n      dup1\n      iszero\n      tag_66\n      jumpi\n      revert(0x00, 0x00)\n    tag_66:\n      pop\n      tag_67\n      tag_68\n      jump\t// in\n    tag_67:\n      mload(0x40)\n      tag_69\n      swap2\n      swap1\n      tag_70\n      jump\t// in\n    tag_69:\n      mload(0x40)\n      dup1\n      swap2\n      sub\n      swap1\n      return\n        /* \"contracts/CroudFunding.sol\":2067:2304  function addTier( string memory _name,... */\n    tag_13:\n      callvalue\n      dup1\n      iszero\n      tag_71\n      jumpi\n      revert(0x00, 0x00)\n    tag_71:\n      pop\n      tag_72\n      0x04\n      dup1\n      calldatasize\n      sub\n      dup2\n      add\n      swap1\n      tag_73\n      swap2\n      swap1\n      tag_74\n      jump\t// in\n    tag_73:\n      tag_75\n      jump\t// in\n    tag_72:\n      stop\n        /* \"contracts/CroudFunding.sol\":537:579  mapping(address => Backer ) public backers */\n    tag_14:\n      callvalue\n      dup1\n      iszero\n      tag_76\n      jumpi\n      revert(0x00, 0x00)\n    tag_76:\n      pop\n      tag_77\n      0x04\n      dup1\n      calldatasize\n      sub\n      dup2\n      add\n      swap1\n      tag_78\n      swap2\n      swap1\n      tag_79\n      jump\t// in\n    tag_78:\n      tag_80\n      jump\t// in\n    tag_77:\n      mload(0x40)\n      tag_81\n      swap2\n      swap1\n      tag_36\n      jump\t// in\n    tag_81:\n      mload(0x40)\n      dup1\n      swap2\n      sub\n      swap1\n      return\n        /* \"contracts/CroudFunding.sol\":274:300  CampaginState public state */\n    tag_15:\n      callvalue\n      dup1\n      iszero\n      tag_82\n      jumpi\n      revert(0x00, 0x00)\n    tag_82:\n      pop\n      tag_83\n      tag_84\n      jump\t// in\n    tag_83:\n      mload(0x40)\n      tag_85\n      swap2\n      swap1\n      tag_86\n      jump\t// in\n    tag_85:\n      mload(0x40)\n      dup1\n      swap2\n      sub\n      swap1\n      return\n        /* \"contracts/CroudFunding.sol\":1617:2057  function fund(uint256 _tierIndex) public payable campaignOpen {... */\n    tag_16:\n      tag_87\n      0x04\n      dup1\n      calldatasize\n      sub\n      dup2\n      add\n      swap1\n      tag_88\n      swap2\n      swap1\n      tag_23\n      jump\t// in\n    tag_88:\n      tag_89\n      jump\t// in\n    tag_87:\n      stop\n        /* \"contracts/CroudFunding.sol\":511:530  Tier[] public tiers */\n    tag_24:\n      0x05\n      dup2\n      dup2\n      sload\n      dup2\n      lt\n      tag_90\n      jumpi\n      0x00\n      dup1\n      revert\n    tag_90:\n      swap1\n      0x00\n      mstore\n      keccak256(0x00, 0x20)\n      swap1\n      0x03\n      mul\n      add\n      0x00\n      swap2\n      pop\n      swap1\n      pop\n      dup1\n      0x00\n      add\n      dup1\n      sload\n      tag_92\n      swap1\n      tag_93\n      jump\t// in\n    tag_92:\n      dup1\n      0x1f\n      add\n      0x20\n      dup1\n      swap2\n      div\n      mul\n      0x20\n      add\n      mload(0x40)\n      swap1\n      dup2\n      add\n      0x40\n      mstore\n      dup1\n      swap3\n      swap2\n      swap1\n      dup2\n      dup2\n      mstore\n      0x20\n      add\n      dup3\n      dup1\n      sload\n      tag_94\n      swap1\n      tag_93\n      jump\t// in\n    tag_94:\n      dup1\n      iszero\n      tag_95\n      jumpi\n      dup1\n      0x1f\n      lt\n      tag_96\n      jumpi\n      0x0100\n      dup1\n      dup4\n      sload\n      div\n      mul\n      dup4\n      mstore\n      swap2\n      0x20\n      add\n      swap2\n      jump(tag_95)\n    tag_96:\n      dup3\n      add\n      swap2\n      swap1\n      0x00\n      mstore\n      keccak256(0x00, 0x20)\n      swap1\n    tag_97:\n      dup2\n      sload\n      dup2\n      mstore\n      swap1\n      0x01\n      add\n      swap1\n      0x20\n      add\n      dup1\n      dup4\n      gt\n      tag_97\n      jumpi\n      dup3\n      swap1\n      sub\n      0x1f\n      and\n      dup3\n      add\n      swap2\n    tag_95:\n      pop\n      pop\n      pop\n      pop\n      pop\n      swap1\n      dup1\n      0x01\n      add\n      sload\n      swap1\n      dup1\n      0x02\n      add\n      sload\n      swap1\n      pop\n      dup4\n      jump\t// out\n        /* \"contracts/CroudFunding.sol\":85:103  string public name */\n    tag_29:\n      0x00\n      dup1\n      sload\n      tag_98\n      swap1\n      tag_93\n      jump\t// in\n    tag_98:\n      dup1\n      0x1f\n      add\n      0x20\n      dup1\n      swap2\n      div\n      mul\n      0x20\n      add\n      mload(0x40)\n      swap1\n      dup2\n      add\n      0x40\n      mstore\n      dup1\n      swap3\n      swap2\n      swap1\n      dup2\n      dup2\n      mstore\n      0x20\n      add\n      dup3\n      dup1\n      sload\n      tag_99\n      swap1\n      tag_93\n      jump\t// in\n    tag_99:\n      dup1\n      iszero\n      tag_100\n      jumpi\n      dup1\n      0x1f\n      lt\n      tag_101\n      jumpi\n      0x0100\n      dup1\n      dup4\n      sload\n      div\n      mul\n      dup4\n      mstore\n      swap2\n      0x20\n      add\n      swap2\n      jump(tag_100)\n    tag_101:\n      dup3\n      add\n      swap2\n      swap1\n      0x00\n      mstore\n      keccak256(0x00, 0x20)\n      swap1\n    tag_102:\n      dup2\n      sload\n      dup2\n      mstore\n      swap1\n      0x01\n      add\n      swap1\n      0x20\n      add\n      dup1\n      dup4\n      gt\n      tag_102\n      jumpi\n      dup3\n      swap1\n      sub\n      0x1f\n      and\n      dup3\n      add\n      swap2\n    tag_100:\n      pop\n      pop\n      pop\n      pop\n      pop\n      dup2\n      jump\t// out\n        /* \"contracts/CroudFunding.sol\":166:189  uint256 public deadline */\n    tag_34:\n      sload(0x03)\n      dup2\n      jump\t// out\n        /* \"contracts/CroudFunding.sol\":2533:2843  function withdraw() public onlyOwner{... */\n    tag_39:\n        /* \"contracts/CroudFunding.sol\":631:636  owner */\n      0x04\n      0x00\n      swap1\n      sload\n      swap1\n      0x0100\n      exp\n      swap1\n      div\n      0xffffffffffffffffffffffffffffffffffffffff\n      and\n        /* \"contracts/CroudFunding.sol\":617:636  msg.sender == owner */\n      0xffffffffffffffffffffffffffffffffffffffff\n      and\n        /* \"contracts/CroudFunding.sol\":617:627  msg.sender */\n      caller\n        /* \"contracts/CroudFunding.sol\":617:636  msg.sender == owner */\n      0xffffffffffffffffffffffffffffffffffffffff\n      and\n      eq\n        /* \"contracts/CroudFunding.sol\":609:654  require(msg.sender == owner, \"Not the owner\") */\n      tag_104\n      jumpi\n      mload(0x40)\n      0x08c379a000000000000000000000000000000000000000000000000000000000\n      dup2\n      mstore\n      0x04\n      add\n      tag_105\n      swap1\n      tag_106\n      jump\t// in\n    tag_105:\n      mload(0x40)\n      dup1\n      swap2\n      sub\n      swap1\n      revert\n    tag_104:\n        /* \"contracts/CroudFunding.sol\":2571:2600  checkAndUpdateCampaginState() */\n      tag_108\n        /* \"contracts/CroudFunding.sol\":2571:2598  checkAndUpdateCampaginState */\n      tag_109\n        /* \"contracts/CroudFunding.sol\":2571:2600  checkAndUpdateCampaginState() */\n      jump\t// in\n    tag_108:\n        /* \"contracts/CroudFunding.sol\":2619:2643  CampaginState.Successful */\n      0x01\n        /* \"contracts/CroudFunding.sol\":2610:2643  state == CampaginState.Successful */\n      0x02\n      dup2\n      gt\n      iszero\n      tag_110\n      jumpi\n      tag_111\n      tag_112\n      jump\t// in\n    tag_111:\n    tag_110:\n        /* \"contracts/CroudFunding.sol\":2610:2615  state */\n      0x04\n      0x14\n      swap1\n      sload\n      swap1\n      0x0100\n      exp\n      swap1\n      div\n      0xff\n      and\n        /* \"contracts/CroudFunding.sol\":2610:2643  state == CampaginState.Successful */\n      0x02\n      dup2\n      gt\n      iszero\n      tag_113\n      jumpi\n      tag_114\n      tag_112\n      jump\t// in\n    tag_114:\n    tag_113:\n      eq\n        /* \"contracts/CroudFunding.sol\":2602:2671  require(state == CampaginState.Successful, \"Campagin not successful\") */\n      tag_115\n      jumpi\n      mload(0x40)\n      0x08c379a000000000000000000000000000000000000000000000000000000000\n      dup2\n      mstore\n      0x04\n      add\n      tag_116\n      swap1\n      tag_117\n      jump\t// in\n    tag_116:\n      mload(0x40)\n      dup1\n      swap2\n      sub\n      swap1\n      revert\n    tag_115:\n        /* \"contracts/CroudFunding.sol\":2685:2700  uint256 balance */\n      0x00\n        /* \"contracts/CroudFunding.sol\":2703:2724  address(this).balance */\n      selfbalance\n        /* \"contracts/CroudFunding.sol\":2685:2724  uint256 balance = address(this).balance */\n      swap1\n      pop\n        /* \"contracts/CroudFunding.sol\":2756:2757  0 */\n      0x00\n        /* \"contracts/CroudFunding.sol\":2746:2753  balance */\n      dup2\n        /* \"contracts/CroudFunding.sol\":2746:2757  balance > 0 */\n      gt\n        /* \"contracts/CroudFunding.sol\":2738:2785  require(balance > 0, \"No balance to withdraw.\") */\n      tag_118\n      jumpi\n      mload(0x40)\n      0x08c379a000000000000000000000000000000000000000000000000000000000\n      dup2\n      mstore\n      0x04\n      add\n      tag_119\n      swap1\n      tag_120\n      jump\t// in\n    tag_119:\n      mload(0x40)\n      dup1\n      swap2\n      sub\n      swap1\n      revert\n    tag_118:\n        /* \"contracts/CroudFunding.sol\":2808:2813  owner */\n      0x04\n      0x00\n      swap1\n      sload\n      swap1\n      0x0100\n      exp\n      swap1\n      div\n      0xffffffffffffffffffffffffffffffffffffffff\n      and\n        /* \"contracts/CroudFunding.sol\":2800:2823  payable(owner).transfer */\n      0xffffffffffffffffffffffffffffffffffffffff\n      and\n        /* \"contracts/CroudFunding.sol\":2800:2832  payable(owner).transfer(balance) */\n      0x08fc\n        /* \"contracts/CroudFunding.sol\":2824:2831  balance */\n      dup3\n        /* \"contracts/CroudFunding.sol\":2800:2832  payable(owner).transfer(balance) */\n      swap1\n      dup2\n      iszero\n      mul\n      swap1\n      mload(0x40)\n      0x00\n      mload(0x40)\n      dup1\n      dup4\n      sub\n      dup2\n      dup6\n      dup9\n      dup9\n      call\n      swap4\n      pop\n      pop\n      pop\n      pop\n      iszero\n      dup1\n      iszero\n      tag_122\n      jumpi\n      returndatacopy(0x00, 0x00, returndatasize)\n      revert(0x00, returndatasize)\n    tag_122:\n      pop\n        /* \"contracts/CroudFunding.sol\":2569:2843  {... */\n      pop\n        /* \"contracts/CroudFunding.sol\":2533:2843  function withdraw() public onlyOwner{... */\n      jump\t// out\n        /* \"contracts/CroudFunding.sol\":141:160  uint256 public goal */\n    tag_42:\n      sload(0x02)\n      dup2\n      jump\t// out\n        /* \"contracts/CroudFunding.sol\":2976:3367  function refund() public {... */\n    tag_46:\n        /* \"contracts/CroudFunding.sol\":3015:3044  checkAndUpdateCampaginState() */\n      tag_124\n        /* \"contracts/CroudFunding.sol\":3015:3042  checkAndUpdateCampaginState */\n      tag_109\n        /* \"contracts/CroudFunding.sol\":3015:3044  checkAndUpdateCampaginState() */\n      jump\t// in\n    tag_124:\n        /* \"contracts/CroudFunding.sol\":3072:3092  CampaginState.Failed */\n      0x02\n        /* \"contracts/CroudFunding.sol\":3063:3092  state == CampaginState.Failed */\n      dup1\n      dup2\n      gt\n      iszero\n      tag_125\n      jumpi\n      tag_126\n      tag_112\n      jump\t// in\n    tag_126:\n    tag_125:\n        /* \"contracts/CroudFunding.sol\":3063:3068  state */\n      0x04\n      0x14\n      swap1\n      sload\n      swap1\n      0x0100\n      exp\n      swap1\n      div\n      0xff\n      and\n        /* \"contracts/CroudFunding.sol\":3063:3092  state == CampaginState.Failed */\n      0x02\n      dup2\n      gt\n      iszero\n      tag_127\n      jumpi\n      tag_128\n      tag_112\n      jump\t// in\n    tag_128:\n    tag_127:\n      eq\n        /* \"contracts/CroudFunding.sol\":3055:3119  require(state == CampaginState.Failed, \"Refunds not successful\") */\n      tag_129\n      jumpi\n      mload(0x40)\n      0x08c379a000000000000000000000000000000000000000000000000000000000\n      dup2\n      mstore\n      0x04\n      add\n      tag_130\n      swap1\n      tag_131\n      jump\t// in\n    tag_130:\n      mload(0x40)\n      dup1\n      swap2\n      sub\n      swap1\n      revert\n    tag_129:\n        /* \"contracts/CroudFunding.sol\":3133:3147  uint256 amount */\n      0x00\n        /* \"contracts/CroudFunding.sol\":3150:3157  backers */\n      0x06\n        /* \"contracts/CroudFunding.sol\":3150:3169  backers[msg.sender] */\n      0x00\n        /* \"contracts/CroudFunding.sol\":3158:3168  msg.sender */\n      caller\n        /* \"contracts/CroudFunding.sol\":3150:3169  backers[msg.sender] */\n      0xffffffffffffffffffffffffffffffffffffffff\n      and\n      0xffffffffffffffffffffffffffffffffffffffff\n      and\n      dup2\n      mstore\n      0x20\n      add\n      swap1\n      dup2\n      mstore\n      0x20\n      add\n      0x00\n      keccak256\n        /* \"contracts/CroudFunding.sol\":3150:3187  backers[msg.sender].totalContribution */\n      0x00\n      add\n      sload\n        /* \"contracts/CroudFunding.sol\":3133:3187  uint256 amount = backers[msg.sender].totalContribution */\n      swap1\n      pop\n        /* \"contracts/CroudFunding.sol\":3218:3219  0 */\n      0x00\n        /* \"contracts/CroudFunding.sol\":3209:3215  amount */\n      dup2\n        /* \"contracts/CroudFunding.sol\":3209:3219  amount > 0 */\n      gt\n        /* \"contracts/CroudFunding.sol\":3201:3248  require(amount > 0, \"No Contrubution Refunded\") */\n      tag_132\n      jumpi\n      mload(0x40)\n      0x08c379a000000000000000000000000000000000000000000000000000000000\n      dup2\n      mstore\n      0x04\n      add\n      tag_133\n      swap1\n      tag_134\n      jump\t// in\n    tag_133:\n      mload(0x40)\n      dup1\n      swap2\n      sub\n      swap1\n      revert\n    tag_132:\n        /* \"contracts/CroudFunding.sol\":3303:3304  0 */\n      0x00\n        /* \"contracts/CroudFunding.sol\":3263:3270  backers */\n      0x06\n        /* \"contracts/CroudFunding.sol\":3263:3282  backers[msg.sender] */\n      0x00\n        /* \"contracts/CroudFunding.sol\":3271:3281  msg.sender */\n      caller\n        /* \"contracts/CroudFunding.sol\":3263:3282  backers[msg.sender] */\n      0xffffffffffffffffffffffffffffffffffffffff\n      and\n      0xffffffffffffffffffffffffffffffffffffffff\n      and\n      dup2\n      mstore\n      0x20\n      add\n      swap1\n      dup2\n      mstore\n      0x20\n      add\n      0x00\n      keccak256\n        /* \"contracts/CroudFunding.sol\":3263:3300  backers[msg.sender].totalContribution */\n      0x00\n      add\n        /* \"contracts/CroudFunding.sol\":3263:3304  backers[msg.sender].totalContribution = 0 */\n      dup2\n      swap1\n      sstore\n      pop\n        /* \"contracts/CroudFunding.sol\":3326:3336  msg.sender */\n      caller\n        /* \"contracts/CroudFunding.sol\":3318:3346  payable(msg.sender).transfer */\n      0xffffffffffffffffffffffffffffffffffffffff\n      and\n        /* \"contracts/CroudFunding.sol\":3318:3354  payable(msg.sender).transfer(amount) */\n      0x08fc\n        /* \"contracts/CroudFunding.sol\":3347:3353  amount */\n      dup3\n        /* \"contracts/CroudFunding.sol\":3318:3354  payable(msg.sender).transfer(amount) */\n      swap1\n      dup2\n      iszero\n      mul\n      swap1\n      mload(0x40)\n      0x00\n      mload(0x40)\n      dup1\n      dup4\n      sub\n      dup2\n      dup6\n      dup9\n      dup9\n      call\n      swap4\n      pop\n      pop\n      pop\n      pop\n      iszero\n      dup1\n      iszero\n      tag_136\n      jumpi\n      returndatacopy(0x00, 0x00, returndatasize)\n      revert(0x00, returndatasize)\n    tag_136:\n      pop\n        /* \"contracts/CroudFunding.sol\":3001:3367  {... */\n      pop\n        /* \"contracts/CroudFunding.sol\":2976:3367  function refund() public {... */\n      jump\t// out\n        /* \"contracts/CroudFunding.sol\":2853:2966  function getContractBalance() public view returns (uint256) {... */\n    tag_49:\n        /* \"contracts/CroudFunding.sol\":2904:2911  uint256 */\n      0x00\n        /* \"contracts/CroudFunding.sol\":2934:2955  address(this).balance */\n      selfbalance\n        /* \"contracts/CroudFunding.sol\":2927:2955  return address(this).balance */\n      swap1\n      pop\n        /* \"contracts/CroudFunding.sol\":2853:2966  function getContractBalance() public view returns (uint256) {... */\n      swap1\n      jump\t// out\n        /* \"contracts/CroudFunding.sol\":109:135  string  public description */\n    tag_53:\n      0x01\n      dup1\n      sload\n      tag_138\n      swap1\n      tag_93\n      jump\t// in\n    tag_138:\n      dup1\n      0x1f\n      add\n      0x20\n      dup1\n      swap2\n      div\n      mul\n      0x20\n      add\n      mload(0x40)\n      swap1\n      dup2\n      add\n      0x40\n      mstore\n      dup1\n      swap3\n      swap2\n      swap1\n      dup2\n      dup2\n      mstore\n      0x20\n      add\n      dup3\n      dup1\n      sload\n      tag_139\n      swap1\n      tag_93\n      jump\t// in\n    tag_139:\n      dup1\n      iszero\n      tag_140\n      jumpi\n      dup1\n      0x1f\n      lt\n      tag_141\n      jumpi\n      0x0100\n      dup1\n      dup4\n      sload\n      div\n      mul\n      dup4\n      mstore\n      swap2\n      0x20\n      add\n      swap2\n      jump(tag_140)\n    tag_141:\n      dup3\n      add\n      swap2\n      swap1\n      0x00\n      mstore\n      keccak256(0x00, 0x20)\n      swap1\n    tag_142:\n      dup2\n      sload\n      dup2\n      mstore\n      swap1\n      0x01\n      add\n      swap1\n      0x20\n      add\n      dup1\n      dup4\n      gt\n      tag_142\n      jumpi\n      dup3\n      swap1\n      sub\n      0x1f\n      and\n      dup3\n      add\n      swap2\n    tag_140:\n      pop\n      pop\n      pop\n      pop\n      pop\n      dup2\n      jump\t// out\n        /* \"contracts/CroudFunding.sol\":2314:2522  function removeTier(uint256 _index) public onlyOwner{... */\n    tag_58:\n        /* \"contracts/CroudFunding.sol\":631:636  owner */\n      0x04\n      0x00\n      swap1\n      sload\n      swap1\n      0x0100\n      exp\n      swap1\n      div\n      0xffffffffffffffffffffffffffffffffffffffff\n      and\n        /* \"contracts/CroudFunding.sol\":617:636  msg.sender == owner */\n      0xffffffffffffffffffffffffffffffffffffffff\n      and\n        /* \"contracts/CroudFunding.sol\":617:627  msg.sender */\n      caller\n        /* \"contracts/CroudFunding.sol\":617:636  msg.sender == owner */\n      0xffffffffffffffffffffffffffffffffffffffff\n      and\n      eq\n        /* \"contracts/CroudFunding.sol\":609:654  require(msg.sender == owner, \"Not the owner\") */\n      tag_144\n      jumpi\n      mload(0x40)\n      0x08c379a000000000000000000000000000000000000000000000000000000000\n      dup2\n      mstore\n      0x04\n      add\n      tag_145\n      swap1\n      tag_106\n      jump\t// in\n    tag_145:\n      mload(0x40)\n      dup1\n      swap2\n      sub\n      swap1\n      revert\n    tag_144:\n        /* \"contracts/CroudFunding.sol\":2397:2402  tiers */\n      0x05\n        /* \"contracts/CroudFunding.sol\":2397:2409  tiers.length */\n      dup1\n      sload\n      swap1\n      pop\n        /* \"contracts/CroudFunding.sol\":2388:2394  _index */\n      dup2\n        /* \"contracts/CroudFunding.sol\":2388:2409  _index < tiers.length */\n      lt\n        /* \"contracts/CroudFunding.sol\":2380:2434  require(_index < tiers.length, \"tires does not exits\") */\n      tag_147\n      jumpi\n      mload(0x40)\n      0x08c379a000000000000000000000000000000000000000000000000000000000\n      dup2\n      mstore\n      0x04\n      add\n      tag_148\n      swap1\n      tag_149\n      jump\t// in\n    tag_148:\n      mload(0x40)\n      dup1\n      swap2\n      sub\n      swap1\n      revert\n    tag_147:\n        /* \"contracts/CroudFunding.sol\":2464:2469  tiers */\n      0x05\n        /* \"contracts/CroudFunding.sol\":2484:2485  1 */\n      0x01\n        /* \"contracts/CroudFunding.sol\":2470:2475  tiers */\n      0x05\n        /* \"contracts/CroudFunding.sol\":2470:2482  tiers.length */\n      dup1\n      sload\n      swap1\n      pop\n        /* \"contracts/CroudFunding.sol\":2470:2485  tiers.length -1 */\n      tag_150\n      swap2\n      swap1\n      tag_151\n      jump\t// in\n    tag_150:\n        /* \"contracts/CroudFunding.sol\":2464:2486  tiers[tiers.length -1] */\n      dup2\n      sload\n      dup2\n      lt\n      tag_152\n      jumpi\n      tag_153\n      tag_154\n      jump\t// in\n    tag_153:\n    tag_152:\n      swap1\n      0x00\n      mstore\n      keccak256(0x00, 0x20)\n      swap1\n      0x03\n      mul\n      add\n        /* \"contracts/CroudFunding.sol\":2448:2453  tiers */\n      0x05\n        /* \"contracts/CroudFunding.sol\":2454:2460  _index */\n      dup3\n        /* \"contracts/CroudFunding.sol\":2448:2461  tiers[_index] */\n      dup2\n      sload\n      dup2\n      lt\n      tag_156\n      jumpi\n      tag_157\n      tag_154\n      jump\t// in\n    tag_157:\n    tag_156:\n      swap1\n      0x00\n      mstore\n      keccak256(0x00, 0x20)\n      swap1\n      0x03\n      mul\n      add\n        /* \"contracts/CroudFunding.sol\":2448:2486  tiers[_index] = tiers[tiers.length -1] */\n      0x00\n      dup3\n      add\n      dup2\n      0x00\n      add\n      swap1\n      dup2\n      tag_159\n      swap2\n      swap1\n      tag_160\n      jump\t// in\n    tag_159:\n      pop\n      0x01\n      dup3\n      add\n      sload\n      dup2\n      0x01\n      add\n      sstore\n      0x02\n      dup3\n      add\n      sload\n      dup2\n      0x02\n      add\n      sstore\n      swap1\n      pop\n      pop\n        /* \"contracts/CroudFunding.sol\":2500:2505  tiers */\n      0x05\n        /* \"contracts/CroudFunding.sol\":2500:2511  tiers.pop() */\n      dup1\n      sload\n      dup1\n      tag_161\n      jumpi\n      tag_162\n      tag_163\n      jump\t// in\n    tag_162:\n    tag_161:\n      0x01\n      swap1\n      sub\n      dup2\n      dup2\n      swap1\n      0x00\n      mstore\n      keccak256(0x00, 0x20)\n      swap1\n      0x03\n      mul\n      add\n      0x00\n      0x00\n      dup3\n      add\n      0x00\n      tag_165\n      swap2\n      swap1\n      tag_166\n      jump\t// in\n    tag_165:\n      0x01\n      dup3\n      add\n      0x00\n      swap1\n      sstore\n      0x02\n      dup3\n      add\n      0x00\n      swap1\n      sstore\n      pop\n      pop\n      swap1\n      sstore\n        /* \"contracts/CroudFunding.sol\":2314:2522  function removeTier(uint256 _index) public onlyOwner{... */\n      pop\n      jump\t// out\n        /* \"contracts/CroudFunding.sol\":3377:3535  function hasFundedTier(address _backer, uint256 _tierIndex) public view returns (bool){... */\n    tag_63:\n        /* \"contracts/CroudFunding.sol\":3458:3462  bool */\n      0x00\n        /* \"contracts/CroudFunding.sol\":3484:3491  backers */\n      0x06\n        /* \"contracts/CroudFunding.sol\":3484:3500  backers[_backer] */\n      0x00\n        /* \"contracts/CroudFunding.sol\":3492:3499  _backer */\n      dup5\n        /* \"contracts/CroudFunding.sol\":3484:3500  backers[_backer] */\n      0xffffffffffffffffffffffffffffffffffffffff\n      and\n      0xffffffffffffffffffffffffffffffffffffffff\n      and\n      dup2\n      mstore\n      0x20\n      add\n      swap1\n      dup2\n      mstore\n      0x20\n      add\n      0x00\n      keccak256\n        /* \"contracts/CroudFunding.sol\":3484:3512  backers[_backer].fundedTiers */\n      0x01\n      add\n        /* \"contracts/CroudFunding.sol\":3484:3524  backers[_backer].fundedTiers[_tierIndex] */\n      0x00\n        /* \"contracts/CroudFunding.sol\":3513:3523  _tierIndex */\n      dup4\n        /* \"contracts/CroudFunding.sol\":3484:3524  backers[_backer].fundedTiers[_tierIndex] */\n      dup2\n      mstore\n      0x20\n      add\n      swap1\n      dup2\n      mstore\n      0x20\n      add\n      0x00\n      keccak256\n      0x00\n      swap1\n      sload\n      swap1\n      0x0100\n      exp\n      swap1\n      div\n      0xff\n      and\n        /* \"contracts/CroudFunding.sol\":3477:3524  return backers[_backer].fundedTiers[_tierIndex] */\n      swap1\n      pop\n        /* \"contracts/CroudFunding.sol\":3377:3535  function hasFundedTier(address _backer, uint256 _tierIndex) public view returns (bool){... */\n      swap3\n      swap2\n      pop\n      pop\n      jump\t// out\n        /* \"contracts/CroudFunding.sol\":195:215  address public owner */\n    tag_68:\n      0x04\n      0x00\n      swap1\n      sload\n      swap1\n      0x0100\n      exp\n      swap1\n      div\n      0xffffffffffffffffffffffffffffffffffffffff\n      and\n      dup2\n      jump\t// out\n        /* \"contracts/CroudFunding.sol\":2067:2304  function addTier( string memory _name,... */\n    tag_75:\n        /* \"contracts/CroudFunding.sol\":631:636  owner */\n      0x04\n      0x00\n      swap1\n      sload\n      swap1\n      0x0100\n      exp\n      swap1\n      div\n      0xffffffffffffffffffffffffffffffffffffffff\n      and\n        /* \"contracts/CroudFunding.sol\":617:636  msg.sender == owner */\n      0xffffffffffffffffffffffffffffffffffffffff\n      and\n        /* \"contracts/CroudFunding.sol\":617:627  msg.sender */\n      caller\n        /* \"contracts/CroudFunding.sol\":617:636  msg.sender == owner */\n      0xffffffffffffffffffffffffffffffffffffffff\n      and\n      eq\n        /* \"contracts/CroudFunding.sol\":609:654  require(msg.sender == owner, \"Not the owner\") */\n      tag_169\n      jumpi\n      mload(0x40)\n      0x08c379a000000000000000000000000000000000000000000000000000000000\n      dup2\n      mstore\n      0x04\n      add\n      tag_170\n      swap1\n      tag_106\n      jump\t// in\n    tag_170:\n      mload(0x40)\n      dup1\n      swap2\n      sub\n      swap1\n      revert\n    tag_169:\n        /* \"contracts/CroudFunding.sol\":2188:2189  0 */\n      0x00\n        /* \"contracts/CroudFunding.sol\":2178:2185  _amount */\n      dup2\n        /* \"contracts/CroudFunding.sol\":2178:2189  _amount > 0 */\n      gt\n        /* \"contracts/CroudFunding.sol\":2170:2226  require(_amount > 0, \"Amount must be greater than zero\") */\n      tag_172\n      jumpi\n      mload(0x40)\n      0x08c379a000000000000000000000000000000000000000000000000000000000\n      dup2\n      mstore\n      0x04\n      add\n      tag_173\n      swap1\n      tag_174\n      jump\t// in\n    tag_173:\n      mload(0x40)\n      dup1\n      swap2\n      sub\n      swap1\n      revert\n    tag_172:\n        /* \"contracts/CroudFunding.sol\":2245:2250  tiers */\n      0x05\n        /* \"contracts/CroudFunding.sol\":2256:2279  Tier(_name, _amount, 0) */\n      mload(0x40)\n      dup1\n      0x60\n      add\n      0x40\n      mstore\n      dup1\n        /* \"contracts/CroudFunding.sol\":2261:2266  _name */\n      dup5\n        /* \"contracts/CroudFunding.sol\":2256:2279  Tier(_name, _amount, 0) */\n      dup2\n      mstore\n      0x20\n      add\n        /* \"contracts/CroudFunding.sol\":2268:2275  _amount */\n      dup4\n        /* \"contracts/CroudFunding.sol\":2256:2279  Tier(_name, _amount, 0) */\n      dup2\n      mstore\n      0x20\n      add\n        /* \"contracts/CroudFunding.sol\":2277:2278  0 */\n      0x00\n        /* \"contracts/CroudFunding.sol\":2256:2279  Tier(_name, _amount, 0) */\n      dup2\n      mstore\n      pop\n        /* \"contracts/CroudFunding.sol\":2245:2280  tiers.push(Tier(_name, _amount, 0)) */\n      swap1\n      dup1\n      0x01\n      dup2\n      sload\n      add\n      dup1\n      dup3\n      sstore\n      dup1\n      swap2\n      pop\n      pop\n      0x01\n      swap1\n      sub\n      swap1\n      0x00\n      mstore\n      keccak256(0x00, 0x20)\n      swap1\n      0x03\n      mul\n      add\n      0x00\n      swap1\n      swap2\n      swap1\n      swap2\n      swap1\n      swap2\n      pop\n      0x00\n      dup3\n      add\n      mload\n      dup2\n      0x00\n      add\n      swap1\n      dup2\n      tag_176\n      swap2\n      swap1\n      tag_177\n      jump\t// in\n    tag_176:\n      pop\n      0x20\n      dup3\n      add\n      mload\n      dup2\n      0x01\n      add\n      sstore\n      0x40\n      dup3\n      add\n      mload\n      dup2\n      0x02\n      add\n      sstore\n      pop\n      pop\n        /* \"contracts/CroudFunding.sol\":2067:2304  function addTier( string memory _name,... */\n      pop\n      pop\n      jump\t// out\n        /* \"contracts/CroudFunding.sol\":537:579  mapping(address => Backer ) public backers */\n    tag_80:\n      mstore(0x20, 0x06)\n      dup1\n      0x00\n      mstore\n      keccak256(0x00, 0x40)\n      0x00\n      swap2\n      pop\n      swap1\n      pop\n      dup1\n      0x00\n      add\n      sload\n      swap1\n      pop\n      dup2\n      jump\t// out\n        /* \"contracts/CroudFunding.sol\":274:300  CampaginState public state */\n    tag_84:\n      0x04\n      0x14\n      swap1\n      sload\n      swap1\n      0x0100\n      exp\n      swap1\n      div\n      0xff\n      and\n      dup2\n      jump\t// out\n        /* \"contracts/CroudFunding.sol\":1617:2057  function fund(uint256 _tierIndex) public payable campaignOpen {... */\n    tag_89:\n        /* \"contracts/CroudFunding.sol\":720:740  CampaginState.Active */\n      0x00\n        /* \"contracts/CroudFunding.sol\":711:740  state == CampaginState.Active */\n      0x02\n      dup2\n      gt\n      iszero\n      tag_179\n      jumpi\n      tag_180\n      tag_112\n      jump\t// in\n    tag_180:\n    tag_179:\n        /* \"contracts/CroudFunding.sol\":711:716  state */\n      0x04\n      0x14\n      swap1\n      sload\n      swap1\n      0x0100\n      exp\n      swap1\n      div\n      0xff\n      and\n        /* \"contracts/CroudFunding.sol\":711:740  state == CampaginState.Active */\n      0x02\n      dup2\n      gt\n      iszero\n      tag_181\n      jumpi\n      tag_182\n      tag_112\n      jump\t// in\n    tag_182:\n    tag_181:\n      eq\n        /* \"contracts/CroudFunding.sol\":703:768  require(state == CampaginState.Active, \"Campaign is not active \") */\n      tag_183\n      jumpi\n      mload(0x40)\n      0x08c379a000000000000000000000000000000000000000000000000000000000\n      dup2\n      mstore\n      0x04\n      add\n      tag_184\n      swap1\n      tag_185\n      jump\t// in\n    tag_184:\n      mload(0x40)\n      dup1\n      swap2\n      sub\n      swap1\n      revert\n    tag_183:\n        /* \"contracts/CroudFunding.sol\":1714:1719  tiers */\n      0x05\n        /* \"contracts/CroudFunding.sol\":1714:1726  tiers.length */\n      dup1\n      sload\n      swap1\n      pop\n        /* \"contracts/CroudFunding.sol\":1701:1711  _tierIndex */\n      dup2\n        /* \"contracts/CroudFunding.sol\":1701:1726  _tierIndex < tiers.length */\n      lt\n        /* \"contracts/CroudFunding.sol\":1693:1751  require(_tierIndex < tiers.length, \"tiers does not exits\") */\n      tag_187\n      jumpi\n      mload(0x40)\n      0x08c379a000000000000000000000000000000000000000000000000000000000\n      dup2\n      mstore\n      0x04\n      add\n      tag_188\n      swap1\n      tag_189\n      jump\t// in\n    tag_188:\n      mload(0x40)\n      dup1\n      swap2\n      sub\n      swap1\n      revert\n    tag_187:\n        /* \"contracts/CroudFunding.sol\":1787:1792  tiers */\n      0x05\n        /* \"contracts/CroudFunding.sol\":1793:1803  _tierIndex */\n      dup2\n        /* \"contracts/CroudFunding.sol\":1787:1804  tiers[_tierIndex] */\n      dup2\n      sload\n      dup2\n      lt\n      tag_190\n      jumpi\n      tag_191\n      tag_154\n      jump\t// in\n    tag_191:\n    tag_190:\n      swap1\n      0x00\n      mstore\n      keccak256(0x00, 0x20)\n      swap1\n      0x03\n      mul\n      add\n        /* \"contracts/CroudFunding.sol\":1787:1811  tiers[_tierIndex].amount */\n      0x01\n      add\n      sload\n        /* \"contracts/CroudFunding.sol\":1774:1783  msg.value */\n      callvalue\n        /* \"contracts/CroudFunding.sol\":1774:1811  msg.value == tiers[_tierIndex].amount */\n      eq\n        /* \"contracts/CroudFunding.sol\":1766:1832  require(msg.value == tiers[_tierIndex].amount, \"incorrect amount\") */\n      tag_193\n      jumpi\n      mload(0x40)\n      0x08c379a000000000000000000000000000000000000000000000000000000000\n      dup2\n      mstore\n      0x04\n      add\n      tag_194\n      swap1\n      tag_195\n      jump\t// in\n    tag_194:\n      mload(0x40)\n      dup1\n      swap2\n      sub\n      swap1\n      revert\n    tag_193:\n        /* \"contracts/CroudFunding.sol\":1846:1851  tiers */\n      0x05\n        /* \"contracts/CroudFunding.sol\":1852:1862  _tierIndex */\n      dup2\n        /* \"contracts/CroudFunding.sol\":1846:1863  tiers[_tierIndex] */\n      dup2\n      sload\n      dup2\n      lt\n      tag_196\n      jumpi\n      tag_197\n      tag_154\n      jump\t// in\n    tag_197:\n    tag_196:\n      swap1\n      0x00\n      mstore\n      keccak256(0x00, 0x20)\n      swap1\n      0x03\n      mul\n      add\n        /* \"contracts/CroudFunding.sol\":1846:1871  tiers[_tierIndex].backers */\n      0x02\n      add\n      0x00\n        /* \"contracts/CroudFunding.sol\":1846:1873  tiers[_tierIndex].backers++ */\n      dup2\n      sload\n      dup1\n      swap3\n      swap2\n      swap1\n      tag_199\n      swap1\n      tag_200\n      jump\t// in\n    tag_199:\n      swap2\n      swap1\n      pop\n      sstore\n      pop\n        /* \"contracts/CroudFunding.sol\":1929:1938  msg.value */\n      callvalue\n        /* \"contracts/CroudFunding.sol\":1888:1895  backers */\n      0x06\n        /* \"contracts/CroudFunding.sol\":1888:1907  backers[msg.sender] */\n      0x00\n        /* \"contracts/CroudFunding.sol\":1896:1906  msg.sender */\n      caller\n        /* \"contracts/CroudFunding.sol\":1888:1907  backers[msg.sender] */\n      0xffffffffffffffffffffffffffffffffffffffff\n      and\n      0xffffffffffffffffffffffffffffffffffffffff\n      and\n      dup2\n      mstore\n      0x20\n      add\n      swap1\n      dup2\n      mstore\n      0x20\n      add\n      0x00\n      keccak256\n        /* \"contracts/CroudFunding.sol\":1888:1925  backers[msg.sender].totalContribution */\n      0x00\n      add\n      0x00\n        /* \"contracts/CroudFunding.sol\":1888:1938  backers[msg.sender].totalContribution += msg.value */\n      dup3\n      dup3\n      sload\n      tag_201\n      swap2\n      swap1\n      tag_202\n      jump\t// in\n    tag_201:\n      swap3\n      pop\n      pop\n      dup2\n      swap1\n      sstore\n      pop\n        /* \"contracts/CroudFunding.sol\":1998:2002  true */\n      0x01\n        /* \"contracts/CroudFunding.sol\":1952:1959  backers */\n      0x06\n        /* \"contracts/CroudFunding.sol\":1952:1971  backers[msg.sender] */\n      0x00\n        /* \"contracts/CroudFunding.sol\":1960:1970  msg.sender */\n      caller\n        /* \"contracts/CroudFunding.sol\":1952:1971  backers[msg.sender] */\n      0xffffffffffffffffffffffffffffffffffffffff\n      and\n      0xffffffffffffffffffffffffffffffffffffffff\n      and\n      dup2\n      mstore\n      0x20\n      add\n      swap1\n      dup2\n      mstore\n      0x20\n      add\n      0x00\n      keccak256\n        /* \"contracts/CroudFunding.sol\":1952:1983  backers[msg.sender].fundedTiers */\n      0x01\n      add\n        /* \"contracts/CroudFunding.sol\":1952:1995  backers[msg.sender].fundedTiers[_tierIndex] */\n      0x00\n        /* \"contracts/CroudFunding.sol\":1984:1994  _tierIndex */\n      dup4\n        /* \"contracts/CroudFunding.sol\":1952:1995  backers[msg.sender].fundedTiers[_tierIndex] */\n      dup2\n      mstore\n      0x20\n      add\n      swap1\n      dup2\n      mstore\n      0x20\n      add\n      0x00\n      keccak256\n      0x00\n        /* \"contracts/CroudFunding.sol\":1952:2002  backers[msg.sender].fundedTiers[_tierIndex] = true */\n      0x0100\n      exp\n      dup2\n      sload\n      dup2\n      0xff\n      mul\n      not\n      and\n      swap1\n      dup4\n      iszero\n      iszero\n      mul\n      or\n      swap1\n      sstore\n      pop\n        /* \"contracts/CroudFunding.sol\":2017:2046  checkAndUpdateCampaginState() */\n      tag_203\n        /* \"contracts/CroudFunding.sol\":2017:2044  checkAndUpdateCampaginState */\n      tag_109\n        /* \"contracts/CroudFunding.sol\":2017:2046  checkAndUpdateCampaginState() */\n      jump\t// in\n    tag_203:\n        /* \"contracts/CroudFunding.sol\":1617:2057  function fund(uint256 _tierIndex) public payable campaignOpen {... */\n      pop\n      jump\t// out\n        /* \"contracts/CroudFunding.sol\":1191:1607  function checkAndUpdateCampaginState() internal {... */\n    tag_109:\n        /* \"contracts/CroudFunding.sol\":1266:1286  CampaginState.Active */\n      0x00\n        /* \"contracts/CroudFunding.sol\":1257:1286  state == CampaginState.Active */\n      0x02\n      dup2\n      gt\n      iszero\n      tag_205\n      jumpi\n      tag_206\n      tag_112\n      jump\t// in\n    tag_206:\n    tag_205:\n        /* \"contracts/CroudFunding.sol\":1257:1262  state */\n      0x04\n      0x14\n      swap1\n      sload\n      swap1\n      0x0100\n      exp\n      swap1\n      div\n      0xff\n      and\n        /* \"contracts/CroudFunding.sol\":1257:1286  state == CampaginState.Active */\n      0x02\n      dup2\n      gt\n      iszero\n      tag_207\n      jumpi\n      tag_208\n      tag_112\n      jump\t// in\n    tag_208:\n    tag_207:\n      sub\n        /* \"contracts/CroudFunding.sol\":1253:1597  if (state == CampaginState.Active) {... */\n      tag_209\n      jumpi\n        /* \"contracts/CroudFunding.sol\":1329:1337  deadline */\n      sload(0x03)\n        /* \"contracts/CroudFunding.sol\":1310:1325  block.timestamp */\n      timestamp\n        /* \"contracts/CroudFunding.sol\":1310:1337  block.timestamp >= deadline */\n      lt\n        /* \"contracts/CroudFunding.sol\":1306:1583  if (block.timestamp >= deadline) {... */\n      tag_210\n      jumpi\n        /* \"contracts/CroudFunding.sol\":1394:1398  goal */\n      sload(0x02)\n        /* \"contracts/CroudFunding.sol\":1369:1390  address(this).balance */\n      selfbalance\n        /* \"contracts/CroudFunding.sol\":1369:1398  address(this).balance >= goal */\n      lt\n      iszero\n        /* \"contracts/CroudFunding.sol\":1369:1448  address(this).balance >= goal ? CampaginState.Successful : CampaginState.Failed */\n      tag_211\n      jumpi\n        /* \"contracts/CroudFunding.sol\":1428:1448  CampaginState.Failed */\n      0x02\n        /* \"contracts/CroudFunding.sol\":1369:1448  address(this).balance >= goal ? CampaginState.Successful : CampaginState.Failed */\n      jump(tag_212)\n    tag_211:\n        /* \"contracts/CroudFunding.sol\":1401:1425  CampaginState.Successful */\n      0x01\n        /* \"contracts/CroudFunding.sol\":1369:1448  address(this).balance >= goal ? CampaginState.Successful : CampaginState.Failed */\n    tag_212:\n        /* \"contracts/CroudFunding.sol\":1361:1366  state */\n      0x04\n      0x14\n        /* \"contracts/CroudFunding.sol\":1361:1448  state = address(this).balance >= goal ? CampaginState.Successful : CampaginState.Failed */\n      0x0100\n      exp\n      dup2\n      sload\n      dup2\n      0xff\n      mul\n      not\n      and\n      swap1\n      dup4\n      0x02\n      dup2\n      gt\n      iszero\n      tag_213\n      jumpi\n      tag_214\n      tag_112\n      jump\t// in\n    tag_214:\n    tag_213:\n      mul\n      or\n      swap1\n      sstore\n      pop\n        /* \"contracts/CroudFunding.sol\":1306:1583  if (block.timestamp >= deadline) {... */\n      jump(tag_215)\n    tag_210:\n        /* \"contracts/CroudFunding.sol\":1510:1514  goal */\n      sload(0x02)\n        /* \"contracts/CroudFunding.sol\":1485:1506  address(this).balance */\n      selfbalance\n        /* \"contracts/CroudFunding.sol\":1485:1514  address(this).balance >= goal */\n      lt\n      iszero\n        /* \"contracts/CroudFunding.sol\":1485:1564  address(this).balance >= goal ? CampaginState.Successful : CampaginState.Active */\n      tag_216\n      jumpi\n        /* \"contracts/CroudFunding.sol\":1544:1564  CampaginState.Active */\n      0x00\n        /* \"contracts/CroudFunding.sol\":1485:1564  address(this).balance >= goal ? CampaginState.Successful : CampaginState.Active */\n      jump(tag_217)\n    tag_216:\n        /* \"contracts/CroudFunding.sol\":1517:1541  CampaginState.Successful */\n      0x01\n        /* \"contracts/CroudFunding.sol\":1485:1564  address(this).balance >= goal ? CampaginState.Successful : CampaginState.Active */\n    tag_217:\n        /* \"contracts/CroudFunding.sol\":1477:1482  state */\n      0x04\n      0x14\n        /* \"contracts/CroudFunding.sol\":1477:1564  state = address(this).balance >= goal ? CampaginState.Successful : CampaginState.Active */\n      0x0100\n      exp\n      dup2\n      sload\n      dup2\n      0xff\n      mul\n      not\n      and\n      swap1\n      dup4\n      0x02\n      dup2\n      gt\n      iszero\n      tag_218\n      jumpi\n      tag_219\n      tag_112\n      jump\t// in\n    tag_219:\n    tag_218:\n      mul\n      or\n      swap1\n      sstore\n      pop\n        /* \"contracts/CroudFunding.sol\":1306:1583  if (block.timestamp >= deadline) {... */\n    tag_215:\n        /* \"contracts/CroudFunding.sol\":1253:1597  if (state == CampaginState.Active) {... */\n    tag_209:\n        /* \"contracts/CroudFunding.sol\":1191:1607  function checkAndUpdateCampaginState() internal {... */\n      jump\t// out\n    tag_166:\n      pop\n      dup1\n      sload\n      tag_220\n      swap1\n      tag_93\n      jump\t// in\n    tag_220:\n      0x00\n      dup3\n      sstore\n      dup1\n      0x1f\n      lt\n      tag_222\n      jumpi\n      pop\n      jump(tag_221)\n    tag_222:\n      0x1f\n      add\n      0x20\n      swap1\n      div\n      swap1\n      0x00\n      mstore\n      keccak256(0x00, 0x20)\n      swap1\n      dup2\n      add\n      swap1\n      tag_223\n      swap2\n      swap1\n      tag_224\n      jump\t// in\n    tag_223:\n    tag_221:\n      pop\n      jump\t// out\n    tag_224:\n    tag_225:\n      dup1\n      dup3\n      gt\n      iszero\n      tag_226\n      jumpi\n      0x00\n      dup2\n      0x00\n      swap1\n      sstore\n      pop\n      0x01\n      add\n      jump(tag_225)\n    tag_226:\n      pop\n      swap1\n      jump\t// out\n        /* \"#utility.yul\":7:82   */\n    tag_227:\n        /* \"#utility.yul\":40:46   */\n      0x00\n        /* \"#utility.yul\":73:75   */\n      0x40\n        /* \"#utility.yul\":67:76   */\n      mload\n        /* \"#utility.yul\":57:76   */\n      swap1\n      pop\n        /* \"#utility.yul\":7:82   */\n      swap1\n      jump\t// out\n        /* \"#utility.yul\":88:205   */\n    tag_228:\n        /* \"#utility.yul\":197:198   */\n      0x00\n        /* \"#utility.yul\":194:195   */\n      0x00\n        /* \"#utility.yul\":187:199   */\n      revert\n        /* \"#utility.yul\":211:328   */\n    tag_229:\n        /* \"#utility.yul\":320:321   */\n      0x00\n        /* \"#utility.yul\":317:318   */\n      0x00\n        /* \"#utility.yul\":310:322   */\n      revert\n        /* \"#utility.yul\":334:411   */\n    tag_230:\n        /* \"#utility.yul\":371:378   */\n      0x00\n        /* \"#utility.yul\":400:405   */\n      dup2\n        /* \"#utility.yul\":389:405   */\n      swap1\n      pop\n        /* \"#utility.yul\":334:411   */\n      swap2\n      swap1\n      pop\n      jump\t// out\n        /* \"#utility.yul\":417:539   */\n    tag_231:\n        /* \"#utility.yul\":490:514   */\n      tag_303\n        /* \"#utility.yul\":508:513   */\n      dup2\n        /* \"#utility.yul\":490:514   */\n      tag_230\n      jump\t// in\n    tag_303:\n        /* \"#utility.yul\":483:488   */\n      dup2\n        /* \"#utility.yul\":480:515   */\n      eq\n        /* \"#utility.yul\":470:533   */\n      tag_304\n      jumpi\n        /* \"#utility.yul\":529:530   */\n      0x00\n        /* \"#utility.yul\":526:527   */\n      0x00\n        /* \"#utility.yul\":519:531   */\n      revert\n        /* \"#utility.yul\":470:533   */\n    tag_304:\n        /* \"#utility.yul\":417:539   */\n      pop\n      jump\t// out\n        /* \"#utility.yul\":545:684   */\n    tag_232:\n        /* \"#utility.yul\":591:596   */\n      0x00\n        /* \"#utility.yul\":629:635   */\n      dup2\n        /* \"#utility.yul\":616:636   */\n      calldataload\n        /* \"#utility.yul\":607:636   */\n      swap1\n      pop\n        /* \"#utility.yul\":645:678   */\n      tag_306\n        /* \"#utility.yul\":672:677   */\n      dup2\n        /* \"#utility.yul\":645:678   */\n      tag_231\n      jump\t// in\n    tag_306:\n        /* \"#utility.yul\":545:684   */\n      swap3\n      swap2\n      pop\n      pop\n      jump\t// out\n        /* \"#utility.yul\":690:1019   */\n    tag_23:\n        /* \"#utility.yul\":749:755   */\n      0x00\n        /* \"#utility.yul\":798:800   */\n      0x20\n        /* \"#utility.yul\":786:795   */\n      dup3\n        /* \"#utility.yul\":777:784   */\n      dup5\n        /* \"#utility.yul\":773:796   */\n      sub\n        /* \"#utility.yul\":769:801   */\n      slt\n        /* \"#utility.yul\":766:885   */\n      iszero\n      tag_308\n      jumpi\n        /* \"#utility.yul\":804:883   */\n      tag_309\n      tag_228\n      jump\t// in\n    tag_309:\n        /* \"#utility.yul\":766:885   */\n    tag_308:\n        /* \"#utility.yul\":924:925   */\n      0x00\n        /* \"#utility.yul\":949:1002   */\n      tag_310\n        /* \"#utility.yul\":994:1001   */\n      dup5\n        /* \"#utility.yul\":985:991   */\n      dup3\n        /* \"#utility.yul\":974:983   */\n      dup6\n        /* \"#utility.yul\":970:992   */\n      add\n        /* \"#utility.yul\":949:1002   */\n      tag_232\n      jump\t// in\n    tag_310:\n        /* \"#utility.yul\":939:1002   */\n      swap2\n      pop\n        /* \"#utility.yul\":895:1012   */\n      pop\n        /* \"#utility.yul\":690:1019   */\n      swap3\n      swap2\n      pop\n      pop\n      jump\t// out\n        /* \"#utility.yul\":1025:1124   */\n    tag_233:\n        /* \"#utility.yul\":1077:1083   */\n      0x00\n        /* \"#utility.yul\":1111:1116   */\n      dup2\n        /* \"#utility.yul\":1105:1117   */\n      mload\n        /* \"#utility.yul\":1095:1117   */\n      swap1\n      pop\n        /* \"#utility.yul\":1025:1124   */\n      swap2\n      swap1\n      pop\n      jump\t// out\n        /* \"#utility.yul\":1130:1299   */\n    tag_234:\n        /* \"#utility.yul\":1214:1225   */\n      0x00\n        /* \"#utility.yul\":1248:1254   */\n      dup3\n        /* \"#utility.yul\":1243:1246   */\n      dup3\n        /* \"#utility.yul\":1236:1255   */\n      mstore\n        /* \"#utility.yul\":1288:1292   */\n      0x20\n        /* \"#utility.yul\":1283:1286   */\n      dup3\n        /* \"#utility.yul\":1279:1293   */\n      add\n        /* \"#utility.yul\":1264:1293   */\n      swap1\n      pop\n        /* \"#utility.yul\":1130:1299   */\n      swap3\n      swap2\n      pop\n      pop\n      jump\t// out\n        /* \"#utility.yul\":1305:1444   */\n    tag_235:\n        /* \"#utility.yul\":1394:1400   */\n      dup3\n        /* \"#utility.yul\":1389:1392   */\n      dup2\n        /* \"#utility.yul\":1384:1387   */\n      dup4\n        /* \"#utility.yul\":1378:1401   */\n      mcopy\n        /* \"#utility.yul\":1435:1436   */\n      0x00\n        /* \"#utility.yul\":1426:1432   */\n      dup4\n        /* \"#utility.yul\":1421:1424   */\n      dup4\n        /* \"#utility.yul\":1417:1433   */\n      add\n        /* \"#utility.yul\":1410:1437   */\n      mstore\n        /* \"#utility.yul\":1305:1444   */\n      pop\n      pop\n      pop\n      jump\t// out\n        /* \"#utility.yul\":1450:1552   */\n    tag_236:\n        /* \"#utility.yul\":1491:1497   */\n      0x00\n        /* \"#utility.yul\":1542:1544   */\n      0x1f\n        /* \"#utility.yul\":1538:1545   */\n      not\n        /* \"#utility.yul\":1533:1535   */\n      0x1f\n        /* \"#utility.yul\":1526:1531   */\n      dup4\n        /* \"#utility.yul\":1522:1536   */\n      add\n        /* \"#utility.yul\":1518:1546   */\n      and\n        /* \"#utility.yul\":1508:1546   */\n      swap1\n      pop\n        /* \"#utility.yul\":1450:1552   */\n      swap2\n      swap1\n      pop\n      jump\t// out\n        /* \"#utility.yul\":1558:1935   */\n    tag_237:\n        /* \"#utility.yul\":1646:1649   */\n      0x00\n        /* \"#utility.yul\":1674:1713   */\n      tag_316\n        /* \"#utility.yul\":1707:1712   */\n      dup3\n        /* \"#utility.yul\":1674:1713   */\n      tag_233\n      jump\t// in\n    tag_316:\n        /* \"#utility.yul\":1729:1800   */\n      tag_317\n        /* \"#utility.yul\":1793:1799   */\n      dup2\n        /* \"#utility.yul\":1788:1791   */\n      dup6\n        /* \"#utility.yul\":1729:1800   */\n      tag_234\n      jump\t// in\n    tag_317:\n        /* \"#utility.yul\":1722:1800   */\n      swap4\n      pop\n        /* \"#utility.yul\":1809:1874   */\n      tag_318\n        /* \"#utility.yul\":1867:1873   */\n      dup2\n        /* \"#utility.yul\":1862:1865   */\n      dup6\n        /* \"#utility.yul\":1855:1859   */\n      0x20\n        /* \"#utility.yul\":1848:1853   */\n      dup7\n        /* \"#utility.yul\":1844:1860   */\n      add\n        /* \"#utility.yul\":1809:1874   */\n      tag_235\n      jump\t// in\n    tag_318:\n        /* \"#utility.yul\":1899:1928   */\n      tag_319\n        /* \"#utility.yul\":1921:1927   */\n      dup2\n        /* \"#utility.yul\":1899:1928   */\n      tag_236\n      jump\t// in\n    tag_319:\n        /* \"#utility.yul\":1894:1897   */\n      dup5\n        /* \"#utility.yul\":1890:1929   */\n      add\n        /* \"#utility.yul\":1883:1929   */\n      swap2\n      pop\n        /* \"#utility.yul\":1650:1935   */\n      pop\n        /* \"#utility.yul\":1558:1935   */\n      swap3\n      swap2\n      pop\n      pop\n      jump\t// out\n        /* \"#utility.yul\":1941:2059   */\n    tag_238:\n        /* \"#utility.yul\":2028:2052   */\n      tag_321\n        /* \"#utility.yul\":2046:2051   */\n      dup2\n        /* \"#utility.yul\":2028:2052   */\n      tag_230\n      jump\t// in\n    tag_321:\n        /* \"#utility.yul\":2023:2026   */\n      dup3\n        /* \"#utility.yul\":2016:2053   */\n      mstore\n        /* \"#utility.yul\":1941:2059   */\n      pop\n      pop\n      jump\t// out\n        /* \"#utility.yul\":2065:2598   */\n    tag_26:\n        /* \"#utility.yul\":2234:2238   */\n      0x00\n        /* \"#utility.yul\":2272:2274   */\n      0x60\n        /* \"#utility.yul\":2261:2270   */\n      dup3\n        /* \"#utility.yul\":2257:2275   */\n      add\n        /* \"#utility.yul\":2249:2275   */\n      swap1\n      pop\n        /* \"#utility.yul\":2321:2330   */\n      dup2\n        /* \"#utility.yul\":2315:2319   */\n      dup2\n        /* \"#utility.yul\":2311:2331   */\n      sub\n        /* \"#utility.yul\":2307:2308   */\n      0x00\n        /* \"#utility.yul\":2296:2305   */\n      dup4\n        /* \"#utility.yul\":2292:2309   */\n      add\n        /* \"#utility.yul\":2285:2332   */\n      mstore\n        /* \"#utility.yul\":2349:2427   */\n      tag_323\n        /* \"#utility.yul\":2422:2426   */\n      dup2\n        /* \"#utility.yul\":2413:2419   */\n      dup7\n        /* \"#utility.yul\":2349:2427   */\n      tag_237\n      jump\t// in\n    tag_323:\n        /* \"#utility.yul\":2341:2427   */\n      swap1\n      pop\n        /* \"#utility.yul\":2437:2509   */\n      tag_324\n        /* \"#utility.yul\":2505:2507   */\n      0x20\n        /* \"#utility.yul\":2494:2503   */\n      dup4\n        /* \"#utility.yul\":2490:2508   */\n      add\n        /* \"#utility.yul\":2481:2487   */\n      dup6\n        /* \"#utility.yul\":2437:2509   */\n      tag_238\n      jump\t// in\n    tag_324:\n        /* \"#utility.yul\":2519:2591   */\n      tag_325\n        /* \"#utility.yul\":2587:2589   */\n      0x40\n        /* \"#utility.yul\":2576:2585   */\n      dup4\n        /* \"#utility.yul\":2572:2590   */\n      add\n        /* \"#utility.yul\":2563:2569   */\n      dup5\n        /* \"#utility.yul\":2519:2591   */\n      tag_238\n      jump\t// in\n    tag_325:\n        /* \"#utility.yul\":2065:2598   */\n      swap5\n      swap4\n      pop\n      pop\n      pop\n      pop\n      jump\t// out\n        /* \"#utility.yul\":2604:2917   */\n    tag_31:\n        /* \"#utility.yul\":2717:2721   */\n      0x00\n        /* \"#utility.yul\":2755:2757   */\n      0x20\n        /* \"#utility.yul\":2744:2753   */\n      dup3\n        /* \"#utility.yul\":2740:2758   */\n      add\n        /* \"#utility.yul\":2732:2758   */\n      swap1\n      pop\n        /* \"#utility.yul\":2804:2813   */\n      dup2\n        /* \"#utility.yul\":2798:2802   */\n      dup2\n        /* \"#utility.yul\":2794:2814   */\n      sub\n        /* \"#utility.yul\":2790:2791   */\n      0x00\n        /* \"#utility.yul\":2779:2788   */\n      dup4\n        /* \"#utility.yul\":2775:2792   */\n      add\n        /* \"#utility.yul\":2768:2815   */\n      mstore\n        /* \"#utility.yul\":2832:2910   */\n      tag_327\n        /* \"#utility.yul\":2905:2909   */\n      dup2\n        /* \"#utility.yul\":2896:2902   */\n      dup5\n        /* \"#utility.yul\":2832:2910   */\n      tag_237\n      jump\t// in\n    tag_327:\n        /* \"#utility.yul\":2824:2910   */\n      swap1\n      pop\n        /* \"#utility.yul\":2604:2917   */\n      swap3\n      swap2\n      pop\n      pop\n      jump\t// out\n        /* \"#utility.yul\":2923:3145   */\n    tag_36:\n        /* \"#utility.yul\":3016:3020   */\n      0x00\n        /* \"#utility.yul\":3054:3056   */\n      0x20\n        /* \"#utility.yul\":3043:3052   */\n      dup3\n        /* \"#utility.yul\":3039:3057   */\n      add\n        /* \"#utility.yul\":3031:3057   */\n      swap1\n      pop\n        /* \"#utility.yul\":3067:3138   */\n      tag_329\n        /* \"#utility.yul\":3135:3136   */\n      0x00\n        /* \"#utility.yul\":3124:3133   */\n      dup4\n        /* \"#utility.yul\":3120:3137   */\n      add\n        /* \"#utility.yul\":3111:3117   */\n      dup5\n        /* \"#utility.yul\":3067:3138   */\n      tag_238\n      jump\t// in\n    tag_329:\n        /* \"#utility.yul\":2923:3145   */\n      swap3\n      swap2\n      pop\n      pop\n      jump\t// out\n        /* \"#utility.yul\":3151:3277   */\n    tag_239:\n        /* \"#utility.yul\":3188:3195   */\n      0x00\n        /* \"#utility.yul\":3228:3270   */\n      0xffffffffffffffffffffffffffffffffffffffff\n        /* \"#utility.yul\":3221:3226   */\n      dup3\n        /* \"#utility.yul\":3217:3271   */\n      and\n        /* \"#utility.yul\":3206:3271   */\n      swap1\n      pop\n        /* \"#utility.yul\":3151:3277   */\n      swap2\n      swap1\n      pop\n      jump\t// out\n        /* \"#utility.yul\":3283:3379   */\n    tag_240:\n        /* \"#utility.yul\":3320:3327   */\n      0x00\n        /* \"#utility.yul\":3349:3373   */\n      tag_332\n        /* \"#utility.yul\":3367:3372   */\n      dup3\n        /* \"#utility.yul\":3349:3373   */\n      tag_239\n      jump\t// in\n    tag_332:\n        /* \"#utility.yul\":3338:3373   */\n      swap1\n      pop\n        /* \"#utility.yul\":3283:3379   */\n      swap2\n      swap1\n      pop\n      jump\t// out\n        /* \"#utility.yul\":3385:3507   */\n    tag_241:\n        /* \"#utility.yul\":3458:3482   */\n      tag_334\n        /* \"#utility.yul\":3476:3481   */\n      dup2\n        /* \"#utility.yul\":3458:3482   */\n      tag_240\n      jump\t// in\n    tag_334:\n        /* \"#utility.yul\":3451:3456   */\n      dup2\n        /* \"#utility.yul\":3448:3483   */\n      eq\n        /* \"#utility.yul\":3438:3501   */\n      tag_335\n      jumpi\n        /* \"#utility.yul\":3497:3498   */\n      0x00\n        /* \"#utility.yul\":3494:3495   */\n      0x00\n        /* \"#utility.yul\":3487:3499   */\n      revert\n        /* \"#utility.yul\":3438:3501   */\n    tag_335:\n        /* \"#utility.yul\":3385:3507   */\n      pop\n      jump\t// out\n        /* \"#utility.yul\":3513:3652   */\n    tag_242:\n        /* \"#utility.yul\":3559:3564   */\n      0x00\n        /* \"#utility.yul\":3597:3603   */\n      dup2\n        /* \"#utility.yul\":3584:3604   */\n      calldataload\n        /* \"#utility.yul\":3575:3604   */\n      swap1\n      pop\n        /* \"#utility.yul\":3613:3646   */\n      tag_337\n        /* \"#utility.yul\":3640:3645   */\n      dup2\n        /* \"#utility.yul\":3613:3646   */\n      tag_241\n      jump\t// in\n    tag_337:\n        /* \"#utility.yul\":3513:3652   */\n      swap3\n      swap2\n      pop\n      pop\n      jump\t// out\n        /* \"#utility.yul\":3658:4132   */\n    tag_62:\n        /* \"#utility.yul\":3726:3732   */\n      0x00\n        /* \"#utility.yul\":3734:3740   */\n      0x00\n        /* \"#utility.yul\":3783:3785   */\n      0x40\n        /* \"#utility.yul\":3771:3780   */\n      dup4\n        /* \"#utility.yul\":3762:3769   */\n      dup6\n        /* \"#utility.yul\":3758:3781   */\n      sub\n        /* \"#utility.yul\":3754:3786   */\n      slt\n        /* \"#utility.yul\":3751:3870   */\n      iszero\n      tag_339\n      jumpi\n        /* \"#utility.yul\":3789:3868   */\n      tag_340\n      tag_228\n      jump\t// in\n    tag_340:\n        /* \"#utility.yul\":3751:3870   */\n    tag_339:\n        /* \"#utility.yul\":3909:3910   */\n      0x00\n        /* \"#utility.yul\":3934:3987   */\n      tag_341\n        /* \"#utility.yul\":3979:3986   */\n      dup6\n        /* \"#utility.yul\":3970:3976   */\n      dup3\n        /* \"#utility.yul\":3959:3968   */\n      dup7\n        /* \"#utility.yul\":3955:3977   */\n      add\n        /* \"#utility.yul\":3934:3987   */\n      tag_242\n      jump\t// in\n    tag_341:\n        /* \"#utility.yul\":3924:3987   */\n      swap3\n      pop\n        /* \"#utility.yul\":3880:3997   */\n      pop\n        /* \"#utility.yul\":4036:4038   */\n      0x20\n        /* \"#utility.yul\":4062:4115   */\n      tag_342\n        /* \"#utility.yul\":4107:4114   */\n      dup6\n        /* \"#utility.yul\":4098:4104   */\n      dup3\n        /* \"#utility.yul\":4087:4096   */\n      dup7\n        /* \"#utility.yul\":4083:4105   */\n      add\n        /* \"#utility.yul\":4062:4115   */\n      tag_232\n      jump\t// in\n    tag_342:\n        /* \"#utility.yul\":4052:4115   */\n      swap2\n      pop\n        /* \"#utility.yul\":4007:4125   */\n      pop\n        /* \"#utility.yul\":3658:4132   */\n      swap3\n      pop\n      swap3\n      swap1\n      pop\n      jump\t// out\n        /* \"#utility.yul\":4138:4228   */\n    tag_243:\n        /* \"#utility.yul\":4172:4179   */\n      0x00\n        /* \"#utility.yul\":4215:4220   */\n      dup2\n        /* \"#utility.yul\":4208:4221   */\n      iszero\n        /* \"#utility.yul\":4201:4222   */\n      iszero\n        /* \"#utility.yul\":4190:4222   */\n      swap1\n      pop\n        /* \"#utility.yul\":4138:4228   */\n      swap2\n      swap1\n      pop\n      jump\t// out\n        /* \"#utility.yul\":4234:4343   */\n    tag_244:\n        /* \"#utility.yul\":4315:4336   */\n      tag_345\n        /* \"#utility.yul\":4330:4335   */\n      dup2\n        /* \"#utility.yul\":4315:4336   */\n      tag_243\n      jump\t// in\n    tag_345:\n        /* \"#utility.yul\":4310:4313   */\n      dup3\n        /* \"#utility.yul\":4303:4337   */\n      mstore\n        /* \"#utility.yul\":4234:4343   */\n      pop\n      pop\n      jump\t// out\n        /* \"#utility.yul\":4349:4559   */\n    tag_65:\n        /* \"#utility.yul\":4436:4440   */\n      0x00\n        /* \"#utility.yul\":4474:4476   */\n      0x20\n        /* \"#utility.yul\":4463:4472   */\n      dup3\n        /* \"#utility.yul\":4459:4477   */\n      add\n        /* \"#utility.yul\":4451:4477   */\n      swap1\n      pop\n        /* \"#utility.yul\":4487:4552   */\n      tag_347\n        /* \"#utility.yul\":4549:4550   */\n      0x00\n        /* \"#utility.yul\":4538:4547   */\n      dup4\n        /* \"#utility.yul\":4534:4551   */\n      add\n        /* \"#utility.yul\":4525:4531   */\n      dup5\n        /* \"#utility.yul\":4487:4552   */\n      tag_244\n      jump\t// in\n    tag_347:\n        /* \"#utility.yul\":4349:4559   */\n      swap3\n      swap2\n      pop\n      pop\n      jump\t// out\n        /* \"#utility.yul\":4565:4683   */\n    tag_245:\n        /* \"#utility.yul\":4652:4676   */\n      tag_349\n        /* \"#utility.yul\":4670:4675   */\n      dup2\n        /* \"#utility.yul\":4652:4676   */\n      tag_240\n      jump\t// in\n    tag_349:\n        /* \"#utility.yul\":4647:4650   */\n      dup3\n        /* \"#utility.yul\":4640:4677   */\n      mstore\n        /* \"#utility.yul\":4565:4683   */\n      pop\n      pop\n      jump\t// out\n        /* \"#utility.yul\":4689:4911   */\n    tag_70:\n        /* \"#utility.yul\":4782:4786   */\n      0x00\n        /* \"#utility.yul\":4820:4822   */\n      0x20\n        /* \"#utility.yul\":4809:4818   */\n      dup3\n        /* \"#utility.yul\":4805:4823   */\n      add\n        /* \"#utility.yul\":4797:4823   */\n      swap1\n      pop\n        /* \"#utility.yul\":4833:4904   */\n      tag_351\n        /* \"#utility.yul\":4901:4902   */\n      0x00\n        /* \"#utility.yul\":4890:4899   */\n      dup4\n        /* \"#utility.yul\":4886:4903   */\n      add\n        /* \"#utility.yul\":4877:4883   */\n      dup5\n        /* \"#utility.yul\":4833:4904   */\n      tag_245\n      jump\t// in\n    tag_351:\n        /* \"#utility.yul\":4689:4911   */\n      swap3\n      swap2\n      pop\n      pop\n      jump\t// out\n        /* \"#utility.yul\":4917:5034   */\n    tag_246:\n        /* \"#utility.yul\":5026:5027   */\n      0x00\n        /* \"#utility.yul\":5023:5024   */\n      0x00\n        /* \"#utility.yul\":5016:5028   */\n      revert\n        /* \"#utility.yul\":5040:5157   */\n    tag_247:\n        /* \"#utility.yul\":5149:5150   */\n      0x00\n        /* \"#utility.yul\":5146:5147   */\n      0x00\n        /* \"#utility.yul\":5139:5151   */\n      revert\n        /* \"#utility.yul\":5163:5343   */\n    tag_248:\n        /* \"#utility.yul\":5211:5288   */\n      0x4e487b7100000000000000000000000000000000000000000000000000000000\n        /* \"#utility.yul\":5208:5209   */\n      0x00\n        /* \"#utility.yul\":5201:5289   */\n      mstore\n        /* \"#utility.yul\":5308:5312   */\n      0x41\n        /* \"#utility.yul\":5305:5306   */\n      0x04\n        /* \"#utility.yul\":5298:5313   */\n      mstore\n        /* \"#utility.yul\":5332:5336   */\n      0x24\n        /* \"#utility.yul\":5329:5330   */\n      0x00\n        /* \"#utility.yul\":5322:5337   */\n      revert\n        /* \"#utility.yul\":5349:5630   */\n    tag_249:\n        /* \"#utility.yul\":5432:5459   */\n      tag_356\n        /* \"#utility.yul\":5454:5458   */\n      dup3\n        /* \"#utility.yul\":5432:5459   */\n      tag_236\n      jump\t// in\n    tag_356:\n        /* \"#utility.yul\":5424:5430   */\n      dup2\n        /* \"#utility.yul\":5420:5460   */\n      add\n        /* \"#utility.yul\":5562:5568   */\n      dup2\n        /* \"#utility.yul\":5550:5560   */\n      dup2\n        /* \"#utility.yul\":5547:5569   */\n      lt\n        /* \"#utility.yul\":5526:5544   */\n      0xffffffffffffffff\n        /* \"#utility.yul\":5514:5524   */\n      dup3\n        /* \"#utility.yul\":5511:5545   */\n      gt\n        /* \"#utility.yul\":5508:5570   */\n      or\n        /* \"#utility.yul\":5505:5593   */\n      iszero\n      tag_357\n      jumpi\n        /* \"#utility.yul\":5573:5591   */\n      tag_358\n      tag_248\n      jump\t// in\n    tag_358:\n        /* \"#utility.yul\":5505:5593   */\n    tag_357:\n        /* \"#utility.yul\":5613:5623   */\n      dup1\n        /* \"#utility.yul\":5609:5611   */\n      0x40\n        /* \"#utility.yul\":5602:5624   */\n      mstore\n        /* \"#utility.yul\":5392:5630   */\n      pop\n        /* \"#utility.yul\":5349:5630   */\n      pop\n      pop\n      jump\t// out\n        /* \"#utility.yul\":5636:5765   */\n    tag_250:\n        /* \"#utility.yul\":5670:5676   */\n      0x00\n        /* \"#utility.yul\":5697:5717   */\n      tag_360\n      tag_227\n      jump\t// in\n    tag_360:\n        /* \"#utility.yul\":5687:5717   */\n      swap1\n      pop\n        /* \"#utility.yul\":5726:5759   */\n      tag_361\n        /* \"#utility.yul\":5754:5758   */\n      dup3\n        /* \"#utility.yul\":5746:5752   */\n      dup3\n        /* \"#utility.yul\":5726:5759   */\n      tag_249\n      jump\t// in\n    tag_361:\n        /* \"#utility.yul\":5636:5765   */\n      swap2\n      swap1\n      pop\n      jump\t// out\n        /* \"#utility.yul\":5771:6079   */\n    tag_251:\n        /* \"#utility.yul\":5833:5837   */\n      0x00\n        /* \"#utility.yul\":5923:5941   */\n      0xffffffffffffffff\n        /* \"#utility.yul\":5915:5921   */\n      dup3\n        /* \"#utility.yul\":5912:5942   */\n      gt\n        /* \"#utility.yul\":5909:5965   */\n      iszero\n      tag_363\n      jumpi\n        /* \"#utility.yul\":5945:5963   */\n      tag_364\n      tag_248\n      jump\t// in\n    tag_364:\n        /* \"#utility.yul\":5909:5965   */\n    tag_363:\n        /* \"#utility.yul\":5983:6012   */\n      tag_365\n        /* \"#utility.yul\":6005:6011   */\n      dup3\n        /* \"#utility.yul\":5983:6012   */\n      tag_236\n      jump\t// in\n    tag_365:\n        /* \"#utility.yul\":5975:6012   */\n      swap1\n      pop\n        /* \"#utility.yul\":6067:6071   */\n      0x20\n        /* \"#utility.yul\":6061:6065   */\n      dup2\n        /* \"#utility.yul\":6057:6072   */\n      add\n        /* \"#utility.yul\":6049:6072   */\n      swap1\n      pop\n        /* \"#utility.yul\":5771:6079   */\n      swap2\n      swap1\n      pop\n      jump\t// out\n        /* \"#utility.yul\":6085:6233   */\n    tag_252:\n        /* \"#utility.yul\":6183:6189   */\n      dup3\n        /* \"#utility.yul\":6178:6181   */\n      dup2\n        /* \"#utility.yul\":6173:6176   */\n      dup4\n        /* \"#utility.yul\":6160:6190   */\n      calldatacopy\n        /* \"#utility.yul\":6224:6225   */\n      0x00\n        /* \"#utility.yul\":6215:6221   */\n      dup4\n        /* \"#utility.yul\":6210:6213   */\n      dup4\n        /* \"#utility.yul\":6206:6222   */\n      add\n        /* \"#utility.yul\":6199:6226   */\n      mstore\n        /* \"#utility.yul\":6085:6233   */\n      pop\n      pop\n      pop\n      jump\t// out\n        /* \"#utility.yul\":6239:6664   */\n    tag_253:\n        /* \"#utility.yul\":6317:6322   */\n      0x00\n        /* \"#utility.yul\":6342:6408   */\n      tag_368\n        /* \"#utility.yul\":6358:6407   */\n      tag_369\n        /* \"#utility.yul\":6400:6406   */\n      dup5\n        /* \"#utility.yul\":6358:6407   */\n      tag_251\n      jump\t// in\n    tag_369:\n        /* \"#utility.yul\":6342:6408   */\n      tag_250\n      jump\t// in\n    tag_368:\n        /* \"#utility.yul\":6333:6408   */\n      swap1\n      pop\n        /* \"#utility.yul\":6431:6437   */\n      dup3\n        /* \"#utility.yul\":6424:6429   */\n      dup2\n        /* \"#utility.yul\":6417:6438   */\n      mstore\n        /* \"#utility.yul\":6469:6473   */\n      0x20\n        /* \"#utility.yul\":6462:6467   */\n      dup2\n        /* \"#utility.yul\":6458:6474   */\n      add\n        /* \"#utility.yul\":6507:6510   */\n      dup5\n        /* \"#utility.yul\":6498:6504   */\n      dup5\n        /* \"#utility.yul\":6493:6496   */\n      dup5\n        /* \"#utility.yul\":6489:6505   */\n      add\n        /* \"#utility.yul\":6486:6511   */\n      gt\n        /* \"#utility.yul\":6483:6595   */\n      iszero\n      tag_370\n      jumpi\n        /* \"#utility.yul\":6514:6593   */\n      tag_371\n      tag_247\n      jump\t// in\n    tag_371:\n        /* \"#utility.yul\":6483:6595   */\n    tag_370:\n        /* \"#utility.yul\":6604:6658   */\n      tag_372\n        /* \"#utility.yul\":6651:6657   */\n      dup5\n        /* \"#utility.yul\":6646:6649   */\n      dup3\n        /* \"#utility.yul\":6641:6644   */\n      dup6\n        /* \"#utility.yul\":6604:6658   */\n      tag_252\n      jump\t// in\n    tag_372:\n        /* \"#utility.yul\":6323:6664   */\n      pop\n        /* \"#utility.yul\":6239:6664   */\n      swap4\n      swap3\n      pop\n      pop\n      pop\n      jump\t// out\n        /* \"#utility.yul\":6684:7024   */\n    tag_254:\n        /* \"#utility.yul\":6740:6745   */\n      0x00\n        /* \"#utility.yul\":6789:6792   */\n      dup3\n        /* \"#utility.yul\":6782:6786   */\n      0x1f\n        /* \"#utility.yul\":6774:6780   */\n      dup4\n        /* \"#utility.yul\":6770:6787   */\n      add\n        /* \"#utility.yul\":6766:6793   */\n      slt\n        /* \"#utility.yul\":6756:6878   */\n      tag_374\n      jumpi\n        /* \"#utility.yul\":6797:6876   */\n      tag_375\n      tag_246\n      jump\t// in\n    tag_375:\n        /* \"#utility.yul\":6756:6878   */\n    tag_374:\n        /* \"#utility.yul\":6914:6920   */\n      dup2\n        /* \"#utility.yul\":6901:6921   */\n      calldataload\n        /* \"#utility.yul\":6939:7018   */\n      tag_376\n        /* \"#utility.yul\":7014:7017   */\n      dup5\n        /* \"#utility.yul\":7006:7012   */\n      dup3\n        /* \"#utility.yul\":6999:7003   */\n      0x20\n        /* \"#utility.yul\":6991:6997   */\n      dup7\n        /* \"#utility.yul\":6987:7004   */\n      add\n        /* \"#utility.yul\":6939:7018   */\n      tag_253\n      jump\t// in\n    tag_376:\n        /* \"#utility.yul\":6930:7018   */\n      swap2\n      pop\n        /* \"#utility.yul\":6746:7024   */\n      pop\n        /* \"#utility.yul\":6684:7024   */\n      swap3\n      swap2\n      pop\n      pop\n      jump\t// out\n        /* \"#utility.yul\":7030:7684   */\n    tag_74:\n        /* \"#utility.yul\":7108:7114   */\n      0x00\n        /* \"#utility.yul\":7116:7122   */\n      0x00\n        /* \"#utility.yul\":7165:7167   */\n      0x40\n        /* \"#utility.yul\":7153:7162   */\n      dup4\n        /* \"#utility.yul\":7144:7151   */\n      dup6\n        /* \"#utility.yul\":7140:7163   */\n      sub\n        /* \"#utility.yul\":7136:7168   */\n      slt\n        /* \"#utility.yul\":7133:7252   */\n      iszero\n      tag_378\n      jumpi\n        /* \"#utility.yul\":7171:7250   */\n      tag_379\n      tag_228\n      jump\t// in\n    tag_379:\n        /* \"#utility.yul\":7133:7252   */\n    tag_378:\n        /* \"#utility.yul\":7319:7320   */\n      0x00\n        /* \"#utility.yul\":7308:7317   */\n      dup4\n        /* \"#utility.yul\":7304:7321   */\n      add\n        /* \"#utility.yul\":7291:7322   */\n      calldataload\n        /* \"#utility.yul\":7349:7367   */\n      0xffffffffffffffff\n        /* \"#utility.yul\":7341:7347   */\n      dup2\n        /* \"#utility.yul\":7338:7368   */\n      gt\n        /* \"#utility.yul\":7335:7452   */\n      iszero\n      tag_380\n      jumpi\n        /* \"#utility.yul\":7371:7450   */\n      tag_381\n      tag_229\n      jump\t// in\n    tag_381:\n        /* \"#utility.yul\":7335:7452   */\n    tag_380:\n        /* \"#utility.yul\":7476:7539   */\n      tag_382\n        /* \"#utility.yul\":7531:7538   */\n      dup6\n        /* \"#utility.yul\":7522:7528   */\n      dup3\n        /* \"#utility.yul\":7511:7520   */\n      dup7\n        /* \"#utility.yul\":7507:7529   */\n      add\n        /* \"#utility.yul\":7476:7539   */\n      tag_254\n      jump\t// in\n    tag_382:\n        /* \"#utility.yul\":7466:7539   */\n      swap3\n      pop\n        /* \"#utility.yul\":7262:7549   */\n      pop\n        /* \"#utility.yul\":7588:7590   */\n      0x20\n        /* \"#utility.yul\":7614:7667   */\n      tag_383\n        /* \"#utility.yul\":7659:7666   */\n      dup6\n        /* \"#utility.yul\":7650:7656   */\n      dup3\n        /* \"#utility.yul\":7639:7648   */\n      dup7\n        /* \"#utility.yul\":7635:7657   */\n      add\n        /* \"#utility.yul\":7614:7667   */\n      tag_232\n      jump\t// in\n    tag_383:\n        /* \"#utility.yul\":7604:7667   */\n      swap2\n      pop\n        /* \"#utility.yul\":7559:7677   */\n      pop\n        /* \"#utility.yul\":7030:7684   */\n      swap3\n      pop\n      swap3\n      swap1\n      pop\n      jump\t// out\n        /* \"#utility.yul\":7690:8019   */\n    tag_79:\n        /* \"#utility.yul\":7749:7755   */\n      0x00\n        /* \"#utility.yul\":7798:7800   */\n      0x20\n        /* \"#utility.yul\":7786:7795   */\n      dup3\n        /* \"#utility.yul\":7777:7784   */\n      dup5\n        /* \"#utility.yul\":7773:7796   */\n      sub\n        /* \"#utility.yul\":7769:7801   */\n      slt\n        /* \"#utility.yul\":7766:7885   */\n      iszero\n      tag_385\n      jumpi\n        /* \"#utility.yul\":7804:7883   */\n      tag_386\n      tag_228\n      jump\t// in\n    tag_386:\n        /* \"#utility.yul\":7766:7885   */\n    tag_385:\n        /* \"#utility.yul\":7924:7925   */\n      0x00\n        /* \"#utility.yul\":7949:8002   */\n      tag_387\n        /* \"#utility.yul\":7994:8001   */\n      dup5\n        /* \"#utility.yul\":7985:7991   */\n      dup3\n        /* \"#utility.yul\":7974:7983   */\n      dup6\n        /* \"#utility.yul\":7970:7992   */\n      add\n        /* \"#utility.yul\":7949:8002   */\n      tag_242\n      jump\t// in\n    tag_387:\n        /* \"#utility.yul\":7939:8002   */\n      swap2\n      pop\n        /* \"#utility.yul\":7895:8012   */\n      pop\n        /* \"#utility.yul\":7690:8019   */\n      swap3\n      swap2\n      pop\n      pop\n      jump\t// out\n        /* \"#utility.yul\":8025:8205   */\n    tag_112:\n        /* \"#utility.yul\":8073:8150   */\n      0x4e487b7100000000000000000000000000000000000000000000000000000000\n        /* \"#utility.yul\":8070:8071   */\n      0x00\n        /* \"#utility.yul\":8063:8151   */\n      mstore\n        /* \"#utility.yul\":8170:8174   */\n      0x21\n        /* \"#utility.yul\":8167:8168   */\n      0x04\n        /* \"#utility.yul\":8160:8175   */\n      mstore\n        /* \"#utility.yul\":8194:8198   */\n      0x24\n        /* \"#utility.yul\":8191:8192   */\n      0x00\n        /* \"#utility.yul\":8184:8199   */\n      revert\n        /* \"#utility.yul\":8211:8332   */\n    tag_255:\n        /* \"#utility.yul\":8300:8301   */\n      0x03\n        /* \"#utility.yul\":8293:8298   */\n      dup2\n        /* \"#utility.yul\":8290:8302   */\n      lt\n        /* \"#utility.yul\":8280:8326   */\n      tag_390\n      jumpi\n        /* \"#utility.yul\":8306:8324   */\n      tag_391\n      tag_112\n      jump\t// in\n    tag_391:\n        /* \"#utility.yul\":8280:8326   */\n    tag_390:\n        /* \"#utility.yul\":8211:8332   */\n      pop\n      jump\t// out\n        /* \"#utility.yul\":8338:8481   */\n    tag_256:\n        /* \"#utility.yul\":8391:8398   */\n      0x00\n        /* \"#utility.yul\":8420:8425   */\n      dup2\n        /* \"#utility.yul\":8409:8425   */\n      swap1\n      pop\n        /* \"#utility.yul\":8426:8475   */\n      tag_393\n        /* \"#utility.yul\":8469:8474   */\n      dup3\n        /* \"#utility.yul\":8426:8475   */\n      tag_255\n      jump\t// in\n    tag_393:\n        /* \"#utility.yul\":8338:8481   */\n      swap2\n      swap1\n      pop\n      jump\t// out\n        /* \"#utility.yul\":8487:8630   */\n    tag_257:\n        /* \"#utility.yul\":8551:8560   */\n      0x00\n        /* \"#utility.yul\":8584:8624   */\n      tag_395\n        /* \"#utility.yul\":8618:8623   */\n      dup3\n        /* \"#utility.yul\":8584:8624   */\n      tag_256\n      jump\t// in\n    tag_395:\n        /* \"#utility.yul\":8571:8624   */\n      swap1\n      pop\n        /* \"#utility.yul\":8487:8630   */\n      swap2\n      swap1\n      pop\n      jump\t// out\n        /* \"#utility.yul\":8636:8795   */\n    tag_258:\n        /* \"#utility.yul\":8737:8788   */\n      tag_397\n        /* \"#utility.yul\":8782:8787   */\n      dup2\n        /* \"#utility.yul\":8737:8788   */\n      tag_257\n      jump\t// in\n    tag_397:\n        /* \"#utility.yul\":8732:8735   */\n      dup3\n        /* \"#utility.yul\":8725:8789   */\n      mstore\n        /* \"#utility.yul\":8636:8795   */\n      pop\n      pop\n      jump\t// out\n        /* \"#utility.yul\":8801:9051   */\n    tag_86:\n        /* \"#utility.yul\":8908:8912   */\n      0x00\n        /* \"#utility.yul\":8946:8948   */\n      0x20\n        /* \"#utility.yul\":8935:8944   */\n      dup3\n        /* \"#utility.yul\":8931:8949   */\n      add\n        /* \"#utility.yul\":8923:8949   */\n      swap1\n      pop\n        /* \"#utility.yul\":8959:9044   */\n      tag_399\n        /* \"#utility.yul\":9041:9042   */\n      0x00\n        /* \"#utility.yul\":9030:9039   */\n      dup4\n        /* \"#utility.yul\":9026:9043   */\n      add\n        /* \"#utility.yul\":9017:9023   */\n      dup5\n        /* \"#utility.yul\":8959:9044   */\n      tag_258\n      jump\t// in\n    tag_399:\n        /* \"#utility.yul\":8801:9051   */\n      swap3\n      swap2\n      pop\n      pop\n      jump\t// out\n        /* \"#utility.yul\":9057:9237   */\n    tag_259:\n        /* \"#utility.yul\":9105:9182   */\n      0x4e487b7100000000000000000000000000000000000000000000000000000000\n        /* \"#utility.yul\":9102:9103   */\n      0x00\n        /* \"#utility.yul\":9095:9183   */\n      mstore\n        /* \"#utility.yul\":9202:9206   */\n      0x22\n        /* \"#utility.yul\":9199:9200   */\n      0x04\n        /* \"#utility.yul\":9192:9207   */\n      mstore\n        /* \"#utility.yul\":9226:9230   */\n      0x24\n        /* \"#utility.yul\":9223:9224   */\n      0x00\n        /* \"#utility.yul\":9216:9231   */\n      revert\n        /* \"#utility.yul\":9243:9563   */\n    tag_93:\n        /* \"#utility.yul\":9287:9293   */\n      0x00\n        /* \"#utility.yul\":9324:9325   */\n      0x02\n        /* \"#utility.yul\":9318:9322   */\n      dup3\n        /* \"#utility.yul\":9314:9326   */\n      div\n        /* \"#utility.yul\":9304:9326   */\n      swap1\n      pop\n        /* \"#utility.yul\":9371:9372   */\n      0x01\n        /* \"#utility.yul\":9365:9369   */\n      dup3\n        /* \"#utility.yul\":9361:9373   */\n      and\n        /* \"#utility.yul\":9392:9410   */\n      dup1\n        /* \"#utility.yul\":9382:9463   */\n      tag_402\n      jumpi\n        /* \"#utility.yul\":9448:9452   */\n      0x7f\n        /* \"#utility.yul\":9440:9446   */\n      dup3\n        /* \"#utility.yul\":9436:9453   */\n      and\n        /* \"#utility.yul\":9426:9453   */\n      swap2\n      pop\n        /* \"#utility.yul\":9382:9463   */\n    tag_402:\n        /* \"#utility.yul\":9510:9512   */\n      0x20\n        /* \"#utility.yul\":9502:9508   */\n      dup3\n        /* \"#utility.yul\":9499:9513   */\n      lt\n        /* \"#utility.yul\":9479:9497   */\n      dup2\n        /* \"#utility.yul\":9476:9514   */\n      sub\n        /* \"#utility.yul\":9473:9557   */\n      tag_403\n      jumpi\n        /* \"#utility.yul\":9529:9547   */\n      tag_404\n      tag_259\n      jump\t// in\n    tag_404:\n        /* \"#utility.yul\":9473:9557   */\n    tag_403:\n        /* \"#utility.yul\":9294:9563   */\n      pop\n        /* \"#utility.yul\":9243:9563   */\n      swap2\n      swap1\n      pop\n      jump\t// out\n        /* \"#utility.yul\":9569:9732   */\n    tag_260:\n        /* \"#utility.yul\":9709:9724   */\n      0x4e6f7420746865206f776e657200000000000000000000000000000000000000\n        /* \"#utility.yul\":9705:9706   */\n      0x00\n        /* \"#utility.yul\":9697:9703   */\n      dup3\n        /* \"#utility.yul\":9693:9707   */\n      add\n        /* \"#utility.yul\":9686:9725   */\n      mstore\n        /* \"#utility.yul\":9569:9732   */\n      pop\n      jump\t// out\n        /* \"#utility.yul\":9738:10104   */\n    tag_261:\n        /* \"#utility.yul\":9880:9883   */\n      0x00\n        /* \"#utility.yul\":9901:9968   */\n      tag_407\n        /* \"#utility.yul\":9965:9967   */\n      0x0d\n        /* \"#utility.yul\":9960:9963   */\n      dup4\n        /* \"#utility.yul\":9901:9968   */\n      tag_234\n      jump\t// in\n    tag_407:\n        /* \"#utility.yul\":9894:9968   */\n      swap2\n      pop\n        /* \"#utility.yul\":9977:10070   */\n      tag_408\n        /* \"#utility.yul\":10066:10069   */\n      dup3\n        /* \"#utility.yul\":9977:10070   */\n      tag_260\n      jump\t// in\n    tag_408:\n        /* \"#utility.yul\":10095:10097   */\n      0x20\n        /* \"#utility.yul\":10090:10093   */\n      dup3\n        /* \"#utility.yul\":10086:10098   */\n      add\n        /* \"#utility.yul\":10079:10098   */\n      swap1\n      pop\n        /* \"#utility.yul\":9738:10104   */\n      swap2\n      swap1\n      pop\n      jump\t// out\n        /* \"#utility.yul\":10110:10529   */\n    tag_106:\n        /* \"#utility.yul\":10276:10280   */\n      0x00\n        /* \"#utility.yul\":10314:10316   */\n      0x20\n        /* \"#utility.yul\":10303:10312   */\n      dup3\n        /* \"#utility.yul\":10299:10317   */\n      add\n        /* \"#utility.yul\":10291:10317   */\n      swap1\n      pop\n        /* \"#utility.yul\":10363:10372   */\n      dup2\n        /* \"#utility.yul\":10357:10361   */\n      dup2\n        /* \"#utility.yul\":10353:10373   */\n      sub\n        /* \"#utility.yul\":10349:10350   */\n      0x00\n        /* \"#utility.yul\":10338:10347   */\n      dup4\n        /* \"#utility.yul\":10334:10351   */\n      add\n        /* \"#utility.yul\":10327:10374   */\n      mstore\n        /* \"#utility.yul\":10391:10522   */\n      tag_410\n        /* \"#utility.yul\":10517:10521   */\n      dup2\n        /* \"#utility.yul\":10391:10522   */\n      tag_261\n      jump\t// in\n    tag_410:\n        /* \"#utility.yul\":10383:10522   */\n      swap1\n      pop\n        /* \"#utility.yul\":10110:10529   */\n      swap2\n      swap1\n      pop\n      jump\t// out\n        /* \"#utility.yul\":10535:10708   */\n    tag_262:\n        /* \"#utility.yul\":10675:10700   */\n      0x43616d706167696e206e6f74207375636365737366756c000000000000000000\n        /* \"#utility.yul\":10671:10672   */\n      0x00\n        /* \"#utility.yul\":10663:10669   */\n      dup3\n        /* \"#utility.yul\":10659:10673   */\n      add\n        /* \"#utility.yul\":10652:10701   */\n      mstore\n        /* \"#utility.yul\":10535:10708   */\n      pop\n      jump\t// out\n        /* \"#utility.yul\":10714:11080   */\n    tag_263:\n        /* \"#utility.yul\":10856:10859   */\n      0x00\n        /* \"#utility.yul\":10877:10944   */\n      tag_413\n        /* \"#utility.yul\":10941:10943   */\n      0x17\n        /* \"#utility.yul\":10936:10939   */\n      dup4\n        /* \"#utility.yul\":10877:10944   */\n      tag_234\n      jump\t// in\n    tag_413:\n        /* \"#utility.yul\":10870:10944   */\n      swap2\n      pop\n        /* \"#utility.yul\":10953:11046   */\n      tag_414\n        /* \"#utility.yul\":11042:11045   */\n      dup3\n        /* \"#utility.yul\":10953:11046   */\n      tag_262\n      jump\t// in\n    tag_414:\n        /* \"#utility.yul\":11071:11073   */\n      0x20\n        /* \"#utility.yul\":11066:11069   */\n      dup3\n        /* \"#utility.yul\":11062:11074   */\n      add\n        /* \"#utility.yul\":11055:11074   */\n      swap1\n      pop\n        /* \"#utility.yul\":10714:11080   */\n      swap2\n      swap1\n      pop\n      jump\t// out\n        /* \"#utility.yul\":11086:11505   */\n    tag_117:\n        /* \"#utility.yul\":11252:11256   */\n      0x00\n        /* \"#utility.yul\":11290:11292   */\n      0x20\n        /* \"#utility.yul\":11279:11288   */\n      dup3\n        /* \"#utility.yul\":11275:11293   */\n      add\n        /* \"#utility.yul\":11267:11293   */\n      swap1\n      pop\n        /* \"#utility.yul\":11339:11348   */\n      dup2\n        /* \"#utility.yul\":11333:11337   */\n      dup2\n        /* \"#utility.yul\":11329:11349   */\n      sub\n        /* \"#utility.yul\":11325:11326   */\n      0x00\n        /* \"#utility.yul\":11314:11323   */\n      dup4\n        /* \"#utility.yul\":11310:11327   */\n      add\n        /* \"#utility.yul\":11303:11350   */\n      mstore\n        /* \"#utility.yul\":11367:11498   */\n      tag_416\n        /* \"#utility.yul\":11493:11497   */\n      dup2\n        /* \"#utility.yul\":11367:11498   */\n      tag_263\n      jump\t// in\n    tag_416:\n        /* \"#utility.yul\":11359:11498   */\n      swap1\n      pop\n        /* \"#utility.yul\":11086:11505   */\n      swap2\n      swap1\n      pop\n      jump\t// out\n        /* \"#utility.yul\":11511:11684   */\n    tag_264:\n        /* \"#utility.yul\":11651:11676   */\n      0x4e6f2062616c616e636520746f2077697468647261772e000000000000000000\n        /* \"#utility.yul\":11647:11648   */\n      0x00\n        /* \"#utility.yul\":11639:11645   */\n      dup3\n        /* \"#utility.yul\":11635:11649   */\n      add\n        /* \"#utility.yul\":11628:11677   */\n      mstore\n        /* \"#utility.yul\":11511:11684   */\n      pop\n      jump\t// out\n        /* \"#utility.yul\":11690:12056   */\n    tag_265:\n        /* \"#utility.yul\":11832:11835   */\n      0x00\n        /* \"#utility.yul\":11853:11920   */\n      tag_419\n        /* \"#utility.yul\":11917:11919   */\n      0x17\n        /* \"#utility.yul\":11912:11915   */\n      dup4\n        /* \"#utility.yul\":11853:11920   */\n      tag_234\n      jump\t// in\n    tag_419:\n        /* \"#utility.yul\":11846:11920   */\n      swap2\n      pop\n        /* \"#utility.yul\":11929:12022   */\n      tag_420\n        /* \"#utility.yul\":12018:12021   */\n      dup3\n        /* \"#utility.yul\":11929:12022   */\n      tag_264\n      jump\t// in\n    tag_420:\n        /* \"#utility.yul\":12047:12049   */\n      0x20\n        /* \"#utility.yul\":12042:12045   */\n      dup3\n        /* \"#utility.yul\":12038:12050   */\n      add\n        /* \"#utility.yul\":12031:12050   */\n      swap1\n      pop\n        /* \"#utility.yul\":11690:12056   */\n      swap2\n      swap1\n      pop\n      jump\t// out\n        /* \"#utility.yul\":12062:12481   */\n    tag_120:\n        /* \"#utility.yul\":12228:12232   */\n      0x00\n        /* \"#utility.yul\":12266:12268   */\n      0x20\n        /* \"#utility.yul\":12255:12264   */\n      dup3\n        /* \"#utility.yul\":12251:12269   */\n      add\n        /* \"#utility.yul\":12243:12269   */\n      swap1\n      pop\n        /* \"#utility.yul\":12315:12324   */\n      dup2\n        /* \"#utility.yul\":12309:12313   */\n      dup2\n        /* \"#utility.yul\":12305:12325   */\n      sub\n        /* \"#utility.yul\":12301:12302   */\n      0x00\n        /* \"#utility.yul\":12290:12299   */\n      dup4\n        /* \"#utility.yul\":12286:12303   */\n      add\n        /* \"#utility.yul\":12279:12326   */\n      mstore\n        /* \"#utility.yul\":12343:12474   */\n      tag_422\n        /* \"#utility.yul\":12469:12473   */\n      dup2\n        /* \"#utility.yul\":12343:12474   */\n      tag_265\n      jump\t// in\n    tag_422:\n        /* \"#utility.yul\":12335:12474   */\n      swap1\n      pop\n        /* \"#utility.yul\":12062:12481   */\n      swap2\n      swap1\n      pop\n      jump\t// out\n        /* \"#utility.yul\":12487:12659   */\n    tag_266:\n        /* \"#utility.yul\":12627:12651   */\n      0x526566756e6473206e6f74207375636365737366756c00000000000000000000\n        /* \"#utility.yul\":12623:12624   */\n      0x00\n        /* \"#utility.yul\":12615:12621   */\n      dup3\n        /* \"#utility.yul\":12611:12625   */\n      add\n        /* \"#utility.yul\":12604:12652   */\n      mstore\n        /* \"#utility.yul\":12487:12659   */\n      pop\n      jump\t// out\n        /* \"#utility.yul\":12665:13031   */\n    tag_267:\n        /* \"#utility.yul\":12807:12810   */\n      0x00\n        /* \"#utility.yul\":12828:12895   */\n      tag_425\n        /* \"#utility.yul\":12892:12894   */\n      0x16\n        /* \"#utility.yul\":12887:12890   */\n      dup4\n        /* \"#utility.yul\":12828:12895   */\n      tag_234\n      jump\t// in\n    tag_425:\n        /* \"#utility.yul\":12821:12895   */\n      swap2\n      pop\n        /* \"#utility.yul\":12904:12997   */\n      tag_426\n        /* \"#utility.yul\":12993:12996   */\n      dup3\n        /* \"#utility.yul\":12904:12997   */\n      tag_266\n      jump\t// in\n    tag_426:\n        /* \"#utility.yul\":13022:13024   */\n      0x20\n        /* \"#utility.yul\":13017:13020   */\n      dup3\n        /* \"#utility.yul\":13013:13025   */\n      add\n        /* \"#utility.yul\":13006:13025   */\n      swap1\n      pop\n        /* \"#utility.yul\":12665:13031   */\n      swap2\n      swap1\n      pop\n      jump\t// out\n        /* \"#utility.yul\":13037:13456   */\n    tag_131:\n        /* \"#utility.yul\":13203:13207   */\n      0x00\n        /* \"#utility.yul\":13241:13243   */\n      0x20\n        /* \"#utility.yul\":13230:13239   */\n      dup3\n        /* \"#utility.yul\":13226:13244   */\n      add\n        /* \"#utility.yul\":13218:13244   */\n      swap1\n      pop\n        /* \"#utility.yul\":13290:13299   */\n      dup2\n        /* \"#utility.yul\":13284:13288   */\n      dup2\n        /* \"#utility.yul\":13280:13300   */\n      sub\n        /* \"#utility.yul\":13276:13277   */\n      0x00\n        /* \"#utility.yul\":13265:13274   */\n      dup4\n        /* \"#utility.yul\":13261:13278   */\n      add\n        /* \"#utility.yul\":13254:13301   */\n      mstore\n        /* \"#utility.yul\":13318:13449   */\n      tag_428\n        /* \"#utility.yul\":13444:13448   */\n      dup2\n        /* \"#utility.yul\":13318:13449   */\n      tag_267\n      jump\t// in\n    tag_428:\n        /* \"#utility.yul\":13310:13449   */\n      swap1\n      pop\n        /* \"#utility.yul\":13037:13456   */\n      swap2\n      swap1\n      pop\n      jump\t// out\n        /* \"#utility.yul\":13462:13636   */\n    tag_268:\n        /* \"#utility.yul\":13602:13628   */\n      0x4e6f20436f6e747275627574696f6e20526566756e6465640000000000000000\n        /* \"#utility.yul\":13598:13599   */\n      0x00\n        /* \"#utility.yul\":13590:13596   */\n      dup3\n        /* \"#utility.yul\":13586:13600   */\n      add\n        /* \"#utility.yul\":13579:13629   */\n      mstore\n        /* \"#utility.yul\":13462:13636   */\n      pop\n      jump\t// out\n        /* \"#utility.yul\":13642:14008   */\n    tag_269:\n        /* \"#utility.yul\":13784:13787   */\n      0x00\n        /* \"#utility.yul\":13805:13872   */\n      tag_431\n        /* \"#utility.yul\":13869:13871   */\n      0x18\n        /* \"#utility.yul\":13864:13867   */\n      dup4\n        /* \"#utility.yul\":13805:13872   */\n      tag_234\n      jump\t// in\n    tag_431:\n        /* \"#utility.yul\":13798:13872   */\n      swap2\n      pop\n        /* \"#utility.yul\":13881:13974   */\n      tag_432\n        /* \"#utility.yul\":13970:13973   */\n      dup3\n        /* \"#utility.yul\":13881:13974   */\n      tag_268\n      jump\t// in\n    tag_432:\n        /* \"#utility.yul\":13999:14001   */\n      0x20\n        /* \"#utility.yul\":13994:13997   */\n      dup3\n        /* \"#utility.yul\":13990:14002   */\n      add\n        /* \"#utility.yul\":13983:14002   */\n      swap1\n      pop\n        /* \"#utility.yul\":13642:14008   */\n      swap2\n      swap1\n      pop\n      jump\t// out\n        /* \"#utility.yul\":14014:14433   */\n    tag_134:\n        /* \"#utility.yul\":14180:14184   */\n      0x00\n        /* \"#utility.yul\":14218:14220   */\n      0x20\n        /* \"#utility.yul\":14207:14216   */\n      dup3\n        /* \"#utility.yul\":14203:14221   */\n      add\n        /* \"#utility.yul\":14195:14221   */\n      swap1\n      pop\n        /* \"#utility.yul\":14267:14276   */\n      dup2\n        /* \"#utility.yul\":14261:14265   */\n      dup2\n        /* \"#utility.yul\":14257:14277   */\n      sub\n        /* \"#utility.yul\":14253:14254   */\n      0x00\n        /* \"#utility.yul\":14242:14251   */\n      dup4\n        /* \"#utility.yul\":14238:14255   */\n      add\n        /* \"#utility.yul\":14231:14278   */\n      mstore\n        /* \"#utility.yul\":14295:14426   */\n      tag_434\n        /* \"#utility.yul\":14421:14425   */\n      dup2\n        /* \"#utility.yul\":14295:14426   */\n      tag_269\n      jump\t// in\n    tag_434:\n        /* \"#utility.yul\":14287:14426   */\n      swap1\n      pop\n        /* \"#utility.yul\":14014:14433   */\n      swap2\n      swap1\n      pop\n      jump\t// out\n        /* \"#utility.yul\":14439:14609   */\n    tag_270:\n        /* \"#utility.yul\":14579:14601   */\n      0x746972657320646f6573206e6f74206578697473000000000000000000000000\n        /* \"#utility.yul\":14575:14576   */\n      0x00\n        /* \"#utility.yul\":14567:14573   */\n      dup3\n        /* \"#utility.yul\":14563:14577   */\n      add\n        /* \"#utility.yul\":14556:14602   */\n      mstore\n        /* \"#utility.yul\":14439:14609   */\n      pop\n      jump\t// out\n        /* \"#utility.yul\":14615:14981   */\n    tag_271:\n        /* \"#utility.yul\":14757:14760   */\n      0x00\n        /* \"#utility.yul\":14778:14845   */\n      tag_437\n        /* \"#utility.yul\":14842:14844   */\n      0x14\n        /* \"#utility.yul\":14837:14840   */\n      dup4\n        /* \"#utility.yul\":14778:14845   */\n      tag_234\n      jump\t// in\n    tag_437:\n        /* \"#utility.yul\":14771:14845   */\n      swap2\n      pop\n        /* \"#utility.yul\":14854:14947   */\n      tag_438\n        /* \"#utility.yul\":14943:14946   */\n      dup3\n        /* \"#utility.yul\":14854:14947   */\n      tag_270\n      jump\t// in\n    tag_438:\n        /* \"#utility.yul\":14972:14974   */\n      0x20\n        /* \"#utility.yul\":14967:14970   */\n      dup3\n        /* \"#utility.yul\":14963:14975   */\n      add\n        /* \"#utility.yul\":14956:14975   */\n      swap1\n      pop\n        /* \"#utility.yul\":14615:14981   */\n      swap2\n      swap1\n      pop\n      jump\t// out\n        /* \"#utility.yul\":14987:15406   */\n    tag_149:\n        /* \"#utility.yul\":15153:15157   */\n      0x00\n        /* \"#utility.yul\":15191:15193   */\n      0x20\n        /* \"#utility.yul\":15180:15189   */\n      dup3\n        /* \"#utility.yul\":15176:15194   */\n      add\n        /* \"#utility.yul\":15168:15194   */\n      swap1\n      pop\n        /* \"#utility.yul\":15240:15249   */\n      dup2\n        /* \"#utility.yul\":15234:15238   */\n      dup2\n        /* \"#utility.yul\":15230:15250   */\n      sub\n        /* \"#utility.yul\":15226:15227   */\n      0x00\n        /* \"#utility.yul\":15215:15224   */\n      dup4\n        /* \"#utility.yul\":15211:15228   */\n      add\n        /* \"#utility.yul\":15204:15251   */\n      mstore\n        /* \"#utility.yul\":15268:15399   */\n      tag_440\n        /* \"#utility.yul\":15394:15398   */\n      dup2\n        /* \"#utility.yul\":15268:15399   */\n      tag_271\n      jump\t// in\n    tag_440:\n        /* \"#utility.yul\":15260:15399   */\n      swap1\n      pop\n        /* \"#utility.yul\":14987:15406   */\n      swap2\n      swap1\n      pop\n      jump\t// out\n        /* \"#utility.yul\":15412:15592   */\n    tag_272:\n        /* \"#utility.yul\":15460:15537   */\n      0x4e487b7100000000000000000000000000000000000000000000000000000000\n        /* \"#utility.yul\":15457:15458   */\n      0x00\n        /* \"#utility.yul\":15450:15538   */\n      mstore\n        /* \"#utility.yul\":15557:15561   */\n      0x11\n        /* \"#utility.yul\":15554:15555   */\n      0x04\n        /* \"#utility.yul\":15547:15562   */\n      mstore\n        /* \"#utility.yul\":15581:15585   */\n      0x24\n        /* \"#utility.yul\":15578:15579   */\n      0x00\n        /* \"#utility.yul\":15571:15586   */\n      revert\n        /* \"#utility.yul\":15598:15792   */\n    tag_151:\n        /* \"#utility.yul\":15638:15642   */\n      0x00\n        /* \"#utility.yul\":15658:15678   */\n      tag_443\n        /* \"#utility.yul\":15676:15677   */\n      dup3\n        /* \"#utility.yul\":15658:15678   */\n      tag_230\n      jump\t// in\n    tag_443:\n        /* \"#utility.yul\":15653:15678   */\n      swap2\n      pop\n        /* \"#utility.yul\":15692:15712   */\n      tag_444\n        /* \"#utility.yul\":15710:15711   */\n      dup4\n        /* \"#utility.yul\":15692:15712   */\n      tag_230\n      jump\t// in\n    tag_444:\n        /* \"#utility.yul\":15687:15712   */\n      swap3\n      pop\n        /* \"#utility.yul\":15736:15737   */\n      dup3\n        /* \"#utility.yul\":15733:15734   */\n      dup3\n        /* \"#utility.yul\":15729:15738   */\n      sub\n        /* \"#utility.yul\":15721:15738   */\n      swap1\n      pop\n        /* \"#utility.yul\":15760:15761   */\n      dup2\n        /* \"#utility.yul\":15754:15758   */\n      dup2\n        /* \"#utility.yul\":15751:15762   */\n      gt\n        /* \"#utility.yul\":15748:15785   */\n      iszero\n      tag_445\n      jumpi\n        /* \"#utility.yul\":15765:15783   */\n      tag_446\n      tag_272\n      jump\t// in\n    tag_446:\n        /* \"#utility.yul\":15748:15785   */\n    tag_445:\n        /* \"#utility.yul\":15598:15792   */\n      swap3\n      swap2\n      pop\n      pop\n      jump\t// out\n        /* \"#utility.yul\":15798:15978   */\n    tag_154:\n        /* \"#utility.yul\":15846:15923   */\n      0x4e487b7100000000000000000000000000000000000000000000000000000000\n        /* \"#utility.yul\":15843:15844   */\n      0x00\n        /* \"#utility.yul\":15836:15924   */\n      mstore\n        /* \"#utility.yul\":15943:15947   */\n      0x32\n        /* \"#utility.yul\":15940:15941   */\n      0x04\n        /* \"#utility.yul\":15933:15948   */\n      mstore\n        /* \"#utility.yul\":15967:15971   */\n      0x24\n        /* \"#utility.yul\":15964:15965   */\n      0x00\n        /* \"#utility.yul\":15957:15972   */\n      revert\n        /* \"#utility.yul\":15984:16133   */\n    tag_273:\n        /* \"#utility.yul\":16033:16039   */\n      0x00\n        /* \"#utility.yul\":16067:16072   */\n      dup2\n        /* \"#utility.yul\":16061:16073   */\n      sload\n        /* \"#utility.yul\":16051:16073   */\n      swap1\n      pop\n        /* \"#utility.yul\":16093:16126   */\n      tag_449\n        /* \"#utility.yul\":16119:16125   */\n      dup2\n        /* \"#utility.yul\":16093:16126   */\n      tag_93\n      jump\t// in\n    tag_449:\n        /* \"#utility.yul\":16083:16126   */\n      swap1\n      pop\n        /* \"#utility.yul\":15984:16133   */\n      swap2\n      swap1\n      pop\n      jump\t// out\n        /* \"#utility.yul\":16139:16280   */\n    tag_274:\n        /* \"#utility.yul\":16188:16192   */\n      0x00\n        /* \"#utility.yul\":16211:16214   */\n      dup2\n        /* \"#utility.yul\":16203:16214   */\n      swap1\n      pop\n        /* \"#utility.yul\":16234:16237   */\n      dup2\n        /* \"#utility.yul\":16231:16232   */\n      0x00\n        /* \"#utility.yul\":16224:16238   */\n      mstore\n        /* \"#utility.yul\":16268:16272   */\n      0x20\n        /* \"#utility.yul\":16265:16266   */\n      0x00\n        /* \"#utility.yul\":16255:16273   */\n      keccak256\n        /* \"#utility.yul\":16247:16273   */\n      swap1\n      pop\n        /* \"#utility.yul\":16139:16280   */\n      swap2\n      swap1\n      pop\n      jump\t// out\n        /* \"#utility.yul\":16286:16379   */\n    tag_275:\n        /* \"#utility.yul\":16323:16329   */\n      0x00\n        /* \"#utility.yul\":16370:16372   */\n      0x20\n        /* \"#utility.yul\":16365:16367   */\n      0x1f\n        /* \"#utility.yul\":16358:16363   */\n      dup4\n        /* \"#utility.yul\":16354:16368   */\n      add\n        /* \"#utility.yul\":16350:16373   */\n      div\n        /* \"#utility.yul\":16340:16373   */\n      swap1\n      pop\n        /* \"#utility.yul\":16286:16379   */\n      swap2\n      swap1\n      pop\n      jump\t// out\n        /* \"#utility.yul\":16385:16492   */\n    tag_276:\n        /* \"#utility.yul\":16429:16437   */\n      0x00\n        /* \"#utility.yul\":16479:16484   */\n      dup3\n        /* \"#utility.yul\":16473:16477   */\n      dup3\n        /* \"#utility.yul\":16469:16485   */\n      shl\n        /* \"#utility.yul\":16448:16485   */\n      swap1\n      pop\n        /* \"#utility.yul\":16385:16492   */\n      swap3\n      swap2\n      pop\n      pop\n      jump\t// out\n        /* \"#utility.yul\":16498:16891   */\n    tag_277:\n        /* \"#utility.yul\":16567:16573   */\n      0x00\n        /* \"#utility.yul\":16617:16618   */\n      0x08\n        /* \"#utility.yul\":16605:16615   */\n      dup4\n        /* \"#utility.yul\":16601:16619   */\n      mul\n        /* \"#utility.yul\":16640:16737   */\n      tag_454\n        /* \"#utility.yul\":16670:16736   */\n      0xffffffffffffffffffffffffffffffffffffffffffffffffffffffffffffffff\n        /* \"#utility.yul\":16659:16668   */\n      dup3\n        /* \"#utility.yul\":16640:16737   */\n      tag_276\n      jump\t// in\n    tag_454:\n        /* \"#utility.yul\":16758:16797   */\n      tag_455\n        /* \"#utility.yul\":16788:16796   */\n      dup7\n        /* \"#utility.yul\":16777:16786   */\n      dup4\n        /* \"#utility.yul\":16758:16797   */\n      tag_276\n      jump\t// in\n    tag_455:\n        /* \"#utility.yul\":16746:16797   */\n      swap6\n      pop\n        /* \"#utility.yul\":16830:16834   */\n      dup1\n        /* \"#utility.yul\":16826:16835   */\n      not\n        /* \"#utility.yul\":16819:16824   */\n      dup5\n        /* \"#utility.yul\":16815:16836   */\n      and\n        /* \"#utility.yul\":16806:16836   */\n      swap4\n      pop\n        /* \"#utility.yul\":16879:16883   */\n      dup1\n        /* \"#utility.yul\":16869:16877   */\n      dup7\n        /* \"#utility.yul\":16865:16884   */\n      and\n        /* \"#utility.yul\":16858:16863   */\n      dup5\n        /* \"#utility.yul\":16855:16885   */\n      or\n        /* \"#utility.yul\":16845:16885   */\n      swap3\n      pop\n        /* \"#utility.yul\":16574:16891   */\n      pop\n      pop\n        /* \"#utility.yul\":16498:16891   */\n      swap4\n      swap3\n      pop\n      pop\n      pop\n      jump\t// out\n        /* \"#utility.yul\":16897:16957   */\n    tag_278:\n        /* \"#utility.yul\":16925:16928   */\n      0x00\n        /* \"#utility.yul\":16946:16951   */\n      dup2\n        /* \"#utility.yul\":16939:16951   */\n      swap1\n      pop\n        /* \"#utility.yul\":16897:16957   */\n      swap2\n      swap1\n      pop\n      jump\t// out\n        /* \"#utility.yul\":16963:17105   */\n    tag_279:\n        /* \"#utility.yul\":17013:17022   */\n      0x00\n        /* \"#utility.yul\":17046:17099   */\n      tag_458\n        /* \"#utility.yul\":17064:17098   */\n      tag_459\n        /* \"#utility.yul\":17073:17097   */\n      tag_460\n        /* \"#utility.yul\":17091:17096   */\n      dup5\n        /* \"#utility.yul\":17073:17097   */\n      tag_230\n      jump\t// in\n    tag_460:\n        /* \"#utility.yul\":17064:17098   */\n      tag_278\n      jump\t// in\n    tag_459:\n        /* \"#utility.yul\":17046:17099   */\n      tag_230\n      jump\t// in\n    tag_458:\n        /* \"#utility.yul\":17033:17099   */\n      swap1\n      pop\n        /* \"#utility.yul\":16963:17105   */\n      swap2\n      swap1\n      pop\n      jump\t// out\n        /* \"#utility.yul\":17111:17186   */\n    tag_280:\n        /* \"#utility.yul\":17154:17157   */\n      0x00\n        /* \"#utility.yul\":17175:17180   */\n      dup2\n        /* \"#utility.yul\":17168:17180   */\n      swap1\n      pop\n        /* \"#utility.yul\":17111:17186   */\n      swap2\n      swap1\n      pop\n      jump\t// out\n        /* \"#utility.yul\":17192:17461   */\n    tag_281:\n        /* \"#utility.yul\":17302:17341   */\n      tag_463\n        /* \"#utility.yul\":17333:17340   */\n      dup4\n        /* \"#utility.yul\":17302:17341   */\n      tag_279\n      jump\t// in\n    tag_463:\n        /* \"#utility.yul\":17363:17454   */\n      tag_464\n        /* \"#utility.yul\":17412:17453   */\n      tag_465\n        /* \"#utility.yul\":17436:17452   */\n      dup3\n        /* \"#utility.yul\":17412:17453   */\n      tag_280\n      jump\t// in\n    tag_465:\n        /* \"#utility.yul\":17404:17410   */\n      dup5\n        /* \"#utility.yul\":17397:17401   */\n      dup5\n        /* \"#utility.yul\":17391:17402   */\n      sload\n        /* \"#utility.yul\":17363:17454   */\n      tag_277\n      jump\t// in\n    tag_464:\n        /* \"#utility.yul\":17357:17361   */\n      dup3\n        /* \"#utility.yul\":17350:17455   */\n      sstore\n        /* \"#utility.yul\":17268:17461   */\n      pop\n        /* \"#utility.yul\":17192:17461   */\n      pop\n      pop\n      pop\n      jump\t// out\n        /* \"#utility.yul\":17467:17540   */\n    tag_282:\n        /* \"#utility.yul\":17512:17515   */\n      0x00\n        /* \"#utility.yul\":17533:17534   */\n      0x00\n        /* \"#utility.yul\":17526:17534   */\n      swap1\n      pop\n        /* \"#utility.yul\":17467:17540   */\n      swap1\n      jump\t// out\n        /* \"#utility.yul\":17546:17735   */\n    tag_283:\n        /* \"#utility.yul\":17623:17655   */\n      tag_468\n      tag_282\n      jump\t// in\n    tag_468:\n        /* \"#utility.yul\":17664:17729   */\n      tag_469\n        /* \"#utility.yul\":17722:17728   */\n      dup2\n        /* \"#utility.yul\":17714:17720   */\n      dup5\n        /* \"#utility.yul\":17708:17712   */\n      dup5\n        /* \"#utility.yul\":17664:17729   */\n      tag_281\n      jump\t// in\n    tag_469:\n        /* \"#utility.yul\":17599:17735   */\n      pop\n        /* \"#utility.yul\":17546:17735   */\n      pop\n      pop\n      jump\t// out\n        /* \"#utility.yul\":17741:17927   */\n    tag_284:\n        /* \"#utility.yul\":17801:17921   */\n    tag_471:\n        /* \"#utility.yul\":17818:17821   */\n      dup2\n        /* \"#utility.yul\":17811:17816   */\n      dup2\n        /* \"#utility.yul\":17808:17822   */\n      lt\n        /* \"#utility.yul\":17801:17921   */\n      iszero\n      tag_473\n      jumpi\n        /* \"#utility.yul\":17872:17911   */\n      tag_474\n        /* \"#utility.yul\":17909:17910   */\n      0x00\n        /* \"#utility.yul\":17902:17907   */\n      dup3\n        /* \"#utility.yul\":17872:17911   */\n      tag_283\n      jump\t// in\n    tag_474:\n        /* \"#utility.yul\":17845:17846   */\n      0x01\n        /* \"#utility.yul\":17838:17843   */\n      dup2\n        /* \"#utility.yul\":17834:17847   */\n      add\n        /* \"#utility.yul\":17825:17847   */\n      swap1\n      pop\n        /* \"#utility.yul\":17801:17921   */\n      jump(tag_471)\n    tag_473:\n        /* \"#utility.yul\":17741:17927   */\n      pop\n      pop\n      jump\t// out\n        /* \"#utility.yul\":17933:18476   */\n    tag_285:\n        /* \"#utility.yul\":18034:18036   */\n      0x1f\n        /* \"#utility.yul\":18029:18032   */\n      dup3\n        /* \"#utility.yul\":18026:18037   */\n      gt\n        /* \"#utility.yul\":18023:18469   */\n      iszero\n      tag_476\n      jumpi\n        /* \"#utility.yul\":18068:18106   */\n      tag_477\n        /* \"#utility.yul\":18100:18105   */\n      dup2\n        /* \"#utility.yul\":18068:18106   */\n      tag_274\n      jump\t// in\n    tag_477:\n        /* \"#utility.yul\":18152:18181   */\n      tag_478\n        /* \"#utility.yul\":18170:18180   */\n      dup5\n        /* \"#utility.yul\":18152:18181   */\n      tag_275\n      jump\t// in\n    tag_478:\n        /* \"#utility.yul\":18142:18150   */\n      dup2\n        /* \"#utility.yul\":18138:18182   */\n      add\n        /* \"#utility.yul\":18335:18337   */\n      0x20\n        /* \"#utility.yul\":18323:18333   */\n      dup6\n        /* \"#utility.yul\":18320:18338   */\n      lt\n        /* \"#utility.yul\":18317:18366   */\n      iszero\n      tag_479\n      jumpi\n        /* \"#utility.yul\":18356:18364   */\n      dup2\n        /* \"#utility.yul\":18341:18364   */\n      swap1\n      pop\n        /* \"#utility.yul\":18317:18366   */\n    tag_479:\n        /* \"#utility.yul\":18379:18459   */\n      tag_480\n        /* \"#utility.yul\":18435:18457   */\n      tag_481\n        /* \"#utility.yul\":18453:18456   */\n      dup6\n        /* \"#utility.yul\":18435:18457   */\n      tag_275\n      jump\t// in\n    tag_481:\n        /* \"#utility.yul\":18425:18433   */\n      dup4\n        /* \"#utility.yul\":18421:18458   */\n      add\n        /* \"#utility.yul\":18408:18419   */\n      dup3\n        /* \"#utility.yul\":18379:18459   */\n      tag_284\n      jump\t// in\n    tag_480:\n        /* \"#utility.yul\":18038:18469   */\n      pop\n      pop\n        /* \"#utility.yul\":18023:18469   */\n    tag_476:\n        /* \"#utility.yul\":17933:18476   */\n      pop\n      pop\n      pop\n      jump\t// out\n        /* \"#utility.yul\":18482:18599   */\n    tag_286:\n        /* \"#utility.yul\":18536:18544   */\n      0x00\n        /* \"#utility.yul\":18586:18591   */\n      dup3\n        /* \"#utility.yul\":18580:18584   */\n      dup3\n        /* \"#utility.yul\":18576:18592   */\n      shr\n        /* \"#utility.yul\":18555:18592   */\n      swap1\n      pop\n        /* \"#utility.yul\":18482:18599   */\n      swap3\n      swap2\n      pop\n      pop\n      jump\t// out\n        /* \"#utility.yul\":18605:18774   */\n    tag_287:\n        /* \"#utility.yul\":18649:18655   */\n      0x00\n        /* \"#utility.yul\":18682:18733   */\n      tag_484\n        /* \"#utility.yul\":18730:18731   */\n      0x00\n        /* \"#utility.yul\":18726:18732   */\n      not\n        /* \"#utility.yul\":18718:18723   */\n      dup5\n        /* \"#utility.yul\":18715:18716   */\n      0x08\n        /* \"#utility.yul\":18711:18724   */\n      mul\n        /* \"#utility.yul\":18682:18733   */\n      tag_286\n      jump\t// in\n    tag_484:\n        /* \"#utility.yul\":18678:18734   */\n      not\n        /* \"#utility.yul\":18763:18767   */\n      dup1\n        /* \"#utility.yul\":18757:18761   */\n      dup4\n        /* \"#utility.yul\":18753:18768   */\n      and\n        /* \"#utility.yul\":18743:18768   */\n      swap2\n      pop\n        /* \"#utility.yul\":18656:18774   */\n      pop\n        /* \"#utility.yul\":18605:18774   */\n      swap3\n      swap2\n      pop\n      pop\n      jump\t// out\n        /* \"#utility.yul\":18779:19074   */\n    tag_288:\n        /* \"#utility.yul\":18855:18859   */\n      0x00\n        /* \"#utility.yul\":19001:19030   */\n      tag_486\n        /* \"#utility.yul\":19026:19029   */\n      dup4\n        /* \"#utility.yul\":19020:19024   */\n      dup4\n        /* \"#utility.yul\":19001:19030   */\n      tag_287\n      jump\t// in\n    tag_486:\n        /* \"#utility.yul\":18993:19030   */\n      swap2\n      pop\n        /* \"#utility.yul\":19063:19066   */\n      dup3\n        /* \"#utility.yul\":19060:19061   */\n      0x02\n        /* \"#utility.yul\":19056:19067   */\n      mul\n        /* \"#utility.yul\":19050:19054   */\n      dup3\n        /* \"#utility.yul\":19047:19068   */\n      or\n        /* \"#utility.yul\":19039:19068   */\n      swap1\n      pop\n        /* \"#utility.yul\":18779:19074   */\n      swap3\n      swap2\n      pop\n      pop\n      jump\t// out\n        /* \"#utility.yul\":19079:20530   */\n    tag_160:\n        /* \"#utility.yul\":19190:19193   */\n      dup2\n        /* \"#utility.yul\":19184:19188   */\n      dup2\n        /* \"#utility.yul\":19181:19194   */\n      sub\n        /* \"#utility.yul\":19178:19204   */\n      tag_488\n      jumpi\n        /* \"#utility.yul\":19197:19202   */\n      pop\n      pop\n      jump(tag_487)\n        /* \"#utility.yul\":19178:19204   */\n    tag_488:\n        /* \"#utility.yul\":19228:19262   */\n      tag_489\n        /* \"#utility.yul\":19258:19261   */\n      dup3\n        /* \"#utility.yul\":19228:19262   */\n      tag_273\n      jump\t// in\n    tag_489:\n        /* \"#utility.yul\":19327:19345   */\n      0xffffffffffffffff\n        /* \"#utility.yul\":19319:19325   */\n      dup2\n        /* \"#utility.yul\":19316:19346   */\n      gt\n        /* \"#utility.yul\":19313:19369   */\n      iszero\n      tag_490\n      jumpi\n        /* \"#utility.yul\":19349:19367   */\n      tag_491\n      tag_248\n      jump\t// in\n    tag_491:\n        /* \"#utility.yul\":19313:19369   */\n    tag_490:\n        /* \"#utility.yul\":19393:19431   */\n      tag_492\n        /* \"#utility.yul\":19425:19429   */\n      dup3\n        /* \"#utility.yul\":19419:19430   */\n      sload\n        /* \"#utility.yul\":19393:19431   */\n      tag_93\n      jump\t// in\n    tag_492:\n        /* \"#utility.yul\":19478:19545   */\n      tag_493\n        /* \"#utility.yul\":19538:19544   */\n      dup3\n        /* \"#utility.yul\":19530:19536   */\n      dup3\n        /* \"#utility.yul\":19524:19528   */\n      dup6\n        /* \"#utility.yul\":19478:19545   */\n      tag_285\n      jump\t// in\n    tag_493:\n        /* \"#utility.yul\":19572:19573   */\n      0x00\n        /* \"#utility.yul\":19601:19603   */\n      0x1f\n        /* \"#utility.yul\":19593:19599   */\n      dup4\n        /* \"#utility.yul\":19590:19604   */\n      gt\n        /* \"#utility.yul\":19618:19619   */\n      0x01\n        /* \"#utility.yul\":19613:20285   */\n      dup2\n      eq\n      tag_495\n      jumpi\n        /* \"#utility.yul\":20329:20330   */\n      0x00\n        /* \"#utility.yul\":20346:20352   */\n      dup5\n        /* \"#utility.yul\":20343:20420   */\n      iszero\n      tag_496\n      jumpi\n        /* \"#utility.yul\":20395:20404   */\n      dup3\n        /* \"#utility.yul\":20390:20393   */\n      dup8\n        /* \"#utility.yul\":20386:20405   */\n      add\n        /* \"#utility.yul\":20380:20406   */\n      sload\n        /* \"#utility.yul\":20371:20406   */\n      swap1\n      pop\n        /* \"#utility.yul\":20343:20420   */\n    tag_496:\n        /* \"#utility.yul\":20446:20513   */\n      tag_497\n        /* \"#utility.yul\":20506:20512   */\n      dup6\n        /* \"#utility.yul\":20499:20504   */\n      dup3\n        /* \"#utility.yul\":20446:20513   */\n      tag_288\n      jump\t// in\n    tag_497:\n        /* \"#utility.yul\":20440:20444   */\n      dup7\n        /* \"#utility.yul\":20433:20514   */\n      sstore\n        /* \"#utility.yul\":20302:20524   */\n      pop\n        /* \"#utility.yul\":19583:20524   */\n      jump(tag_494)\n        /* \"#utility.yul\":19613:20285   */\n    tag_495:\n        /* \"#utility.yul\":19665:19669   */\n      0x1f\n        /* \"#utility.yul\":19661:19670   */\n      not\n        /* \"#utility.yul\":19653:19659   */\n      dup5\n        /* \"#utility.yul\":19649:19671   */\n      and\n        /* \"#utility.yul\":19691:19727   */\n      tag_498\n        /* \"#utility.yul\":19723:19726   */\n      dup8\n        /* \"#utility.yul\":19691:19727   */\n      tag_274\n      jump\t// in\n    tag_498:\n        /* \"#utility.yul\":19684:19727   */\n      swap7\n      pop\n        /* \"#utility.yul\":19754:19791   */\n      tag_499\n        /* \"#utility.yul\":19786:19790   */\n      dup7\n        /* \"#utility.yul\":19754:19791   */\n      tag_274\n      jump\t// in\n    tag_499:\n        /* \"#utility.yul\":19813:19814   */\n      0x00\n        /* \"#utility.yul\":19827:20034   */\n    tag_500:\n        /* \"#utility.yul\":19841:19848   */\n      dup3\n        /* \"#utility.yul\":19838:19839   */\n      dup2\n        /* \"#utility.yul\":19835:19849   */\n      lt\n        /* \"#utility.yul\":19827:20034   */\n      iszero\n      tag_502\n      jumpi\n        /* \"#utility.yul\":19920:19929   */\n      dup5\n        /* \"#utility.yul\":19915:19918   */\n      dup10\n        /* \"#utility.yul\":19911:19930   */\n      add\n        /* \"#utility.yul\":19905:19931   */\n      sload\n        /* \"#utility.yul\":19897:19903   */\n      dup3\n        /* \"#utility.yul\":19890:19932   */\n      sstore\n        /* \"#utility.yul\":19971:19972   */\n      0x01\n        /* \"#utility.yul\":19963:19969   */\n      dup3\n        /* \"#utility.yul\":19959:19973   */\n      add\n        /* \"#utility.yul\":19949:19973   */\n      swap2\n      pop\n        /* \"#utility.yul\":20018:20019   */\n      0x01\n        /* \"#utility.yul\":20007:20016   */\n      dup6\n        /* \"#utility.yul\":20003:20020   */\n      add\n        /* \"#utility.yul\":19990:20020   */\n      swap5\n      pop\n        /* \"#utility.yul\":19864:19868   */\n      0x20\n        /* \"#utility.yul\":19861:19862   */\n      dup2\n        /* \"#utility.yul\":19857:19869   */\n      add\n        /* \"#utility.yul\":19852:19869   */\n      swap1\n      pop\n        /* \"#utility.yul\":19827:20034   */\n      jump(tag_500)\n    tag_502:\n        /* \"#utility.yul\":20062:20068   */\n      dup7\n        /* \"#utility.yul\":20053:20060   */\n      dup4\n        /* \"#utility.yul\":20050:20069   */\n      lt\n        /* \"#utility.yul\":20047:20226   */\n      iszero\n      tag_503\n      jumpi\n        /* \"#utility.yul\":20120:20129   */\n      dup5\n        /* \"#utility.yul\":20115:20118   */\n      dup10\n        /* \"#utility.yul\":20111:20130   */\n      add\n        /* \"#utility.yul\":20105:20131   */\n      sload\n        /* \"#utility.yul\":20163:20211   */\n      tag_504\n        /* \"#utility.yul\":20205:20209   */\n      0x1f\n        /* \"#utility.yul\":20197:20203   */\n      dup10\n        /* \"#utility.yul\":20193:20210   */\n      and\n        /* \"#utility.yul\":20182:20191   */\n      dup3\n        /* \"#utility.yul\":20163:20211   */\n      tag_287\n      jump\t// in\n    tag_504:\n        /* \"#utility.yul\":20155:20161   */\n      dup4\n        /* \"#utility.yul\":20148:20212   */\n      sstore\n        /* \"#utility.yul\":20070:20226   */\n      pop\n        /* \"#utility.yul\":20047:20226   */\n    tag_503:\n        /* \"#utility.yul\":20272:20273   */\n      0x01\n        /* \"#utility.yul\":20268:20269   */\n      0x02\n        /* \"#utility.yul\":20260:20266   */\n      dup9\n        /* \"#utility.yul\":20256:20270   */\n      mul\n        /* \"#utility.yul\":20252:20274   */\n      add\n        /* \"#utility.yul\":20246:20250   */\n      dup9\n        /* \"#utility.yul\":20239:20275   */\n      sstore\n        /* \"#utility.yul\":19620:20285   */\n      pop\n      pop\n      pop\n        /* \"#utility.yul\":19583:20524   */\n    tag_494:\n      pop\n        /* \"#utility.yul\":19168:20530   */\n      pop\n      pop\n      pop\n        /* \"#utility.yul\":19079:20530   */\n      pop\n      pop\n    tag_487:\n      jump\t// out\n        /* \"#utility.yul\":20536:20716   */\n    tag_163:\n        /* \"#utility.yul\":20584:20661   */\n      0x4e487b7100000000000000000000000000000000000000000000000000000000\n        /* \"#utility.yul\":20581:20582   */\n      0x00\n        /* \"#utility.yul\":20574:20662   */\n      mstore\n        /* \"#utility.yul\":20681:20685   */\n      0x31\n        /* \"#utility.yul\":20678:20679   */\n      0x04\n        /* \"#utility.yul\":20671:20686   */\n      mstore\n        /* \"#utility.yul\":20705:20709   */\n      0x24\n        /* \"#utility.yul\":20702:20703   */\n      0x00\n        /* \"#utility.yul\":20695:20710   */\n      revert\n        /* \"#utility.yul\":20722:20904   */\n    tag_289:\n        /* \"#utility.yul\":20862:20896   */\n      0x416d6f756e74206d7573742062652067726561746572207468616e207a65726f\n        /* \"#utility.yul\":20858:20859   */\n      0x00\n        /* \"#utility.yul\":20850:20856   */\n      dup3\n        /* \"#utility.yul\":20846:20860   */\n      add\n        /* \"#utility.yul\":20839:20897   */\n      mstore\n        /* \"#utility.yul\":20722:20904   */\n      pop\n      jump\t// out\n        /* \"#utility.yul\":20910:21276   */\n    tag_290:\n        /* \"#utility.yul\":21052:21055   */\n      0x00\n        /* \"#utility.yul\":21073:21140   */\n      tag_508\n        /* \"#utility.yul\":21137:21139   */\n      0x20\n        /* \"#utility.yul\":21132:21135   */\n      dup4\n        /* \"#utility.yul\":21073:21140   */\n      tag_234\n      jump\t// in\n    tag_508:\n        /* \"#utility.yul\":21066:21140   */\n      swap2\n      pop\n        /* \"#utility.yul\":21149:21242   */\n      tag_509\n        /* \"#utility.yul\":21238:21241   */\n      dup3\n        /* \"#utility.yul\":21149:21242   */\n      tag_289\n      jump\t// in\n    tag_509:\n        /* \"#utility.yul\":21267:21269   */\n      0x20\n        /* \"#utility.yul\":21262:21265   */\n      dup3\n        /* \"#utility.yul\":21258:21270   */\n      add\n        /* \"#utility.yul\":21251:21270   */\n      swap1\n      pop\n        /* \"#utility.yul\":20910:21276   */\n      swap2\n      swap1\n      pop\n      jump\t// out\n        /* \"#utility.yul\":21282:21701   */\n    tag_174:\n        /* \"#utility.yul\":21448:21452   */\n      0x00\n        /* \"#utility.yul\":21486:21488   */\n      0x20\n        /* \"#utility.yul\":21475:21484   */\n      dup3\n        /* \"#utility.yul\":21471:21489   */\n      add\n        /* \"#utility.yul\":21463:21489   */\n      swap1\n      pop\n        /* \"#utility.yul\":21535:21544   */\n      dup2\n        /* \"#utility.yul\":21529:21533   */\n      dup2\n        /* \"#utility.yul\":21525:21545   */\n      sub\n        /* \"#utility.yul\":21521:21522   */\n      0x00\n        /* \"#utility.yul\":21510:21519   */\n      dup4\n        /* \"#utility.yul\":21506:21523   */\n      add\n        /* \"#utility.yul\":21499:21546   */\n      mstore\n        /* \"#utility.yul\":21563:21694   */\n      tag_511\n        /* \"#utility.yul\":21689:21693   */\n      dup2\n        /* \"#utility.yul\":21563:21694   */\n      tag_290\n      jump\t// in\n    tag_511:\n        /* \"#utility.yul\":21555:21694   */\n      swap1\n      pop\n        /* \"#utility.yul\":21282:21701   */\n      swap2\n      swap1\n      pop\n      jump\t// out\n        /* \"#utility.yul\":21707:23102   */\n    tag_177:\n        /* \"#utility.yul\":21824:21861   */\n      tag_513\n        /* \"#utility.yul\":21857:21860   */\n      dup3\n        /* \"#utility.yul\":21824:21861   */\n      tag_233\n      jump\t// in\n    tag_513:\n        /* \"#utility.yul\":21926:21944   */\n      0xffffffffffffffff\n        /* \"#utility.yul\":21918:21924   */\n      dup2\n        /* \"#utility.yul\":21915:21945   */\n      gt\n        /* \"#utility.yul\":21912:21968   */\n      iszero\n      tag_514\n      jumpi\n        /* \"#utility.yul\":21948:21966   */\n      tag_515\n      tag_248\n      jump\t// in\n    tag_515:\n        /* \"#utility.yul\":21912:21968   */\n    tag_514:\n        /* \"#utility.yul\":21992:22030   */\n      tag_516\n        /* \"#utility.yul\":22024:22028   */\n      dup3\n        /* \"#utility.yul\":22018:22029   */\n      sload\n        /* \"#utility.yul\":21992:22030   */\n      tag_93\n      jump\t// in\n    tag_516:\n        /* \"#utility.yul\":22077:22144   */\n      tag_517\n        /* \"#utility.yul\":22137:22143   */\n      dup3\n        /* \"#utility.yul\":22129:22135   */\n      dup3\n        /* \"#utility.yul\":22123:22127   */\n      dup6\n        /* \"#utility.yul\":22077:22144   */\n      tag_285\n      jump\t// in\n    tag_517:\n        /* \"#utility.yul\":22171:22172   */\n      0x00\n        /* \"#utility.yul\":22195:22199   */\n      0x20\n        /* \"#utility.yul\":22182:22199   */\n      swap1\n      pop\n        /* \"#utility.yul\":22227:22229   */\n      0x1f\n        /* \"#utility.yul\":22219:22225   */\n      dup4\n        /* \"#utility.yul\":22216:22230   */\n      gt\n        /* \"#utility.yul\":22244:22245   */\n      0x01\n        /* \"#utility.yul\":22239:22857   */\n      dup2\n      eq\n      tag_519\n      jumpi\n        /* \"#utility.yul\":22901:22902   */\n      0x00\n        /* \"#utility.yul\":22918:22924   */\n      dup5\n        /* \"#utility.yul\":22915:22992   */\n      iszero\n      tag_520\n      jumpi\n        /* \"#utility.yul\":22967:22976   */\n      dup3\n        /* \"#utility.yul\":22962:22965   */\n      dup8\n        /* \"#utility.yul\":22958:22977   */\n      add\n        /* \"#utility.yul\":22952:22978   */\n      mload\n        /* \"#utility.yul\":22943:22978   */\n      swap1\n      pop\n        /* \"#utility.yul\":22915:22992   */\n    tag_520:\n        /* \"#utility.yul\":23018:23085   */\n      tag_521\n        /* \"#utility.yul\":23078:23084   */\n      dup6\n        /* \"#utility.yul\":23071:23076   */\n      dup3\n        /* \"#utility.yul\":23018:23085   */\n      tag_288\n      jump\t// in\n    tag_521:\n        /* \"#utility.yul\":23012:23016   */\n      dup7\n        /* \"#utility.yul\":23005:23086   */\n      sstore\n        /* \"#utility.yul\":22874:23096   */\n      pop\n        /* \"#utility.yul\":22209:23096   */\n      jump(tag_518)\n        /* \"#utility.yul\":22239:22857   */\n    tag_519:\n        /* \"#utility.yul\":22291:22295   */\n      0x1f\n        /* \"#utility.yul\":22287:22296   */\n      not\n        /* \"#utility.yul\":22279:22285   */\n      dup5\n        /* \"#utility.yul\":22275:22297   */\n      and\n        /* \"#utility.yul\":22325:22362   */\n      tag_522\n        /* \"#utility.yul\":22357:22361   */\n      dup7\n        /* \"#utility.yul\":22325:22362   */\n      tag_274\n      jump\t// in\n    tag_522:\n        /* \"#utility.yul\":22384:22385   */\n      0x00\n        /* \"#utility.yul\":22398:22606   */\n    tag_523:\n        /* \"#utility.yul\":22412:22419   */\n      dup3\n        /* \"#utility.yul\":22409:22410   */\n      dup2\n        /* \"#utility.yul\":22406:22420   */\n      lt\n        /* \"#utility.yul\":22398:22606   */\n      iszero\n      tag_525\n      jumpi\n        /* \"#utility.yul\":22491:22500   */\n      dup5\n        /* \"#utility.yul\":22486:22489   */\n      dup10\n        /* \"#utility.yul\":22482:22501   */\n      add\n        /* \"#utility.yul\":22476:22502   */\n      mload\n        /* \"#utility.yul\":22468:22474   */\n      dup3\n        /* \"#utility.yul\":22461:22503   */\n      sstore\n        /* \"#utility.yul\":22542:22543   */\n      0x01\n        /* \"#utility.yul\":22534:22540   */\n      dup3\n        /* \"#utility.yul\":22530:22544   */\n      add\n        /* \"#utility.yul\":22520:22544   */\n      swap2\n      pop\n        /* \"#utility.yul\":22589:22591   */\n      0x20\n        /* \"#utility.yul\":22578:22587   */\n      dup6\n        /* \"#utility.yul\":22574:22592   */\n      add\n        /* \"#utility.yul\":22561:22592   */\n      swap5\n      pop\n        /* \"#utility.yul\":22435:22439   */\n      0x20\n        /* \"#utility.yul\":22432:22433   */\n      dup2\n        /* \"#utility.yul\":22428:22440   */\n      add\n        /* \"#utility.yul\":22423:22440   */\n      swap1\n      pop\n        /* \"#utility.yul\":22398:22606   */\n      jump(tag_523)\n    tag_525:\n        /* \"#utility.yul\":22634:22640   */\n      dup7\n        /* \"#utility.yul\":22625:22632   */\n      dup4\n        /* \"#utility.yul\":22622:22641   */\n      lt\n        /* \"#utility.yul\":22619:22798   */\n      iszero\n      tag_526\n      jumpi\n        /* \"#utility.yul\":22692:22701   */\n      dup5\n        /* \"#utility.yul\":22687:22690   */\n      dup10\n        /* \"#utility.yul\":22683:22702   */\n      add\n        /* \"#utility.yul\":22677:22703   */\n      mload\n        /* \"#utility.yul\":22735:22783   */\n      tag_527\n        /* \"#utility.yul\":22777:22781   */\n      0x1f\n        /* \"#utility.yul\":22769:22775   */\n      dup10\n        /* \"#utility.yul\":22765:22782   */\n      and\n        /* \"#utility.yul\":22754:22763   */\n      dup3\n        /* \"#utility.yul\":22735:22783   */\n      tag_287\n      jump\t// in\n    tag_527:\n        /* \"#utility.yul\":22727:22733   */\n      dup4\n        /* \"#utility.yul\":22720:22784   */\n      sstore\n        /* \"#utility.yul\":22642:22798   */\n      pop\n        /* \"#utility.yul\":22619:22798   */\n    tag_526:\n        /* \"#utility.yul\":22844:22845   */\n      0x01\n        /* \"#utility.yul\":22840:22841   */\n      0x02\n        /* \"#utility.yul\":22832:22838   */\n      dup9\n        /* \"#utility.yul\":22828:22842   */\n      mul\n        /* \"#utility.yul\":22824:22846   */\n      add\n        /* \"#utility.yul\":22818:22822   */\n      dup9\n        /* \"#utility.yul\":22811:22847   */\n      sstore\n        /* \"#utility.yul\":22246:22857   */\n      pop\n      pop\n      pop\n        /* \"#utility.yul\":22209:23096   */\n    tag_518:\n      pop\n        /* \"#utility.yul\":21799:23102   */\n      pop\n      pop\n      pop\n        /* \"#utility.yul\":21707:23102   */\n      pop\n      pop\n      jump\t// out\n        /* \"#utility.yul\":23108:23281   */\n    tag_291:\n        /* \"#utility.yul\":23248:23273   */\n      0x43616d706169676e206973206e6f742061637469766520000000000000000000\n        /* \"#utility.yul\":23244:23245   */\n      0x00\n        /* \"#utility.yul\":23236:23242   */\n      dup3\n        /* \"#utility.yul\":23232:23246   */\n      add\n        /* \"#utility.yul\":23225:23274   */\n      mstore\n        /* \"#utility.yul\":23108:23281   */\n      pop\n      jump\t// out\n        /* \"#utility.yul\":23287:23653   */\n    tag_292:\n        /* \"#utility.yul\":23429:23432   */\n      0x00\n        /* \"#utility.yul\":23450:23517   */\n      tag_530\n        /* \"#utility.yul\":23514:23516   */\n      0x17\n        /* \"#utility.yul\":23509:23512   */\n      dup4\n        /* \"#utility.yul\":23450:23517   */\n      tag_234\n      jump\t// in\n    tag_530:\n        /* \"#utility.yul\":23443:23517   */\n      swap2\n      pop\n        /* \"#utility.yul\":23526:23619   */\n      tag_531\n        /* \"#utility.yul\":23615:23618   */\n      dup3\n        /* \"#utility.yul\":23526:23619   */\n      tag_291\n      jump\t// in\n    tag_531:\n        /* \"#utility.yul\":23644:23646   */\n      0x20\n        /* \"#utility.yul\":23639:23642   */\n      dup3\n        /* \"#utility.yul\":23635:23647   */\n      add\n        /* \"#utility.yul\":23628:23647   */\n      swap1\n      pop\n        /* \"#utility.yul\":23287:23653   */\n      swap2\n      swap1\n      pop\n      jump\t// out\n        /* \"#utility.yul\":23659:24078   */\n    tag_185:\n        /* \"#utility.yul\":23825:23829   */\n      0x00\n        /* \"#utility.yul\":23863:23865   */\n      0x20\n        /* \"#utility.yul\":23852:23861   */\n      dup3\n        /* \"#utility.yul\":23848:23866   */\n      add\n        /* \"#utility.yul\":23840:23866   */\n      swap1\n      pop\n        /* \"#utility.yul\":23912:23921   */\n      dup2\n        /* \"#utility.yul\":23906:23910   */\n      dup2\n        /* \"#utility.yul\":23902:23922   */\n      sub\n        /* \"#utility.yul\":23898:23899   */\n      0x00\n        /* \"#utility.yul\":23887:23896   */\n      dup4\n        /* \"#utility.yul\":23883:23900   */\n      add\n        /* \"#utility.yul\":23876:23923   */\n      mstore\n        /* \"#utility.yul\":23940:24071   */\n      tag_533\n        /* \"#utility.yul\":24066:24070   */\n      dup2\n        /* \"#utility.yul\":23940:24071   */\n      tag_292\n      jump\t// in\n    tag_533:\n        /* \"#utility.yul\":23932:24071   */\n      swap1\n      pop\n        /* \"#utility.yul\":23659:24078   */\n      swap2\n      swap1\n      pop\n      jump\t// out\n        /* \"#utility.yul\":24084:24254   */\n    tag_293:\n        /* \"#utility.yul\":24224:24246   */\n      0x746965727320646f6573206e6f74206578697473000000000000000000000000\n        /* \"#utility.yul\":24220:24221   */\n      0x00\n        /* \"#utility.yul\":24212:24218   */\n      dup3\n        /* \"#utility.yul\":24208:24222   */\n      add\n        /* \"#utility.yul\":24201:24247   */\n      mstore\n        /* \"#utility.yul\":24084:24254   */\n      pop\n      jump\t// out\n        /* \"#utility.yul\":24260:24626   */\n    tag_294:\n        /* \"#utility.yul\":24402:24405   */\n      0x00\n        /* \"#utility.yul\":24423:24490   */\n      tag_536\n        /* \"#utility.yul\":24487:24489   */\n      0x14\n        /* \"#utility.yul\":24482:24485   */\n      dup4\n        /* \"#utility.yul\":24423:24490   */\n      tag_234\n      jump\t// in\n    tag_536:\n        /* \"#utility.yul\":24416:24490   */\n      swap2\n      pop\n        /* \"#utility.yul\":24499:24592   */\n      tag_537\n        /* \"#utility.yul\":24588:24591   */\n      dup3\n        /* \"#utility.yul\":24499:24592   */\n      tag_293\n      jump\t// in\n    tag_537:\n        /* \"#utility.yul\":24617:24619   */\n      0x20\n        /* \"#utility.yul\":24612:24615   */\n      dup3\n        /* \"#utility.yul\":24608:24620   */\n      add\n        /* \"#utility.yul\":24601:24620   */\n      swap1\n      pop\n        /* \"#utility.yul\":24260:24626   */\n      swap2\n      swap1\n      pop\n      jump\t// out\n        /* \"#utility.yul\":24632:25051   */\n    tag_189:\n        /* \"#utility.yul\":24798:24802   */\n      0x00\n        /* \"#utility.yul\":24836:24838   */\n      0x20\n        /* \"#utility.yul\":24825:24834   */\n      dup3\n        /* \"#utility.yul\":24821:24839   */\n      add\n        /* \"#utility.yul\":24813:24839   */\n      swap1\n      pop\n        /* \"#utility.yul\":24885:24894   */\n      dup2\n        /* \"#utility.yul\":24879:24883   */\n      dup2\n        /* \"#utility.yul\":24875:24895   */\n      sub\n        /* \"#utility.yul\":24871:24872   */\n      0x00\n        /* \"#utility.yul\":24860:24869   */\n      dup4\n        /* \"#utility.yul\":24856:24873   */\n      add\n        /* \"#utility.yul\":24849:24896   */\n      mstore\n        /* \"#utility.yul\":24913:25044   */\n      tag_539\n        /* \"#utility.yul\":25039:25043   */\n      dup2\n        /* \"#utility.yul\":24913:25044   */\n      tag_294\n      jump\t// in\n    tag_539:\n        /* \"#utility.yul\":24905:25044   */\n      swap1\n      pop\n        /* \"#utility.yul\":24632:25051   */\n      swap2\n      swap1\n      pop\n      jump\t// out\n        /* \"#utility.yul\":25057:25223   */\n    tag_295:\n        /* \"#utility.yul\":25197:25215   */\n      0x696e636f727265637420616d6f756e7400000000000000000000000000000000\n        /* \"#utility.yul\":25193:25194   */\n      0x00\n        /* \"#utility.yul\":25185:25191   */\n      dup3\n        /* \"#utility.yul\":25181:25195   */\n      add\n        /* \"#utility.yul\":25174:25216   */\n      mstore\n        /* \"#utility.yul\":25057:25223   */\n      pop\n      jump\t// out\n        /* \"#utility.yul\":25229:25595   */\n    tag_296:\n        /* \"#utility.yul\":25371:25374   */\n      0x00\n        /* \"#utility.yul\":25392:25459   */\n      tag_542\n        /* \"#utility.yul\":25456:25458   */\n      0x10\n        /* \"#utility.yul\":25451:25454   */\n      dup4\n        /* \"#utility.yul\":25392:25459   */\n      tag_234\n      jump\t// in\n    tag_542:\n        /* \"#utility.yul\":25385:25459   */\n      swap2\n      pop\n        /* \"#utility.yul\":25468:25561   */\n      tag_543\n        /* \"#utility.yul\":25557:25560   */\n      dup3\n        /* \"#utility.yul\":25468:25561   */\n      tag_295\n      jump\t// in\n    tag_543:\n        /* \"#utility.yul\":25586:25588   */\n      0x20\n        /* \"#utility.yul\":25581:25584   */\n      dup3\n        /* \"#utility.yul\":25577:25589   */\n      add\n        /* \"#utility.yul\":25570:25589   */\n      swap1\n      pop\n        /* \"#utility.yul\":25229:25595   */\n      swap2\n      swap1\n      pop\n      jump\t// out\n        /* \"#utility.yul\":25601:26020   */\n    tag_195:\n        /* \"#utility.yul\":25767:25771   */\n      0x00\n        /* \"#utility.yul\":25805:25807   */\n      0x20\n        /* \"#utility.yul\":25794:25803   */\n      dup3\n        /* \"#utility.yul\":25790:25808   */\n      add\n        /* \"#utility.yul\":25782:25808   */\n      swap1\n      pop\n        /* \"#utility.yul\":25854:25863   */\n      dup2\n        /* \"#utility.yul\":25848:25852   */\n      dup2\n        /* \"#utility.yul\":25844:25864   */\n      sub\n        /* \"#utility.yul\":25840:25841   */\n      0x00\n        /* \"#utility.yul\":25829:25838   */\n      dup4\n        /* \"#utility.yul\":25825:25842   */\n      add\n        /* \"#utility.yul\":25818:25865   */\n      mstore\n        /* \"#utility.yul\":25882:26013   */\n      tag_545\n        /* \"#utility.yul\":26008:26012   */\n      dup2\n        /* \"#utility.yul\":25882:26013   */\n      tag_296\n      jump\t// in\n    tag_545:\n        /* \"#utility.yul\":25874:26013   */\n      swap1\n      pop\n        /* \"#utility.yul\":25601:26020   */\n      swap2\n      swap1\n      pop\n      jump\t// out\n        /* \"#utility.yul\":26026:26259   */\n    tag_200:\n        /* \"#utility.yul\":26065:26068   */\n      0x00\n        /* \"#utility.yul\":26088:26112   */\n      tag_547\n        /* \"#utility.yul\":26106:26111   */\n      dup3\n        /* \"#utility.yul\":26088:26112   */\n      tag_230\n      jump\t// in\n    tag_547:\n        /* \"#utility.yul\":26079:26112   */\n      swap2\n      pop\n        /* \"#utility.yul\":26134:26200   */\n      0xffffffffffffffffffffffffffffffffffffffffffffffffffffffffffffffff\n        /* \"#utility.yul\":26127:26132   */\n      dup3\n        /* \"#utility.yul\":26124:26201   */\n      sub\n        /* \"#utility.yul\":26121:26224   */\n      tag_548\n      jumpi\n        /* \"#utility.yul\":26204:26222   */\n      tag_549\n      tag_272\n      jump\t// in\n    tag_549:\n        /* \"#utility.yul\":26121:26224   */\n    tag_548:\n        /* \"#utility.yul\":26251:26252   */\n      0x01\n        /* \"#utility.yul\":26244:26249   */\n      dup3\n        /* \"#utility.yul\":26240:26253   */\n      add\n        /* \"#utility.yul\":26233:26253   */\n      swap1\n      pop\n        /* \"#utility.yul\":26026:26259   */\n      swap2\n      swap1\n      pop\n      jump\t// out\n        /* \"#utility.yul\":26265:26456   */\n    tag_202:\n        /* \"#utility.yul\":26305:26308   */\n      0x00\n        /* \"#utility.yul\":26324:26344   */\n      tag_551\n        /* \"#utility.yul\":26342:26343   */\n      dup3\n        /* \"#utility.yul\":26324:26344   */\n      tag_230\n      jump\t// in\n    tag_551:\n        /* \"#utility.yul\":26319:26344   */\n      swap2\n      pop\n        /* \"#utility.yul\":26358:26378   */\n      tag_552\n        /* \"#utility.yul\":26376:26377   */\n      dup4\n        /* \"#utility.yul\":26358:26378   */\n      tag_230\n      jump\t// in\n    tag_552:\n        /* \"#utility.yul\":26353:26378   */\n      swap3\n      pop\n        /* \"#utility.yul\":26401:26402   */\n      dup3\n        /* \"#utility.yul\":26398:26399   */\n      dup3\n        /* \"#utility.yul\":26394:26403   */\n      add\n        /* \"#utility.yul\":26387:26403   */\n      swap1\n      pop\n        /* \"#utility.yul\":26422:26425   */\n      dup1\n        /* \"#utility.yul\":26419:26420   */\n      dup3\n        /* \"#utility.yul\":26416:26426   */\n      gt\n        /* \"#utility.yul\":26413:26449   */\n      iszero\n      tag_553\n      jumpi\n        /* \"#utility.yul\":26429:26447   */\n      tag_554\n      tag_272\n      jump\t// in\n    tag_554:\n        /* \"#utility.yul\":26413:26449   */\n    tag_553:\n        /* \"#utility.yul\":26265:26456   */\n      swap3\n      swap2\n      pop\n      pop\n      jump\t// out\n\n    auxdata: 0xa26469706673582212209d8c7ce821ac1fefb8cde916de51c93884adcf0d1a78f55f0d3443b1c69b6e3d64736f6c634300081e0033\n}\n",
				"bytecode": {
					"linkReferences": {},
					"object": "608060405234801561000f575f5ffd5b506040516123e53803806123e58339818101604052810190610031919061026a565b835f908161003f919061050d565b50826001908161004f919061050d565b508160028190555062015180816100669190610609565b42610071919061064a565b6003819055503360045f6101000a81548173ffffffffffffffffffffffffffffffffffffffff021916908373ffffffffffffffffffffffffffffffffffffffff1602179055505f600460146101000a81548160ff021916908360028111156100dc576100db61067d565b5b0217905550505050506106aa565b5f604051905090565b5f5ffd5b5f5ffd5b5f5ffd5b5f5ffd5b5f601f19601f8301169050919050565b7f4e487b71000000000000000000000000000000000000000000000000000000005f52604160045260245ffd5b61014982610103565b810181811067ffffffffffffffff8211171561016857610167610113565b5b80604052505050565b5f61017a6100ea565b90506101868282610140565b919050565b5f67ffffffffffffffff8211156101a5576101a4610113565b5b6101ae82610103565b9050602081019050919050565b8281835e5f83830152505050565b5f6101db6101d68461018b565b610171565b9050828152602081018484840111156101f7576101f66100ff565b5b6102028482856101bb565b509392505050565b5f82601f83011261021e5761021d6100fb565b5b815161022e8482602086016101c9565b91505092915050565b5f819050919050565b61024981610237565b8114610253575f5ffd5b50565b5f8151905061026481610240565b92915050565b5f5f5f5f60808587031215610282576102816100f3565b5b5f85015167ffffffffffffffff81111561029f5761029e6100f7565b5b6102ab8782880161020a565b945050602085015167ffffffffffffffff8111156102cc576102cb6100f7565b5b6102d88782880161020a565b93505060406102e987828801610256565b92505060606102fa87828801610256565b91505092959194509250565b5f81519050919050565b7f4e487b71000000000000000000000000000000000000000000000000000000005f52602260045260245ffd5b5f600282049050600182168061035457607f821691505b60208210810361036757610366610310565b5b50919050565b5f819050815f5260205f209050919050565b5f6020601f8301049050919050565b5f82821b905092915050565b5f600883026103c97fffffffffffffffffffffffffffffffffffffffffffffffffffffffffffffffff8261038e565b6103d3868361038e565b95508019841693508086168417925050509392505050565b5f819050919050565b5f61040e61040961040484610237565b6103eb565b610237565b9050919050565b5f819050919050565b610427836103f4565b61043b61043382610415565b84845461039a565b825550505050565b5f5f905090565b610452610443565b61045d81848461041e565b505050565b5b81811015610480576104755f8261044a565b600181019050610463565b5050565b601f8211156104c5576104968161036d565b61049f8461037f565b810160208510156104ae578190505b6104c26104ba8561037f565b830182610462565b50505b505050565b5f82821c905092915050565b5f6104e55f19846008026104ca565b1980831691505092915050565b5f6104fd83836104d6565b9150826002028217905092915050565b61051682610306565b67ffffffffffffffff81111561052f5761052e610113565b5b610539825461033d565b610544828285610484565b5f60209050601f831160018114610575575f8415610563578287015190505b61056d85826104f2565b8655506105d4565b601f1984166105838661036d565b5f5b828110156105aa57848901518255600182019150602085019450602081019050610585565b868310156105c757848901516105c3601f8916826104d6565b8355505b6001600288020188555050505b505050505050565b7f4e487b71000000000000000000000000000000000000000000000000000000005f52601160045260245ffd5b5f61061382610237565b915061061e83610237565b925082820261062c81610237565b91508282048414831517610643576106426105dc565b5b5092915050565b5f61065482610237565b915061065f83610237565b9250828201905080821115610677576106766105dc565b5b92915050565b7f4e487b71000000000000000000000000000000000000000000000000000000005f52602160045260245ffd5b611d2e806106b75f395ff3fe6080604052600436106100e7575f3560e01c80637284e416116100895780638ece7b91116100585780638ece7b91146102b5578063b85dfb80146102dd578063c19d93fb14610319578063ca1d209d14610343576100e7565b80637284e416146101fd5780637497211b146102275780637adba5271461024f5780638da5cb5b1461028b576100e7565b80633ccfd60b116100c55780633ccfd60b1461017d5780634019388314610193578063590e1ae3146101bd5780636f9fb98a146101d3576100e7565b8063039af9eb146100eb57806306fdde031461012957806329dcb0cf14610153575b5f5ffd5b3480156100f6575f5ffd5b50610111600480360381019061010c9190610f9f565b61035f565b60405161012093929190611049565b60405180910390f35b348015610134575f5ffd5b5061013d61041a565b60405161014a9190611085565b60405180910390f35b34801561015e575f5ffd5b506101676104a5565b60405161017491906110a5565b60405180910390f35b348015610188575f5ffd5b506101916104ab565b005b34801561019e575f5ffd5b506101a7610666565b6040516101b491906110a5565b60405180910390f35b3480156101c8575f5ffd5b506101d161066c565b005b3480156101de575f5ffd5b506101e76107f9565b6040516101f491906110a5565b60405180910390f35b348015610208575f5ffd5b50610211610800565b60405161021e9190611085565b60405180910390f35b348015610232575f5ffd5b5061024d60048036038101906102489190610f9f565b61088c565b005b34801561025a575f5ffd5b5061027560048036038101906102709190611118565b610a25565b6040516102829190611170565b60405180910390f35b348015610296575f5ffd5b5061029f610a8a565b6040516102ac9190611198565b60405180910390f35b3480156102c0575f5ffd5b506102db60048036038101906102d691906112dd565b610aaf565b005b3480156102e8575f5ffd5b5061030360048036038101906102fe9190611337565b610bf1565b60405161031091906110a5565b60405180910390f35b348015610324575f5ffd5b5061032d610c0b565b60405161033a91906113d5565b60405180910390f35b61035d60048036038101906103589190610f9f565b610c1e565b005b6005818154811061036e575f80fd5b905f5260205f2090600302015f91509050805f01805461038d9061141b565b80601f01602080910402602001604051908101604052809291908181526020018280546103b99061141b565b80156104045780601f106103db57610100808354040283529160200191610404565b820191905f5260205f20905b8154815290600101906020018083116103e757829003601f168201915b5050505050908060010154908060020154905083565b5f80546104269061141b565b80601f01602080910402602001604051908101604052809291908181526020018280546104529061141b565b801561049d5780601f106104745761010080835404028352916020019161049d565b820191905f5260205f20905b81548152906001019060200180831161048057829003601f168201915b505050505081565b60035481565b60045f9054906101000a900473ffffffffffffffffffffffffffffffffffffffff1673ffffffffffffffffffffffffffffffffffffffff163373ffffffffffffffffffffffffffffffffffffffff161461053a576040517f08c379a000000000000000000000000000000000000000000000000000000000815260040161053190611495565b60405180910390fd5b610542610e3e565b6001600281111561055657610555611362565b5b600460149054906101000a900460ff16600281111561057857610577611362565b5b146105b8576040517f08c379a00000000000000000000000000000000000000000000000000000000081526004016105af906114fd565b60405180910390fd5b5f4790505f81116105fe576040517f08c379a00000000000000000000000000000000000000000000000000000000081526004016105f590611565565b60405180910390fd5b60045f9054906101000a900473ffffffffffffffffffffffffffffffffffffffff1673ffffffffffffffffffffffffffffffffffffffff166108fc8290811502906040515f60405180830381858888f19350505050158015610662573d5f5f3e3d5ffd5b5050565b60025481565b610674610e3e565b60028081111561068757610686611362565b5b600460149054906101000a900460ff1660028111156106a9576106a8611362565b5b146106e9576040517f08c379a00000000000000000000000000000000000000000000000000000000081526004016106e0906115cd565b60405180910390fd5b5f60065f3373ffffffffffffffffffffffffffffffffffffffff1673ffffffffffffffffffffffffffffffffffffffff1681526020019081526020015f205f015490505f811161076e576040517f08c379a000000000000000000000000000000000000000000000000000000000815260040161076590611635565b60405180910390fd5b5f60065f3373ffffffffffffffffffffffffffffffffffffffff1673ffffffffffffffffffffffffffffffffffffffff1681526020019081526020015f205f01819055503373ffffffffffffffffffffffffffffffffffffffff166108fc8290811502906040515f60405180830381858888f193505050501580156107f5573d5f5f3e3d5ffd5b5050565b5f47905090565b6001805461080d9061141b565b80601f01602080910402602001604051908101604052809291908181526020018280546108399061141b565b80156108845780601f1061085b57610100808354040283529160200191610884565b820191905f5260205f20905b81548152906001019060200180831161086757829003601f168201915b505050505081565b60045f9054906101000a900473ffffffffffffffffffffffffffffffffffffffff1673ffffffffffffffffffffffffffffffffffffffff163373ffffffffffffffffffffffffffffffffffffffff161461091b576040517f08c379a000000000000000000000000000000000000000000000000000000000815260040161091290611495565b60405180910390fd5b6005805490508110610962576040517f08c379a00000000000000000000000000000000000000000000000000000000081526004016109599061169d565b60405180910390fd5b6005600160058054905061097691906116e8565b815481106109875761098661171b565b5b905f5260205f209060030201600582815481106109a7576109a661171b565b5b905f5260205f2090600302015f8201815f0190816109c591906118fd565b50600182015481600101556002820154816002015590505060058054806109ef576109ee6119e2565b5b600190038181905f5260205f2090600302015f5f82015f610a109190610f03565b600182015f9055600282015f90555050905550565b5f60065f8473ffffffffffffffffffffffffffffffffffffffff1673ffffffffffffffffffffffffffffffffffffffff1681526020019081526020015f206001015f8381526020019081526020015f205f9054906101000a900460ff16905092915050565b60045f9054906101000a900473ffffffffffffffffffffffffffffffffffffffff1681565b60045f9054906101000a900473ffffffffffffffffffffffffffffffffffffffff1673ffffffffffffffffffffffffffffffffffffffff163373ffffffffffffffffffffffffffffffffffffffff1614610b3e576040517f08c379a0000000000000000000000000000000000000000000000000000000008152600401610b3590611495565b60405180910390fd5b5f8111610b80576040517f08c379a0000000000000000000000000000000000000000000000000000000008152600401610b7790611a59565b60405180910390fd5b600560405180606001604052808481526020018381526020015f815250908060018154018082558091505060019003905f5260205f2090600302015f909190919091505f820151815f019081610bd69190611a77565b50602082015181600101556040820151816002015550505050565b6006602052805f5260405f205f91509050805f0154905081565b600460149054906101000a900460ff1681565b5f6002811115610c3157610c30611362565b5b600460149054906101000a900460ff166002811115610c5357610c52611362565b5b14610c93576040517f08c379a0000000000000000000000000000000000000000000000000000000008152600401610c8a90611b90565b60405180910390fd5b6005805490508110610cda576040517f08c379a0000000000000000000000000000000000000000000000000000000008152600401610cd190611bf8565b60405180910390fd5b60058181548110610cee57610ced61171b565b5b905f5260205f209060030201600101543414610d3f576040517f08c379a0000000000000000000000000000000000000000000000000000000008152600401610d3690611c60565b60405180910390fd5b60058181548110610d5357610d5261171b565b5b905f5260205f2090600302016002015f815480929190610d7290611c7e565b91905055503460065f3373ffffffffffffffffffffffffffffffffffffffff1673ffffffffffffffffffffffffffffffffffffffff1681526020019081526020015f205f015f828254610dc59190611cc5565b92505081905550600160065f3373ffffffffffffffffffffffffffffffffffffffff1673ffffffffffffffffffffffffffffffffffffffff1681526020019081526020015f206001015f8381526020019081526020015f205f6101000a81548160ff021916908315150217905550610e3b610e3e565b50565b5f6002811115610e5157610e50611362565b5b600460149054906101000a900460ff166002811115610e7357610e72611362565b5b03610f01576003544210610ec357600254471015610e92576002610e95565b60015b600460146101000a81548160ff02191690836002811115610eb957610eb8611362565b5b0217905550610f00565b600254471015610ed3575f610ed6565b60015b600460146101000a81548160ff02191690836002811115610efa57610ef9611362565b5b02179055505b5b565b508054610f0f9061141b565b5f825580601f10610f205750610f3d565b601f0160209004905f5260205f2090810190610f3c9190610f40565b5b50565b5b80821115610f57575f815f905550600101610f41565b5090565b5f604051905090565b5f5ffd5b5f5ffd5b5f819050919050565b610f7e81610f6c565b8114610f88575f5ffd5b50565b5f81359050610f9981610f75565b92915050565b5f60208284031215610fb457610fb3610f64565b5b5f610fc184828501610f8b565b91505092915050565b5f81519050919050565b5f82825260208201905092915050565b8281835e5f83830152505050565b5f601f19601f8301169050919050565b5f61100c82610fca565b6110168185610fd4565b9350611026818560208601610fe4565b61102f81610ff2565b840191505092915050565b61104381610f6c565b82525050565b5f6060820190508181035f8301526110618186611002565b9050611070602083018561103a565b61107d604083018461103a565b949350505050565b5f6020820190508181035f83015261109d8184611002565b905092915050565b5f6020820190506110b85f83018461103a565b92915050565b5f73ffffffffffffffffffffffffffffffffffffffff82169050919050565b5f6110e7826110be565b9050919050565b6110f7816110dd565b8114611101575f5ffd5b50565b5f81359050611112816110ee565b92915050565b5f5f6040838503121561112e5761112d610f64565b5b5f61113b85828601611104565b925050602061114c85828601610f8b565b9150509250929050565b5f8115159050919050565b61116a81611156565b82525050565b5f6020820190506111835f830184611161565b92915050565b611192816110dd565b82525050565b5f6020820190506111ab5f830184611189565b92915050565b5f5ffd5b5f5ffd5b7f4e487b71000000000000000000000000000000000000000000000000000000005f52604160045260245ffd5b6111ef82610ff2565b810181811067ffffffffffffffff8211171561120e5761120d6111b9565b5b80604052505050565b5f611220610f5b565b905061122c82826111e6565b919050565b5f67ffffffffffffffff82111561124b5761124a6111b9565b5b61125482610ff2565b9050602081019050919050565b828183375f83830152505050565b5f61128161127c84611231565b611217565b90508281526020810184848401111561129d5761129c6111b5565b5b6112a8848285611261565b509392505050565b5f82601f8301126112c4576112c36111b1565b5b81356112d484826020860161126f565b91505092915050565b5f5f604083850312156112f3576112f2610f64565b5b5f83013567ffffffffffffffff8111156113105761130f610f68565b5b61131c858286016112b0565b925050602061132d85828601610f8b565b9150509250929050565b5f6020828403121561134c5761134b610f64565b5b5f61135984828501611104565b91505092915050565b7f4e487b71000000000000000000000000000000000000000000000000000000005f52602160045260245ffd5b600381106113a05761139f611362565b5b50565b5f8190506113b08261138f565b919050565b5f6113bf826113a3565b9050919050565b6113cf816113b5565b82525050565b5f6020820190506113e85f8301846113c6565b92915050565b7f4e487b71000000000000000000000000000000000000000000000000000000005f52602260045260245ffd5b5f600282049050600182168061143257607f821691505b602082108103611445576114446113ee565b5b50919050565b7f4e6f7420746865206f776e6572000000000000000000000000000000000000005f82015250565b5f61147f600d83610fd4565b915061148a8261144b565b602082019050919050565b5f6020820190508181035f8301526114ac81611473565b9050919050565b7f43616d706167696e206e6f74207375636365737366756c0000000000000000005f82015250565b5f6114e7601783610fd4565b91506114f2826114b3565b602082019050919050565b5f6020820190508181035f830152611514816114db565b9050919050565b7f4e6f2062616c616e636520746f2077697468647261772e0000000000000000005f82015250565b5f61154f601783610fd4565b915061155a8261151b565b602082019050919050565b5f6020820190508181035f83015261157c81611543565b9050919050565b7f526566756e6473206e6f74207375636365737366756c000000000000000000005f82015250565b5f6115b7601683610fd4565b91506115c282611583565b602082019050919050565b5f6020820190508181035f8301526115e4816115ab565b9050919050565b7f4e6f20436f6e747275627574696f6e20526566756e64656400000000000000005f82015250565b5f61161f601883610fd4565b915061162a826115eb565b602082019050919050565b5f6020820190508181035f83015261164c81611613565b9050919050565b7f746972657320646f6573206e6f742065786974730000000000000000000000005f82015250565b5f611687601483610fd4565b915061169282611653565b602082019050919050565b5f6020820190508181035f8301526116b48161167b565b9050919050565b7f4e487b71000000000000000000000000000000000000000000000000000000005f52601160045260245ffd5b5f6116f282610f6c565b91506116fd83610f6c565b9250828203905081811115611715576117146116bb565b5b92915050565b7f4e487b71000000000000000000000000000000000000000000000000000000005f52603260045260245ffd5b5f815490506117568161141b565b9050919050565b5f819050815f5260205f209050919050565b5f6020601f8301049050919050565b5f82821b905092915050565b5f600883026117b97fffffffffffffffffffffffffffffffffffffffffffffffffffffffffffffffff8261177e565b6117c3868361177e565b95508019841693508086168417925050509392505050565b5f819050919050565b5f6117fe6117f96117f484610f6c565b6117db565b610f6c565b9050919050565b5f819050919050565b611817836117e4565b61182b61182382611805565b84845461178a565b825550505050565b5f5f905090565b611842611833565b61184d81848461180e565b505050565b5b81811015611870576118655f8261183a565b600181019050611853565b5050565b601f8211156118b5576118868161175d565b61188f8461176f565b8101602085101561189e578190505b6118b26118aa8561176f565b830182611852565b50505b505050565b5f82821c905092915050565b5f6118d55f19846008026118ba565b1980831691505092915050565b5f6118ed83836118c6565b9150826002028217905092915050565b81810361190b5750506119e0565b61191482611748565b67ffffffffffffffff81111561192d5761192c6111b9565b5b611937825461141b565b611942828285611874565b5f601f83116001811461196f575f841561195d578287015490505b61196785826118e2565b8655506119d9565b601f19841661197d8761175d565b96506119888661175d565b5f5b828110156119af5784890154825560018201915060018501945060208101905061198a565b868310156119cc57848901546119c8601f8916826118c6565b8355505b6001600288020188555050505b5050505050505b565b7f4e487b71000000000000000000000000000000000000000000000000000000005f52603160045260245ffd5b7f416d6f756e74206d7573742062652067726561746572207468616e207a65726f5f82015250565b5f611a43602083610fd4565b9150611a4e82611a0f565b602082019050919050565b5f6020820190508181035f830152611a7081611a37565b9050919050565b611a8082610fca565b67ffffffffffffffff811115611a9957611a986111b9565b5b611aa3825461141b565b611aae828285611874565b5f60209050601f831160018114611adf575f8415611acd578287015190505b611ad785826118e2565b865550611b3e565b601f198416611aed8661175d565b5f5b82811015611b1457848901518255600182019150602085019450602081019050611aef565b86831015611b315784890151611b2d601f8916826118c6565b8355505b6001600288020188555050505b505050505050565b7f43616d706169676e206973206e6f7420616374697665200000000000000000005f82015250565b5f611b7a601783610fd4565b9150611b8582611b46565b602082019050919050565b5f6020820190508181035f830152611ba781611b6e565b9050919050565b7f746965727320646f6573206e6f742065786974730000000000000000000000005f82015250565b5f611be2601483610fd4565b9150611bed82611bae565b602082019050919050565b5f6020820190508181035f830152611c0f81611bd6565b9050919050565b7f696e636f727265637420616d6f756e74000000000000000000000000000000005f82015250565b5f611c4a601083610fd4565b9150611c5582611c16565b602082019050919050565b5f6020820190508181035f830152611c7781611c3e565b9050919050565b5f611c8882610f6c565b91507fffffffffffffffffffffffffffffffffffffffffffffffffffffffffffffffff8203611cba57611cb96116bb565b5b600182019050919050565b5f611ccf82610f6c565b9150611cda83610f6c565b9250828201905080821115611cf257611cf16116bb565b5b9291505056fea26469706673582212209d8c7ce821ac1fefb8cde916de51c93884adcf0d1a78f55f0d3443b1c69b6e3d64736f6c634300081e0033",
					"opcodes": "PUSH1 0x80 PUSH1 0x40 MSTORE CALLVALUE DUP1 ISZERO PUSH2 0xF JUMPI PUSH0 PUSH0 REVERT JUMPDEST POP PUSH1 0x40 MLOAD PUSH2 0x23E5 CODESIZE SUB DUP1 PUSH2 0x23E5 DUP4 CODECOPY DUP2 DUP2 ADD PUSH1 0x40 MSTORE DUP2 ADD SWAP1 PUSH2 0x31 SWAP2 SWAP1 PUSH2 0x26A JUMP JUMPDEST DUP4 PUSH0 SWAP1 DUP2 PUSH2 0x3F SWAP2 SWAP1 PUSH2 0x50D JUMP JUMPDEST POP DUP3 PUSH1 0x1 SWAP1 DUP2 PUSH2 0x4F SWAP2 SWAP1 PUSH2 0x50D JUMP JUMPDEST POP DUP2 PUSH1 0x2 DUP2 SWAP1 SSTORE POP PUSH3 0x15180 DUP2 PUSH2 0x66 SWAP2 SWAP1 PUSH2 0x609 JUMP JUMPDEST TIMESTAMP PUSH2 0x71 SWAP2 SWAP1 PUSH2 0x64A JUMP JUMPDEST PUSH1 0x3 DUP2 SWAP1 SSTORE POP CALLER PUSH1 0x4 PUSH0 PUSH2 0x100 EXP DUP2 SLOAD DUP2 PUSH20 0xFFFFFFFFFFFFFFFFFFFFFFFFFFFFFFFFFFFFFFFF MUL NOT AND SWAP1 DUP4 PUSH20 0xFFFFFFFFFFFFFFFFFFFFFFFFFFFFFFFFFFFFFFFF AND MUL OR SWAP1 SSTORE POP PUSH0 PUSH1 0x4 PUSH1 0x14 PUSH2 0x100 EXP DUP2 SLOAD DUP2 PUSH1 0xFF MUL NOT AND SWAP1 DUP4 PUSH1 0x2 DUP2 GT ISZERO PUSH2 0xDC JUMPI PUSH2 0xDB PUSH2 0x67D JUMP JUMPDEST JUMPDEST MUL OR SWAP1 SSTORE POP POP POP POP POP PUSH2 0x6AA JUMP JUMPDEST PUSH0 PUSH1 0x40 MLOAD SWAP1 POP SWAP1 JUMP JUMPDEST PUSH0 PUSH0 REVERT JUMPDEST PUSH0 PUSH0 REVERT JUMPDEST PUSH0 PUSH0 REVERT JUMPDEST PUSH0 PUSH0 REVERT JUMPDEST PUSH0 PUSH1 0x1F NOT PUSH1 0x1F DUP4 ADD AND SWAP1 POP SWAP2 SWAP1 POP JUMP JUMPDEST PUSH32 0x4E487B7100000000000000000000000000000000000000000000000000000000 PUSH0 MSTORE PUSH1 0x41 PUSH1 0x4 MSTORE PUSH1 0x24 PUSH0 REVERT JUMPDEST PUSH2 0x149 DUP3 PUSH2 0x103 JUMP JUMPDEST DUP2 ADD DUP2 DUP2 LT PUSH8 0xFFFFFFFFFFFFFFFF DUP3 GT OR ISZERO PUSH2 0x168 JUMPI PUSH2 0x167 PUSH2 0x113 JUMP JUMPDEST JUMPDEST DUP1 PUSH1 0x40 MSTORE POP POP POP JUMP JUMPDEST PUSH0 PUSH2 0x17A PUSH2 0xEA JUMP JUMPDEST SWAP1 POP PUSH2 0x186 DUP3 DUP3 PUSH2 0x140 JUMP JUMPDEST SWAP2 SWAP1 POP JUMP JUMPDEST PUSH0 PUSH8 0xFFFFFFFFFFFFFFFF DUP3 GT ISZERO PUSH2 0x1A5 JUMPI PUSH2 0x1A4 PUSH2 0x113 JUMP JUMPDEST JUMPDEST PUSH2 0x1AE DUP3 PUSH2 0x103 JUMP JUMPDEST SWAP1 POP PUSH1 0x20 DUP2 ADD SWAP1 POP SWAP2 SWAP1 POP JUMP JUMPDEST DUP3 DUP2 DUP4 MCOPY PUSH0 DUP4 DUP4 ADD MSTORE POP POP POP JUMP JUMPDEST PUSH0 PUSH2 0x1DB PUSH2 0x1D6 DUP5 PUSH2 0x18B JUMP JUMPDEST PUSH2 0x171 JUMP JUMPDEST SWAP1 POP DUP3 DUP2 MSTORE PUSH1 0x20 DUP2 ADD DUP5 DUP5 DUP5 ADD GT ISZERO PUSH2 0x1F7 JUMPI PUSH2 0x1F6 PUSH2 0xFF JUMP JUMPDEST JUMPDEST PUSH2 0x202 DUP5 DUP3 DUP6 PUSH2 0x1BB JUMP JUMPDEST POP SWAP4 SWAP3 POP POP POP JUMP JUMPDEST PUSH0 DUP3 PUSH1 0x1F DUP4 ADD SLT PUSH2 0x21E JUMPI PUSH2 0x21D PUSH2 0xFB JUMP JUMPDEST JUMPDEST DUP2 MLOAD PUSH2 0x22E DUP5 DUP3 PUSH1 0x20 DUP7 ADD PUSH2 0x1C9 JUMP JUMPDEST SWAP2 POP POP SWAP3 SWAP2 POP POP JUMP JUMPDEST PUSH0 DUP2 SWAP1 POP SWAP2 SWAP1 POP JUMP JUMPDEST PUSH2 0x249 DUP2 PUSH2 0x237 JUMP JUMPDEST DUP2 EQ PUSH2 0x253 JUMPI PUSH0 PUSH0 REVERT JUMPDEST POP JUMP JUMPDEST PUSH0 DUP2 MLOAD SWAP1 POP PUSH2 0x264 DUP2 PUSH2 0x240 JUMP JUMPDEST SWAP3 SWAP2 POP POP JUMP JUMPDEST PUSH0 PUSH0 PUSH0 PUSH0 PUSH1 0x80 DUP6 DUP8 SUB SLT ISZERO PUSH2 0x282 JUMPI PUSH2 0x281 PUSH2 0xF3 JUMP JUMPDEST JUMPDEST PUSH0 DUP6 ADD MLOAD PUSH8 0xFFFFFFFFFFFFFFFF DUP2 GT ISZERO PUSH2 0x29F JUMPI PUSH2 0x29E PUSH2 0xF7 JUMP JUMPDEST JUMPDEST PUSH2 0x2AB DUP8 DUP3 DUP9 ADD PUSH2 0x20A JUMP JUMPDEST SWAP5 POP POP PUSH1 0x20 DUP6 ADD MLOAD PUSH8 0xFFFFFFFFFFFFFFFF DUP2 GT ISZERO PUSH2 0x2CC JUMPI PUSH2 0x2CB PUSH2 0xF7 JUMP JUMPDEST JUMPDEST PUSH2 0x2D8 DUP8 DUP3 DUP9 ADD PUSH2 0x20A JUMP JUMPDEST SWAP4 POP POP PUSH1 0x40 PUSH2 0x2E9 DUP8 DUP3 DUP9 ADD PUSH2 0x256 JUMP JUMPDEST SWAP3 POP POP PUSH1 0x60 PUSH2 0x2FA DUP8 DUP3 DUP9 ADD PUSH2 0x256 JUMP JUMPDEST SWAP2 POP POP SWAP3 SWAP6 SWAP2 SWAP5 POP SWAP3 POP JUMP JUMPDEST PUSH0 DUP2 MLOAD SWAP1 POP SWAP2 SWAP1 POP JUMP JUMPDEST PUSH32 0x4E487B7100000000000000000000000000000000000000000000000000000000 PUSH0 MSTORE PUSH1 0x22 PUSH1 0x4 MSTORE PUSH1 0x24 PUSH0 REVERT JUMPDEST PUSH0 PUSH1 0x2 DUP3 DIV SWAP1 POP PUSH1 0x1 DUP3 AND DUP1 PUSH2 0x354 JUMPI PUSH1 0x7F DUP3 AND SWAP2 POP JUMPDEST PUSH1 0x20 DUP3 LT DUP2 SUB PUSH2 0x367 JUMPI PUSH2 0x366 PUSH2 0x310 JUMP JUMPDEST JUMPDEST POP SWAP2 SWAP1 POP JUMP JUMPDEST PUSH0 DUP2 SWAP1 POP DUP2 PUSH0 MSTORE PUSH1 0x20 PUSH0 KECCAK256 SWAP1 POP SWAP2 SWAP1 POP JUMP JUMPDEST PUSH0 PUSH1 0x20 PUSH1 0x1F DUP4 ADD DIV SWAP1 POP SWAP2 SWAP1 POP JUMP JUMPDEST PUSH0 DUP3 DUP3 SHL SWAP1 POP SWAP3 SWAP2 POP POP JUMP JUMPDEST PUSH0 PUSH1 0x8 DUP4 MUL PUSH2 0x3C9 PUSH32 0xFFFFFFFFFFFFFFFFFFFFFFFFFFFFFFFFFFFFFFFFFFFFFFFFFFFFFFFFFFFFFFFF DUP3 PUSH2 0x38E JUMP JUMPDEST PUSH2 0x3D3 DUP7 DUP4 PUSH2 0x38E JUMP JUMPDEST SWAP6 POP DUP1 NOT DUP5 AND SWAP4 POP DUP1 DUP7 AND DUP5 OR SWAP3 POP POP POP SWAP4 SWAP3 POP POP POP JUMP JUMPDEST PUSH0 DUP2 SWAP1 POP SWAP2 SWAP1 POP JUMP JUMPDEST PUSH0 PUSH2 0x40E PUSH2 0x409 PUSH2 0x404 DUP5 PUSH2 0x237 JUMP JUMPDEST PUSH2 0x3EB JUMP JUMPDEST PUSH2 0x237 JUMP JUMPDEST SWAP1 POP SWAP2 SWAP1 POP JUMP JUMPDEST PUSH0 DUP2 SWAP1 POP SWAP2 SWAP1 POP JUMP JUMPDEST PUSH2 0x427 DUP4 PUSH2 0x3F4 JUMP JUMPDEST PUSH2 0x43B PUSH2 0x433 DUP3 PUSH2 0x415 JUMP JUMPDEST DUP5 DUP5 SLOAD PUSH2 0x39A JUMP JUMPDEST DUP3 SSTORE POP POP POP POP JUMP JUMPDEST PUSH0 PUSH0 SWAP1 POP SWAP1 JUMP JUMPDEST PUSH2 0x452 PUSH2 0x443 JUMP JUMPDEST PUSH2 0x45D DUP2 DUP5 DUP5 PUSH2 0x41E JUMP JUMPDEST POP POP POP JUMP JUMPDEST JUMPDEST DUP2 DUP2 LT ISZERO PUSH2 0x480 JUMPI PUSH2 0x475 PUSH0 DUP3 PUSH2 0x44A JUMP JUMPDEST PUSH1 0x1 DUP2 ADD SWAP1 POP PUSH2 0x463 JUMP JUMPDEST POP POP JUMP JUMPDEST PUSH1 0x1F DUP3 GT ISZERO PUSH2 0x4C5 JUMPI PUSH2 0x496 DUP2 PUSH2 0x36D JUMP JUMPDEST PUSH2 0x49F DUP5 PUSH2 0x37F JUMP JUMPDEST DUP2 ADD PUSH1 0x20 DUP6 LT ISZERO PUSH2 0x4AE JUMPI DUP2 SWAP1 POP JUMPDEST PUSH2 0x4C2 PUSH2 0x4BA DUP6 PUSH2 0x37F JUMP JUMPDEST DUP4 ADD DUP3 PUSH2 0x462 JUMP JUMPDEST POP POP JUMPDEST POP POP POP JUMP JUMPDEST PUSH0 DUP3 DUP3 SHR SWAP1 POP SWAP3 SWAP2 POP POP JUMP JUMPDEST PUSH0 PUSH2 0x4E5 PUSH0 NOT DUP5 PUSH1 0x8 MUL PUSH2 0x4CA JUMP JUMPDEST NOT DUP1 DUP4 AND SWAP2 POP POP SWAP3 SWAP2 POP POP JUMP JUMPDEST PUSH0 PUSH2 0x4FD DUP4 DUP4 PUSH2 0x4D6 JUMP JUMPDEST SWAP2 POP DUP3 PUSH1 0x2 MUL DUP3 OR SWAP1 POP SWAP3 SWAP2 POP POP JUMP JUMPDEST PUSH2 0x516 DUP3 PUSH2 0x306 JUMP JUMPDEST PUSH8 0xFFFFFFFFFFFFFFFF DUP2 GT ISZERO PUSH2 0x52F JUMPI PUSH2 0x52E PUSH2 0x113 JUMP JUMPDEST JUMPDEST PUSH2 0x539 DUP3 SLOAD PUSH2 0x33D JUMP JUMPDEST PUSH2 0x544 DUP3 DUP3 DUP6 PUSH2 0x484 JUMP JUMPDEST PUSH0 PUSH1 0x20 SWAP1 POP PUSH1 0x1F DUP4 GT PUSH1 0x1 DUP2 EQ PUSH2 0x575 JUMPI PUSH0 DUP5 ISZERO PUSH2 0x563 JUMPI DUP3 DUP8 ADD MLOAD SWAP1 POP JUMPDEST PUSH2 0x56D DUP6 DUP3 PUSH2 0x4F2 JUMP JUMPDEST DUP7 SSTORE POP PUSH2 0x5D4 JUMP JUMPDEST PUSH1 0x1F NOT DUP5 AND PUSH2 0x583 DUP7 PUSH2 0x36D JUMP JUMPDEST PUSH0 JUMPDEST DUP3 DUP2 LT ISZERO PUSH2 0x5AA JUMPI DUP5 DUP10 ADD MLOAD DUP3 SSTORE PUSH1 0x1 DUP3 ADD SWAP2 POP PUSH1 0x20 DUP6 ADD SWAP5 POP PUSH1 0x20 DUP2 ADD SWAP1 POP PUSH2 0x585 JUMP JUMPDEST DUP7 DUP4 LT ISZERO PUSH2 0x5C7 JUMPI DUP5 DUP10 ADD MLOAD PUSH2 0x5C3 PUSH1 0x1F DUP10 AND DUP3 PUSH2 0x4D6 JUMP JUMPDEST DUP4 SSTORE POP JUMPDEST PUSH1 0x1 PUSH1 0x2 DUP9 MUL ADD DUP9 SSTORE POP POP POP JUMPDEST POP POP POP POP POP POP JUMP JUMPDEST PUSH32 0x4E487B7100000000000000000000000000000000000000000000000000000000 PUSH0 MSTORE PUSH1 0x11 PUSH1 0x4 MSTORE PUSH1 0x24 PUSH0 REVERT JUMPDEST PUSH0 PUSH2 0x613 DUP3 PUSH2 0x237 JUMP JUMPDEST SWAP2 POP PUSH2 0x61E DUP4 PUSH2 0x237 JUMP JUMPDEST SWAP3 POP DUP3 DUP3 MUL PUSH2 0x62C DUP2 PUSH2 0x237 JUMP JUMPDEST SWAP2 POP DUP3 DUP3 DIV DUP5 EQ DUP4 ISZERO OR PUSH2 0x643 JUMPI PUSH2 0x642 PUSH2 0x5DC JUMP JUMPDEST JUMPDEST POP SWAP3 SWAP2 POP POP JUMP JUMPDEST PUSH0 PUSH2 0x654 DUP3 PUSH2 0x237 JUMP JUMPDEST SWAP2 POP PUSH2 0x65F DUP4 PUSH2 0x237 JUMP JUMPDEST SWAP3 POP DUP3 DUP3 ADD SWAP1 POP DUP1 DUP3 GT ISZERO PUSH2 0x677 JUMPI PUSH2 0x676 PUSH2 0x5DC JUMP JUMPDEST JUMPDEST SWAP3 SWAP2 POP POP JUMP JUMPDEST PUSH32 0x4E487B7100000000000000000000000000000000000000000000000000000000 PUSH0 MSTORE PUSH1 0x21 PUSH1 0x4 MSTORE PUSH1 0x24 PUSH0 REVERT JUMPDEST PUSH2 0x1D2E DUP1 PUSH2 0x6B7 PUSH0 CODECOPY PUSH0 RETURN INVALID PUSH1 0x80 PUSH1 0x40 MSTORE PUSH1 0x4 CALLDATASIZE LT PUSH2 0xE7 JUMPI PUSH0 CALLDATALOAD PUSH1 0xE0 SHR DUP1 PUSH4 0x7284E416 GT PUSH2 0x89 JUMPI DUP1 PUSH4 0x8ECE7B91 GT PUSH2 0x58 JUMPI DUP1 PUSH4 0x8ECE7B91 EQ PUSH2 0x2B5 JUMPI DUP1 PUSH4 0xB85DFB80 EQ PUSH2 0x2DD JUMPI DUP1 PUSH4 0xC19D93FB EQ PUSH2 0x319 JUMPI DUP1 PUSH4 0xCA1D209D EQ PUSH2 0x343 JUMPI PUSH2 0xE7 JUMP JUMPDEST DUP1 PUSH4 0x7284E416 EQ PUSH2 0x1FD JUMPI DUP1 PUSH4 0x7497211B EQ PUSH2 0x227 JUMPI DUP1 PUSH4 0x7ADBA527 EQ PUSH2 0x24F JUMPI DUP1 PUSH4 0x8DA5CB5B EQ PUSH2 0x28B JUMPI PUSH2 0xE7 JUMP JUMPDEST DUP1 PUSH4 0x3CCFD60B GT PUSH2 0xC5 JUMPI DUP1 PUSH4 0x3CCFD60B EQ PUSH2 0x17D JUMPI DUP1 PUSH4 0x40193883 EQ PUSH2 0x193 JUMPI DUP1 PUSH4 0x590E1AE3 EQ PUSH2 0x1BD JUMPI DUP1 PUSH4 0x6F9FB98A EQ PUSH2 0x1D3 JUMPI PUSH2 0xE7 JUMP JUMPDEST DUP1 PUSH4 0x39AF9EB EQ PUSH2 0xEB JUMPI DUP1 PUSH4 0x6FDDE03 EQ PUSH2 0x129 JUMPI DUP1 PUSH4 0x29DCB0CF EQ PUSH2 0x153 JUMPI JUMPDEST PUSH0 PUSH0 REVERT JUMPDEST CALLVALUE DUP1 ISZERO PUSH2 0xF6 JUMPI PUSH0 PUSH0 REVERT JUMPDEST POP PUSH2 0x111 PUSH1 0x4 DUP1 CALLDATASIZE SUB DUP2 ADD SWAP1 PUSH2 0x10C SWAP2 SWAP1 PUSH2 0xF9F JUMP JUMPDEST PUSH2 0x35F JUMP JUMPDEST PUSH1 0x40 MLOAD PUSH2 0x120 SWAP4 SWAP3 SWAP2 SWAP1 PUSH2 0x1049 JUMP JUMPDEST PUSH1 0x40 MLOAD DUP1 SWAP2 SUB SWAP1 RETURN JUMPDEST CALLVALUE DUP1 ISZERO PUSH2 0x134 JUMPI PUSH0 PUSH0 REVERT JUMPDEST POP PUSH2 0x13D PUSH2 0x41A JUMP JUMPDEST PUSH1 0x40 MLOAD PUSH2 0x14A SWAP2 SWAP1 PUSH2 0x1085 JUMP JUMPDEST PUSH1 0x40 MLOAD DUP1 SWAP2 SUB SWAP1 RETURN JUMPDEST CALLVALUE DUP1 ISZERO PUSH2 0x15E JUMPI PUSH0 PUSH0 REVERT JUMPDEST POP PUSH2 0x167 PUSH2 0x4A5 JUMP JUMPDEST PUSH1 0x40 MLOAD PUSH2 0x174 SWAP2 SWAP1 PUSH2 0x10A5 JUMP JUMPDEST PUSH1 0x40 MLOAD DUP1 SWAP2 SUB SWAP1 RETURN JUMPDEST CALLVALUE DUP1 ISZERO PUSH2 0x188 JUMPI PUSH0 PUSH0 REVERT JUMPDEST POP PUSH2 0x191 PUSH2 0x4AB JUMP JUMPDEST STOP JUMPDEST CALLVALUE DUP1 ISZERO PUSH2 0x19E JUMPI PUSH0 PUSH0 REVERT JUMPDEST POP PUSH2 0x1A7 PUSH2 0x666 JUMP JUMPDEST PUSH1 0x40 MLOAD PUSH2 0x1B4 SWAP2 SWAP1 PUSH2 0x10A5 JUMP JUMPDEST PUSH1 0x40 MLOAD DUP1 SWAP2 SUB SWAP1 RETURN JUMPDEST CALLVALUE DUP1 ISZERO PUSH2 0x1C8 JUMPI PUSH0 PUSH0 REVERT JUMPDEST POP PUSH2 0x1D1 PUSH2 0x66C JUMP JUMPDEST STOP JUMPDEST CALLVALUE DUP1 ISZERO PUSH2 0x1DE JUMPI PUSH0 PUSH0 REVERT JUMPDEST POP PUSH2 0x1E7 PUSH2 0x7F9 JUMP JUMPDEST PUSH1 0x40 MLOAD PUSH2 0x1F4 SWAP2 SWAP1 PUSH2 0x10A5 JUMP JUMPDEST PUSH1 0x40 MLOAD DUP1 SWAP2 SUB SWAP1 RETURN JUMPDEST CALLVALUE DUP1 ISZERO PUSH2 0x208 JUMPI PUSH0 PUSH0 REVERT JUMPDEST POP PUSH2 0x211 PUSH2 0x800 JUMP JUMPDEST PUSH1 0x40 MLOAD PUSH2 0x21E SWAP2 SWAP1 PUSH2 0x1085 JUMP JUMPDEST PUSH1 0x40 MLOAD DUP1 SWAP2 SUB SWAP1 RETURN JUMPDEST CALLVALUE DUP1 ISZERO PUSH2 0x232 JUMPI PUSH0 PUSH0 REVERT JUMPDEST POP PUSH2 0x24D PUSH1 0x4 DUP1 CALLDATASIZE SUB DUP2 ADD SWAP1 PUSH2 0x248 SWAP2 SWAP1 PUSH2 0xF9F JUMP JUMPDEST PUSH2 0x88C JUMP JUMPDEST STOP JUMPDEST CALLVALUE DUP1 ISZERO PUSH2 0x25A JUMPI PUSH0 PUSH0 REVERT JUMPDEST POP PUSH2 0x275 PUSH1 0x4 DUP1 CALLDATASIZE SUB DUP2 ADD SWAP1 PUSH2 0x270 SWAP2 SWAP1 PUSH2 0x1118 JUMP JUMPDEST PUSH2 0xA25 JUMP JUMPDEST PUSH1 0x40 MLOAD PUSH2 0x282 SWAP2 SWAP1 PUSH2 0x1170 JUMP JUMPDEST PUSH1 0x40 MLOAD DUP1 SWAP2 SUB SWAP1 RETURN JUMPDEST CALLVALUE DUP1 ISZERO PUSH2 0x296 JUMPI PUSH0 PUSH0 REVERT JUMPDEST POP PUSH2 0x29F PUSH2 0xA8A JUMP JUMPDEST PUSH1 0x40 MLOAD PUSH2 0x2AC SWAP2 SWAP1 PUSH2 0x1198 JUMP JUMPDEST PUSH1 0x40 MLOAD DUP1 SWAP2 SUB SWAP1 RETURN JUMPDEST CALLVALUE DUP1 ISZERO PUSH2 0x2C0 JUMPI PUSH0 PUSH0 REVERT JUMPDEST POP PUSH2 0x2DB PUSH1 0x4 DUP1 CALLDATASIZE SUB DUP2 ADD SWAP1 PUSH2 0x2D6 SWAP2 SWAP1 PUSH2 0x12DD JUMP JUMPDEST PUSH2 0xAAF JUMP JUMPDEST STOP JUMPDEST CALLVALUE DUP1 ISZERO PUSH2 0x2E8 JUMPI PUSH0 PUSH0 REVERT JUMPDEST POP PUSH2 0x303 PUSH1 0x4 DUP1 CALLDATASIZE SUB DUP2 ADD SWAP1 PUSH2 0x2FE SWAP2 SWAP1 PUSH2 0x1337 JUMP JUMPDEST PUSH2 0xBF1 JUMP JUMPDEST PUSH1 0x40 MLOAD PUSH2 0x310 SWAP2 SWAP1 PUSH2 0x10A5 JUMP JUMPDEST PUSH1 0x40 MLOAD DUP1 SWAP2 SUB SWAP1 RETURN JUMPDEST CALLVALUE DUP1 ISZERO PUSH2 0x324 JUMPI PUSH0 PUSH0 REVERT JUMPDEST POP PUSH2 0x32D PUSH2 0xC0B JUMP JUMPDEST PUSH1 0x40 MLOAD PUSH2 0x33A SWAP2 SWAP1 PUSH2 0x13D5 JUMP JUMPDEST PUSH1 0x40 MLOAD DUP1 SWAP2 SUB SWAP1 RETURN JUMPDEST PUSH2 0x35D PUSH1 0x4 DUP1 CALLDATASIZE SUB DUP2 ADD SWAP1 PUSH2 0x358 SWAP2 SWAP1 PUSH2 0xF9F JUMP JUMPDEST PUSH2 0xC1E JUMP JUMPDEST STOP JUMPDEST PUSH1 0x5 DUP2 DUP2 SLOAD DUP2 LT PUSH2 0x36E JUMPI PUSH0 DUP1 REVERT JUMPDEST SWAP1 PUSH0 MSTORE PUSH1 0x20 PUSH0 KECCAK256 SWAP1 PUSH1 0x3 MUL ADD PUSH0 SWAP2 POP SWAP1 POP DUP1 PUSH0 ADD DUP1 SLOAD PUSH2 0x38D SWAP1 PUSH2 0x141B JUMP JUMPDEST DUP1 PUSH1 0x1F ADD PUSH1 0x20 DUP1 SWAP2 DIV MUL PUSH1 0x20 ADD PUSH1 0x40 MLOAD SWAP1 DUP2 ADD PUSH1 0x40 MSTORE DUP1 SWAP3 SWAP2 SWAP1 DUP2 DUP2 MSTORE PUSH1 0x20 ADD DUP3 DUP1 SLOAD PUSH2 0x3B9 SWAP1 PUSH2 0x141B JUMP JUMPDEST DUP1 ISZERO PUSH2 0x404 JUMPI DUP1 PUSH1 0x1F LT PUSH2 0x3DB JUMPI PUSH2 0x100 DUP1 DUP4 SLOAD DIV MUL DUP4 MSTORE SWAP2 PUSH1 0x20 ADD SWAP2 PUSH2 0x404 JUMP JUMPDEST DUP3 ADD SWAP2 SWAP1 PUSH0 MSTORE PUSH1 0x20 PUSH0 KECCAK256 SWAP1 JUMPDEST DUP2 SLOAD DUP2 MSTORE SWAP1 PUSH1 0x1 ADD SWAP1 PUSH1 0x20 ADD DUP1 DUP4 GT PUSH2 0x3E7 JUMPI DUP3 SWAP1 SUB PUSH1 0x1F AND DUP3 ADD SWAP2 JUMPDEST POP POP POP POP POP SWAP1 DUP1 PUSH1 0x1 ADD SLOAD SWAP1 DUP1 PUSH1 0x2 ADD SLOAD SWAP1 POP DUP4 JUMP JUMPDEST PUSH0 DUP1 SLOAD PUSH2 0x426 SWAP1 PUSH2 0x141B JUMP JUMPDEST DUP1 PUSH1 0x1F ADD PUSH1 0x20 DUP1 SWAP2 DIV MUL PUSH1 0x20 ADD PUSH1 0x40 MLOAD SWAP1 DUP2 ADD PUSH1 0x40 MSTORE DUP1 SWAP3 SWAP2 SWAP1 DUP2 DUP2 MSTORE PUSH1 0x20 ADD DUP3 DUP1 SLOAD PUSH2 0x452 SWAP1 PUSH2 0x141B JUMP JUMPDEST DUP1 ISZERO PUSH2 0x49D JUMPI DUP1 PUSH1 0x1F LT PUSH2 0x474 JUMPI PUSH2 0x100 DUP1 DUP4 SLOAD DIV MUL DUP4 MSTORE SWAP2 PUSH1 0x20 ADD SWAP2 PUSH2 0x49D JUMP JUMPDEST DUP3 ADD SWAP2 SWAP1 PUSH0 MSTORE PUSH1 0x20 PUSH0 KECCAK256 SWAP1 JUMPDEST DUP2 SLOAD DUP2 MSTORE SWAP1 PUSH1 0x1 ADD SWAP1 PUSH1 0x20 ADD DUP1 DUP4 GT PUSH2 0x480 JUMPI DUP3 SWAP1 SUB PUSH1 0x1F AND DUP3 ADD SWAP2 JUMPDEST POP POP POP POP POP DUP2 JUMP JUMPDEST PUSH1 0x3 SLOAD DUP2 JUMP JUMPDEST PUSH1 0x4 PUSH0 SWAP1 SLOAD SWAP1 PUSH2 0x100 EXP SWAP1 DIV PUSH20 0xFFFFFFFFFFFFFFFFFFFFFFFFFFFFFFFFFFFFFFFF AND PUSH20 0xFFFFFFFFFFFFFFFFFFFFFFFFFFFFFFFFFFFFFFFF AND CALLER PUSH20 0xFFFFFFFFFFFFFFFFFFFFFFFFFFFFFFFFFFFFFFFF AND EQ PUSH2 0x53A JUMPI PUSH1 0x40 MLOAD PUSH32 0x8C379A000000000000000000000000000000000000000000000000000000000 DUP2 MSTORE PUSH1 0x4 ADD PUSH2 0x531 SWAP1 PUSH2 0x1495 JUMP JUMPDEST PUSH1 0x40 MLOAD DUP1 SWAP2 SUB SWAP1 REVERT JUMPDEST PUSH2 0x542 PUSH2 0xE3E JUMP JUMPDEST PUSH1 0x1 PUSH1 0x2 DUP2 GT ISZERO PUSH2 0x556 JUMPI PUSH2 0x555 PUSH2 0x1362 JUMP JUMPDEST JUMPDEST PUSH1 0x4 PUSH1 0x14 SWAP1 SLOAD SWAP1 PUSH2 0x100 EXP SWAP1 DIV PUSH1 0xFF AND PUSH1 0x2 DUP2 GT ISZERO PUSH2 0x578 JUMPI PUSH2 0x577 PUSH2 0x1362 JUMP JUMPDEST JUMPDEST EQ PUSH2 0x5B8 JUMPI PUSH1 0x40 MLOAD PUSH32 0x8C379A000000000000000000000000000000000000000000000000000000000 DUP2 MSTORE PUSH1 0x4 ADD PUSH2 0x5AF SWAP1 PUSH2 0x14FD JUMP JUMPDEST PUSH1 0x40 MLOAD DUP1 SWAP2 SUB SWAP1 REVERT JUMPDEST PUSH0 SELFBALANCE SWAP1 POP PUSH0 DUP2 GT PUSH2 0x5FE JUMPI PUSH1 0x40 MLOAD PUSH32 0x8C379A000000000000000000000000000000000000000000000000000000000 DUP2 MSTORE PUSH1 0x4 ADD PUSH2 0x5F5 SWAP1 PUSH2 0x1565 JUMP JUMPDEST PUSH1 0x40 MLOAD DUP1 SWAP2 SUB SWAP1 REVERT JUMPDEST PUSH1 0x4 PUSH0 SWAP1 SLOAD SWAP1 PUSH2 0x100 EXP SWAP1 DIV PUSH20 0xFFFFFFFFFFFFFFFFFFFFFFFFFFFFFFFFFFFFFFFF AND PUSH20 0xFFFFFFFFFFFFFFFFFFFFFFFFFFFFFFFFFFFFFFFF AND PUSH2 0x8FC DUP3 SWAP1 DUP2 ISZERO MUL SWAP1 PUSH1 0x40 MLOAD PUSH0 PUSH1 0x40 MLOAD DUP1 DUP4 SUB DUP2 DUP6 DUP9 DUP9 CALL SWAP4 POP POP POP POP ISZERO DUP1 ISZERO PUSH2 0x662 JUMPI RETURNDATASIZE PUSH0 PUSH0 RETURNDATACOPY RETURNDATASIZE PUSH0 REVERT JUMPDEST POP POP JUMP JUMPDEST PUSH1 0x2 SLOAD DUP2 JUMP JUMPDEST PUSH2 0x674 PUSH2 0xE3E JUMP JUMPDEST PUSH1 0x2 DUP1 DUP2 GT ISZERO PUSH2 0x687 JUMPI PUSH2 0x686 PUSH2 0x1362 JUMP JUMPDEST JUMPDEST PUSH1 0x4 PUSH1 0x14 SWAP1 SLOAD SWAP1 PUSH2 0x100 EXP SWAP1 DIV PUSH1 0xFF AND PUSH1 0x2 DUP2 GT ISZERO PUSH2 0x6A9 JUMPI PUSH2 0x6A8 PUSH2 0x1362 JUMP JUMPDEST JUMPDEST EQ PUSH2 0x6E9 JUMPI PUSH1 0x40 MLOAD PUSH32 0x8C379A000000000000000000000000000000000000000000000000000000000 DUP2 MSTORE PUSH1 0x4 ADD PUSH2 0x6E0 SWAP1 PUSH2 0x15CD JUMP JUMPDEST PUSH1 0x40 MLOAD DUP1 SWAP2 SUB SWAP1 REVERT JUMPDEST PUSH0 PUSH1 0x6 PUSH0 CALLER PUSH20 0xFFFFFFFFFFFFFFFFFFFFFFFFFFFFFFFFFFFFFFFF AND PUSH20 0xFFFFFFFFFFFFFFFFFFFFFFFFFFFFFFFFFFFFFFFF AND DUP2 MSTORE PUSH1 0x20 ADD SWAP1 DUP2 MSTORE PUSH1 0x20 ADD PUSH0 KECCAK256 PUSH0 ADD SLOAD SWAP1 POP PUSH0 DUP2 GT PUSH2 0x76E JUMPI PUSH1 0x40 MLOAD PUSH32 0x8C379A000000000000000000000000000000000000000000000000000000000 DUP2 MSTORE PUSH1 0x4 ADD PUSH2 0x765 SWAP1 PUSH2 0x1635 JUMP JUMPDEST PUSH1 0x40 MLOAD DUP1 SWAP2 SUB SWAP1 REVERT JUMPDEST PUSH0 PUSH1 0x6 PUSH0 CALLER PUSH20 0xFFFFFFFFFFFFFFFFFFFFFFFFFFFFFFFFFFFFFFFF AND PUSH20 0xFFFFFFFFFFFFFFFFFFFFFFFFFFFFFFFFFFFFFFFF AND DUP2 MSTORE PUSH1 0x20 ADD SWAP1 DUP2 MSTORE PUSH1 0x20 ADD PUSH0 KECCAK256 PUSH0 ADD DUP2 SWAP1 SSTORE POP CALLER PUSH20 0xFFFFFFFFFFFFFFFFFFFFFFFFFFFFFFFFFFFFFFFF AND PUSH2 0x8FC DUP3 SWAP1 DUP2 ISZERO MUL SWAP1 PUSH1 0x40 MLOAD PUSH0 PUSH1 0x40 MLOAD DUP1 DUP4 SUB DUP2 DUP6 DUP9 DUP9 CALL SWAP4 POP POP POP POP ISZERO DUP1 ISZERO PUSH2 0x7F5 JUMPI RETURNDATASIZE PUSH0 PUSH0 RETURNDATACOPY RETURNDATASIZE PUSH0 REVERT JUMPDEST POP POP JUMP JUMPDEST PUSH0 SELFBALANCE SWAP1 POP SWAP1 JUMP JUMPDEST PUSH1 0x1 DUP1 SLOAD PUSH2 0x80D SWAP1 PUSH2 0x141B JUMP JUMPDEST DUP1 PUSH1 0x1F ADD PUSH1 0x20 DUP1 SWAP2 DIV MUL PUSH1 0x20 ADD PUSH1 0x40 MLOAD SWAP1 DUP2 ADD PUSH1 0x40 MSTORE DUP1 SWAP3 SWAP2 SWAP1 DUP2 DUP2 MSTORE PUSH1 0x20 ADD DUP3 DUP1 SLOAD PUSH2 0x839 SWAP1 PUSH2 0x141B JUMP JUMPDEST DUP1 ISZERO PUSH2 0x884 JUMPI DUP1 PUSH1 0x1F LT PUSH2 0x85B JUMPI PUSH2 0x100 DUP1 DUP4 SLOAD DIV MUL DUP4 MSTORE SWAP2 PUSH1 0x20 ADD SWAP2 PUSH2 0x884 JUMP JUMPDEST DUP3 ADD SWAP2 SWAP1 PUSH0 MSTORE PUSH1 0x20 PUSH0 KECCAK256 SWAP1 JUMPDEST DUP2 SLOAD DUP2 MSTORE SWAP1 PUSH1 0x1 ADD SWAP1 PUSH1 0x20 ADD DUP1 DUP4 GT PUSH2 0x867 JUMPI DUP3 SWAP1 SUB PUSH1 0x1F AND DUP3 ADD SWAP2 JUMPDEST POP POP POP POP POP DUP2 JUMP JUMPDEST PUSH1 0x4 PUSH0 SWAP1 SLOAD SWAP1 PUSH2 0x100 EXP SWAP1 DIV PUSH20 0xFFFFFFFFFFFFFFFFFFFFFFFFFFFFFFFFFFFFFFFF AND PUSH20 0xFFFFFFFFFFFFFFFFFFFFFFFFFFFFFFFFFFFFFFFF AND CALLER PUSH20 0xFFFFFFFFFFFFFFFFFFFFFFFFFFFFFFFFFFFFFFFF AND EQ PUSH2 0x91B JUMPI PUSH1 0x40 MLOAD PUSH32 0x8C379A000000000000000000000000000000000000000000000000000000000 DUP2 MSTORE PUSH1 0x4 ADD PUSH2 0x912 SWAP1 PUSH2 0x1495 JUMP JUMPDEST PUSH1 0x40 MLOAD DUP1 SWAP2 SUB SWAP1 REVERT JUMPDEST PUSH1 0x5 DUP1 SLOAD SWAP1 POP DUP2 LT PUSH2 0x962 JUMPI PUSH1 0x40 MLOAD PUSH32 0x8C379A000000000000000000000000000000000000000000000000000000000 DUP2 MSTORE PUSH1 0x4 ADD PUSH2 0x959 SWAP1 PUSH2 0x169D JUMP JUMPDEST PUSH1 0x40 MLOAD DUP1 SWAP2 SUB SWAP1 REVERT JUMPDEST PUSH1 0x5 PUSH1 0x1 PUSH1 0x5 DUP1 SLOAD SWAP1 POP PUSH2 0x976 SWAP2 SWAP1 PUSH2 0x16E8 JUMP JUMPDEST DUP2 SLOAD DUP2 LT PUSH2 0x987 JUMPI PUSH2 0x986 PUSH2 0x171B JUMP JUMPDEST JUMPDEST SWAP1 PUSH0 MSTORE PUSH1 0x20 PUSH0 KECCAK256 SWAP1 PUSH1 0x3 MUL ADD PUSH1 0x5 DUP3 DUP2 SLOAD DUP2 LT PUSH2 0x9A7 JUMPI PUSH2 0x9A6 PUSH2 0x171B JUMP JUMPDEST JUMPDEST SWAP1 PUSH0 MSTORE PUSH1 0x20 PUSH0 KECCAK256 SWAP1 PUSH1 0x3 MUL ADD PUSH0 DUP3 ADD DUP2 PUSH0 ADD SWAP1 DUP2 PUSH2 0x9C5 SWAP2 SWAP1 PUSH2 0x18FD JUMP JUMPDEST POP PUSH1 0x1 DUP3 ADD SLOAD DUP2 PUSH1 0x1 ADD SSTORE PUSH1 0x2 DUP3 ADD SLOAD DUP2 PUSH1 0x2 ADD SSTORE SWAP1 POP POP PUSH1 0x5 DUP1 SLOAD DUP1 PUSH2 0x9EF JUMPI PUSH2 0x9EE PUSH2 0x19E2 JUMP JUMPDEST JUMPDEST PUSH1 0x1 SWAP1 SUB DUP2 DUP2 SWAP1 PUSH0 MSTORE PUSH1 0x20 PUSH0 KECCAK256 SWAP1 PUSH1 0x3 MUL ADD PUSH0 PUSH0 DUP3 ADD PUSH0 PUSH2 0xA10 SWAP2 SWAP1 PUSH2 0xF03 JUMP JUMPDEST PUSH1 0x1 DUP3 ADD PUSH0 SWAP1 SSTORE PUSH1 0x2 DUP3 ADD PUSH0 SWAP1 SSTORE POP POP SWAP1 SSTORE POP JUMP JUMPDEST PUSH0 PUSH1 0x6 PUSH0 DUP5 PUSH20 0xFFFFFFFFFFFFFFFFFFFFFFFFFFFFFFFFFFFFFFFF AND PUSH20 0xFFFFFFFFFFFFFFFFFFFFFFFFFFFFFFFFFFFFFFFF AND DUP2 MSTORE PUSH1 0x20 ADD SWAP1 DUP2 MSTORE PUSH1 0x20 ADD PUSH0 KECCAK256 PUSH1 0x1 ADD PUSH0 DUP4 DUP2 MSTORE PUSH1 0x20 ADD SWAP1 DUP2 MSTORE PUSH1 0x20 ADD PUSH0 KECCAK256 PUSH0 SWAP1 SLOAD SWAP1 PUSH2 0x100 EXP SWAP1 DIV PUSH1 0xFF AND SWAP1 POP SWAP3 SWAP2 POP POP JUMP JUMPDEST PUSH1 0x4 PUSH0 SWAP1 SLOAD SWAP1 PUSH2 0x100 EXP SWAP1 DIV PUSH20 0xFFFFFFFFFFFFFFFFFFFFFFFFFFFFFFFFFFFFFFFF AND DUP2 JUMP JUMPDEST PUSH1 0x4 PUSH0 SWAP1 SLOAD SWAP1 PUSH2 0x100 EXP SWAP1 DIV PUSH20 0xFFFFFFFFFFFFFFFFFFFFFFFFFFFFFFFFFFFFFFFF AND PUSH20 0xFFFFFFFFFFFFFFFFFFFFFFFFFFFFFFFFFFFFFFFF AND CALLER PUSH20 0xFFFFFFFFFFFFFFFFFFFFFFFFFFFFFFFFFFFFFFFF AND EQ PUSH2 0xB3E JUMPI PUSH1 0x40 MLOAD PUSH32 0x8C379A000000000000000000000000000000000000000000000000000000000 DUP2 MSTORE PUSH1 0x4 ADD PUSH2 0xB35 SWAP1 PUSH2 0x1495 JUMP JUMPDEST PUSH1 0x40 MLOAD DUP1 SWAP2 SUB SWAP1 REVERT JUMPDEST PUSH0 DUP2 GT PUSH2 0xB80 JUMPI PUSH1 0x40 MLOAD PUSH32 0x8C379A000000000000000000000000000000000000000000000000000000000 DUP2 MSTORE PUSH1 0x4 ADD PUSH2 0xB77 SWAP1 PUSH2 0x1A59 JUMP JUMPDEST PUSH1 0x40 MLOAD DUP1 SWAP2 SUB SWAP1 REVERT JUMPDEST PUSH1 0x5 PUSH1 0x40 MLOAD DUP1 PUSH1 0x60 ADD PUSH1 0x40 MSTORE DUP1 DUP5 DUP2 MSTORE PUSH1 0x20 ADD DUP4 DUP2 MSTORE PUSH1 0x20 ADD PUSH0 DUP2 MSTORE POP SWAP1 DUP1 PUSH1 0x1 DUP2 SLOAD ADD DUP1 DUP3 SSTORE DUP1 SWAP2 POP POP PUSH1 0x1 SWAP1 SUB SWAP1 PUSH0 MSTORE PUSH1 0x20 PUSH0 KECCAK256 SWAP1 PUSH1 0x3 MUL ADD PUSH0 SWAP1 SWAP2 SWAP1 SWAP2 SWAP1 SWAP2 POP PUSH0 DUP3 ADD MLOAD DUP2 PUSH0 ADD SWAP1 DUP2 PUSH2 0xBD6 SWAP2 SWAP1 PUSH2 0x1A77 JUMP JUMPDEST POP PUSH1 0x20 DUP3 ADD MLOAD DUP2 PUSH1 0x1 ADD SSTORE PUSH1 0x40 DUP3 ADD MLOAD DUP2 PUSH1 0x2 ADD SSTORE POP POP POP POP JUMP JUMPDEST PUSH1 0x6 PUSH1 0x20 MSTORE DUP1 PUSH0 MSTORE PUSH1 0x40 PUSH0 KECCAK256 PUSH0 SWAP2 POP SWAP1 POP DUP1 PUSH0 ADD SLOAD SWAP1 POP DUP2 JUMP JUMPDEST PUSH1 0x4 PUSH1 0x14 SWAP1 SLOAD SWAP1 PUSH2 0x100 EXP SWAP1 DIV PUSH1 0xFF AND DUP2 JUMP JUMPDEST PUSH0 PUSH1 0x2 DUP2 GT ISZERO PUSH2 0xC31 JUMPI PUSH2 0xC30 PUSH2 0x1362 JUMP JUMPDEST JUMPDEST PUSH1 0x4 PUSH1 0x14 SWAP1 SLOAD SWAP1 PUSH2 0x100 EXP SWAP1 DIV PUSH1 0xFF AND PUSH1 0x2 DUP2 GT ISZERO PUSH2 0xC53 JUMPI PUSH2 0xC52 PUSH2 0x1362 JUMP JUMPDEST JUMPDEST EQ PUSH2 0xC93 JUMPI PUSH1 0x40 MLOAD PUSH32 0x8C379A000000000000000000000000000000000000000000000000000000000 DUP2 MSTORE PUSH1 0x4 ADD PUSH2 0xC8A SWAP1 PUSH2 0x1B90 JUMP JUMPDEST PUSH1 0x40 MLOAD DUP1 SWAP2 SUB SWAP1 REVERT JUMPDEST PUSH1 0x5 DUP1 SLOAD SWAP1 POP DUP2 LT PUSH2 0xCDA JUMPI PUSH1 0x40 MLOAD PUSH32 0x8C379A000000000000000000000000000000000000000000000000000000000 DUP2 MSTORE PUSH1 0x4 ADD PUSH2 0xCD1 SWAP1 PUSH2 0x1BF8 JUMP JUMPDEST PUSH1 0x40 MLOAD DUP1 SWAP2 SUB SWAP1 REVERT JUMPDEST PUSH1 0x5 DUP2 DUP2 SLOAD DUP2 LT PUSH2 0xCEE JUMPI PUSH2 0xCED PUSH2 0x171B JUMP JUMPDEST JUMPDEST SWAP1 PUSH0 MSTORE PUSH1 0x20 PUSH0 KECCAK256 SWAP1 PUSH1 0x3 MUL ADD PUSH1 0x1 ADD SLOAD CALLVALUE EQ PUSH2 0xD3F JUMPI PUSH1 0x40 MLOAD PUSH32 0x8C379A000000000000000000000000000000000000000000000000000000000 DUP2 MSTORE PUSH1 0x4 ADD PUSH2 0xD36 SWAP1 PUSH2 0x1C60 JUMP JUMPDEST PUSH1 0x40 MLOAD DUP1 SWAP2 SUB SWAP1 REVERT JUMPDEST PUSH1 0x5 DUP2 DUP2 SLOAD DUP2 LT PUSH2 0xD53 JUMPI PUSH2 0xD52 PUSH2 0x171B JUMP JUMPDEST JUMPDEST SWAP1 PUSH0 MSTORE PUSH1 0x20 PUSH0 KECCAK256 SWAP1 PUSH1 0x3 MUL ADD PUSH1 0x2 ADD PUSH0 DUP2 SLOAD DUP1 SWAP3 SWAP2 SWAP1 PUSH2 0xD72 SWAP1 PUSH2 0x1C7E JUMP JUMPDEST SWAP2 SWAP1 POP SSTORE POP CALLVALUE PUSH1 0x6 PUSH0 CALLER PUSH20 0xFFFFFFFFFFFFFFFFFFFFFFFFFFFFFFFFFFFFFFFF AND PUSH20 0xFFFFFFFFFFFFFFFFFFFFFFFFFFFFFFFFFFFFFFFF AND DUP2 MSTORE PUSH1 0x20 ADD SWAP1 DUP2 MSTORE PUSH1 0x20 ADD PUSH0 KECCAK256 PUSH0 ADD PUSH0 DUP3 DUP3 SLOAD PUSH2 0xDC5 SWAP2 SWAP1 PUSH2 0x1CC5 JUMP JUMPDEST SWAP3 POP POP DUP2 SWAP1 SSTORE POP PUSH1 0x1 PUSH1 0x6 PUSH0 CALLER PUSH20 0xFFFFFFFFFFFFFFFFFFFFFFFFFFFFFFFFFFFFFFFF AND PUSH20 0xFFFFFFFFFFFFFFFFFFFFFFFFFFFFFFFFFFFFFFFF AND DUP2 MSTORE PUSH1 0x20 ADD SWAP1 DUP2 MSTORE PUSH1 0x20 ADD PUSH0 KECCAK256 PUSH1 0x1 ADD PUSH0 DUP4 DUP2 MSTORE PUSH1 0x20 ADD SWAP1 DUP2 MSTORE PUSH1 0x20 ADD PUSH0 KECCAK256 PUSH0 PUSH2 0x100 EXP DUP2 SLOAD DUP2 PUSH1 0xFF MUL NOT AND SWAP1 DUP4 ISZERO ISZERO MUL OR SWAP1 SSTORE POP PUSH2 0xE3B PUSH2 0xE3E JUMP JUMPDEST POP JUMP JUMPDEST PUSH0 PUSH1 0x2 DUP2 GT ISZERO PUSH2 0xE51 JUMPI PUSH2 0xE50 PUSH2 0x1362 JUMP JUMPDEST JUMPDEST PUSH1 0x4 PUSH1 0x14 SWAP1 SLOAD SWAP1 PUSH2 0x100 EXP SWAP1 DIV PUSH1 0xFF AND PUSH1 0x2 DUP2 GT ISZERO PUSH2 0xE73 JUMPI PUSH2 0xE72 PUSH2 0x1362 JUMP JUMPDEST JUMPDEST SUB PUSH2 0xF01 JUMPI PUSH1 0x3 SLOAD TIMESTAMP LT PUSH2 0xEC3 JUMPI PUSH1 0x2 SLOAD SELFBALANCE LT ISZERO PUSH2 0xE92 JUMPI PUSH1 0x2 PUSH2 0xE95 JUMP JUMPDEST PUSH1 0x1 JUMPDEST PUSH1 0x4 PUSH1 0x14 PUSH2 0x100 EXP DUP2 SLOAD DUP2 PUSH1 0xFF MUL NOT AND SWAP1 DUP4 PUSH1 0x2 DUP2 GT ISZERO PUSH2 0xEB9 JUMPI PUSH2 0xEB8 PUSH2 0x1362 JUMP JUMPDEST JUMPDEST MUL OR SWAP1 SSTORE POP PUSH2 0xF00 JUMP JUMPDEST PUSH1 0x2 SLOAD SELFBALANCE LT ISZERO PUSH2 0xED3 JUMPI PUSH0 PUSH2 0xED6 JUMP JUMPDEST PUSH1 0x1 JUMPDEST PUSH1 0x4 PUSH1 0x14 PUSH2 0x100 EXP DUP2 SLOAD DUP2 PUSH1 0xFF MUL NOT AND SWAP1 DUP4 PUSH1 0x2 DUP2 GT ISZERO PUSH2 0xEFA JUMPI PUSH2 0xEF9 PUSH2 0x1362 JUMP JUMPDEST JUMPDEST MUL OR SWAP1 SSTORE POP JUMPDEST JUMPDEST JUMP JUMPDEST POP DUP1 SLOAD PUSH2 0xF0F SWAP1 PUSH2 0x141B JUMP JUMPDEST PUSH0 DUP3 SSTORE DUP1 PUSH1 0x1F LT PUSH2 0xF20 JUMPI POP PUSH2 0xF3D JUMP JUMPDEST PUSH1 0x1F ADD PUSH1 0x20 SWAP1 DIV SWAP1 PUSH0 MSTORE PUSH1 0x20 PUSH0 KECCAK256 SWAP1 DUP2 ADD SWAP1 PUSH2 0xF3C SWAP2 SWAP1 PUSH2 0xF40 JUMP JUMPDEST JUMPDEST POP JUMP JUMPDEST JUMPDEST DUP1 DUP3 GT ISZERO PUSH2 0xF57 JUMPI PUSH0 DUP2 PUSH0 SWAP1 SSTORE POP PUSH1 0x1 ADD PUSH2 0xF41 JUMP JUMPDEST POP SWAP1 JUMP JUMPDEST PUSH0 PUSH1 0x40 MLOAD SWAP1 POP SWAP1 JUMP JUMPDEST PUSH0 PUSH0 REVERT JUMPDEST PUSH0 PUSH0 REVERT JUMPDEST PUSH0 DUP2 SWAP1 POP SWAP2 SWAP1 POP JUMP JUMPDEST PUSH2 0xF7E DUP2 PUSH2 0xF6C JUMP JUMPDEST DUP2 EQ PUSH2 0xF88 JUMPI PUSH0 PUSH0 REVERT JUMPDEST POP JUMP JUMPDEST PUSH0 DUP2 CALLDATALOAD SWAP1 POP PUSH2 0xF99 DUP2 PUSH2 0xF75 JUMP JUMPDEST SWAP3 SWAP2 POP POP JUMP JUMPDEST PUSH0 PUSH1 0x20 DUP3 DUP5 SUB SLT ISZERO PUSH2 0xFB4 JUMPI PUSH2 0xFB3 PUSH2 0xF64 JUMP JUMPDEST JUMPDEST PUSH0 PUSH2 0xFC1 DUP5 DUP3 DUP6 ADD PUSH2 0xF8B JUMP JUMPDEST SWAP2 POP POP SWAP3 SWAP2 POP POP JUMP JUMPDEST PUSH0 DUP2 MLOAD SWAP1 POP SWAP2 SWAP1 POP JUMP JUMPDEST PUSH0 DUP3 DUP3 MSTORE PUSH1 0x20 DUP3 ADD SWAP1 POP SWAP3 SWAP2 POP POP JUMP JUMPDEST DUP3 DUP2 DUP4 MCOPY PUSH0 DUP4 DUP4 ADD MSTORE POP POP POP JUMP JUMPDEST PUSH0 PUSH1 0x1F NOT PUSH1 0x1F DUP4 ADD AND SWAP1 POP SWAP2 SWAP1 POP JUMP JUMPDEST PUSH0 PUSH2 0x100C DUP3 PUSH2 0xFCA JUMP JUMPDEST PUSH2 0x1016 DUP2 DUP6 PUSH2 0xFD4 JUMP JUMPDEST SWAP4 POP PUSH2 0x1026 DUP2 DUP6 PUSH1 0x20 DUP7 ADD PUSH2 0xFE4 JUMP JUMPDEST PUSH2 0x102F DUP2 PUSH2 0xFF2 JUMP JUMPDEST DUP5 ADD SWAP2 POP POP SWAP3 SWAP2 POP POP JUMP JUMPDEST PUSH2 0x1043 DUP2 PUSH2 0xF6C JUMP JUMPDEST DUP3 MSTORE POP POP JUMP JUMPDEST PUSH0 PUSH1 0x60 DUP3 ADD SWAP1 POP DUP2 DUP2 SUB PUSH0 DUP4 ADD MSTORE PUSH2 0x1061 DUP2 DUP7 PUSH2 0x1002 JUMP JUMPDEST SWAP1 POP PUSH2 0x1070 PUSH1 0x20 DUP4 ADD DUP6 PUSH2 0x103A JUMP JUMPDEST PUSH2 0x107D PUSH1 0x40 DUP4 ADD DUP5 PUSH2 0x103A JUMP JUMPDEST SWAP5 SWAP4 POP POP POP POP JUMP JUMPDEST PUSH0 PUSH1 0x20 DUP3 ADD SWAP1 POP DUP2 DUP2 SUB PUSH0 DUP4 ADD MSTORE PUSH2 0x109D DUP2 DUP5 PUSH2 0x1002 JUMP JUMPDEST SWAP1 POP SWAP3 SWAP2 POP POP JUMP JUMPDEST PUSH0 PUSH1 0x20 DUP3 ADD SWAP1 POP PUSH2 0x10B8 PUSH0 DUP4 ADD DUP5 PUSH2 0x103A JUMP JUMPDEST SWAP3 SWAP2 POP POP JUMP JUMPDEST PUSH0 PUSH20 0xFFFFFFFFFFFFFFFFFFFFFFFFFFFFFFFFFFFFFFFF DUP3 AND SWAP1 POP SWAP2 SWAP1 POP JUMP JUMPDEST PUSH0 PUSH2 0x10E7 DUP3 PUSH2 0x10BE JUMP JUMPDEST SWAP1 POP SWAP2 SWAP1 POP JUMP JUMPDEST PUSH2 0x10F7 DUP2 PUSH2 0x10DD JUMP JUMPDEST DUP2 EQ PUSH2 0x1101 JUMPI PUSH0 PUSH0 REVERT JUMPDEST POP JUMP JUMPDEST PUSH0 DUP2 CALLDATALOAD SWAP1 POP PUSH2 0x1112 DUP2 PUSH2 0x10EE JUMP JUMPDEST SWAP3 SWAP2 POP POP JUMP JUMPDEST PUSH0 PUSH0 PUSH1 0x40 DUP4 DUP6 SUB SLT ISZERO PUSH2 0x112E JUMPI PUSH2 0x112D PUSH2 0xF64 JUMP JUMPDEST JUMPDEST PUSH0 PUSH2 0x113B DUP6 DUP3 DUP7 ADD PUSH2 0x1104 JUMP JUMPDEST SWAP3 POP POP PUSH1 0x20 PUSH2 0x114C DUP6 DUP3 DUP7 ADD PUSH2 0xF8B JUMP JUMPDEST SWAP2 POP POP SWAP3 POP SWAP3 SWAP1 POP JUMP JUMPDEST PUSH0 DUP2 ISZERO ISZERO SWAP1 POP SWAP2 SWAP1 POP JUMP JUMPDEST PUSH2 0x116A DUP2 PUSH2 0x1156 JUMP JUMPDEST DUP3 MSTORE POP POP JUMP JUMPDEST PUSH0 PUSH1 0x20 DUP3 ADD SWAP1 POP PUSH2 0x1183 PUSH0 DUP4 ADD DUP5 PUSH2 0x1161 JUMP JUMPDEST SWAP3 SWAP2 POP POP JUMP JUMPDEST PUSH2 0x1192 DUP2 PUSH2 0x10DD JUMP JUMPDEST DUP3 MSTORE POP POP JUMP JUMPDEST PUSH0 PUSH1 0x20 DUP3 ADD SWAP1 POP PUSH2 0x11AB PUSH0 DUP4 ADD DUP5 PUSH2 0x1189 JUMP JUMPDEST SWAP3 SWAP2 POP POP JUMP JUMPDEST PUSH0 PUSH0 REVERT JUMPDEST PUSH0 PUSH0 REVERT JUMPDEST PUSH32 0x4E487B7100000000000000000000000000000000000000000000000000000000 PUSH0 MSTORE PUSH1 0x41 PUSH1 0x4 MSTORE PUSH1 0x24 PUSH0 REVERT JUMPDEST PUSH2 0x11EF DUP3 PUSH2 0xFF2 JUMP JUMPDEST DUP2 ADD DUP2 DUP2 LT PUSH8 0xFFFFFFFFFFFFFFFF DUP3 GT OR ISZERO PUSH2 0x120E JUMPI PUSH2 0x120D PUSH2 0x11B9 JUMP JUMPDEST JUMPDEST DUP1 PUSH1 0x40 MSTORE POP POP POP JUMP JUMPDEST PUSH0 PUSH2 0x1220 PUSH2 0xF5B JUMP JUMPDEST SWAP1 POP PUSH2 0x122C DUP3 DUP3 PUSH2 0x11E6 JUMP JUMPDEST SWAP2 SWAP1 POP JUMP JUMPDEST PUSH0 PUSH8 0xFFFFFFFFFFFFFFFF DUP3 GT ISZERO PUSH2 0x124B JUMPI PUSH2 0x124A PUSH2 0x11B9 JUMP JUMPDEST JUMPDEST PUSH2 0x1254 DUP3 PUSH2 0xFF2 JUMP JUMPDEST SWAP1 POP PUSH1 0x20 DUP2 ADD SWAP1 POP SWAP2 SWAP1 POP JUMP JUMPDEST DUP3 DUP2 DUP4 CALLDATACOPY PUSH0 DUP4 DUP4 ADD MSTORE POP POP POP JUMP JUMPDEST PUSH0 PUSH2 0x1281 PUSH2 0x127C DUP5 PUSH2 0x1231 JUMP JUMPDEST PUSH2 0x1217 JUMP JUMPDEST SWAP1 POP DUP3 DUP2 MSTORE PUSH1 0x20 DUP2 ADD DUP5 DUP5 DUP5 ADD GT ISZERO PUSH2 0x129D JUMPI PUSH2 0x129C PUSH2 0x11B5 JUMP JUMPDEST JUMPDEST PUSH2 0x12A8 DUP5 DUP3 DUP6 PUSH2 0x1261 JUMP JUMPDEST POP SWAP4 SWAP3 POP POP POP JUMP JUMPDEST PUSH0 DUP3 PUSH1 0x1F DUP4 ADD SLT PUSH2 0x12C4 JUMPI PUSH2 0x12C3 PUSH2 0x11B1 JUMP JUMPDEST JUMPDEST DUP2 CALLDATALOAD PUSH2 0x12D4 DUP5 DUP3 PUSH1 0x20 DUP7 ADD PUSH2 0x126F JUMP JUMPDEST SWAP2 POP POP SWAP3 SWAP2 POP POP JUMP JUMPDEST PUSH0 PUSH0 PUSH1 0x40 DUP4 DUP6 SUB SLT ISZERO PUSH2 0x12F3 JUMPI PUSH2 0x12F2 PUSH2 0xF64 JUMP JUMPDEST JUMPDEST PUSH0 DUP4 ADD CALLDATALOAD PUSH8 0xFFFFFFFFFFFFFFFF DUP2 GT ISZERO PUSH2 0x1310 JUMPI PUSH2 0x130F PUSH2 0xF68 JUMP JUMPDEST JUMPDEST PUSH2 0x131C DUP6 DUP3 DUP7 ADD PUSH2 0x12B0 JUMP JUMPDEST SWAP3 POP POP PUSH1 0x20 PUSH2 0x132D DUP6 DUP3 DUP7 ADD PUSH2 0xF8B JUMP JUMPDEST SWAP2 POP POP SWAP3 POP SWAP3 SWAP1 POP JUMP JUMPDEST PUSH0 PUSH1 0x20 DUP3 DUP5 SUB SLT ISZERO PUSH2 0x134C JUMPI PUSH2 0x134B PUSH2 0xF64 JUMP JUMPDEST JUMPDEST PUSH0 PUSH2 0x1359 DUP5 DUP3 DUP6 ADD PUSH2 0x1104 JUMP JUMPDEST SWAP2 POP POP SWAP3 SWAP2 POP POP JUMP JUMPDEST PUSH32 0x4E487B7100000000000000000000000000000000000000000000000000000000 PUSH0 MSTORE PUSH1 0x21 PUSH1 0x4 MSTORE PUSH1 0x24 PUSH0 REVERT JUMPDEST PUSH1 0x3 DUP2 LT PUSH2 0x13A0 JUMPI PUSH2 0x139F PUSH2 0x1362 JUMP JUMPDEST JUMPDEST POP JUMP JUMPDEST PUSH0 DUP2 SWAP1 POP PUSH2 0x13B0 DUP3 PUSH2 0x138F JUMP JUMPDEST SWAP2 SWAP1 POP JUMP JUMPDEST PUSH0 PUSH2 0x13BF DUP3 PUSH2 0x13A3 JUMP JUMPDEST SWAP1 POP SWAP2 SWAP1 POP JUMP JUMPDEST PUSH2 0x13CF DUP2 PUSH2 0x13B5 JUMP JUMPDEST DUP3 MSTORE POP POP JUMP JUMPDEST PUSH0 PUSH1 0x20 DUP3 ADD SWAP1 POP PUSH2 0x13E8 PUSH0 DUP4 ADD DUP5 PUSH2 0x13C6 JUMP JUMPDEST SWAP3 SWAP2 POP POP JUMP JUMPDEST PUSH32 0x4E487B7100000000000000000000000000000000000000000000000000000000 PUSH0 MSTORE PUSH1 0x22 PUSH1 0x4 MSTORE PUSH1 0x24 PUSH0 REVERT JUMPDEST PUSH0 PUSH1 0x2 DUP3 DIV SWAP1 POP PUSH1 0x1 DUP3 AND DUP1 PUSH2 0x1432 JUMPI PUSH1 0x7F DUP3 AND SWAP2 POP JUMPDEST PUSH1 0x20 DUP3 LT DUP2 SUB PUSH2 0x1445 JUMPI PUSH2 0x1444 PUSH2 0x13EE JUMP JUMPDEST JUMPDEST POP SWAP2 SWAP1 POP JUMP JUMPDEST PUSH32 0x4E6F7420746865206F776E657200000000000000000000000000000000000000 PUSH0 DUP3 ADD MSTORE POP JUMP JUMPDEST PUSH0 PUSH2 0x147F PUSH1 0xD DUP4 PUSH2 0xFD4 JUMP JUMPDEST SWAP2 POP PUSH2 0x148A DUP3 PUSH2 0x144B JUMP JUMPDEST PUSH1 0x20 DUP3 ADD SWAP1 POP SWAP2 SWAP1 POP JUMP JUMPDEST PUSH0 PUSH1 0x20 DUP3 ADD SWAP1 POP DUP2 DUP2 SUB PUSH0 DUP4 ADD MSTORE PUSH2 0x14AC DUP2 PUSH2 0x1473 JUMP JUMPDEST SWAP1 POP SWAP2 SWAP1 POP JUMP JUMPDEST PUSH32 0x43616D706167696E206E6F74207375636365737366756C000000000000000000 PUSH0 DUP3 ADD MSTORE POP JUMP JUMPDEST PUSH0 PUSH2 0x14E7 PUSH1 0x17 DUP4 PUSH2 0xFD4 JUMP JUMPDEST SWAP2 POP PUSH2 0x14F2 DUP3 PUSH2 0x14B3 JUMP JUMPDEST PUSH1 0x20 DUP3 ADD SWAP1 POP SWAP2 SWAP1 POP JUMP JUMPDEST PUSH0 PUSH1 0x20 DUP3 ADD SWAP1 POP DUP2 DUP2 SUB PUSH0 DUP4 ADD MSTORE PUSH2 0x1514 DUP2 PUSH2 0x14DB JUMP JUMPDEST SWAP1 POP SWAP2 SWAP1 POP JUMP JUMPDEST PUSH32 0x4E6F2062616C616E636520746F2077697468647261772E000000000000000000 PUSH0 DUP3 ADD MSTORE POP JUMP JUMPDEST PUSH0 PUSH2 0x154F PUSH1 0x17 DUP4 PUSH2 0xFD4 JUMP JUMPDEST SWAP2 POP PUSH2 0x155A DUP3 PUSH2 0x151B JUMP JUMPDEST PUSH1 0x20 DUP3 ADD SWAP1 POP SWAP2 SWAP1 POP JUMP JUMPDEST PUSH0 PUSH1 0x20 DUP3 ADD SWAP1 POP DUP2 DUP2 SUB PUSH0 DUP4 ADD MSTORE PUSH2 0x157C DUP2 PUSH2 0x1543 JUMP JUMPDEST SWAP1 POP SWAP2 SWAP1 POP JUMP JUMPDEST PUSH32 0x526566756E6473206E6F74207375636365737366756C00000000000000000000 PUSH0 DUP3 ADD MSTORE POP JUMP JUMPDEST PUSH0 PUSH2 0x15B7 PUSH1 0x16 DUP4 PUSH2 0xFD4 JUMP JUMPDEST SWAP2 POP PUSH2 0x15C2 DUP3 PUSH2 0x1583 JUMP JUMPDEST PUSH1 0x20 DUP3 ADD SWAP1 POP SWAP2 SWAP1 POP JUMP JUMPDEST PUSH0 PUSH1 0x20 DUP3 ADD SWAP1 POP DUP2 DUP2 SUB PUSH0 DUP4 ADD MSTORE PUSH2 0x15E4 DUP2 PUSH2 0x15AB JUMP JUMPDEST SWAP1 POP SWAP2 SWAP1 POP JUMP JUMPDEST PUSH32 0x4E6F20436F6E747275627574696F6E20526566756E6465640000000000000000 PUSH0 DUP3 ADD MSTORE POP JUMP JUMPDEST PUSH0 PUSH2 0x161F PUSH1 0x18 DUP4 PUSH2 0xFD4 JUMP JUMPDEST SWAP2 POP PUSH2 0x162A DUP3 PUSH2 0x15EB JUMP JUMPDEST PUSH1 0x20 DUP3 ADD SWAP1 POP SWAP2 SWAP1 POP JUMP JUMPDEST PUSH0 PUSH1 0x20 DUP3 ADD SWAP1 POP DUP2 DUP2 SUB PUSH0 DUP4 ADD MSTORE PUSH2 0x164C DUP2 PUSH2 0x1613 JUMP JUMPDEST SWAP1 POP SWAP2 SWAP1 POP JUMP JUMPDEST PUSH32 0x746972657320646F6573206E6F74206578697473000000000000000000000000 PUSH0 DUP3 ADD MSTORE POP JUMP JUMPDEST PUSH0 PUSH2 0x1687 PUSH1 0x14 DUP4 PUSH2 0xFD4 JUMP JUMPDEST SWAP2 POP PUSH2 0x1692 DUP3 PUSH2 0x1653 JUMP JUMPDEST PUSH1 0x20 DUP3 ADD SWAP1 POP SWAP2 SWAP1 POP JUMP JUMPDEST PUSH0 PUSH1 0x20 DUP3 ADD SWAP1 POP DUP2 DUP2 SUB PUSH0 DUP4 ADD MSTORE PUSH2 0x16B4 DUP2 PUSH2 0x167B JUMP JUMPDEST SWAP1 POP SWAP2 SWAP1 POP JUMP JUMPDEST PUSH32 0x4E487B7100000000000000000000000000000000000000000000000000000000 PUSH0 MSTORE PUSH1 0x11 PUSH1 0x4 MSTORE PUSH1 0x24 PUSH0 REVERT JUMPDEST PUSH0 PUSH2 0x16F2 DUP3 PUSH2 0xF6C JUMP JUMPDEST SWAP2 POP PUSH2 0x16FD DUP4 PUSH2 0xF6C JUMP JUMPDEST SWAP3 POP DUP3 DUP3 SUB SWAP1 POP DUP2 DUP2 GT ISZERO PUSH2 0x1715 JUMPI PUSH2 0x1714 PUSH2 0x16BB JUMP JUMPDEST JUMPDEST SWAP3 SWAP2 POP POP JUMP JUMPDEST PUSH32 0x4E487B7100000000000000000000000000000000000000000000000000000000 PUSH0 MSTORE PUSH1 0x32 PUSH1 0x4 MSTORE PUSH1 0x24 PUSH0 REVERT JUMPDEST PUSH0 DUP2 SLOAD SWAP1 POP PUSH2 0x1756 DUP2 PUSH2 0x141B JUMP JUMPDEST SWAP1 POP SWAP2 SWAP1 POP JUMP JUMPDEST PUSH0 DUP2 SWAP1 POP DUP2 PUSH0 MSTORE PUSH1 0x20 PUSH0 KECCAK256 SWAP1 POP SWAP2 SWAP1 POP JUMP JUMPDEST PUSH0 PUSH1 0x20 PUSH1 0x1F DUP4 ADD DIV SWAP1 POP SWAP2 SWAP1 POP JUMP JUMPDEST PUSH0 DUP3 DUP3 SHL SWAP1 POP SWAP3 SWAP2 POP POP JUMP JUMPDEST PUSH0 PUSH1 0x8 DUP4 MUL PUSH2 0x17B9 PUSH32 0xFFFFFFFFFFFFFFFFFFFFFFFFFFFFFFFFFFFFFFFFFFFFFFFFFFFFFFFFFFFFFFFF DUP3 PUSH2 0x177E JUMP JUMPDEST PUSH2 0x17C3 DUP7 DUP4 PUSH2 0x177E JUMP JUMPDEST SWAP6 POP DUP1 NOT DUP5 AND SWAP4 POP DUP1 DUP7 AND DUP5 OR SWAP3 POP POP POP SWAP4 SWAP3 POP POP POP JUMP JUMPDEST PUSH0 DUP2 SWAP1 POP SWAP2 SWAP1 POP JUMP JUMPDEST PUSH0 PUSH2 0x17FE PUSH2 0x17F9 PUSH2 0x17F4 DUP5 PUSH2 0xF6C JUMP JUMPDEST PUSH2 0x17DB JUMP JUMPDEST PUSH2 0xF6C JUMP JUMPDEST SWAP1 POP SWAP2 SWAP1 POP JUMP JUMPDEST PUSH0 DUP2 SWAP1 POP SWAP2 SWAP1 POP JUMP JUMPDEST PUSH2 0x1817 DUP4 PUSH2 0x17E4 JUMP JUMPDEST PUSH2 0x182B PUSH2 0x1823 DUP3 PUSH2 0x1805 JUMP JUMPDEST DUP5 DUP5 SLOAD PUSH2 0x178A JUMP JUMPDEST DUP3 SSTORE POP POP POP POP JUMP JUMPDEST PUSH0 PUSH0 SWAP1 POP SWAP1 JUMP JUMPDEST PUSH2 0x1842 PUSH2 0x1833 JUMP JUMPDEST PUSH2 0x184D DUP2 DUP5 DUP5 PUSH2 0x180E JUMP JUMPDEST POP POP POP JUMP JUMPDEST JUMPDEST DUP2 DUP2 LT ISZERO PUSH2 0x1870 JUMPI PUSH2 0x1865 PUSH0 DUP3 PUSH2 0x183A JUMP JUMPDEST PUSH1 0x1 DUP2 ADD SWAP1 POP PUSH2 0x1853 JUMP JUMPDEST POP POP JUMP JUMPDEST PUSH1 0x1F DUP3 GT ISZERO PUSH2 0x18B5 JUMPI PUSH2 0x1886 DUP2 PUSH2 0x175D JUMP JUMPDEST PUSH2 0x188F DUP5 PUSH2 0x176F JUMP JUMPDEST DUP2 ADD PUSH1 0x20 DUP6 LT ISZERO PUSH2 0x189E JUMPI DUP2 SWAP1 POP JUMPDEST PUSH2 0x18B2 PUSH2 0x18AA DUP6 PUSH2 0x176F JUMP JUMPDEST DUP4 ADD DUP3 PUSH2 0x1852 JUMP JUMPDEST POP POP JUMPDEST POP POP POP JUMP JUMPDEST PUSH0 DUP3 DUP3 SHR SWAP1 POP SWAP3 SWAP2 POP POP JUMP JUMPDEST PUSH0 PUSH2 0x18D5 PUSH0 NOT DUP5 PUSH1 0x8 MUL PUSH2 0x18BA JUMP JUMPDEST NOT DUP1 DUP4 AND SWAP2 POP POP SWAP3 SWAP2 POP POP JUMP JUMPDEST PUSH0 PUSH2 0x18ED DUP4 DUP4 PUSH2 0x18C6 JUMP JUMPDEST SWAP2 POP DUP3 PUSH1 0x2 MUL DUP3 OR SWAP1 POP SWAP3 SWAP2 POP POP JUMP JUMPDEST DUP2 DUP2 SUB PUSH2 0x190B JUMPI POP POP PUSH2 0x19E0 JUMP JUMPDEST PUSH2 0x1914 DUP3 PUSH2 0x1748 JUMP JUMPDEST PUSH8 0xFFFFFFFFFFFFFFFF DUP2 GT ISZERO PUSH2 0x192D JUMPI PUSH2 0x192C PUSH2 0x11B9 JUMP JUMPDEST JUMPDEST PUSH2 0x1937 DUP3 SLOAD PUSH2 0x141B JUMP JUMPDEST PUSH2 0x1942 DUP3 DUP3 DUP6 PUSH2 0x1874 JUMP JUMPDEST PUSH0 PUSH1 0x1F DUP4 GT PUSH1 0x1 DUP2 EQ PUSH2 0x196F JUMPI PUSH0 DUP5 ISZERO PUSH2 0x195D JUMPI DUP3 DUP8 ADD SLOAD SWAP1 POP JUMPDEST PUSH2 0x1967 DUP6 DUP3 PUSH2 0x18E2 JUMP JUMPDEST DUP7 SSTORE POP PUSH2 0x19D9 JUMP JUMPDEST PUSH1 0x1F NOT DUP5 AND PUSH2 0x197D DUP8 PUSH2 0x175D JUMP JUMPDEST SWAP7 POP PUSH2 0x1988 DUP7 PUSH2 0x175D JUMP JUMPDEST PUSH0 JUMPDEST DUP3 DUP2 LT ISZERO PUSH2 0x19AF JUMPI DUP5 DUP10 ADD SLOAD DUP3 SSTORE PUSH1 0x1 DUP3 ADD SWAP2 POP PUSH1 0x1 DUP6 ADD SWAP5 POP PUSH1 0x20 DUP2 ADD SWAP1 POP PUSH2 0x198A JUMP JUMPDEST DUP7 DUP4 LT ISZERO PUSH2 0x19CC JUMPI DUP5 DUP10 ADD SLOAD PUSH2 0x19C8 PUSH1 0x1F DUP10 AND DUP3 PUSH2 0x18C6 JUMP JUMPDEST DUP4 SSTORE POP JUMPDEST PUSH1 0x1 PUSH1 0x2 DUP9 MUL ADD DUP9 SSTORE POP POP POP JUMPDEST POP POP POP POP POP POP JUMPDEST JUMP JUMPDEST PUSH32 0x4E487B7100000000000000000000000000000000000000000000000000000000 PUSH0 MSTORE PUSH1 0x31 PUSH1 0x4 MSTORE PUSH1 0x24 PUSH0 REVERT JUMPDEST PUSH32 0x416D6F756E74206D7573742062652067726561746572207468616E207A65726F PUSH0 DUP3 ADD MSTORE POP JUMP JUMPDEST PUSH0 PUSH2 0x1A43 PUSH1 0x20 DUP4 PUSH2 0xFD4 JUMP JUMPDEST SWAP2 POP PUSH2 0x1A4E DUP3 PUSH2 0x1A0F JUMP JUMPDEST PUSH1 0x20 DUP3 ADD SWAP1 POP SWAP2 SWAP1 POP JUMP JUMPDEST PUSH0 PUSH1 0x20 DUP3 ADD SWAP1 POP DUP2 DUP2 SUB PUSH0 DUP4 ADD MSTORE PUSH2 0x1A70 DUP2 PUSH2 0x1A37 JUMP JUMPDEST SWAP1 POP SWAP2 SWAP1 POP JUMP JUMPDEST PUSH2 0x1A80 DUP3 PUSH2 0xFCA JUMP JUMPDEST PUSH8 0xFFFFFFFFFFFFFFFF DUP2 GT ISZERO PUSH2 0x1A99 JUMPI PUSH2 0x1A98 PUSH2 0x11B9 JUMP JUMPDEST JUMPDEST PUSH2 0x1AA3 DUP3 SLOAD PUSH2 0x141B JUMP JUMPDEST PUSH2 0x1AAE DUP3 DUP3 DUP6 PUSH2 0x1874 JUMP JUMPDEST PUSH0 PUSH1 0x20 SWAP1 POP PUSH1 0x1F DUP4 GT PUSH1 0x1 DUP2 EQ PUSH2 0x1ADF JUMPI PUSH0 DUP5 ISZERO PUSH2 0x1ACD JUMPI DUP3 DUP8 ADD MLOAD SWAP1 POP JUMPDEST PUSH2 0x1AD7 DUP6 DUP3 PUSH2 0x18E2 JUMP JUMPDEST DUP7 SSTORE POP PUSH2 0x1B3E JUMP JUMPDEST PUSH1 0x1F NOT DUP5 AND PUSH2 0x1AED DUP7 PUSH2 0x175D JUMP JUMPDEST PUSH0 JUMPDEST DUP3 DUP2 LT ISZERO PUSH2 0x1B14 JUMPI DUP5 DUP10 ADD MLOAD DUP3 SSTORE PUSH1 0x1 DUP3 ADD SWAP2 POP PUSH1 0x20 DUP6 ADD SWAP5 POP PUSH1 0x20 DUP2 ADD SWAP1 POP PUSH2 0x1AEF JUMP JUMPDEST DUP7 DUP4 LT ISZERO PUSH2 0x1B31 JUMPI DUP5 DUP10 ADD MLOAD PUSH2 0x1B2D PUSH1 0x1F DUP10 AND DUP3 PUSH2 0x18C6 JUMP JUMPDEST DUP4 SSTORE POP JUMPDEST PUSH1 0x1 PUSH1 0x2 DUP9 MUL ADD DUP9 SSTORE POP POP POP JUMPDEST POP POP POP POP POP POP JUMP JUMPDEST PUSH32 0x43616D706169676E206973206E6F742061637469766520000000000000000000 PUSH0 DUP3 ADD MSTORE POP JUMP JUMPDEST PUSH0 PUSH2 0x1B7A PUSH1 0x17 DUP4 PUSH2 0xFD4 JUMP JUMPDEST SWAP2 POP PUSH2 0x1B85 DUP3 PUSH2 0x1B46 JUMP JUMPDEST PUSH1 0x20 DUP3 ADD SWAP1 POP SWAP2 SWAP1 POP JUMP JUMPDEST PUSH0 PUSH1 0x20 DUP3 ADD SWAP1 POP DUP2 DUP2 SUB PUSH0 DUP4 ADD MSTORE PUSH2 0x1BA7 DUP2 PUSH2 0x1B6E JUMP JUMPDEST SWAP1 POP SWAP2 SWAP1 POP JUMP JUMPDEST PUSH32 0x746965727320646F6573206E6F74206578697473000000000000000000000000 PUSH0 DUP3 ADD MSTORE POP JUMP JUMPDEST PUSH0 PUSH2 0x1BE2 PUSH1 0x14 DUP4 PUSH2 0xFD4 JUMP JUMPDEST SWAP2 POP PUSH2 0x1BED DUP3 PUSH2 0x1BAE JUMP JUMPDEST PUSH1 0x20 DUP3 ADD SWAP1 POP SWAP2 SWAP1 POP JUMP JUMPDEST PUSH0 PUSH1 0x20 DUP3 ADD SWAP1 POP DUP2 DUP2 SUB PUSH0 DUP4 ADD MSTORE PUSH2 0x1C0F DUP2 PUSH2 0x1BD6 JUMP JUMPDEST SWAP1 POP SWAP2 SWAP1 POP JUMP JUMPDEST PUSH32 0x696E636F727265637420616D6F756E7400000000000000000000000000000000 PUSH0 DUP3 ADD MSTORE POP JUMP JUMPDEST PUSH0 PUSH2 0x1C4A PUSH1 0x10 DUP4 PUSH2 0xFD4 JUMP JUMPDEST SWAP2 POP PUSH2 0x1C55 DUP3 PUSH2 0x1C16 JUMP JUMPDEST PUSH1 0x20 DUP3 ADD SWAP1 POP SWAP2 SWAP1 POP JUMP JUMPDEST PUSH0 PUSH1 0x20 DUP3 ADD SWAP1 POP DUP2 DUP2 SUB PUSH0 DUP4 ADD MSTORE PUSH2 0x1C77 DUP2 PUSH2 0x1C3E JUMP JUMPDEST SWAP1 POP SWAP2 SWAP1 POP JUMP JUMPDEST PUSH0 PUSH2 0x1C88 DUP3 PUSH2 0xF6C JUMP JUMPDEST SWAP2 POP PUSH32 0xFFFFFFFFFFFFFFFFFFFFFFFFFFFFFFFFFFFFFFFFFFFFFFFFFFFFFFFFFFFFFFFF DUP3 SUB PUSH2 0x1CBA JUMPI PUSH2 0x1CB9 PUSH2 0x16BB JUMP JUMPDEST JUMPDEST PUSH1 0x1 DUP3 ADD SWAP1 POP SWAP2 SWAP1 POP JUMP JUMPDEST PUSH0 PUSH2 0x1CCF DUP3 PUSH2 0xF6C JUMP JUMPDEST SWAP2 POP PUSH2 0x1CDA DUP4 PUSH2 0xF6C JUMP JUMPDEST SWAP3 POP DUP3 DUP3 ADD SWAP1 POP DUP1 DUP3 GT ISZERO PUSH2 0x1CF2 JUMPI PUSH2 0x1CF1 PUSH2 0x16BB JUMP JUMPDEST JUMPDEST SWAP3 SWAP2 POP POP JUMP INVALID LOG2 PUSH5 0x6970667358 0x22 SLT KECCAK256 SWAP14 DUP13 PUSH29 0xE821AC1FEFB8CDE916DE51C93884ADCF0D1A78F55F0D3443B1C69B6E3D PUSH5 0x736F6C6343 STOP ADDMOD 0x1E STOP CALLER "
				},
				"gasEstimates": {
					"creation": {
						"codeDepositCost": "1494000",
						"executionCost": "infinite",
						"totalCost": "infinite"
					},
					"external": {
						"addTier(string,uint256)": "infinite",
						"backers(address)": "2859",
						"deadline()": "2493",
						"description()": "infinite",
						"fund(uint256)": "infinite",
						"getContractBalance()": "423",
						"goal()": "2470",
						"hasFundedTier(address,uint256)": "3189",
						"name()": "infinite",
						"owner()": "2597",
						"refund()": "infinite",
						"removeTier(uint256)": "infinite",
						"state()": "2671",
						"tiers(uint256)": "infinite",
						"withdraw()": "infinite"
					},
					"internal": {
						"checkAndUpdateCampaginState()": "30878"
					}
				},
				"methodIdentifiers": {
					"addTier(string,uint256)": "8ece7b91",
					"backers(address)": "b85dfb80",
					"deadline()": "29dcb0cf",
					"description()": "7284e416",
					"fund(uint256)": "ca1d209d",
					"getContractBalance()": "6f9fb98a",
					"goal()": "40193883",
					"hasFundedTier(address,uint256)": "7adba527",
					"name()": "06fdde03",
					"owner()": "8da5cb5b",
					"refund()": "590e1ae3",
					"removeTier(uint256)": "7497211b",
					"state()": "c19d93fb",
					"tiers(uint256)": "039af9eb",
					"withdraw()": "3ccfd60b"
				}
			},
			"storageLayout": {
				"storage": [
					{
						"astId": 3,
						"contract": "contracts/CroudFunding.sol:CroudFunding",
						"label": "name",
						"offset": 0,
						"slot": "0",
						"type": "t_string_storage"
					},
					{
						"astId": 5,
						"contract": "contracts/CroudFunding.sol:CroudFunding",
						"label": "description",
						"offset": 0,
						"slot": "1",
						"type": "t_string_storage"
					},
					{
						"astId": 7,
						"contract": "contracts/CroudFunding.sol:CroudFunding",
						"label": "goal",
						"offset": 0,
						"slot": "2",
						"type": "t_uint256"
					},
					{
						"astId": 9,
						"contract": "contracts/CroudFunding.sol:CroudFunding",
						"label": "deadline",
						"offset": 0,
						"slot": "3",
						"type": "t_uint256"
					},
					{
						"astId": 11,
						"contract": "contracts/CroudFunding.sol:CroudFunding",
						"label": "owner",
						"offset": 0,
						"slot": "4",
						"type": "t_address"
					},
					{
						"astId": 18,
						"contract": "contracts/CroudFunding.sol:CroudFunding",
						"label": "state",
						"offset": 20,
						"slot": "4",
						"type": "t_enum(CampaginState)15"
					},
					{
						"astId": 36,
						"contract": "contracts/CroudFunding.sol:CroudFunding",
						"label": "tiers",
						"offset": 0,
						"slot": "5",
						"type": "t_array(t_struct(Tier)25_storage)dyn_storage"
					},
					{
						"astId": 41,
						"contract": "contracts/CroudFunding.sol:CroudFunding",
						"label": "backers",
						"offset": 0,
						"slot": "6",
						"type": "t_mapping(t_address,t_struct(Backer)32_storage)"
					}
				],
				"types": {
					"t_address": {
						"encoding": "inplace",
						"label": "address",
						"numberOfBytes": "20"
					},
					"t_array(t_struct(Tier)25_storage)dyn_storage": {
						"base": "t_struct(Tier)25_storage",
						"encoding": "dynamic_array",
						"label": "struct CroudFunding.Tier[]",
						"numberOfBytes": "32"
					},
					"t_bool": {
						"encoding": "inplace",
						"label": "bool",
						"numberOfBytes": "1"
					},
					"t_enum(CampaginState)15": {
						"encoding": "inplace",
						"label": "enum CroudFunding.CampaginState",
						"numberOfBytes": "1"
					},
					"t_mapping(t_address,t_struct(Backer)32_storage)": {
						"encoding": "mapping",
						"key": "t_address",
						"label": "mapping(address => struct CroudFunding.Backer)",
						"numberOfBytes": "32",
						"value": "t_struct(Backer)32_storage"
					},
					"t_mapping(t_uint256,t_bool)": {
						"encoding": "mapping",
						"key": "t_uint256",
						"label": "mapping(uint256 => bool)",
						"numberOfBytes": "32",
						"value": "t_bool"
					},
					"t_string_storage": {
						"encoding": "bytes",
						"label": "string",
						"numberOfBytes": "32"
					},
					"t_struct(Backer)32_storage": {
						"encoding": "inplace",
						"label": "struct CroudFunding.Backer",
						"members": [
							{
								"astId": 27,
								"contract": "contracts/CroudFunding.sol:CroudFunding",
								"label": "totalContribution",
								"offset": 0,
								"slot": "0",
								"type": "t_uint256"
							},
							{
								"astId": 31,
								"contract": "contracts/CroudFunding.sol:CroudFunding",
								"label": "fundedTiers",
								"offset": 0,
								"slot": "1",
								"type": "t_mapping(t_uint256,t_bool)"
							}
						],
						"numberOfBytes": "64"
					},
					"t_struct(Tier)25_storage": {
						"encoding": "inplace",
						"label": "struct CroudFunding.Tier",
						"members": [
							{
								"astId": 20,
								"contract": "contracts/CroudFunding.sol:CroudFunding",
								"label": "name",
								"offset": 0,
								"slot": "0",
								"type": "t_string_storage"
							},
							{
								"astId": 22,
								"contract": "contracts/CroudFunding.sol:CroudFunding",
								"label": "amount",
								"offset": 0,
								"slot": "1",
								"type": "t_uint256"
							},
							{
								"astId": 24,
								"contract": "contracts/CroudFunding.sol:CroudFunding",
								"label": "backers",
								"offset": 0,
								"slot": "2",
								"type": "t_uint256"
							}
						],
						"numberOfBytes": "96"
					},
					"t_uint256": {
						"encoding": "inplace",
						"label": "uint256",
						"numberOfBytes": "32"
					}
				}
			},
			"userdoc": {
				"kind": "user",
				"methods": {},
				"version": 1
			}
		}
	}
}