{
	"contracts/CrowdFunding.sol": {
		"CrowdFunding": {
			"abi": [
				{
					"inputs": [
						{
							"internalType": "address",
							"name": "_owner",
							"type": "address"
						},
						{
							"internalType": "string",
							"name": "_name",
							"type": "string"
						},
						{
							"internalType": "string",
							"name": "_description",
							"type": "string"
						},
						{
							"internalType": "uint256",
							"name": "_goal",
							"type": "uint256"
						},
						{
							"internalType": "uint256",
							"name": "_durationInDays",
							"type": "uint256"
						}
					],
					"stateMutability": "nonpayable",
					"type": "constructor"
				},
				{
					"inputs": [
						{
							"internalType": "string",
							"name": "_name",
							"type": "string"
						},
						{
							"internalType": "uint256",
							"name": "_amount",
							"type": "uint256"
						}
					],
					"name": "addTier",
					"outputs": [],
					"stateMutability": "nonpayable",
					"type": "function"
				},
				{
					"inputs": [
						{
							"internalType": "address",
							"name": "",
							"type": "address"
						}
					],
					"name": "backers",
					"outputs": [
						{
							"internalType": "uint256",
							"name": "totalContribution",
							"type": "uint256"
						}
					],
					"stateMutability": "view",
					"type": "function"
				},
				{
					"inputs": [],
					"name": "deadline",
					"outputs": [
						{
							"internalType": "uint256",
							"name": "",
							"type": "uint256"
						}
					],
					"stateMutability": "view",
					"type": "function"
				},
				{
					"inputs": [],
					"name": "description",
					"outputs": [
						{
							"internalType": "string",
							"name": "",
							"type": "string"
						}
					],
					"stateMutability": "view",
					"type": "function"
				},
				{
					"inputs": [
						{
							"internalType": "uint256",
							"name": "_daysToAdd",
							"type": "uint256"
						}
					],
					"name": "extendDeadline",
					"outputs": [],
					"stateMutability": "nonpayable",
					"type": "function"
				},
				{
					"inputs": [
						{
							"internalType": "uint256",
							"name": "_tierIndex",
							"type": "uint256"
						}
					],
					"name": "fund",
					"outputs": [],
					"stateMutability": "payable",
					"type": "function"
				},
				{
					"inputs": [],
					"name": "getCampaignStatus",
					"outputs": [
						{
							"internalType": "enum CrowdFunding.CampaginState",
							"name": "",
							"type": "uint8"
						}
					],
					"stateMutability": "view",
					"type": "function"
				},
				{
					"inputs": [],
					"name": "getContractBalance",
					"outputs": [
						{
							"internalType": "uint256",
							"name": "",
							"type": "uint256"
						}
					],
					"stateMutability": "view",
					"type": "function"
				},
				{
					"inputs": [],
					"name": "getTiers",
					"outputs": [
						{
							"components": [
								{
									"internalType": "string",
									"name": "name",
									"type": "string"
								},
								{
									"internalType": "uint256",
									"name": "amount",
									"type": "uint256"
								},
								{
									"internalType": "uint256",
									"name": "backers",
									"type": "uint256"
								}
							],
							"internalType": "struct CrowdFunding.Tier[]",
							"name": "",
							"type": "tuple[]"
						}
					],
					"stateMutability": "view",
					"type": "function"
				},
				{
					"inputs": [],
					"name": "goal",
					"outputs": [
						{
							"internalType": "uint256",
							"name": "",
							"type": "uint256"
						}
					],
					"stateMutability": "view",
					"type": "function"
				},
				{
					"inputs": [
						{
							"internalType": "address",
							"name": "_backer",
							"type": "address"
						},
						{
							"internalType": "uint256",
							"name": "_tierIndex",
							"type": "uint256"
						}
					],
					"name": "hasFundedTier",
					"outputs": [
						{
							"internalType": "bool",
							"name": "",
							"type": "bool"
						}
					],
					"stateMutability": "view",
					"type": "function"
				},
				{
					"inputs": [],
					"name": "name",
					"outputs": [
						{
							"internalType": "string",
							"name": "",
							"type": "string"
						}
					],
					"stateMutability": "view",
					"type": "function"
				},
				{
					"inputs": [],
					"name": "owner",
					"outputs": [
						{
							"internalType": "address",
							"name": "",
							"type": "address"
						}
					],
					"stateMutability": "view",
					"type": "function"
				},
				{
					"inputs": [],
					"name": "paused",
					"outputs": [
						{
							"internalType": "bool",
							"name": "",
							"type": "bool"
						}
					],
					"stateMutability": "view",
					"type": "function"
				},
				{
					"inputs": [],
					"name": "refund",
					"outputs": [],
					"stateMutability": "nonpayable",
					"type": "function"
				},
				{
					"inputs": [
						{
							"internalType": "uint256",
							"name": "_index",
							"type": "uint256"
						}
					],
					"name": "removeTier",
					"outputs": [],
					"stateMutability": "nonpayable",
					"type": "function"
				},
				{
					"inputs": [],
					"name": "state",
					"outputs": [
						{
							"internalType": "enum CrowdFunding.CampaginState",
							"name": "",
							"type": "uint8"
						}
					],
					"stateMutability": "view",
					"type": "function"
				},
				{
					"inputs": [
						{
							"internalType": "uint256",
							"name": "",
							"type": "uint256"
						}
					],
					"name": "tiers",
					"outputs": [
						{
							"internalType": "string",
							"name": "name",
							"type": "string"
						},
						{
							"internalType": "uint256",
							"name": "amount",
							"type": "uint256"
						},
						{
							"internalType": "uint256",
							"name": "backers",
							"type": "uint256"
						}
					],
					"stateMutability": "view",
					"type": "function"
				},
				{
					"inputs": [],
					"name": "tooglePause",
					"outputs": [],
					"stateMutability": "nonpayable",
					"type": "function"
				},
				{
					"inputs": [],
					"name": "withdraw",
					"outputs": [],
					"stateMutability": "nonpayable",
					"type": "function"
				}
			],
			"devdoc": {
				"kind": "dev",
				"methods": {},
				"version": 1
			},
			"evm": {
				"assembly": "    /* \"contracts/CrowdFunding.sol\":57:4351  contract CrowdFunding {... */\n  mstore(0x40, 0x80)\n    /* \"contracts/CrowdFunding.sol\":909:1318  constructor(... */\n  callvalue\n  dup1\n  iszero\n  tag_1\n  jumpi\n  revert(0x00, 0x00)\ntag_1:\n  pop\n  mload(0x40)\n  sub(codesize, bytecodeSize)\n  dup1\n  bytecodeSize\n  dup4\n  codecopy\n  dup2\n  dup2\n  add\n  0x40\n  mstore\n  dup2\n  add\n  swap1\n  tag_2\n  swap2\n  swap1\n  tag_3\n  jump\t// in\ntag_2:\n    /* \"contracts/CrowdFunding.sol\":1097:1102  _name */\n  dup4\n    /* \"contracts/CrowdFunding.sol\":1090:1094  name */\n  0x00\n    /* \"contracts/CrowdFunding.sol\":1090:1102  name = _name */\n  swap1\n  dup2\n  tag_6\n  swap2\n  swap1\n  tag_7\n  jump\t// in\ntag_6:\n  pop\n    /* \"contracts/CrowdFunding.sol\":1130:1142  _description */\n  dup3\n    /* \"contracts/CrowdFunding.sol\":1116:1127  description */\n  0x01\n    /* \"contracts/CrowdFunding.sol\":1116:1142  description = _description */\n  swap1\n  dup2\n  tag_8\n  swap2\n  swap1\n  tag_7\n  jump\t// in\ntag_8:\n  pop\n    /* \"contracts/CrowdFunding.sol\":1163:1168  _goal */\n  dup2\n    /* \"contracts/CrowdFunding.sol\":1156:1160  goal */\n  0x02\n    /* \"contracts/CrowdFunding.sol\":1156:1168  goal = _goal */\n  dup2\n  swap1\n  sstore\n  pop\n    /* \"contracts/CrowdFunding.sol\":1230:1236  1 days */\n  0x015180\n    /* \"contracts/CrowdFunding.sol\":1212:1227  _durationInDays */\n  dup2\n    /* \"contracts/CrowdFunding.sol\":1212:1236  _durationInDays * 1 days */\n  tag_9\n  swap2\n  swap1\n  tag_10\n  jump\t// in\ntag_9:\n    /* \"contracts/CrowdFunding.sol\":1193:1208  block.timestamp */\n  timestamp\n    /* \"contracts/CrowdFunding.sol\":1193:1237  block.timestamp + (_durationInDays * 1 days) */\n  tag_11\n  swap2\n  swap1\n  tag_12\n  jump\t// in\ntag_11:\n    /* \"contracts/CrowdFunding.sol\":1182:1190  deadline */\n  0x03\n    /* \"contracts/CrowdFunding.sol\":1182:1237  deadline = block.timestamp + (_durationInDays * 1 days) */\n  dup2\n  swap1\n  sstore\n  pop\n    /* \"contracts/CrowdFunding.sol\":1259:1265  _owner */\n  dup5\n    /* \"contracts/CrowdFunding.sol\":1251:1256  owner */\n  0x04\n  0x00\n    /* \"contracts/CrowdFunding.sol\":1251:1265  owner = _owner */\n  0x0100\n  exp\n  dup2\n  sload\n  dup2\n  0xffffffffffffffffffffffffffffffffffffffff\n  mul\n  not\n  and\n  swap1\n  dup4\n  0xffffffffffffffffffffffffffffffffffffffff\n  and\n  mul\n  or\n  swap1\n  sstore\n  pop\n    /* \"contracts/CrowdFunding.sol\":1287:1307  CampaginState.Active */\n  0x00\n    /* \"contracts/CrowdFunding.sol\":1279:1284  state */\n  0x04\n  0x15\n    /* \"contracts/CrowdFunding.sol\":1279:1307  state = CampaginState.Active */\n  0x0100\n  exp\n  dup2\n  sload\n  dup2\n  0xff\n  mul\n  not\n  and\n  swap1\n  dup4\n  0x02\n  dup2\n  gt\n  iszero\n  tag_13\n  jumpi\n  tag_14\n  tag_15\n  jump\t// in\ntag_14:\ntag_13:\n  mul\n  or\n  swap1\n  sstore\n  pop\n    /* \"contracts/CrowdFunding.sol\":909:1318  constructor(... */\n  pop\n  pop\n  pop\n  pop\n  pop\n    /* \"contracts/CrowdFunding.sol\":57:4351  contract CrowdFunding {... */\n  jump(tag_16)\n    /* \"#utility.yul\":7:82   */\ntag_17:\n    /* \"#utility.yul\":40:46   */\n  0x00\n    /* \"#utility.yul\":73:75   */\n  0x40\n    /* \"#utility.yul\":67:76   */\n  mload\n    /* \"#utility.yul\":57:76   */\n  swap1\n  pop\n    /* \"#utility.yul\":7:82   */\n  swap1\n  jump\t// out\n    /* \"#utility.yul\":88:205   */\ntag_18:\n    /* \"#utility.yul\":197:198   */\n  0x00\n    /* \"#utility.yul\":194:195   */\n  0x00\n    /* \"#utility.yul\":187:199   */\n  revert\n    /* \"#utility.yul\":211:328   */\ntag_19:\n    /* \"#utility.yul\":320:321   */\n  0x00\n    /* \"#utility.yul\":317:318   */\n  0x00\n    /* \"#utility.yul\":310:322   */\n  revert\n    /* \"#utility.yul\":334:460   */\ntag_20:\n    /* \"#utility.yul\":371:378   */\n  0x00\n    /* \"#utility.yul\":411:453   */\n  0xffffffffffffffffffffffffffffffffffffffff\n    /* \"#utility.yul\":404:409   */\n  dup3\n    /* \"#utility.yul\":400:454   */\n  and\n    /* \"#utility.yul\":389:454   */\n  swap1\n  pop\n    /* \"#utility.yul\":334:460   */\n  swap2\n  swap1\n  pop\n  jump\t// out\n    /* \"#utility.yul\":466:562   */\ntag_21:\n    /* \"#utility.yul\":503:510   */\n  0x00\n    /* \"#utility.yul\":532:556   */\n  tag_62\n    /* \"#utility.yul\":550:555   */\n  dup3\n    /* \"#utility.yul\":532:556   */\n  tag_20\n  jump\t// in\ntag_62:\n    /* \"#utility.yul\":521:556   */\n  swap1\n  pop\n    /* \"#utility.yul\":466:562   */\n  swap2\n  swap1\n  pop\n  jump\t// out\n    /* \"#utility.yul\":568:690   */\ntag_22:\n    /* \"#utility.yul\":641:665   */\n  tag_64\n    /* \"#utility.yul\":659:664   */\n  dup2\n    /* \"#utility.yul\":641:665   */\n  tag_21\n  jump\t// in\ntag_64:\n    /* \"#utility.yul\":634:639   */\n  dup2\n    /* \"#utility.yul\":631:666   */\n  eq\n    /* \"#utility.yul\":621:684   */\n  tag_65\n  jumpi\n    /* \"#utility.yul\":680:681   */\n  0x00\n    /* \"#utility.yul\":677:678   */\n  0x00\n    /* \"#utility.yul\":670:682   */\n  revert\n    /* \"#utility.yul\":621:684   */\ntag_65:\n    /* \"#utility.yul\":568:690   */\n  pop\n  jump\t// out\n    /* \"#utility.yul\":696:839   */\ntag_23:\n    /* \"#utility.yul\":753:758   */\n  0x00\n    /* \"#utility.yul\":784:790   */\n  dup2\n    /* \"#utility.yul\":778:791   */\n  mload\n    /* \"#utility.yul\":769:791   */\n  swap1\n  pop\n    /* \"#utility.yul\":800:833   */\n  tag_67\n    /* \"#utility.yul\":827:832   */\n  dup2\n    /* \"#utility.yul\":800:833   */\n  tag_22\n  jump\t// in\ntag_67:\n    /* \"#utility.yul\":696:839   */\n  swap3\n  swap2\n  pop\n  pop\n  jump\t// out\n    /* \"#utility.yul\":845:962   */\ntag_24:\n    /* \"#utility.yul\":954:955   */\n  0x00\n    /* \"#utility.yul\":951:952   */\n  0x00\n    /* \"#utility.yul\":944:956   */\n  revert\n    /* \"#utility.yul\":968:1085   */\ntag_25:\n    /* \"#utility.yul\":1077:1078   */\n  0x00\n    /* \"#utility.yul\":1074:1075   */\n  0x00\n    /* \"#utility.yul\":1067:1079   */\n  revert\n    /* \"#utility.yul\":1091:1193   */\ntag_26:\n    /* \"#utility.yul\":1132:1138   */\n  0x00\n    /* \"#utility.yul\":1183:1185   */\n  0x1f\n    /* \"#utility.yul\":1179:1186   */\n  not\n    /* \"#utility.yul\":1174:1176   */\n  0x1f\n    /* \"#utility.yul\":1167:1172   */\n  dup4\n    /* \"#utility.yul\":1163:1177   */\n  add\n    /* \"#utility.yul\":1159:1187   */\n  and\n    /* \"#utility.yul\":1149:1187   */\n  swap1\n  pop\n    /* \"#utility.yul\":1091:1193   */\n  swap2\n  swap1\n  pop\n  jump\t// out\n    /* \"#utility.yul\":1199:1379   */\ntag_27:\n    /* \"#utility.yul\":1247:1324   */\n  0x4e487b7100000000000000000000000000000000000000000000000000000000\n    /* \"#utility.yul\":1244:1245   */\n  0x00\n    /* \"#utility.yul\":1237:1325   */\n  mstore\n    /* \"#utility.yul\":1344:1348   */\n  0x41\n    /* \"#utility.yul\":1341:1342   */\n  0x04\n    /* \"#utility.yul\":1334:1349   */\n  mstore\n    /* \"#utility.yul\":1368:1372   */\n  0x24\n    /* \"#utility.yul\":1365:1366   */\n  0x00\n    /* \"#utility.yul\":1358:1373   */\n  revert\n    /* \"#utility.yul\":1385:1666   */\ntag_28:\n    /* \"#utility.yul\":1468:1495   */\n  tag_73\n    /* \"#utility.yul\":1490:1494   */\n  dup3\n    /* \"#utility.yul\":1468:1495   */\n  tag_26\n  jump\t// in\ntag_73:\n    /* \"#utility.yul\":1460:1466   */\n  dup2\n    /* \"#utility.yul\":1456:1496   */\n  add\n    /* \"#utility.yul\":1598:1604   */\n  dup2\n    /* \"#utility.yul\":1586:1596   */\n  dup2\n    /* \"#utility.yul\":1583:1605   */\n  lt\n    /* \"#utility.yul\":1562:1580   */\n  0xffffffffffffffff\n    /* \"#utility.yul\":1550:1560   */\n  dup3\n    /* \"#utility.yul\":1547:1581   */\n  gt\n    /* \"#utility.yul\":1544:1606   */\n  or\n    /* \"#utility.yul\":1541:1629   */\n  iszero\n  tag_74\n  jumpi\n    /* \"#utility.yul\":1609:1627   */\n  tag_75\n  tag_27\n  jump\t// in\ntag_75:\n    /* \"#utility.yul\":1541:1629   */\ntag_74:\n    /* \"#utility.yul\":1649:1659   */\n  dup1\n    /* \"#utility.yul\":1645:1647   */\n  0x40\n    /* \"#utility.yul\":1638:1660   */\n  mstore\n    /* \"#utility.yul\":1428:1666   */\n  pop\n    /* \"#utility.yul\":1385:1666   */\n  pop\n  pop\n  jump\t// out\n    /* \"#utility.yul\":1672:1801   */\ntag_29:\n    /* \"#utility.yul\":1706:1712   */\n  0x00\n    /* \"#utility.yul\":1733:1753   */\n  tag_77\n  tag_17\n  jump\t// in\ntag_77:\n    /* \"#utility.yul\":1723:1753   */\n  swap1\n  pop\n    /* \"#utility.yul\":1762:1795   */\n  tag_78\n    /* \"#utility.yul\":1790:1794   */\n  dup3\n    /* \"#utility.yul\":1782:1788   */\n  dup3\n    /* \"#utility.yul\":1762:1795   */\n  tag_28\n  jump\t// in\ntag_78:\n    /* \"#utility.yul\":1672:1801   */\n  swap2\n  swap1\n  pop\n  jump\t// out\n    /* \"#utility.yul\":1807:2115   */\ntag_30:\n    /* \"#utility.yul\":1869:1873   */\n  0x00\n    /* \"#utility.yul\":1959:1977   */\n  0xffffffffffffffff\n    /* \"#utility.yul\":1951:1957   */\n  dup3\n    /* \"#utility.yul\":1948:1978   */\n  gt\n    /* \"#utility.yul\":1945:2001   */\n  iszero\n  tag_80\n  jumpi\n    /* \"#utility.yul\":1981:1999   */\n  tag_81\n  tag_27\n  jump\t// in\ntag_81:\n    /* \"#utility.yul\":1945:2001   */\ntag_80:\n    /* \"#utility.yul\":2019:2048   */\n  tag_82\n    /* \"#utility.yul\":2041:2047   */\n  dup3\n    /* \"#utility.yul\":2019:2048   */\n  tag_26\n  jump\t// in\ntag_82:\n    /* \"#utility.yul\":2011:2048   */\n  swap1\n  pop\n    /* \"#utility.yul\":2103:2107   */\n  0x20\n    /* \"#utility.yul\":2097:2101   */\n  dup2\n    /* \"#utility.yul\":2093:2108   */\n  add\n    /* \"#utility.yul\":2085:2108   */\n  swap1\n  pop\n    /* \"#utility.yul\":1807:2115   */\n  swap2\n  swap1\n  pop\n  jump\t// out\n    /* \"#utility.yul\":2121:2260   */\ntag_31:\n    /* \"#utility.yul\":2210:2216   */\n  dup3\n    /* \"#utility.yul\":2205:2208   */\n  dup2\n    /* \"#utility.yul\":2200:2203   */\n  dup4\n    /* \"#utility.yul\":2194:2217   */\n  mcopy\n    /* \"#utility.yul\":2251:2252   */\n  0x00\n    /* \"#utility.yul\":2242:2248   */\n  dup4\n    /* \"#utility.yul\":2237:2240   */\n  dup4\n    /* \"#utility.yul\":2233:2249   */\n  add\n    /* \"#utility.yul\":2226:2253   */\n  mstore\n    /* \"#utility.yul\":2121:2260   */\n  pop\n  pop\n  pop\n  jump\t// out\n    /* \"#utility.yul\":2266:2700   */\ntag_32:\n    /* \"#utility.yul\":2355:2360   */\n  0x00\n    /* \"#utility.yul\":2380:2446   */\n  tag_85\n    /* \"#utility.yul\":2396:2445   */\n  tag_86\n    /* \"#utility.yul\":2438:2444   */\n  dup5\n    /* \"#utility.yul\":2396:2445   */\n  tag_30\n  jump\t// in\ntag_86:\n    /* \"#utility.yul\":2380:2446   */\n  tag_29\n  jump\t// in\ntag_85:\n    /* \"#utility.yul\":2371:2446   */\n  swap1\n  pop\n    /* \"#utility.yul\":2469:2475   */\n  dup3\n    /* \"#utility.yul\":2462:2467   */\n  dup2\n    /* \"#utility.yul\":2455:2476   */\n  mstore\n    /* \"#utility.yul\":2507:2511   */\n  0x20\n    /* \"#utility.yul\":2500:2505   */\n  dup2\n    /* \"#utility.yul\":2496:2512   */\n  add\n    /* \"#utility.yul\":2545:2548   */\n  dup5\n    /* \"#utility.yul\":2536:2542   */\n  dup5\n    /* \"#utility.yul\":2531:2534   */\n  dup5\n    /* \"#utility.yul\":2527:2543   */\n  add\n    /* \"#utility.yul\":2524:2549   */\n  gt\n    /* \"#utility.yul\":2521:2633   */\n  iszero\n  tag_87\n  jumpi\n    /* \"#utility.yul\":2552:2631   */\n  tag_88\n  tag_25\n  jump\t// in\ntag_88:\n    /* \"#utility.yul\":2521:2633   */\ntag_87:\n    /* \"#utility.yul\":2642:2694   */\n  tag_89\n    /* \"#utility.yul\":2687:2693   */\n  dup5\n    /* \"#utility.yul\":2682:2685   */\n  dup3\n    /* \"#utility.yul\":2677:2680   */\n  dup6\n    /* \"#utility.yul\":2642:2694   */\n  tag_31\n  jump\t// in\ntag_89:\n    /* \"#utility.yul\":2361:2700   */\n  pop\n    /* \"#utility.yul\":2266:2700   */\n  swap4\n  swap3\n  pop\n  pop\n  pop\n  jump\t// out\n    /* \"#utility.yul\":2720:3075   */\ntag_33:\n    /* \"#utility.yul\":2787:2792   */\n  0x00\n    /* \"#utility.yul\":2836:2839   */\n  dup3\n    /* \"#utility.yul\":2829:2833   */\n  0x1f\n    /* \"#utility.yul\":2821:2827   */\n  dup4\n    /* \"#utility.yul\":2817:2834   */\n  add\n    /* \"#utility.yul\":2813:2840   */\n  slt\n    /* \"#utility.yul\":2803:2925   */\n  tag_91\n  jumpi\n    /* \"#utility.yul\":2844:2923   */\n  tag_92\n  tag_24\n  jump\t// in\ntag_92:\n    /* \"#utility.yul\":2803:2925   */\ntag_91:\n    /* \"#utility.yul\":2954:2960   */\n  dup2\n    /* \"#utility.yul\":2948:2961   */\n  mload\n    /* \"#utility.yul\":2979:3069   */\n  tag_93\n    /* \"#utility.yul\":3065:3068   */\n  dup5\n    /* \"#utility.yul\":3057:3063   */\n  dup3\n    /* \"#utility.yul\":3050:3054   */\n  0x20\n    /* \"#utility.yul\":3042:3048   */\n  dup7\n    /* \"#utility.yul\":3038:3055   */\n  add\n    /* \"#utility.yul\":2979:3069   */\n  tag_32\n  jump\t// in\ntag_93:\n    /* \"#utility.yul\":2970:3069   */\n  swap2\n  pop\n    /* \"#utility.yul\":2793:3075   */\n  pop\n    /* \"#utility.yul\":2720:3075   */\n  swap3\n  swap2\n  pop\n  pop\n  jump\t// out\n    /* \"#utility.yul\":3081:3158   */\ntag_34:\n    /* \"#utility.yul\":3118:3125   */\n  0x00\n    /* \"#utility.yul\":3147:3152   */\n  dup2\n    /* \"#utility.yul\":3136:3152   */\n  swap1\n  pop\n    /* \"#utility.yul\":3081:3158   */\n  swap2\n  swap1\n  pop\n  jump\t// out\n    /* \"#utility.yul\":3164:3286   */\ntag_35:\n    /* \"#utility.yul\":3237:3261   */\n  tag_96\n    /* \"#utility.yul\":3255:3260   */\n  dup2\n    /* \"#utility.yul\":3237:3261   */\n  tag_34\n  jump\t// in\ntag_96:\n    /* \"#utility.yul\":3230:3235   */\n  dup2\n    /* \"#utility.yul\":3227:3262   */\n  eq\n    /* \"#utility.yul\":3217:3280   */\n  tag_97\n  jumpi\n    /* \"#utility.yul\":3276:3277   */\n  0x00\n    /* \"#utility.yul\":3273:3274   */\n  0x00\n    /* \"#utility.yul\":3266:3278   */\n  revert\n    /* \"#utility.yul\":3217:3280   */\ntag_97:\n    /* \"#utility.yul\":3164:3286   */\n  pop\n  jump\t// out\n    /* \"#utility.yul\":3292:3435   */\ntag_36:\n    /* \"#utility.yul\":3349:3354   */\n  0x00\n    /* \"#utility.yul\":3380:3386   */\n  dup2\n    /* \"#utility.yul\":3374:3387   */\n  mload\n    /* \"#utility.yul\":3365:3387   */\n  swap1\n  pop\n    /* \"#utility.yul\":3396:3429   */\n  tag_99\n    /* \"#utility.yul\":3423:3428   */\n  dup2\n    /* \"#utility.yul\":3396:3429   */\n  tag_35\n  jump\t// in\ntag_99:\n    /* \"#utility.yul\":3292:3435   */\n  swap3\n  swap2\n  pop\n  pop\n  jump\t// out\n    /* \"#utility.yul\":3441:4764   */\ntag_3:\n    /* \"#utility.yul\":3567:3573   */\n  0x00\n    /* \"#utility.yul\":3575:3581   */\n  0x00\n    /* \"#utility.yul\":3583:3589   */\n  0x00\n    /* \"#utility.yul\":3591:3597   */\n  0x00\n    /* \"#utility.yul\":3599:3605   */\n  0x00\n    /* \"#utility.yul\":3648:3651   */\n  0xa0\n    /* \"#utility.yul\":3636:3645   */\n  dup7\n    /* \"#utility.yul\":3627:3634   */\n  dup9\n    /* \"#utility.yul\":3623:3646   */\n  sub\n    /* \"#utility.yul\":3619:3652   */\n  slt\n    /* \"#utility.yul\":3616:3736   */\n  iszero\n  tag_101\n  jumpi\n    /* \"#utility.yul\":3655:3734   */\n  tag_102\n  tag_18\n  jump\t// in\ntag_102:\n    /* \"#utility.yul\":3616:3736   */\ntag_101:\n    /* \"#utility.yul\":3775:3776   */\n  0x00\n    /* \"#utility.yul\":3800:3864   */\n  tag_103\n    /* \"#utility.yul\":3856:3863   */\n  dup9\n    /* \"#utility.yul\":3847:3853   */\n  dup3\n    /* \"#utility.yul\":3836:3845   */\n  dup10\n    /* \"#utility.yul\":3832:3854   */\n  add\n    /* \"#utility.yul\":3800:3864   */\n  tag_23\n  jump\t// in\ntag_103:\n    /* \"#utility.yul\":3790:3864   */\n  swap6\n  pop\n    /* \"#utility.yul\":3746:3874   */\n  pop\n    /* \"#utility.yul\":3934:3936   */\n  0x20\n    /* \"#utility.yul\":3923:3932   */\n  dup7\n    /* \"#utility.yul\":3919:3937   */\n  add\n    /* \"#utility.yul\":3913:3938   */\n  mload\n    /* \"#utility.yul\":3965:3983   */\n  0xffffffffffffffff\n    /* \"#utility.yul\":3957:3963   */\n  dup2\n    /* \"#utility.yul\":3954:3984   */\n  gt\n    /* \"#utility.yul\":3951:4068   */\n  iszero\n  tag_104\n  jumpi\n    /* \"#utility.yul\":3987:4066   */\n  tag_105\n  tag_19\n  jump\t// in\ntag_105:\n    /* \"#utility.yul\":3951:4068   */\ntag_104:\n    /* \"#utility.yul\":4092:4166   */\n  tag_106\n    /* \"#utility.yul\":4158:4165   */\n  dup9\n    /* \"#utility.yul\":4149:4155   */\n  dup3\n    /* \"#utility.yul\":4138:4147   */\n  dup10\n    /* \"#utility.yul\":4134:4156   */\n  add\n    /* \"#utility.yul\":4092:4166   */\n  tag_33\n  jump\t// in\ntag_106:\n    /* \"#utility.yul\":4082:4166   */\n  swap5\n  pop\n    /* \"#utility.yul\":3884:4176   */\n  pop\n    /* \"#utility.yul\":4236:4238   */\n  0x40\n    /* \"#utility.yul\":4225:4234   */\n  dup7\n    /* \"#utility.yul\":4221:4239   */\n  add\n    /* \"#utility.yul\":4215:4240   */\n  mload\n    /* \"#utility.yul\":4267:4285   */\n  0xffffffffffffffff\n    /* \"#utility.yul\":4259:4265   */\n  dup2\n    /* \"#utility.yul\":4256:4286   */\n  gt\n    /* \"#utility.yul\":4253:4370   */\n  iszero\n  tag_107\n  jumpi\n    /* \"#utility.yul\":4289:4368   */\n  tag_108\n  tag_19\n  jump\t// in\ntag_108:\n    /* \"#utility.yul\":4253:4370   */\ntag_107:\n    /* \"#utility.yul\":4394:4468   */\n  tag_109\n    /* \"#utility.yul\":4460:4467   */\n  dup9\n    /* \"#utility.yul\":4451:4457   */\n  dup3\n    /* \"#utility.yul\":4440:4449   */\n  dup10\n    /* \"#utility.yul\":4436:4458   */\n  add\n    /* \"#utility.yul\":4394:4468   */\n  tag_33\n  jump\t// in\ntag_109:\n    /* \"#utility.yul\":4384:4468   */\n  swap4\n  pop\n    /* \"#utility.yul\":4186:4478   */\n  pop\n    /* \"#utility.yul\":4517:4519   */\n  0x60\n    /* \"#utility.yul\":4543:4607   */\n  tag_110\n    /* \"#utility.yul\":4599:4606   */\n  dup9\n    /* \"#utility.yul\":4590:4596   */\n  dup3\n    /* \"#utility.yul\":4579:4588   */\n  dup10\n    /* \"#utility.yul\":4575:4597   */\n  add\n    /* \"#utility.yul\":4543:4607   */\n  tag_36\n  jump\t// in\ntag_110:\n    /* \"#utility.yul\":4533:4607   */\n  swap3\n  pop\n    /* \"#utility.yul\":4488:4617   */\n  pop\n    /* \"#utility.yul\":4656:4659   */\n  0x80\n    /* \"#utility.yul\":4683:4747   */\n  tag_111\n    /* \"#utility.yul\":4739:4746   */\n  dup9\n    /* \"#utility.yul\":4730:4736   */\n  dup3\n    /* \"#utility.yul\":4719:4728   */\n  dup10\n    /* \"#utility.yul\":4715:4737   */\n  add\n    /* \"#utility.yul\":4683:4747   */\n  tag_36\n  jump\t// in\ntag_111:\n    /* \"#utility.yul\":4673:4747   */\n  swap2\n  pop\n    /* \"#utility.yul\":4627:4757   */\n  pop\n    /* \"#utility.yul\":3441:4764   */\n  swap3\n  swap6\n  pop\n  swap3\n  swap6\n  swap1\n  swap4\n  pop\n  jump\t// out\n    /* \"#utility.yul\":4770:4869   */\ntag_37:\n    /* \"#utility.yul\":4822:4828   */\n  0x00\n    /* \"#utility.yul\":4856:4861   */\n  dup2\n    /* \"#utility.yul\":4850:4862   */\n  mload\n    /* \"#utility.yul\":4840:4862   */\n  swap1\n  pop\n    /* \"#utility.yul\":4770:4869   */\n  swap2\n  swap1\n  pop\n  jump\t// out\n    /* \"#utility.yul\":4875:5055   */\ntag_38:\n    /* \"#utility.yul\":4923:5000   */\n  0x4e487b7100000000000000000000000000000000000000000000000000000000\n    /* \"#utility.yul\":4920:4921   */\n  0x00\n    /* \"#utility.yul\":4913:5001   */\n  mstore\n    /* \"#utility.yul\":5020:5024   */\n  0x22\n    /* \"#utility.yul\":5017:5018   */\n  0x04\n    /* \"#utility.yul\":5010:5025   */\n  mstore\n    /* \"#utility.yul\":5044:5048   */\n  0x24\n    /* \"#utility.yul\":5041:5042   */\n  0x00\n    /* \"#utility.yul\":5034:5049   */\n  revert\n    /* \"#utility.yul\":5061:5381   */\ntag_39:\n    /* \"#utility.yul\":5105:5111   */\n  0x00\n    /* \"#utility.yul\":5142:5143   */\n  0x02\n    /* \"#utility.yul\":5136:5140   */\n  dup3\n    /* \"#utility.yul\":5132:5144   */\n  div\n    /* \"#utility.yul\":5122:5144   */\n  swap1\n  pop\n    /* \"#utility.yul\":5189:5190   */\n  0x01\n    /* \"#utility.yul\":5183:5187   */\n  dup3\n    /* \"#utility.yul\":5179:5191   */\n  and\n    /* \"#utility.yul\":5210:5228   */\n  dup1\n    /* \"#utility.yul\":5200:5281   */\n  tag_115\n  jumpi\n    /* \"#utility.yul\":5266:5270   */\n  0x7f\n    /* \"#utility.yul\":5258:5264   */\n  dup3\n    /* \"#utility.yul\":5254:5271   */\n  and\n    /* \"#utility.yul\":5244:5271   */\n  swap2\n  pop\n    /* \"#utility.yul\":5200:5281   */\ntag_115:\n    /* \"#utility.yul\":5328:5330   */\n  0x20\n    /* \"#utility.yul\":5320:5326   */\n  dup3\n    /* \"#utility.yul\":5317:5331   */\n  lt\n    /* \"#utility.yul\":5297:5315   */\n  dup2\n    /* \"#utility.yul\":5294:5332   */\n  sub\n    /* \"#utility.yul\":5291:5375   */\n  tag_116\n  jumpi\n    /* \"#utility.yul\":5347:5365   */\n  tag_117\n  tag_38\n  jump\t// in\ntag_117:\n    /* \"#utility.yul\":5291:5375   */\ntag_116:\n    /* \"#utility.yul\":5112:5381   */\n  pop\n    /* \"#utility.yul\":5061:5381   */\n  swap2\n  swap1\n  pop\n  jump\t// out\n    /* \"#utility.yul\":5387:5528   */\ntag_40:\n    /* \"#utility.yul\":5436:5440   */\n  0x00\n    /* \"#utility.yul\":5459:5462   */\n  dup2\n    /* \"#utility.yul\":5451:5462   */\n  swap1\n  pop\n    /* \"#utility.yul\":5482:5485   */\n  dup2\n    /* \"#utility.yul\":5479:5480   */\n  0x00\n    /* \"#utility.yul\":5472:5486   */\n  mstore\n    /* \"#utility.yul\":5516:5520   */\n  0x20\n    /* \"#utility.yul\":5513:5514   */\n  0x00\n    /* \"#utility.yul\":5503:5521   */\n  keccak256\n    /* \"#utility.yul\":5495:5521   */\n  swap1\n  pop\n    /* \"#utility.yul\":5387:5528   */\n  swap2\n  swap1\n  pop\n  jump\t// out\n    /* \"#utility.yul\":5534:5627   */\ntag_41:\n    /* \"#utility.yul\":5571:5577   */\n  0x00\n    /* \"#utility.yul\":5618:5620   */\n  0x20\n    /* \"#utility.yul\":5613:5615   */\n  0x1f\n    /* \"#utility.yul\":5606:5611   */\n  dup4\n    /* \"#utility.yul\":5602:5616   */\n  add\n    /* \"#utility.yul\":5598:5621   */\n  div\n    /* \"#utility.yul\":5588:5621   */\n  swap1\n  pop\n    /* \"#utility.yul\":5534:5627   */\n  swap2\n  swap1\n  pop\n  jump\t// out\n    /* \"#utility.yul\":5633:5740   */\ntag_42:\n    /* \"#utility.yul\":5677:5685   */\n  0x00\n    /* \"#utility.yul\":5727:5732   */\n  dup3\n    /* \"#utility.yul\":5721:5725   */\n  dup3\n    /* \"#utility.yul\":5717:5733   */\n  shl\n    /* \"#utility.yul\":5696:5733   */\n  swap1\n  pop\n    /* \"#utility.yul\":5633:5740   */\n  swap3\n  swap2\n  pop\n  pop\n  jump\t// out\n    /* \"#utility.yul\":5746:6139   */\ntag_43:\n    /* \"#utility.yul\":5815:5821   */\n  0x00\n    /* \"#utility.yul\":5865:5866   */\n  0x08\n    /* \"#utility.yul\":5853:5863   */\n  dup4\n    /* \"#utility.yul\":5849:5867   */\n  mul\n    /* \"#utility.yul\":5888:5985   */\n  tag_122\n    /* \"#utility.yul\":5918:5984   */\n  0xffffffffffffffffffffffffffffffffffffffffffffffffffffffffffffffff\n    /* \"#utility.yul\":5907:5916   */\n  dup3\n    /* \"#utility.yul\":5888:5985   */\n  tag_42\n  jump\t// in\ntag_122:\n    /* \"#utility.yul\":6006:6045   */\n  tag_123\n    /* \"#utility.yul\":6036:6044   */\n  dup7\n    /* \"#utility.yul\":6025:6034   */\n  dup4\n    /* \"#utility.yul\":6006:6045   */\n  tag_42\n  jump\t// in\ntag_123:\n    /* \"#utility.yul\":5994:6045   */\n  swap6\n  pop\n    /* \"#utility.yul\":6078:6082   */\n  dup1\n    /* \"#utility.yul\":6074:6083   */\n  not\n    /* \"#utility.yul\":6067:6072   */\n  dup5\n    /* \"#utility.yul\":6063:6084   */\n  and\n    /* \"#utility.yul\":6054:6084   */\n  swap4\n  pop\n    /* \"#utility.yul\":6127:6131   */\n  dup1\n    /* \"#utility.yul\":6117:6125   */\n  dup7\n    /* \"#utility.yul\":6113:6132   */\n  and\n    /* \"#utility.yul\":6106:6111   */\n  dup5\n    /* \"#utility.yul\":6103:6133   */\n  or\n    /* \"#utility.yul\":6093:6133   */\n  swap3\n  pop\n    /* \"#utility.yul\":5822:6139   */\n  pop\n  pop\n    /* \"#utility.yul\":5746:6139   */\n  swap4\n  swap3\n  pop\n  pop\n  pop\n  jump\t// out\n    /* \"#utility.yul\":6145:6205   */\ntag_44:\n    /* \"#utility.yul\":6173:6176   */\n  0x00\n    /* \"#utility.yul\":6194:6199   */\n  dup2\n    /* \"#utility.yul\":6187:6199   */\n  swap1\n  pop\n    /* \"#utility.yul\":6145:6205   */\n  swap2\n  swap1\n  pop\n  jump\t// out\n    /* \"#utility.yul\":6211:6353   */\ntag_45:\n    /* \"#utility.yul\":6261:6270   */\n  0x00\n    /* \"#utility.yul\":6294:6347   */\n  tag_126\n    /* \"#utility.yul\":6312:6346   */\n  tag_127\n    /* \"#utility.yul\":6321:6345   */\n  tag_128\n    /* \"#utility.yul\":6339:6344   */\n  dup5\n    /* \"#utility.yul\":6321:6345   */\n  tag_34\n  jump\t// in\ntag_128:\n    /* \"#utility.yul\":6312:6346   */\n  tag_44\n  jump\t// in\ntag_127:\n    /* \"#utility.yul\":6294:6347   */\n  tag_34\n  jump\t// in\ntag_126:\n    /* \"#utility.yul\":6281:6347   */\n  swap1\n  pop\n    /* \"#utility.yul\":6211:6353   */\n  swap2\n  swap1\n  pop\n  jump\t// out\n    /* \"#utility.yul\":6359:6434   */\ntag_46:\n    /* \"#utility.yul\":6402:6405   */\n  0x00\n    /* \"#utility.yul\":6423:6428   */\n  dup2\n    /* \"#utility.yul\":6416:6428   */\n  swap1\n  pop\n    /* \"#utility.yul\":6359:6434   */\n  swap2\n  swap1\n  pop\n  jump\t// out\n    /* \"#utility.yul\":6440:6709   */\ntag_47:\n    /* \"#utility.yul\":6550:6589   */\n  tag_131\n    /* \"#utility.yul\":6581:6588   */\n  dup4\n    /* \"#utility.yul\":6550:6589   */\n  tag_45\n  jump\t// in\ntag_131:\n    /* \"#utility.yul\":6611:6702   */\n  tag_132\n    /* \"#utility.yul\":6660:6701   */\n  tag_133\n    /* \"#utility.yul\":6684:6700   */\n  dup3\n    /* \"#utility.yul\":6660:6701   */\n  tag_46\n  jump\t// in\ntag_133:\n    /* \"#utility.yul\":6652:6658   */\n  dup5\n    /* \"#utility.yul\":6645:6649   */\n  dup5\n    /* \"#utility.yul\":6639:6650   */\n  sload\n    /* \"#utility.yul\":6611:6702   */\n  tag_43\n  jump\t// in\ntag_132:\n    /* \"#utility.yul\":6605:6609   */\n  dup3\n    /* \"#utility.yul\":6598:6703   */\n  sstore\n    /* \"#utility.yul\":6516:6709   */\n  pop\n    /* \"#utility.yul\":6440:6709   */\n  pop\n  pop\n  pop\n  jump\t// out\n    /* \"#utility.yul\":6715:6788   */\ntag_48:\n    /* \"#utility.yul\":6760:6763   */\n  0x00\n    /* \"#utility.yul\":6781:6782   */\n  0x00\n    /* \"#utility.yul\":6774:6782   */\n  swap1\n  pop\n    /* \"#utility.yul\":6715:6788   */\n  swap1\n  jump\t// out\n    /* \"#utility.yul\":6794:6983   */\ntag_49:\n    /* \"#utility.yul\":6871:6903   */\n  tag_136\n  tag_48\n  jump\t// in\ntag_136:\n    /* \"#utility.yul\":6912:6977   */\n  tag_137\n    /* \"#utility.yul\":6970:6976   */\n  dup2\n    /* \"#utility.yul\":6962:6968   */\n  dup5\n    /* \"#utility.yul\":6956:6960   */\n  dup5\n    /* \"#utility.yul\":6912:6977   */\n  tag_47\n  jump\t// in\ntag_137:\n    /* \"#utility.yul\":6847:6983   */\n  pop\n    /* \"#utility.yul\":6794:6983   */\n  pop\n  pop\n  jump\t// out\n    /* \"#utility.yul\":6989:7175   */\ntag_50:\n    /* \"#utility.yul\":7049:7169   */\ntag_139:\n    /* \"#utility.yul\":7066:7069   */\n  dup2\n    /* \"#utility.yul\":7059:7064   */\n  dup2\n    /* \"#utility.yul\":7056:7070   */\n  lt\n    /* \"#utility.yul\":7049:7169   */\n  iszero\n  tag_141\n  jumpi\n    /* \"#utility.yul\":7120:7159   */\n  tag_142\n    /* \"#utility.yul\":7157:7158   */\n  0x00\n    /* \"#utility.yul\":7150:7155   */\n  dup3\n    /* \"#utility.yul\":7120:7159   */\n  tag_49\n  jump\t// in\ntag_142:\n    /* \"#utility.yul\":7093:7094   */\n  0x01\n    /* \"#utility.yul\":7086:7091   */\n  dup2\n    /* \"#utility.yul\":7082:7095   */\n  add\n    /* \"#utility.yul\":7073:7095   */\n  swap1\n  pop\n    /* \"#utility.yul\":7049:7169   */\n  jump(tag_139)\ntag_141:\n    /* \"#utility.yul\":6989:7175   */\n  pop\n  pop\n  jump\t// out\n    /* \"#utility.yul\":7181:7724   */\ntag_51:\n    /* \"#utility.yul\":7282:7284   */\n  0x1f\n    /* \"#utility.yul\":7277:7280   */\n  dup3\n    /* \"#utility.yul\":7274:7285   */\n  gt\n    /* \"#utility.yul\":7271:7717   */\n  iszero\n  tag_144\n  jumpi\n    /* \"#utility.yul\":7316:7354   */\n  tag_145\n    /* \"#utility.yul\":7348:7353   */\n  dup2\n    /* \"#utility.yul\":7316:7354   */\n  tag_40\n  jump\t// in\ntag_145:\n    /* \"#utility.yul\":7400:7429   */\n  tag_146\n    /* \"#utility.yul\":7418:7428   */\n  dup5\n    /* \"#utility.yul\":7400:7429   */\n  tag_41\n  jump\t// in\ntag_146:\n    /* \"#utility.yul\":7390:7398   */\n  dup2\n    /* \"#utility.yul\":7386:7430   */\n  add\n    /* \"#utility.yul\":7583:7585   */\n  0x20\n    /* \"#utility.yul\":7571:7581   */\n  dup6\n    /* \"#utility.yul\":7568:7586   */\n  lt\n    /* \"#utility.yul\":7565:7614   */\n  iszero\n  tag_147\n  jumpi\n    /* \"#utility.yul\":7604:7612   */\n  dup2\n    /* \"#utility.yul\":7589:7612   */\n  swap1\n  pop\n    /* \"#utility.yul\":7565:7614   */\ntag_147:\n    /* \"#utility.yul\":7627:7707   */\n  tag_148\n    /* \"#utility.yul\":7683:7705   */\n  tag_149\n    /* \"#utility.yul\":7701:7704   */\n  dup6\n    /* \"#utility.yul\":7683:7705   */\n  tag_41\n  jump\t// in\ntag_149:\n    /* \"#utility.yul\":7673:7681   */\n  dup4\n    /* \"#utility.yul\":7669:7706   */\n  add\n    /* \"#utility.yul\":7656:7667   */\n  dup3\n    /* \"#utility.yul\":7627:7707   */\n  tag_50\n  jump\t// in\ntag_148:\n    /* \"#utility.yul\":7286:7717   */\n  pop\n  pop\n    /* \"#utility.yul\":7271:7717   */\ntag_144:\n    /* \"#utility.yul\":7181:7724   */\n  pop\n  pop\n  pop\n  jump\t// out\n    /* \"#utility.yul\":7730:7847   */\ntag_52:\n    /* \"#utility.yul\":7784:7792   */\n  0x00\n    /* \"#utility.yul\":7834:7839   */\n  dup3\n    /* \"#utility.yul\":7828:7832   */\n  dup3\n    /* \"#utility.yul\":7824:7840   */\n  shr\n    /* \"#utility.yul\":7803:7840   */\n  swap1\n  pop\n    /* \"#utility.yul\":7730:7847   */\n  swap3\n  swap2\n  pop\n  pop\n  jump\t// out\n    /* \"#utility.yul\":7853:8022   */\ntag_53:\n    /* \"#utility.yul\":7897:7903   */\n  0x00\n    /* \"#utility.yul\":7930:7981   */\n  tag_152\n    /* \"#utility.yul\":7978:7979   */\n  0x00\n    /* \"#utility.yul\":7974:7980   */\n  not\n    /* \"#utility.yul\":7966:7971   */\n  dup5\n    /* \"#utility.yul\":7963:7964   */\n  0x08\n    /* \"#utility.yul\":7959:7972   */\n  mul\n    /* \"#utility.yul\":7930:7981   */\n  tag_52\n  jump\t// in\ntag_152:\n    /* \"#utility.yul\":7926:7982   */\n  not\n    /* \"#utility.yul\":8011:8015   */\n  dup1\n    /* \"#utility.yul\":8005:8009   */\n  dup4\n    /* \"#utility.yul\":8001:8016   */\n  and\n    /* \"#utility.yul\":7991:8016   */\n  swap2\n  pop\n    /* \"#utility.yul\":7904:8022   */\n  pop\n    /* \"#utility.yul\":7853:8022   */\n  swap3\n  swap2\n  pop\n  pop\n  jump\t// out\n    /* \"#utility.yul\":8027:8322   */\ntag_54:\n    /* \"#utility.yul\":8103:8107   */\n  0x00\n    /* \"#utility.yul\":8249:8278   */\n  tag_154\n    /* \"#utility.yul\":8274:8277   */\n  dup4\n    /* \"#utility.yul\":8268:8272   */\n  dup4\n    /* \"#utility.yul\":8249:8278   */\n  tag_53\n  jump\t// in\ntag_154:\n    /* \"#utility.yul\":8241:8278   */\n  swap2\n  pop\n    /* \"#utility.yul\":8311:8314   */\n  dup3\n    /* \"#utility.yul\":8308:8309   */\n  0x02\n    /* \"#utility.yul\":8304:8315   */\n  mul\n    /* \"#utility.yul\":8298:8302   */\n  dup3\n    /* \"#utility.yul\":8295:8316   */\n  or\n    /* \"#utility.yul\":8287:8316   */\n  swap1\n  pop\n    /* \"#utility.yul\":8027:8322   */\n  swap3\n  swap2\n  pop\n  pop\n  jump\t// out\n    /* \"#utility.yul\":8327:9722   */\ntag_7:\n    /* \"#utility.yul\":8444:8481   */\n  tag_156\n    /* \"#utility.yul\":8477:8480   */\n  dup3\n    /* \"#utility.yul\":8444:8481   */\n  tag_37\n  jump\t// in\ntag_156:\n    /* \"#utility.yul\":8546:8564   */\n  0xffffffffffffffff\n    /* \"#utility.yul\":8538:8544   */\n  dup2\n    /* \"#utility.yul\":8535:8565   */\n  gt\n    /* \"#utility.yul\":8532:8588   */\n  iszero\n  tag_157\n  jumpi\n    /* \"#utility.yul\":8568:8586   */\n  tag_158\n  tag_27\n  jump\t// in\ntag_158:\n    /* \"#utility.yul\":8532:8588   */\ntag_157:\n    /* \"#utility.yul\":8612:8650   */\n  tag_159\n    /* \"#utility.yul\":8644:8648   */\n  dup3\n    /* \"#utility.yul\":8638:8649   */\n  sload\n    /* \"#utility.yul\":8612:8650   */\n  tag_39\n  jump\t// in\ntag_159:\n    /* \"#utility.yul\":8697:8764   */\n  tag_160\n    /* \"#utility.yul\":8757:8763   */\n  dup3\n    /* \"#utility.yul\":8749:8755   */\n  dup3\n    /* \"#utility.yul\":8743:8747   */\n  dup6\n    /* \"#utility.yul\":8697:8764   */\n  tag_51\n  jump\t// in\ntag_160:\n    /* \"#utility.yul\":8791:8792   */\n  0x00\n    /* \"#utility.yul\":8815:8819   */\n  0x20\n    /* \"#utility.yul\":8802:8819   */\n  swap1\n  pop\n    /* \"#utility.yul\":8847:8849   */\n  0x1f\n    /* \"#utility.yul\":8839:8845   */\n  dup4\n    /* \"#utility.yul\":8836:8850   */\n  gt\n    /* \"#utility.yul\":8864:8865   */\n  0x01\n    /* \"#utility.yul\":8859:9477   */\n  dup2\n  eq\n  tag_162\n  jumpi\n    /* \"#utility.yul\":9521:9522   */\n  0x00\n    /* \"#utility.yul\":9538:9544   */\n  dup5\n    /* \"#utility.yul\":9535:9612   */\n  iszero\n  tag_163\n  jumpi\n    /* \"#utility.yul\":9587:9596   */\n  dup3\n    /* \"#utility.yul\":9582:9585   */\n  dup8\n    /* \"#utility.yul\":9578:9597   */\n  add\n    /* \"#utility.yul\":9572:9598   */\n  mload\n    /* \"#utility.yul\":9563:9598   */\n  swap1\n  pop\n    /* \"#utility.yul\":9535:9612   */\ntag_163:\n    /* \"#utility.yul\":9638:9705   */\n  tag_164\n    /* \"#utility.yul\":9698:9704   */\n  dup6\n    /* \"#utility.yul\":9691:9696   */\n  dup3\n    /* \"#utility.yul\":9638:9705   */\n  tag_54\n  jump\t// in\ntag_164:\n    /* \"#utility.yul\":9632:9636   */\n  dup7\n    /* \"#utility.yul\":9625:9706   */\n  sstore\n    /* \"#utility.yul\":9494:9716   */\n  pop\n    /* \"#utility.yul\":8829:9716   */\n  jump(tag_161)\n    /* \"#utility.yul\":8859:9477   */\ntag_162:\n    /* \"#utility.yul\":8911:8915   */\n  0x1f\n    /* \"#utility.yul\":8907:8916   */\n  not\n    /* \"#utility.yul\":8899:8905   */\n  dup5\n    /* \"#utility.yul\":8895:8917   */\n  and\n    /* \"#utility.yul\":8945:8982   */\n  tag_165\n    /* \"#utility.yul\":8977:8981   */\n  dup7\n    /* \"#utility.yul\":8945:8982   */\n  tag_40\n  jump\t// in\ntag_165:\n    /* \"#utility.yul\":9004:9005   */\n  0x00\n    /* \"#utility.yul\":9018:9226   */\ntag_166:\n    /* \"#utility.yul\":9032:9039   */\n  dup3\n    /* \"#utility.yul\":9029:9030   */\n  dup2\n    /* \"#utility.yul\":9026:9040   */\n  lt\n    /* \"#utility.yul\":9018:9226   */\n  iszero\n  tag_168\n  jumpi\n    /* \"#utility.yul\":9111:9120   */\n  dup5\n    /* \"#utility.yul\":9106:9109   */\n  dup10\n    /* \"#utility.yul\":9102:9121   */\n  add\n    /* \"#utility.yul\":9096:9122   */\n  mload\n    /* \"#utility.yul\":9088:9094   */\n  dup3\n    /* \"#utility.yul\":9081:9123   */\n  sstore\n    /* \"#utility.yul\":9162:9163   */\n  0x01\n    /* \"#utility.yul\":9154:9160   */\n  dup3\n    /* \"#utility.yul\":9150:9164   */\n  add\n    /* \"#utility.yul\":9140:9164   */\n  swap2\n  pop\n    /* \"#utility.yul\":9209:9211   */\n  0x20\n    /* \"#utility.yul\":9198:9207   */\n  dup6\n    /* \"#utility.yul\":9194:9212   */\n  add\n    /* \"#utility.yul\":9181:9212   */\n  swap5\n  pop\n    /* \"#utility.yul\":9055:9059   */\n  0x20\n    /* \"#utility.yul\":9052:9053   */\n  dup2\n    /* \"#utility.yul\":9048:9060   */\n  add\n    /* \"#utility.yul\":9043:9060   */\n  swap1\n  pop\n    /* \"#utility.yul\":9018:9226   */\n  jump(tag_166)\ntag_168:\n    /* \"#utility.yul\":9254:9260   */\n  dup7\n    /* \"#utility.yul\":9245:9252   */\n  dup4\n    /* \"#utility.yul\":9242:9261   */\n  lt\n    /* \"#utility.yul\":9239:9418   */\n  iszero\n  tag_169\n  jumpi\n    /* \"#utility.yul\":9312:9321   */\n  dup5\n    /* \"#utility.yul\":9307:9310   */\n  dup10\n    /* \"#utility.yul\":9303:9322   */\n  add\n    /* \"#utility.yul\":9297:9323   */\n  mload\n    /* \"#utility.yul\":9355:9403   */\n  tag_170\n    /* \"#utility.yul\":9397:9401   */\n  0x1f\n    /* \"#utility.yul\":9389:9395   */\n  dup10\n    /* \"#utility.yul\":9385:9402   */\n  and\n    /* \"#utility.yul\":9374:9383   */\n  dup3\n    /* \"#utility.yul\":9355:9403   */\n  tag_53\n  jump\t// in\ntag_170:\n    /* \"#utility.yul\":9347:9353   */\n  dup4\n    /* \"#utility.yul\":9340:9404   */\n  sstore\n    /* \"#utility.yul\":9262:9418   */\n  pop\n    /* \"#utility.yul\":9239:9418   */\ntag_169:\n    /* \"#utility.yul\":9464:9465   */\n  0x01\n    /* \"#utility.yul\":9460:9461   */\n  0x02\n    /* \"#utility.yul\":9452:9458   */\n  dup9\n    /* \"#utility.yul\":9448:9462   */\n  mul\n    /* \"#utility.yul\":9444:9466   */\n  add\n    /* \"#utility.yul\":9438:9442   */\n  dup9\n    /* \"#utility.yul\":9431:9467   */\n  sstore\n    /* \"#utility.yul\":8866:9477   */\n  pop\n  pop\n  pop\n    /* \"#utility.yul\":8829:9716   */\ntag_161:\n  pop\n    /* \"#utility.yul\":8419:9722   */\n  pop\n  pop\n  pop\n    /* \"#utility.yul\":8327:9722   */\n  pop\n  pop\n  jump\t// out\n    /* \"#utility.yul\":9728:9908   */\ntag_55:\n    /* \"#utility.yul\":9776:9853   */\n  0x4e487b7100000000000000000000000000000000000000000000000000000000\n    /* \"#utility.yul\":9773:9774   */\n  0x00\n    /* \"#utility.yul\":9766:9854   */\n  mstore\n    /* \"#utility.yul\":9873:9877   */\n  0x11\n    /* \"#utility.yul\":9870:9871   */\n  0x04\n    /* \"#utility.yul\":9863:9878   */\n  mstore\n    /* \"#utility.yul\":9897:9901   */\n  0x24\n    /* \"#utility.yul\":9894:9895   */\n  0x00\n    /* \"#utility.yul\":9887:9902   */\n  revert\n    /* \"#utility.yul\":9914:10324   */\ntag_10:\n    /* \"#utility.yul\":9954:9961   */\n  0x00\n    /* \"#utility.yul\":9977:9997   */\n  tag_173\n    /* \"#utility.yul\":9995:9996   */\n  dup3\n    /* \"#utility.yul\":9977:9997   */\n  tag_34\n  jump\t// in\ntag_173:\n    /* \"#utility.yul\":9972:9997   */\n  swap2\n  pop\n    /* \"#utility.yul\":10011:10031   */\n  tag_174\n    /* \"#utility.yul\":10029:10030   */\n  dup4\n    /* \"#utility.yul\":10011:10031   */\n  tag_34\n  jump\t// in\ntag_174:\n    /* \"#utility.yul\":10006:10031   */\n  swap3\n  pop\n    /* \"#utility.yul\":10066:10067   */\n  dup3\n    /* \"#utility.yul\":10063:10064   */\n  dup3\n    /* \"#utility.yul\":10059:10068   */\n  mul\n    /* \"#utility.yul\":10088:10118   */\n  tag_175\n    /* \"#utility.yul\":10106:10117   */\n  dup2\n    /* \"#utility.yul\":10088:10118   */\n  tag_34\n  jump\t// in\ntag_175:\n    /* \"#utility.yul\":10077:10118   */\n  swap2\n  pop\n    /* \"#utility.yul\":10267:10268   */\n  dup3\n    /* \"#utility.yul\":10258:10265   */\n  dup3\n    /* \"#utility.yul\":10254:10269   */\n  div\n    /* \"#utility.yul\":10251:10252   */\n  dup5\n    /* \"#utility.yul\":10248:10270   */\n  eq\n    /* \"#utility.yul\":10228:10229   */\n  dup4\n    /* \"#utility.yul\":10221:10230   */\n  iszero\n    /* \"#utility.yul\":10201:10284   */\n  or\n    /* \"#utility.yul\":10178:10317   */\n  tag_176\n  jumpi\n    /* \"#utility.yul\":10297:10315   */\n  tag_177\n  tag_55\n  jump\t// in\ntag_177:\n    /* \"#utility.yul\":10178:10317   */\ntag_176:\n    /* \"#utility.yul\":9962:10324   */\n  pop\n    /* \"#utility.yul\":9914:10324   */\n  swap3\n  swap2\n  pop\n  pop\n  jump\t// out\n    /* \"#utility.yul\":10330:10521   */\ntag_12:\n    /* \"#utility.yul\":10370:10373   */\n  0x00\n    /* \"#utility.yul\":10389:10409   */\n  tag_179\n    /* \"#utility.yul\":10407:10408   */\n  dup3\n    /* \"#utility.yul\":10389:10409   */\n  tag_34\n  jump\t// in\ntag_179:\n    /* \"#utility.yul\":10384:10409   */\n  swap2\n  pop\n    /* \"#utility.yul\":10423:10443   */\n  tag_180\n    /* \"#utility.yul\":10441:10442   */\n  dup4\n    /* \"#utility.yul\":10423:10443   */\n  tag_34\n  jump\t// in\ntag_180:\n    /* \"#utility.yul\":10418:10443   */\n  swap3\n  pop\n    /* \"#utility.yul\":10466:10467   */\n  dup3\n    /* \"#utility.yul\":10463:10464   */\n  dup3\n    /* \"#utility.yul\":10459:10468   */\n  add\n    /* \"#utility.yul\":10452:10468   */\n  swap1\n  pop\n    /* \"#utility.yul\":10487:10490   */\n  dup1\n    /* \"#utility.yul\":10484:10485   */\n  dup3\n    /* \"#utility.yul\":10481:10491   */\n  gt\n    /* \"#utility.yul\":10478:10514   */\n  iszero\n  tag_181\n  jumpi\n    /* \"#utility.yul\":10494:10512   */\n  tag_182\n  tag_55\n  jump\t// in\ntag_182:\n    /* \"#utility.yul\":10478:10514   */\ntag_181:\n    /* \"#utility.yul\":10330:10521   */\n  swap3\n  swap2\n  pop\n  pop\n  jump\t// out\n    /* \"#utility.yul\":10527:10707   */\ntag_15:\n    /* \"#utility.yul\":10575:10652   */\n  0x4e487b7100000000000000000000000000000000000000000000000000000000\n    /* \"#utility.yul\":10572:10573   */\n  0x00\n    /* \"#utility.yul\":10565:10653   */\n  mstore\n    /* \"#utility.yul\":10672:10676   */\n  0x21\n    /* \"#utility.yul\":10669:10670   */\n  0x04\n    /* \"#utility.yul\":10662:10677   */\n  mstore\n    /* \"#utility.yul\":10696:10700   */\n  0x24\n    /* \"#utility.yul\":10693:10694   */\n  0x00\n    /* \"#utility.yul\":10686:10701   */\n  revert\n    /* \"contracts/CrowdFunding.sol\":57:4351  contract CrowdFunding {... */\ntag_16:\n  dataSize(sub_0)\n  dup1\n  dataOffset(sub_0)\n  0x00\n  codecopy\n  0x00\n  return\nstop\n\nsub_0: assembly {\n        /* \"contracts/CrowdFunding.sol\":57:4351  contract CrowdFunding {... */\n      mstore(0x40, 0x80)\n      jumpi(tag_1, lt(calldatasize, 0x04))\n      shr(0xe0, calldataload(0x00))\n      dup1\n      0x7284e416\n      gt\n      tag_22\n      jumpi\n      dup1\n      0xb85dfb80\n      gt\n      tag_23\n      jumpi\n      dup1\n      0xb85dfb80\n      eq\n      tag_17\n      jumpi\n      dup1\n      0xc19d93fb\n      eq\n      tag_18\n      jumpi\n      dup1\n      0xca1d209d\n      eq\n      tag_19\n      jumpi\n      dup1\n      0xd621a776\n      eq\n      tag_20\n      jumpi\n      dup1\n      0xde170570\n      eq\n      tag_21\n      jumpi\n      jump(tag_1)\n    tag_23:\n      dup1\n      0x7284e416\n      eq\n      tag_12\n      jumpi\n      dup1\n      0x7497211b\n      eq\n      tag_13\n      jumpi\n      dup1\n      0x7adba527\n      eq\n      tag_14\n      jumpi\n      dup1\n      0x8da5cb5b\n      eq\n      tag_15\n      jumpi\n      dup1\n      0x8ece7b91\n      eq\n      tag_16\n      jumpi\n      jump(tag_1)\n    tag_22:\n      dup1\n      0x3ccfd60b\n      gt\n      tag_24\n      jumpi\n      dup1\n      0x3ccfd60b\n      eq\n      tag_7\n      jumpi\n      dup1\n      0x40193883\n      eq\n      tag_8\n      jumpi\n      dup1\n      0x590e1ae3\n      eq\n      tag_9\n      jumpi\n      dup1\n      0x5c975abb\n      eq\n      tag_10\n      jumpi\n      dup1\n      0x6f9fb98a\n      eq\n      tag_11\n      jumpi\n      jump(tag_1)\n    tag_24:\n      dup1\n      0x039af9eb\n      eq\n      tag_2\n      jumpi\n      dup1\n      0x06fdde03\n      eq\n      tag_3\n      jumpi\n      dup1\n      0x10550515\n      eq\n      tag_4\n      jumpi\n      dup1\n      0x29dcb0cf\n      eq\n      tag_5\n      jumpi\n      dup1\n      0x389b7533\n      eq\n      tag_6\n      jumpi\n    tag_1:\n      revert(0x00, 0x00)\n        /* \"contracts/CrowdFunding.sol\":535:554  Tier[] public tiers */\n    tag_2:\n      callvalue\n      dup1\n      iszero\n      tag_25\n      jumpi\n      revert(0x00, 0x00)\n    tag_25:\n      pop\n      tag_26\n      0x04\n      dup1\n      calldatasize\n      sub\n      dup2\n      add\n      swap1\n      tag_27\n      swap2\n      swap1\n      tag_28\n      jump\t// in\n    tag_27:\n      tag_29\n      jump\t// in\n    tag_26:\n      mload(0x40)\n      tag_30\n      swap4\n      swap3\n      swap2\n      swap1\n      tag_31\n      jump\t// in\n    tag_30:\n      mload(0x40)\n      dup1\n      swap2\n      sub\n      swap1\n      return\n        /* \"contracts/CrowdFunding.sol\":85:103  string public name */\n    tag_3:\n      callvalue\n      dup1\n      iszero\n      tag_32\n      jumpi\n      revert(0x00, 0x00)\n    tag_32:\n      pop\n      tag_33\n      tag_34\n      jump\t// in\n    tag_33:\n      mload(0x40)\n      tag_35\n      swap2\n      swap1\n      tag_36\n      jump\t// in\n    tag_35:\n      mload(0x40)\n      dup1\n      swap2\n      sub\n      swap1\n      return\n        /* \"contracts/CrowdFunding.sol\":3884:4200  function getCampaignStatus() public view returns ( CampaginState) {... */\n    tag_4:\n      callvalue\n      dup1\n      iszero\n      tag_37\n      jumpi\n      revert(0x00, 0x00)\n    tag_37:\n      pop\n      tag_38\n      tag_39\n      jump\t// in\n    tag_38:\n      mload(0x40)\n      tag_40\n      swap2\n      swap1\n      tag_41\n      jump\t// in\n    tag_40:\n      mload(0x40)\n      dup1\n      swap2\n      sub\n      swap1\n      return\n        /* \"contracts/CrowdFunding.sol\":166:189  uint256 public deadline */\n    tag_5:\n      callvalue\n      dup1\n      iszero\n      tag_42\n      jumpi\n      revert(0x00, 0x00)\n    tag_42:\n      pop\n      tag_43\n      tag_44\n      jump\t// in\n    tag_43:\n      mload(0x40)\n      tag_45\n      swap2\n      swap1\n      tag_46\n      jump\t// in\n    tag_45:\n      mload(0x40)\n      dup1\n      swap2\n      sub\n      swap1\n      return\n        /* \"contracts/CrowdFunding.sol\":4211:4339  function extendDeadline(uint256 _daysToAdd)public onlyOwner campaignOpen{... */\n    tag_6:\n      callvalue\n      dup1\n      iszero\n      tag_47\n      jumpi\n      revert(0x00, 0x00)\n    tag_47:\n      pop\n      tag_48\n      0x04\n      dup1\n      calldatasize\n      sub\n      dup2\n      add\n      swap1\n      tag_49\n      swap2\n      swap1\n      tag_28\n      jump\t// in\n    tag_49:\n      tag_50\n      jump\t// in\n    tag_48:\n      stop\n        /* \"contracts/CrowdFunding.sol\":2679:2989  function withdraw() public onlyOwner{... */\n    tag_7:\n      callvalue\n      dup1\n      iszero\n      tag_51\n      jumpi\n      revert(0x00, 0x00)\n    tag_51:\n      pop\n      tag_52\n      tag_53\n      jump\t// in\n    tag_52:\n      stop\n        /* \"contracts/CrowdFunding.sol\":141:160  uint256 public goal */\n    tag_8:\n      callvalue\n      dup1\n      iszero\n      tag_54\n      jumpi\n      revert(0x00, 0x00)\n    tag_54:\n      pop\n      tag_55\n      tag_56\n      jump\t// in\n    tag_55:\n      mload(0x40)\n      tag_57\n      swap2\n      swap1\n      tag_46\n      jump\t// in\n    tag_57:\n      mload(0x40)\n      dup1\n      swap2\n      sub\n      swap1\n      return\n        /* \"contracts/CrowdFunding.sol\":3122:3513  function refund() public {... */\n    tag_9:\n      callvalue\n      dup1\n      iszero\n      tag_58\n      jumpi\n      revert(0x00, 0x00)\n    tag_58:\n      pop\n      tag_59\n      tag_60\n      jump\t// in\n    tag_59:\n      stop\n        /* \"contracts/CrowdFunding.sol\":221:239  bool public paused */\n    tag_10:\n      callvalue\n      dup1\n      iszero\n      tag_61\n      jumpi\n      revert(0x00, 0x00)\n    tag_61:\n      pop\n      tag_62\n      tag_63\n      jump\t// in\n    tag_62:\n      mload(0x40)\n      tag_64\n      swap2\n      swap1\n      tag_65\n      jump\t// in\n    tag_64:\n      mload(0x40)\n      dup1\n      swap2\n      sub\n      swap1\n      return\n        /* \"contracts/CrowdFunding.sol\":2999:3112  function getContractBalance() public view returns (uint256) {... */\n    tag_11:\n      callvalue\n      dup1\n      iszero\n      tag_66\n      jumpi\n      revert(0x00, 0x00)\n    tag_66:\n      pop\n      tag_67\n      tag_68\n      jump\t// in\n    tag_67:\n      mload(0x40)\n      tag_69\n      swap2\n      swap1\n      tag_46\n      jump\t// in\n    tag_69:\n      mload(0x40)\n      dup1\n      swap2\n      sub\n      swap1\n      return\n        /* \"contracts/CrowdFunding.sol\":109:135  string  public description */\n    tag_12:\n      callvalue\n      dup1\n      iszero\n      tag_70\n      jumpi\n      revert(0x00, 0x00)\n    tag_70:\n      pop\n      tag_71\n      tag_72\n      jump\t// in\n    tag_71:\n      mload(0x40)\n      tag_73\n      swap2\n      swap1\n      tag_36\n      jump\t// in\n    tag_73:\n      mload(0x40)\n      dup1\n      swap2\n      sub\n      swap1\n      return\n        /* \"contracts/CrowdFunding.sol\":2460:2668  function removeTier(uint256 _index) public onlyOwner{... */\n    tag_13:\n      callvalue\n      dup1\n      iszero\n      tag_74\n      jumpi\n      revert(0x00, 0x00)\n    tag_74:\n      pop\n      tag_75\n      0x04\n      dup1\n      calldatasize\n      sub\n      dup2\n      add\n      swap1\n      tag_76\n      swap2\n      swap1\n      tag_28\n      jump\t// in\n    tag_76:\n      tag_77\n      jump\t// in\n    tag_75:\n      stop\n        /* \"contracts/CrowdFunding.sol\":3523:3681  function hasFundedTier(address _backer, uint256 _tierIndex) public view returns (bool){... */\n    tag_14:\n      callvalue\n      dup1\n      iszero\n      tag_78\n      jumpi\n      revert(0x00, 0x00)\n    tag_78:\n      pop\n      tag_79\n      0x04\n      dup1\n      calldatasize\n      sub\n      dup2\n      add\n      swap1\n      tag_80\n      swap2\n      swap1\n      tag_81\n      jump\t// in\n    tag_80:\n      tag_82\n      jump\t// in\n    tag_79:\n      mload(0x40)\n      tag_83\n      swap2\n      swap1\n      tag_65\n      jump\t// in\n    tag_83:\n      mload(0x40)\n      dup1\n      swap2\n      sub\n      swap1\n      return\n        /* \"contracts/CrowdFunding.sol\":195:215  address public owner */\n    tag_15:\n      callvalue\n      dup1\n      iszero\n      tag_84\n      jumpi\n      revert(0x00, 0x00)\n    tag_84:\n      pop\n      tag_85\n      tag_86\n      jump\t// in\n    tag_85:\n      mload(0x40)\n      tag_87\n      swap2\n      swap1\n      tag_88\n      jump\t// in\n    tag_87:\n      mload(0x40)\n      dup1\n      swap2\n      sub\n      swap1\n      return\n        /* \"contracts/CrowdFunding.sol\":2213:2450  function addTier( string memory _name,... */\n    tag_16:\n      callvalue\n      dup1\n      iszero\n      tag_89\n      jumpi\n      revert(0x00, 0x00)\n    tag_89:\n      pop\n      tag_90\n      0x04\n      dup1\n      calldatasize\n      sub\n      dup2\n      add\n      swap1\n      tag_91\n      swap2\n      swap1\n      tag_92\n      jump\t// in\n    tag_91:\n      tag_93\n      jump\t// in\n    tag_90:\n      stop\n        /* \"contracts/CrowdFunding.sol\":561:603  mapping(address => Backer ) public backers */\n    tag_17:\n      callvalue\n      dup1\n      iszero\n      tag_94\n      jumpi\n      revert(0x00, 0x00)\n    tag_94:\n      pop\n      tag_95\n      0x04\n      dup1\n      calldatasize\n      sub\n      dup2\n      add\n      swap1\n      tag_96\n      swap2\n      swap1\n      tag_97\n      jump\t// in\n    tag_96:\n      tag_98\n      jump\t// in\n    tag_95:\n      mload(0x40)\n      tag_99\n      swap2\n      swap1\n      tag_46\n      jump\t// in\n    tag_99:\n      mload(0x40)\n      dup1\n      swap2\n      sub\n      swap1\n      return\n        /* \"contracts/CrowdFunding.sol\":298:324  CampaginState public state */\n    tag_18:\n      callvalue\n      dup1\n      iszero\n      tag_100\n      jumpi\n      revert(0x00, 0x00)\n    tag_100:\n      pop\n      tag_101\n      tag_102\n      jump\t// in\n    tag_101:\n      mload(0x40)\n      tag_103\n      swap2\n      swap1\n      tag_41\n      jump\t// in\n    tag_103:\n      mload(0x40)\n      dup1\n      swap2\n      sub\n      swap1\n      return\n        /* \"contracts/CrowdFunding.sol\":1754:2203  function fund(uint256 _tierIndex) public payable campaignOpen notPaused{... */\n    tag_19:\n      tag_104\n      0x04\n      dup1\n      calldatasize\n      sub\n      dup2\n      add\n      swap1\n      tag_105\n      swap2\n      swap1\n      tag_28\n      jump\t// in\n    tag_105:\n      tag_106\n      jump\t// in\n    tag_104:\n      stop\n        /* \"contracts/CrowdFunding.sol\":3793:3874  function tooglePause() public onlyOwner {... */\n    tag_20:\n      callvalue\n      dup1\n      iszero\n      tag_107\n      jumpi\n      revert(0x00, 0x00)\n    tag_107:\n      pop\n      tag_108\n      tag_109\n      jump\t// in\n    tag_108:\n      stop\n        /* \"contracts/CrowdFunding.sol\":3691:3783  function getTiers() public view returns (Tier[] memory){... */\n    tag_21:\n      callvalue\n      dup1\n      iszero\n      tag_110\n      jumpi\n      revert(0x00, 0x00)\n    tag_110:\n      pop\n      tag_111\n      tag_112\n      jump\t// in\n    tag_111:\n      mload(0x40)\n      tag_113\n      swap2\n      swap1\n      tag_114\n      jump\t// in\n    tag_113:\n      mload(0x40)\n      dup1\n      swap2\n      sub\n      swap1\n      return\n        /* \"contracts/CrowdFunding.sol\":535:554  Tier[] public tiers */\n    tag_29:\n      0x05\n      dup2\n      dup2\n      sload\n      dup2\n      lt\n      tag_115\n      jumpi\n      0x00\n      dup1\n      revert\n    tag_115:\n      swap1\n      0x00\n      mstore\n      keccak256(0x00, 0x20)\n      swap1\n      0x03\n      mul\n      add\n      0x00\n      swap2\n      pop\n      swap1\n      pop\n      dup1\n      0x00\n      add\n      dup1\n      sload\n      tag_117\n      swap1\n      tag_118\n      jump\t// in\n    tag_117:\n      dup1\n      0x1f\n      add\n      0x20\n      dup1\n      swap2\n      div\n      mul\n      0x20\n      add\n      mload(0x40)\n      swap1\n      dup2\n      add\n      0x40\n      mstore\n      dup1\n      swap3\n      swap2\n      swap1\n      dup2\n      dup2\n      mstore\n      0x20\n      add\n      dup3\n      dup1\n      sload\n      tag_119\n      swap1\n      tag_118\n      jump\t// in\n    tag_119:\n      dup1\n      iszero\n      tag_120\n      jumpi\n      dup1\n      0x1f\n      lt\n      tag_121\n      jumpi\n      0x0100\n      dup1\n      dup4\n      sload\n      div\n      mul\n      dup4\n      mstore\n      swap2\n      0x20\n      add\n      swap2\n      jump(tag_120)\n    tag_121:\n      dup3\n      add\n      swap2\n      swap1\n      0x00\n      mstore\n      keccak256(0x00, 0x20)\n      swap1\n    tag_122:\n      dup2\n      sload\n      dup2\n      mstore\n      swap1\n      0x01\n      add\n      swap1\n      0x20\n      add\n      dup1\n      dup4\n      gt\n      tag_122\n      jumpi\n      dup3\n      swap1\n      sub\n      0x1f\n      and\n      dup3\n      add\n      swap2\n    tag_120:\n      pop\n      pop\n      pop\n      pop\n      pop\n      swap1\n      dup1\n      0x01\n      add\n      sload\n      swap1\n      dup1\n      0x02\n      add\n      sload\n      swap1\n      pop\n      dup4\n      jump\t// out\n        /* \"contracts/CrowdFunding.sol\":85:103  string public name */\n    tag_34:\n      0x00\n      dup1\n      sload\n      tag_123\n      swap1\n      tag_118\n      jump\t// in\n    tag_123:\n      dup1\n      0x1f\n      add\n      0x20\n      dup1\n      swap2\n      div\n      mul\n      0x20\n      add\n      mload(0x40)\n      swap1\n      dup2\n      add\n      0x40\n      mstore\n      dup1\n      swap3\n      swap2\n      swap1\n      dup2\n      dup2\n      mstore\n      0x20\n      add\n      dup3\n      dup1\n      sload\n      tag_124\n      swap1\n      tag_118\n      jump\t// in\n    tag_124:\n      dup1\n      iszero\n      tag_125\n      jumpi\n      dup1\n      0x1f\n      lt\n      tag_126\n      jumpi\n      0x0100\n      dup1\n      dup4\n      sload\n      div\n      mul\n      dup4\n      mstore\n      swap2\n      0x20\n      add\n      swap2\n      jump(tag_125)\n    tag_126:\n      dup3\n      add\n      swap2\n      swap1\n      0x00\n      mstore\n      keccak256(0x00, 0x20)\n      swap1\n    tag_127:\n      dup2\n      sload\n      dup2\n      mstore\n      swap1\n      0x01\n      add\n      swap1\n      0x20\n      add\n      dup1\n      dup4\n      gt\n      tag_127\n      jumpi\n      dup3\n      swap1\n      sub\n      0x1f\n      and\n      dup3\n      add\n      swap2\n    tag_125:\n      pop\n      pop\n      pop\n      pop\n      pop\n      dup2\n      jump\t// out\n        /* \"contracts/CrowdFunding.sol\":3884:4200  function getCampaignStatus() public view returns ( CampaginState) {... */\n    tag_39:\n        /* \"contracts/CrowdFunding.sol\":3935:3948  CampaginState */\n      0x00\n        /* \"contracts/CrowdFunding.sol\":3977:3997  CampaginState.Active */\n      0x00\n        /* \"contracts/CrowdFunding.sol\":3968:3997  state == CampaginState.Active */\n      0x02\n      dup2\n      gt\n      iszero\n      tag_129\n      jumpi\n      tag_130\n      tag_131\n      jump\t// in\n    tag_130:\n    tag_129:\n        /* \"contracts/CrowdFunding.sol\":3968:3973  state */\n      0x04\n      0x15\n      swap1\n      sload\n      swap1\n      0x0100\n      exp\n      swap1\n      div\n      0xff\n      and\n        /* \"contracts/CrowdFunding.sol\":3968:3997  state == CampaginState.Active */\n      0x02\n      dup2\n      gt\n      iszero\n      tag_132\n      jumpi\n      tag_133\n      tag_131\n      jump\t// in\n    tag_133:\n    tag_132:\n      eq\n        /* \"contracts/CrowdFunding.sol\":3968:4027  state == CampaginState.Active && block.timestamp > deadline */\n      dup1\n      iszero\n      tag_134\n      jumpi\n      pop\n        /* \"contracts/CrowdFunding.sol\":4019:4027  deadline */\n      sload(0x03)\n        /* \"contracts/CrowdFunding.sol\":4001:4016  block.timestamp */\n      timestamp\n        /* \"contracts/CrowdFunding.sol\":4001:4027  block.timestamp > deadline */\n      gt\n        /* \"contracts/CrowdFunding.sol\":3968:4027  state == CampaginState.Active && block.timestamp > deadline */\n    tag_134:\n        /* \"contracts/CrowdFunding.sol\":3964:4164  if (state == CampaginState.Active && block.timestamp > deadline) {... */\n      iszero\n      tag_135\n      jumpi\n        /* \"contracts/CrowdFunding.sol\":4079:4083  goal */\n      sload(0x02)\n        /* \"contracts/CrowdFunding.sol\":4054:4075  address(this).balance */\n      selfbalance\n        /* \"contracts/CrowdFunding.sol\":4054:4083  address(this).balance >= goal */\n      lt\n      iszero\n        /* \"contracts/CrowdFunding.sol\":4054:4133  address(this).balance >= goal ? CampaginState.Successful : CampaginState.Failed */\n      tag_136\n      jumpi\n        /* \"contracts/CrowdFunding.sol\":4113:4133  CampaginState.Failed */\n      0x02\n        /* \"contracts/CrowdFunding.sol\":4054:4133  address(this).balance >= goal ? CampaginState.Successful : CampaginState.Failed */\n      jump(tag_137)\n    tag_136:\n        /* \"contracts/CrowdFunding.sol\":4086:4110  CampaginState.Successful */\n      0x01\n        /* \"contracts/CrowdFunding.sol\":4054:4133  address(this).balance >= goal ? CampaginState.Successful : CampaginState.Failed */\n    tag_137:\n        /* \"contracts/CrowdFunding.sol\":4047:4133  return address(this).balance >= goal ? CampaginState.Successful : CampaginState.Failed */\n      swap1\n      pop\n      jump(tag_128)\n        /* \"contracts/CrowdFunding.sol\":3964:4164  if (state == CampaginState.Active && block.timestamp > deadline) {... */\n    tag_135:\n        /* \"contracts/CrowdFunding.sol\":4184:4189  state */\n      0x04\n      0x15\n      swap1\n      sload\n      swap1\n      0x0100\n      exp\n      swap1\n      div\n      0xff\n      and\n        /* \"contracts/CrowdFunding.sol\":4177:4189  return state */\n      swap1\n      pop\n        /* \"contracts/CrowdFunding.sol\":3884:4200  function getCampaignStatus() public view returns ( CampaginState) {... */\n    tag_128:\n      swap1\n      jump\t// out\n        /* \"contracts/CrowdFunding.sol\":166:189  uint256 public deadline */\n    tag_44:\n      sload(0x03)\n      dup2\n      jump\t// out\n        /* \"contracts/CrowdFunding.sol\":4211:4339  function extendDeadline(uint256 _daysToAdd)public onlyOwner campaignOpen{... */\n    tag_50:\n        /* \"contracts/CrowdFunding.sol\":655:660  owner */\n      0x04\n      0x00\n      swap1\n      sload\n      swap1\n      0x0100\n      exp\n      swap1\n      div\n      0xffffffffffffffffffffffffffffffffffffffff\n      and\n        /* \"contracts/CrowdFunding.sol\":641:660  msg.sender == owner */\n      0xffffffffffffffffffffffffffffffffffffffff\n      and\n        /* \"contracts/CrowdFunding.sol\":641:651  msg.sender */\n      caller\n        /* \"contracts/CrowdFunding.sol\":641:660  msg.sender == owner */\n      0xffffffffffffffffffffffffffffffffffffffff\n      and\n      eq\n        /* \"contracts/CrowdFunding.sol\":633:678  require(msg.sender == owner, \"Not the owner\") */\n      tag_139\n      jumpi\n      mload(0x40)\n      0x08c379a000000000000000000000000000000000000000000000000000000000\n      dup2\n      mstore\n      0x04\n      add\n      tag_140\n      swap1\n      tag_141\n      jump\t// in\n    tag_140:\n      mload(0x40)\n      dup1\n      swap2\n      sub\n      swap1\n      revert\n    tag_139:\n        /* \"contracts/CrowdFunding.sol\":744:764  CampaginState.Active */\n      0x00\n        /* \"contracts/CrowdFunding.sol\":735:764  state == CampaginState.Active */\n      0x02\n      dup2\n      gt\n      iszero\n      tag_143\n      jumpi\n      tag_144\n      tag_131\n      jump\t// in\n    tag_144:\n    tag_143:\n        /* \"contracts/CrowdFunding.sol\":735:740  state */\n      0x04\n      0x15\n      swap1\n      sload\n      swap1\n      0x0100\n      exp\n      swap1\n      div\n      0xff\n      and\n        /* \"contracts/CrowdFunding.sol\":735:764  state == CampaginState.Active */\n      0x02\n      dup2\n      gt\n      iszero\n      tag_145\n      jumpi\n      tag_146\n      tag_131\n      jump\t// in\n    tag_146:\n    tag_145:\n      eq\n        /* \"contracts/CrowdFunding.sol\":727:792  require(state == CampaginState.Active, \"Campaign is not active \") */\n      tag_147\n      jumpi\n      mload(0x40)\n      0x08c379a000000000000000000000000000000000000000000000000000000000\n      dup2\n      mstore\n      0x04\n      add\n      tag_148\n      swap1\n      tag_149\n      jump\t// in\n    tag_148:\n      mload(0x40)\n      dup1\n      swap2\n      sub\n      swap1\n      revert\n    tag_147:\n        /* \"contracts/CrowdFunding.sol\":4322:4328  1 days */\n      0x015180\n        /* \"contracts/CrowdFunding.sol\":4309:4319  _daysToAdd */\n      dup2\n        /* \"contracts/CrowdFunding.sol\":4309:4328  _daysToAdd * 1 days */\n      tag_151\n      swap2\n      swap1\n      tag_152\n      jump\t// in\n    tag_151:\n        /* \"contracts/CrowdFunding.sol\":4297:4305  deadline */\n      0x03\n      0x00\n        /* \"contracts/CrowdFunding.sol\":4297:4328  deadline += _daysToAdd * 1 days */\n      dup3\n      dup3\n      sload\n      tag_153\n      swap2\n      swap1\n      tag_154\n      jump\t// in\n    tag_153:\n      swap3\n      pop\n      pop\n      dup2\n      swap1\n      sstore\n      pop\n        /* \"contracts/CrowdFunding.sol\":4211:4339  function extendDeadline(uint256 _daysToAdd)public onlyOwner campaignOpen{... */\n      pop\n      jump\t// out\n        /* \"contracts/CrowdFunding.sol\":2679:2989  function withdraw() public onlyOwner{... */\n    tag_53:\n        /* \"contracts/CrowdFunding.sol\":655:660  owner */\n      0x04\n      0x00\n      swap1\n      sload\n      swap1\n      0x0100\n      exp\n      swap1\n      div\n      0xffffffffffffffffffffffffffffffffffffffff\n      and\n        /* \"contracts/CrowdFunding.sol\":641:660  msg.sender == owner */\n      0xffffffffffffffffffffffffffffffffffffffff\n      and\n        /* \"contracts/CrowdFunding.sol\":641:651  msg.sender */\n      caller\n        /* \"contracts/CrowdFunding.sol\":641:660  msg.sender == owner */\n      0xffffffffffffffffffffffffffffffffffffffff\n      and\n      eq\n        /* \"contracts/CrowdFunding.sol\":633:678  require(msg.sender == owner, \"Not the owner\") */\n      tag_156\n      jumpi\n      mload(0x40)\n      0x08c379a000000000000000000000000000000000000000000000000000000000\n      dup2\n      mstore\n      0x04\n      add\n      tag_157\n      swap1\n      tag_141\n      jump\t// in\n    tag_157:\n      mload(0x40)\n      dup1\n      swap2\n      sub\n      swap1\n      revert\n    tag_156:\n        /* \"contracts/CrowdFunding.sol\":2717:2746  checkAndUpdateCampaginState() */\n      tag_159\n        /* \"contracts/CrowdFunding.sol\":2717:2744  checkAndUpdateCampaginState */\n      tag_160\n        /* \"contracts/CrowdFunding.sol\":2717:2746  checkAndUpdateCampaginState() */\n      jump\t// in\n    tag_159:\n        /* \"contracts/CrowdFunding.sol\":2765:2789  CampaginState.Successful */\n      0x01\n        /* \"contracts/CrowdFunding.sol\":2756:2789  state == CampaginState.Successful */\n      0x02\n      dup2\n      gt\n      iszero\n      tag_161\n      jumpi\n      tag_162\n      tag_131\n      jump\t// in\n    tag_162:\n    tag_161:\n        /* \"contracts/CrowdFunding.sol\":2756:2761  state */\n      0x04\n      0x15\n      swap1\n      sload\n      swap1\n      0x0100\n      exp\n      swap1\n      div\n      0xff\n      and\n        /* \"contracts/CrowdFunding.sol\":2756:2789  state == CampaginState.Successful */\n      0x02\n      dup2\n      gt\n      iszero\n      tag_163\n      jumpi\n      tag_164\n      tag_131\n      jump\t// in\n    tag_164:\n    tag_163:\n      eq\n        /* \"contracts/CrowdFunding.sol\":2748:2817  require(state == CampaginState.Successful, \"Campagin not successful\") */\n      tag_165\n      jumpi\n      mload(0x40)\n      0x08c379a000000000000000000000000000000000000000000000000000000000\n      dup2\n      mstore\n      0x04\n      add\n      tag_166\n      swap1\n      tag_167\n      jump\t// in\n    tag_166:\n      mload(0x40)\n      dup1\n      swap2\n      sub\n      swap1\n      revert\n    tag_165:\n        /* \"contracts/CrowdFunding.sol\":2831:2846  uint256 balance */\n      0x00\n        /* \"contracts/CrowdFunding.sol\":2849:2870  address(this).balance */\n      selfbalance\n        /* \"contracts/CrowdFunding.sol\":2831:2870  uint256 balance = address(this).balance */\n      swap1\n      pop\n        /* \"contracts/CrowdFunding.sol\":2902:2903  0 */\n      0x00\n        /* \"contracts/CrowdFunding.sol\":2892:2899  balance */\n      dup2\n        /* \"contracts/CrowdFunding.sol\":2892:2903  balance > 0 */\n      gt\n        /* \"contracts/CrowdFunding.sol\":2884:2931  require(balance > 0, \"No balance to withdraw.\") */\n      tag_168\n      jumpi\n      mload(0x40)\n      0x08c379a000000000000000000000000000000000000000000000000000000000\n      dup2\n      mstore\n      0x04\n      add\n      tag_169\n      swap1\n      tag_170\n      jump\t// in\n    tag_169:\n      mload(0x40)\n      dup1\n      swap2\n      sub\n      swap1\n      revert\n    tag_168:\n        /* \"contracts/CrowdFunding.sol\":2954:2959  owner */\n      0x04\n      0x00\n      swap1\n      sload\n      swap1\n      0x0100\n      exp\n      swap1\n      div\n      0xffffffffffffffffffffffffffffffffffffffff\n      and\n        /* \"contracts/CrowdFunding.sol\":2946:2969  payable(owner).transfer */\n      0xffffffffffffffffffffffffffffffffffffffff\n      and\n        /* \"contracts/CrowdFunding.sol\":2946:2978  payable(owner).transfer(balance) */\n      0x08fc\n        /* \"contracts/CrowdFunding.sol\":2970:2977  balance */\n      dup3\n        /* \"contracts/CrowdFunding.sol\":2946:2978  payable(owner).transfer(balance) */\n      swap1\n      dup2\n      iszero\n      mul\n      swap1\n      mload(0x40)\n      0x00\n      mload(0x40)\n      dup1\n      dup4\n      sub\n      dup2\n      dup6\n      dup9\n      dup9\n      call\n      swap4\n      pop\n      pop\n      pop\n      pop\n      iszero\n      dup1\n      iszero\n      tag_172\n      jumpi\n      returndatacopy(0x00, 0x00, returndatasize)\n      revert(0x00, returndatasize)\n    tag_172:\n      pop\n        /* \"contracts/CrowdFunding.sol\":2715:2989  {... */\n      pop\n        /* \"contracts/CrowdFunding.sol\":2679:2989  function withdraw() public onlyOwner{... */\n      jump\t// out\n        /* \"contracts/CrowdFunding.sol\":141:160  uint256 public goal */\n    tag_56:\n      sload(0x02)\n      dup2\n      jump\t// out\n        /* \"contracts/CrowdFunding.sol\":3122:3513  function refund() public {... */\n    tag_60:\n        /* \"contracts/CrowdFunding.sol\":3161:3190  checkAndUpdateCampaginState() */\n      tag_174\n        /* \"contracts/CrowdFunding.sol\":3161:3188  checkAndUpdateCampaginState */\n      tag_160\n        /* \"contracts/CrowdFunding.sol\":3161:3190  checkAndUpdateCampaginState() */\n      jump\t// in\n    tag_174:\n        /* \"contracts/CrowdFunding.sol\":3218:3238  CampaginState.Failed */\n      0x02\n        /* \"contracts/CrowdFunding.sol\":3209:3238  state == CampaginState.Failed */\n      dup1\n      dup2\n      gt\n      iszero\n      tag_175\n      jumpi\n      tag_176\n      tag_131\n      jump\t// in\n    tag_176:\n    tag_175:\n        /* \"contracts/CrowdFunding.sol\":3209:3214  state */\n      0x04\n      0x15\n      swap1\n      sload\n      swap1\n      0x0100\n      exp\n      swap1\n      div\n      0xff\n      and\n        /* \"contracts/CrowdFunding.sol\":3209:3238  state == CampaginState.Failed */\n      0x02\n      dup2\n      gt\n      iszero\n      tag_177\n      jumpi\n      tag_178\n      tag_131\n      jump\t// in\n    tag_178:\n    tag_177:\n      eq\n        /* \"contracts/CrowdFunding.sol\":3201:3265  require(state == CampaginState.Failed, \"Refunds not successful\") */\n      tag_179\n      jumpi\n      mload(0x40)\n      0x08c379a000000000000000000000000000000000000000000000000000000000\n      dup2\n      mstore\n      0x04\n      add\n      tag_180\n      swap1\n      tag_181\n      jump\t// in\n    tag_180:\n      mload(0x40)\n      dup1\n      swap2\n      sub\n      swap1\n      revert\n    tag_179:\n        /* \"contracts/CrowdFunding.sol\":3279:3293  uint256 amount */\n      0x00\n        /* \"contracts/CrowdFunding.sol\":3296:3303  backers */\n      0x06\n        /* \"contracts/CrowdFunding.sol\":3296:3315  backers[msg.sender] */\n      0x00\n        /* \"contracts/CrowdFunding.sol\":3304:3314  msg.sender */\n      caller\n        /* \"contracts/CrowdFunding.sol\":3296:3315  backers[msg.sender] */\n      0xffffffffffffffffffffffffffffffffffffffff\n      and\n      0xffffffffffffffffffffffffffffffffffffffff\n      and\n      dup2\n      mstore\n      0x20\n      add\n      swap1\n      dup2\n      mstore\n      0x20\n      add\n      0x00\n      keccak256\n        /* \"contracts/CrowdFunding.sol\":3296:3333  backers[msg.sender].totalContribution */\n      0x00\n      add\n      sload\n        /* \"contracts/CrowdFunding.sol\":3279:3333  uint256 amount = backers[msg.sender].totalContribution */\n      swap1\n      pop\n        /* \"contracts/CrowdFunding.sol\":3364:3365  0 */\n      0x00\n        /* \"contracts/CrowdFunding.sol\":3355:3361  amount */\n      dup2\n        /* \"contracts/CrowdFunding.sol\":3355:3365  amount > 0 */\n      gt\n        /* \"contracts/CrowdFunding.sol\":3347:3394  require(amount > 0, \"No Contrubution Refunded\") */\n      tag_182\n      jumpi\n      mload(0x40)\n      0x08c379a000000000000000000000000000000000000000000000000000000000\n      dup2\n      mstore\n      0x04\n      add\n      tag_183\n      swap1\n      tag_184\n      jump\t// in\n    tag_183:\n      mload(0x40)\n      dup1\n      swap2\n      sub\n      swap1\n      revert\n    tag_182:\n        /* \"contracts/CrowdFunding.sol\":3449:3450  0 */\n      0x00\n        /* \"contracts/CrowdFunding.sol\":3409:3416  backers */\n      0x06\n        /* \"contracts/CrowdFunding.sol\":3409:3428  backers[msg.sender] */\n      0x00\n        /* \"contracts/CrowdFunding.sol\":3417:3427  msg.sender */\n      caller\n        /* \"contracts/CrowdFunding.sol\":3409:3428  backers[msg.sender] */\n      0xffffffffffffffffffffffffffffffffffffffff\n      and\n      0xffffffffffffffffffffffffffffffffffffffff\n      and\n      dup2\n      mstore\n      0x20\n      add\n      swap1\n      dup2\n      mstore\n      0x20\n      add\n      0x00\n      keccak256\n        /* \"contracts/CrowdFunding.sol\":3409:3446  backers[msg.sender].totalContribution */\n      0x00\n      add\n        /* \"contracts/CrowdFunding.sol\":3409:3450  backers[msg.sender].totalContribution = 0 */\n      dup2\n      swap1\n      sstore\n      pop\n        /* \"contracts/CrowdFunding.sol\":3472:3482  msg.sender */\n      caller\n        /* \"contracts/CrowdFunding.sol\":3464:3492  payable(msg.sender).transfer */\n      0xffffffffffffffffffffffffffffffffffffffff\n      and\n        /* \"contracts/CrowdFunding.sol\":3464:3500  payable(msg.sender).transfer(amount) */\n      0x08fc\n        /* \"contracts/CrowdFunding.sol\":3493:3499  amount */\n      dup3\n        /* \"contracts/CrowdFunding.sol\":3464:3500  payable(msg.sender).transfer(amount) */\n      swap1\n      dup2\n      iszero\n      mul\n      swap1\n      mload(0x40)\n      0x00\n      mload(0x40)\n      dup1\n      dup4\n      sub\n      dup2\n      dup6\n      dup9\n      dup9\n      call\n      swap4\n      pop\n      pop\n      pop\n      pop\n      iszero\n      dup1\n      iszero\n      tag_186\n      jumpi\n      returndatacopy(0x00, 0x00, returndatasize)\n      revert(0x00, returndatasize)\n    tag_186:\n      pop\n        /* \"contracts/CrowdFunding.sol\":3147:3513  {... */\n      pop\n        /* \"contracts/CrowdFunding.sol\":3122:3513  function refund() public {... */\n      jump\t// out\n        /* \"contracts/CrowdFunding.sol\":221:239  bool public paused */\n    tag_63:\n      0x04\n      0x14\n      swap1\n      sload\n      swap1\n      0x0100\n      exp\n      swap1\n      div\n      0xff\n      and\n      dup2\n      jump\t// out\n        /* \"contracts/CrowdFunding.sol\":2999:3112  function getContractBalance() public view returns (uint256) {... */\n    tag_68:\n        /* \"contracts/CrowdFunding.sol\":3050:3057  uint256 */\n      0x00\n        /* \"contracts/CrowdFunding.sol\":3080:3101  address(this).balance */\n      selfbalance\n        /* \"contracts/CrowdFunding.sol\":3073:3101  return address(this).balance */\n      swap1\n      pop\n        /* \"contracts/CrowdFunding.sol\":2999:3112  function getContractBalance() public view returns (uint256) {... */\n      swap1\n      jump\t// out\n        /* \"contracts/CrowdFunding.sol\":109:135  string  public description */\n    tag_72:\n      0x01\n      dup1\n      sload\n      tag_188\n      swap1\n      tag_118\n      jump\t// in\n    tag_188:\n      dup1\n      0x1f\n      add\n      0x20\n      dup1\n      swap2\n      div\n      mul\n      0x20\n      add\n      mload(0x40)\n      swap1\n      dup2\n      add\n      0x40\n      mstore\n      dup1\n      swap3\n      swap2\n      swap1\n      dup2\n      dup2\n      mstore\n      0x20\n      add\n      dup3\n      dup1\n      sload\n      tag_189\n      swap1\n      tag_118\n      jump\t// in\n    tag_189:\n      dup1\n      iszero\n      tag_190\n      jumpi\n      dup1\n      0x1f\n      lt\n      tag_191\n      jumpi\n      0x0100\n      dup1\n      dup4\n      sload\n      div\n      mul\n      dup4\n      mstore\n      swap2\n      0x20\n      add\n      swap2\n      jump(tag_190)\n    tag_191:\n      dup3\n      add\n      swap2\n      swap1\n      0x00\n      mstore\n      keccak256(0x00, 0x20)\n      swap1\n    tag_192:\n      dup2\n      sload\n      dup2\n      mstore\n      swap1\n      0x01\n      add\n      swap1\n      0x20\n      add\n      dup1\n      dup4\n      gt\n      tag_192\n      jumpi\n      dup3\n      swap1\n      sub\n      0x1f\n      and\n      dup3\n      add\n      swap2\n    tag_190:\n      pop\n      pop\n      pop\n      pop\n      pop\n      dup2\n      jump\t// out\n        /* \"contracts/CrowdFunding.sol\":2460:2668  function removeTier(uint256 _index) public onlyOwner{... */\n    tag_77:\n        /* \"contracts/CrowdFunding.sol\":655:660  owner */\n      0x04\n      0x00\n      swap1\n      sload\n      swap1\n      0x0100\n      exp\n      swap1\n      div\n      0xffffffffffffffffffffffffffffffffffffffff\n      and\n        /* \"contracts/CrowdFunding.sol\":641:660  msg.sender == owner */\n      0xffffffffffffffffffffffffffffffffffffffff\n      and\n        /* \"contracts/CrowdFunding.sol\":641:651  msg.sender */\n      caller\n        /* \"contracts/CrowdFunding.sol\":641:660  msg.sender == owner */\n      0xffffffffffffffffffffffffffffffffffffffff\n      and\n      eq\n        /* \"contracts/CrowdFunding.sol\":633:678  require(msg.sender == owner, \"Not the owner\") */\n      tag_194\n      jumpi\n      mload(0x40)\n      0x08c379a000000000000000000000000000000000000000000000000000000000\n      dup2\n      mstore\n      0x04\n      add\n      tag_195\n      swap1\n      tag_141\n      jump\t// in\n    tag_195:\n      mload(0x40)\n      dup1\n      swap2\n      sub\n      swap1\n      revert\n    tag_194:\n        /* \"contracts/CrowdFunding.sol\":2543:2548  tiers */\n      0x05\n        /* \"contracts/CrowdFunding.sol\":2543:2555  tiers.length */\n      dup1\n      sload\n      swap1\n      pop\n        /* \"contracts/CrowdFunding.sol\":2534:2540  _index */\n      dup2\n        /* \"contracts/CrowdFunding.sol\":2534:2555  _index < tiers.length */\n      lt\n        /* \"contracts/CrowdFunding.sol\":2526:2580  require(_index < tiers.length, \"tires does not exits\") */\n      tag_197\n      jumpi\n      mload(0x40)\n      0x08c379a000000000000000000000000000000000000000000000000000000000\n      dup2\n      mstore\n      0x04\n      add\n      tag_198\n      swap1\n      tag_199\n      jump\t// in\n    tag_198:\n      mload(0x40)\n      dup1\n      swap2\n      sub\n      swap1\n      revert\n    tag_197:\n        /* \"contracts/CrowdFunding.sol\":2610:2615  tiers */\n      0x05\n        /* \"contracts/CrowdFunding.sol\":2630:2631  1 */\n      0x01\n        /* \"contracts/CrowdFunding.sol\":2616:2621  tiers */\n      0x05\n        /* \"contracts/CrowdFunding.sol\":2616:2628  tiers.length */\n      dup1\n      sload\n      swap1\n      pop\n        /* \"contracts/CrowdFunding.sol\":2616:2631  tiers.length -1 */\n      tag_200\n      swap2\n      swap1\n      tag_201\n      jump\t// in\n    tag_200:\n        /* \"contracts/CrowdFunding.sol\":2610:2632  tiers[tiers.length -1] */\n      dup2\n      sload\n      dup2\n      lt\n      tag_202\n      jumpi\n      tag_203\n      tag_204\n      jump\t// in\n    tag_203:\n    tag_202:\n      swap1\n      0x00\n      mstore\n      keccak256(0x00, 0x20)\n      swap1\n      0x03\n      mul\n      add\n        /* \"contracts/CrowdFunding.sol\":2594:2599  tiers */\n      0x05\n        /* \"contracts/CrowdFunding.sol\":2600:2606  _index */\n      dup3\n        /* \"contracts/CrowdFunding.sol\":2594:2607  tiers[_index] */\n      dup2\n      sload\n      dup2\n      lt\n      tag_206\n      jumpi\n      tag_207\n      tag_204\n      jump\t// in\n    tag_207:\n    tag_206:\n      swap1\n      0x00\n      mstore\n      keccak256(0x00, 0x20)\n      swap1\n      0x03\n      mul\n      add\n        /* \"contracts/CrowdFunding.sol\":2594:2632  tiers[_index] = tiers[tiers.length -1] */\n      0x00\n      dup3\n      add\n      dup2\n      0x00\n      add\n      swap1\n      dup2\n      tag_209\n      swap2\n      swap1\n      tag_210\n      jump\t// in\n    tag_209:\n      pop\n      0x01\n      dup3\n      add\n      sload\n      dup2\n      0x01\n      add\n      sstore\n      0x02\n      dup3\n      add\n      sload\n      dup2\n      0x02\n      add\n      sstore\n      swap1\n      pop\n      pop\n        /* \"contracts/CrowdFunding.sol\":2646:2651  tiers */\n      0x05\n        /* \"contracts/CrowdFunding.sol\":2646:2657  tiers.pop() */\n      dup1\n      sload\n      dup1\n      tag_211\n      jumpi\n      tag_212\n      tag_213\n      jump\t// in\n    tag_212:\n    tag_211:\n      0x01\n      swap1\n      sub\n      dup2\n      dup2\n      swap1\n      0x00\n      mstore\n      keccak256(0x00, 0x20)\n      swap1\n      0x03\n      mul\n      add\n      0x00\n      0x00\n      dup3\n      add\n      0x00\n      tag_215\n      swap2\n      swap1\n      tag_216\n      jump\t// in\n    tag_215:\n      0x01\n      dup3\n      add\n      0x00\n      swap1\n      sstore\n      0x02\n      dup3\n      add\n      0x00\n      swap1\n      sstore\n      pop\n      pop\n      swap1\n      sstore\n        /* \"contracts/CrowdFunding.sol\":2460:2668  function removeTier(uint256 _index) public onlyOwner{... */\n      pop\n      jump\t// out\n        /* \"contracts/CrowdFunding.sol\":3523:3681  function hasFundedTier(address _backer, uint256 _tierIndex) public view returns (bool){... */\n    tag_82:\n        /* \"contracts/CrowdFunding.sol\":3604:3608  bool */\n      0x00\n        /* \"contracts/CrowdFunding.sol\":3630:3637  backers */\n      0x06\n        /* \"contracts/CrowdFunding.sol\":3630:3646  backers[_backer] */\n      0x00\n        /* \"contracts/CrowdFunding.sol\":3638:3645  _backer */\n      dup5\n        /* \"contracts/CrowdFunding.sol\":3630:3646  backers[_backer] */\n      0xffffffffffffffffffffffffffffffffffffffff\n      and\n      0xffffffffffffffffffffffffffffffffffffffff\n      and\n      dup2\n      mstore\n      0x20\n      add\n      swap1\n      dup2\n      mstore\n      0x20\n      add\n      0x00\n      keccak256\n        /* \"contracts/CrowdFunding.sol\":3630:3658  backers[_backer].fundedTiers */\n      0x01\n      add\n        /* \"contracts/CrowdFunding.sol\":3630:3670  backers[_backer].fundedTiers[_tierIndex] */\n      0x00\n        /* \"contracts/CrowdFunding.sol\":3659:3669  _tierIndex */\n      dup4\n        /* \"contracts/CrowdFunding.sol\":3630:3670  backers[_backer].fundedTiers[_tierIndex] */\n      dup2\n      mstore\n      0x20\n      add\n      swap1\n      dup2\n      mstore\n      0x20\n      add\n      0x00\n      keccak256\n      0x00\n      swap1\n      sload\n      swap1\n      0x0100\n      exp\n      swap1\n      div\n      0xff\n      and\n        /* \"contracts/CrowdFunding.sol\":3623:3670  return backers[_backer].fundedTiers[_tierIndex] */\n      swap1\n      pop\n        /* \"contracts/CrowdFunding.sol\":3523:3681  function hasFundedTier(address _backer, uint256 _tierIndex) public view returns (bool){... */\n      swap3\n      swap2\n      pop\n      pop\n      jump\t// out\n        /* \"contracts/CrowdFunding.sol\":195:215  address public owner */\n    tag_86:\n      0x04\n      0x00\n      swap1\n      sload\n      swap1\n      0x0100\n      exp\n      swap1\n      div\n      0xffffffffffffffffffffffffffffffffffffffff\n      and\n      dup2\n      jump\t// out\n        /* \"contracts/CrowdFunding.sol\":2213:2450  function addTier( string memory _name,... */\n    tag_93:\n        /* \"contracts/CrowdFunding.sol\":655:660  owner */\n      0x04\n      0x00\n      swap1\n      sload\n      swap1\n      0x0100\n      exp\n      swap1\n      div\n      0xffffffffffffffffffffffffffffffffffffffff\n      and\n        /* \"contracts/CrowdFunding.sol\":641:660  msg.sender == owner */\n      0xffffffffffffffffffffffffffffffffffffffff\n      and\n        /* \"contracts/CrowdFunding.sol\":641:651  msg.sender */\n      caller\n        /* \"contracts/CrowdFunding.sol\":641:660  msg.sender == owner */\n      0xffffffffffffffffffffffffffffffffffffffff\n      and\n      eq\n        /* \"contracts/CrowdFunding.sol\":633:678  require(msg.sender == owner, \"Not the owner\") */\n      tag_219\n      jumpi\n      mload(0x40)\n      0x08c379a000000000000000000000000000000000000000000000000000000000\n      dup2\n      mstore\n      0x04\n      add\n      tag_220\n      swap1\n      tag_141\n      jump\t// in\n    tag_220:\n      mload(0x40)\n      dup1\n      swap2\n      sub\n      swap1\n      revert\n    tag_219:\n        /* \"contracts/CrowdFunding.sol\":2334:2335  0 */\n      0x00\n        /* \"contracts/CrowdFunding.sol\":2324:2331  _amount */\n      dup2\n        /* \"contracts/CrowdFunding.sol\":2324:2335  _amount > 0 */\n      gt\n        /* \"contracts/CrowdFunding.sol\":2316:2372  require(_amount > 0, \"Amount must be greater than zero\") */\n      tag_222\n      jumpi\n      mload(0x40)\n      0x08c379a000000000000000000000000000000000000000000000000000000000\n      dup2\n      mstore\n      0x04\n      add\n      tag_223\n      swap1\n      tag_224\n      jump\t// in\n    tag_223:\n      mload(0x40)\n      dup1\n      swap2\n      sub\n      swap1\n      revert\n    tag_222:\n        /* \"contracts/CrowdFunding.sol\":2391:2396  tiers */\n      0x05\n        /* \"contracts/CrowdFunding.sol\":2402:2425  Tier(_name, _amount, 0) */\n      mload(0x40)\n      dup1\n      0x60\n      add\n      0x40\n      mstore\n      dup1\n        /* \"contracts/CrowdFunding.sol\":2407:2412  _name */\n      dup5\n        /* \"contracts/CrowdFunding.sol\":2402:2425  Tier(_name, _amount, 0) */\n      dup2\n      mstore\n      0x20\n      add\n        /* \"contracts/CrowdFunding.sol\":2414:2421  _amount */\n      dup4\n        /* \"contracts/CrowdFunding.sol\":2402:2425  Tier(_name, _amount, 0) */\n      dup2\n      mstore\n      0x20\n      add\n        /* \"contracts/CrowdFunding.sol\":2423:2424  0 */\n      0x00\n        /* \"contracts/CrowdFunding.sol\":2402:2425  Tier(_name, _amount, 0) */\n      dup2\n      mstore\n      pop\n        /* \"contracts/CrowdFunding.sol\":2391:2426  tiers.push(Tier(_name, _amount, 0)) */\n      swap1\n      dup1\n      0x01\n      dup2\n      sload\n      add\n      dup1\n      dup3\n      sstore\n      dup1\n      swap2\n      pop\n      pop\n      0x01\n      swap1\n      sub\n      swap1\n      0x00\n      mstore\n      keccak256(0x00, 0x20)\n      swap1\n      0x03\n      mul\n      add\n      0x00\n      swap1\n      swap2\n      swap1\n      swap2\n      swap1\n      swap2\n      pop\n      0x00\n      dup3\n      add\n      mload\n      dup2\n      0x00\n      add\n      swap1\n      dup2\n      tag_226\n      swap2\n      swap1\n      tag_227\n      jump\t// in\n    tag_226:\n      pop\n      0x20\n      dup3\n      add\n      mload\n      dup2\n      0x01\n      add\n      sstore\n      0x40\n      dup3\n      add\n      mload\n      dup2\n      0x02\n      add\n      sstore\n      pop\n      pop\n        /* \"contracts/CrowdFunding.sol\":2213:2450  function addTier( string memory _name,... */\n      pop\n      pop\n      jump\t// out\n        /* \"contracts/CrowdFunding.sol\":561:603  mapping(address => Backer ) public backers */\n    tag_98:\n      mstore(0x20, 0x06)\n      dup1\n      0x00\n      mstore\n      keccak256(0x00, 0x40)\n      0x00\n      swap2\n      pop\n      swap1\n      pop\n      dup1\n      0x00\n      add\n      sload\n      swap1\n      pop\n      dup2\n      jump\t// out\n        /* \"contracts/CrowdFunding.sol\":298:324  CampaginState public state */\n    tag_102:\n      0x04\n      0x15\n      swap1\n      sload\n      swap1\n      0x0100\n      exp\n      swap1\n      div\n      0xff\n      and\n      dup2\n      jump\t// out\n        /* \"contracts/CrowdFunding.sol\":1754:2203  function fund(uint256 _tierIndex) public payable campaignOpen notPaused{... */\n    tag_106:\n        /* \"contracts/CrowdFunding.sol\":744:764  CampaginState.Active */\n      0x00\n        /* \"contracts/CrowdFunding.sol\":735:764  state == CampaginState.Active */\n      0x02\n      dup2\n      gt\n      iszero\n      tag_229\n      jumpi\n      tag_230\n      tag_131\n      jump\t// in\n    tag_230:\n    tag_229:\n        /* \"contracts/CrowdFunding.sol\":735:740  state */\n      0x04\n      0x15\n      swap1\n      sload\n      swap1\n      0x0100\n      exp\n      swap1\n      div\n      0xff\n      and\n        /* \"contracts/CrowdFunding.sol\":735:764  state == CampaginState.Active */\n      0x02\n      dup2\n      gt\n      iszero\n      tag_231\n      jumpi\n      tag_232\n      tag_131\n      jump\t// in\n    tag_232:\n    tag_231:\n      eq\n        /* \"contracts/CrowdFunding.sol\":727:792  require(state == CampaginState.Active, \"Campaign is not active \") */\n      tag_233\n      jumpi\n      mload(0x40)\n      0x08c379a000000000000000000000000000000000000000000000000000000000\n      dup2\n      mstore\n      0x04\n      add\n      tag_234\n      swap1\n      tag_149\n      jump\t// in\n    tag_234:\n      mload(0x40)\n      dup1\n      swap2\n      sub\n      swap1\n      revert\n    tag_233:\n        /* \"contracts/CrowdFunding.sol\":856:862  paused */\n      0x04\n      0x14\n      swap1\n      sload\n      swap1\n      0x0100\n      exp\n      swap1\n      div\n      0xff\n      and\n        /* \"contracts/CrowdFunding.sol\":855:862  !paused */\n      iszero\n        /* \"contracts/CrowdFunding.sol\":847:885  require(!paused, \"Contract is Pasued\") */\n      tag_236\n      jumpi\n      mload(0x40)\n      0x08c379a000000000000000000000000000000000000000000000000000000000\n      dup2\n      mstore\n      0x04\n      add\n      tag_237\n      swap1\n      tag_238\n      jump\t// in\n    tag_237:\n      mload(0x40)\n      dup1\n      swap2\n      sub\n      swap1\n      revert\n    tag_236:\n        /* \"contracts/CrowdFunding.sol\":1860:1865  tiers */\n      0x05\n        /* \"contracts/CrowdFunding.sol\":1860:1872  tiers.length */\n      dup1\n      sload\n      swap1\n      pop\n        /* \"contracts/CrowdFunding.sol\":1847:1857  _tierIndex */\n      dup2\n        /* \"contracts/CrowdFunding.sol\":1847:1872  _tierIndex < tiers.length */\n      lt\n        /* \"contracts/CrowdFunding.sol\":1839:1897  require(_tierIndex < tiers.length, \"tiers does not exits\") */\n      tag_240\n      jumpi\n      mload(0x40)\n      0x08c379a000000000000000000000000000000000000000000000000000000000\n      dup2\n      mstore\n      0x04\n      add\n      tag_241\n      swap1\n      tag_242\n      jump\t// in\n    tag_241:\n      mload(0x40)\n      dup1\n      swap2\n      sub\n      swap1\n      revert\n    tag_240:\n        /* \"contracts/CrowdFunding.sol\":1933:1938  tiers */\n      0x05\n        /* \"contracts/CrowdFunding.sol\":1939:1949  _tierIndex */\n      dup2\n        /* \"contracts/CrowdFunding.sol\":1933:1950  tiers[_tierIndex] */\n      dup2\n      sload\n      dup2\n      lt\n      tag_243\n      jumpi\n      tag_244\n      tag_204\n      jump\t// in\n    tag_244:\n    tag_243:\n      swap1\n      0x00\n      mstore\n      keccak256(0x00, 0x20)\n      swap1\n      0x03\n      mul\n      add\n        /* \"contracts/CrowdFunding.sol\":1933:1957  tiers[_tierIndex].amount */\n      0x01\n      add\n      sload\n        /* \"contracts/CrowdFunding.sol\":1920:1929  msg.value */\n      callvalue\n        /* \"contracts/CrowdFunding.sol\":1920:1957  msg.value == tiers[_tierIndex].amount */\n      eq\n        /* \"contracts/CrowdFunding.sol\":1912:1978  require(msg.value == tiers[_tierIndex].amount, \"incorrect amount\") */\n      tag_246\n      jumpi\n      mload(0x40)\n      0x08c379a000000000000000000000000000000000000000000000000000000000\n      dup2\n      mstore\n      0x04\n      add\n      tag_247\n      swap1\n      tag_248\n      jump\t// in\n    tag_247:\n      mload(0x40)\n      dup1\n      swap2\n      sub\n      swap1\n      revert\n    tag_246:\n        /* \"contracts/CrowdFunding.sol\":1992:1997  tiers */\n      0x05\n        /* \"contracts/CrowdFunding.sol\":1998:2008  _tierIndex */\n      dup2\n        /* \"contracts/CrowdFunding.sol\":1992:2009  tiers[_tierIndex] */\n      dup2\n      sload\n      dup2\n      lt\n      tag_249\n      jumpi\n      tag_250\n      tag_204\n      jump\t// in\n    tag_250:\n    tag_249:\n      swap1\n      0x00\n      mstore\n      keccak256(0x00, 0x20)\n      swap1\n      0x03\n      mul\n      add\n        /* \"contracts/CrowdFunding.sol\":1992:2017  tiers[_tierIndex].backers */\n      0x02\n      add\n      0x00\n        /* \"contracts/CrowdFunding.sol\":1992:2019  tiers[_tierIndex].backers++ */\n      dup2\n      sload\n      dup1\n      swap3\n      swap2\n      swap1\n      tag_252\n      swap1\n      tag_253\n      jump\t// in\n    tag_252:\n      swap2\n      swap1\n      pop\n      sstore\n      pop\n        /* \"contracts/CrowdFunding.sol\":2075:2084  msg.value */\n      callvalue\n        /* \"contracts/CrowdFunding.sol\":2034:2041  backers */\n      0x06\n        /* \"contracts/CrowdFunding.sol\":2034:2053  backers[msg.sender] */\n      0x00\n        /* \"contracts/CrowdFunding.sol\":2042:2052  msg.sender */\n      caller\n        /* \"contracts/CrowdFunding.sol\":2034:2053  backers[msg.sender] */\n      0xffffffffffffffffffffffffffffffffffffffff\n      and\n      0xffffffffffffffffffffffffffffffffffffffff\n      and\n      dup2\n      mstore\n      0x20\n      add\n      swap1\n      dup2\n      mstore\n      0x20\n      add\n      0x00\n      keccak256\n        /* \"contracts/CrowdFunding.sol\":2034:2071  backers[msg.sender].totalContribution */\n      0x00\n      add\n      0x00\n        /* \"contracts/CrowdFunding.sol\":2034:2084  backers[msg.sender].totalContribution += msg.value */\n      dup3\n      dup3\n      sload\n      tag_254\n      swap2\n      swap1\n      tag_154\n      jump\t// in\n    tag_254:\n      swap3\n      pop\n      pop\n      dup2\n      swap1\n      sstore\n      pop\n        /* \"contracts/CrowdFunding.sol\":2144:2148  true */\n      0x01\n        /* \"contracts/CrowdFunding.sol\":2098:2105  backers */\n      0x06\n        /* \"contracts/CrowdFunding.sol\":2098:2117  backers[msg.sender] */\n      0x00\n        /* \"contracts/CrowdFunding.sol\":2106:2116  msg.sender */\n      caller\n        /* \"contracts/CrowdFunding.sol\":2098:2117  backers[msg.sender] */\n      0xffffffffffffffffffffffffffffffffffffffff\n      and\n      0xffffffffffffffffffffffffffffffffffffffff\n      and\n      dup2\n      mstore\n      0x20\n      add\n      swap1\n      dup2\n      mstore\n      0x20\n      add\n      0x00\n      keccak256\n        /* \"contracts/CrowdFunding.sol\":2098:2129  backers[msg.sender].fundedTiers */\n      0x01\n      add\n        /* \"contracts/CrowdFunding.sol\":2098:2141  backers[msg.sender].fundedTiers[_tierIndex] */\n      0x00\n        /* \"contracts/CrowdFunding.sol\":2130:2140  _tierIndex */\n      dup4\n        /* \"contracts/CrowdFunding.sol\":2098:2141  backers[msg.sender].fundedTiers[_tierIndex] */\n      dup2\n      mstore\n      0x20\n      add\n      swap1\n      dup2\n      mstore\n      0x20\n      add\n      0x00\n      keccak256\n      0x00\n        /* \"contracts/CrowdFunding.sol\":2098:2148  backers[msg.sender].fundedTiers[_tierIndex] = true */\n      0x0100\n      exp\n      dup2\n      sload\n      dup2\n      0xff\n      mul\n      not\n      and\n      swap1\n      dup4\n      iszero\n      iszero\n      mul\n      or\n      swap1\n      sstore\n      pop\n        /* \"contracts/CrowdFunding.sol\":2163:2192  checkAndUpdateCampaginState() */\n      tag_255\n        /* \"contracts/CrowdFunding.sol\":2163:2190  checkAndUpdateCampaginState */\n      tag_160\n        /* \"contracts/CrowdFunding.sol\":2163:2192  checkAndUpdateCampaginState() */\n      jump\t// in\n    tag_255:\n        /* \"contracts/CrowdFunding.sol\":1754:2203  function fund(uint256 _tierIndex) public payable campaignOpen notPaused{... */\n      pop\n      jump\t// out\n        /* \"contracts/CrowdFunding.sol\":3793:3874  function tooglePause() public onlyOwner {... */\n    tag_109:\n        /* \"contracts/CrowdFunding.sol\":655:660  owner */\n      0x04\n      0x00\n      swap1\n      sload\n      swap1\n      0x0100\n      exp\n      swap1\n      div\n      0xffffffffffffffffffffffffffffffffffffffff\n      and\n        /* \"contracts/CrowdFunding.sol\":641:660  msg.sender == owner */\n      0xffffffffffffffffffffffffffffffffffffffff\n      and\n        /* \"contracts/CrowdFunding.sol\":641:651  msg.sender */\n      caller\n        /* \"contracts/CrowdFunding.sol\":641:660  msg.sender == owner */\n      0xffffffffffffffffffffffffffffffffffffffff\n      and\n      eq\n        /* \"contracts/CrowdFunding.sol\":633:678  require(msg.sender == owner, \"Not the owner\") */\n      tag_257\n      jumpi\n      mload(0x40)\n      0x08c379a000000000000000000000000000000000000000000000000000000000\n      dup2\n      mstore\n      0x04\n      add\n      tag_258\n      swap1\n      tag_141\n      jump\t// in\n    tag_258:\n      mload(0x40)\n      dup1\n      swap2\n      sub\n      swap1\n      revert\n    tag_257:\n        /* \"contracts/CrowdFunding.sol\":3857:3863  paused */\n      0x04\n      0x14\n      swap1\n      sload\n      swap1\n      0x0100\n      exp\n      swap1\n      div\n      0xff\n      and\n        /* \"contracts/CrowdFunding.sol\":3856:3863  !paused */\n      iszero\n        /* \"contracts/CrowdFunding.sol\":3847:3853  paused */\n      0x04\n      0x14\n        /* \"contracts/CrowdFunding.sol\":3847:3863  paused = !paused */\n      0x0100\n      exp\n      dup2\n      sload\n      dup2\n      0xff\n      mul\n      not\n      and\n      swap1\n      dup4\n      iszero\n      iszero\n      mul\n      or\n      swap1\n      sstore\n      pop\n        /* \"contracts/CrowdFunding.sol\":3793:3874  function tooglePause() public onlyOwner {... */\n      jump\t// out\n        /* \"contracts/CrowdFunding.sol\":3691:3783  function getTiers() public view returns (Tier[] memory){... */\n    tag_112:\n        /* \"contracts/CrowdFunding.sol\":3732:3745  Tier[] memory */\n      0x60\n        /* \"contracts/CrowdFunding.sol\":3767:3772  tiers */\n      0x05\n        /* \"contracts/CrowdFunding.sol\":3760:3772  return tiers */\n      dup1\n      sload\n      dup1\n      0x20\n      mul\n      0x20\n      add\n      mload(0x40)\n      swap1\n      dup2\n      add\n      0x40\n      mstore\n      dup1\n      swap3\n      swap2\n      swap1\n      dup2\n      dup2\n      mstore\n      0x20\n      add\n      0x00\n      swap1\n    tag_261:\n      dup3\n      dup3\n      lt\n      iszero\n      tag_262\n      jumpi\n      dup4\n      dup3\n      swap1\n      0x00\n      mstore\n      keccak256(0x00, 0x20)\n      swap1\n      0x03\n      mul\n      add\n      mload(0x40)\n      dup1\n      0x60\n      add\n      0x40\n      mstore\n      swap1\n      dup2\n      0x00\n      dup3\n      add\n      dup1\n      sload\n      tag_264\n      swap1\n      tag_118\n      jump\t// in\n    tag_264:\n      dup1\n      0x1f\n      add\n      0x20\n      dup1\n      swap2\n      div\n      mul\n      0x20\n      add\n      mload(0x40)\n      swap1\n      dup2\n      add\n      0x40\n      mstore\n      dup1\n      swap3\n      swap2\n      swap1\n      dup2\n      dup2\n      mstore\n      0x20\n      add\n      dup3\n      dup1\n      sload\n      tag_265\n      swap1\n      tag_118\n      jump\t// in\n    tag_265:\n      dup1\n      iszero\n      tag_266\n      jumpi\n      dup1\n      0x1f\n      lt\n      tag_267\n      jumpi\n      0x0100\n      dup1\n      dup4\n      sload\n      div\n      mul\n      dup4\n      mstore\n      swap2\n      0x20\n      add\n      swap2\n      jump(tag_266)\n    tag_267:\n      dup3\n      add\n      swap2\n      swap1\n      0x00\n      mstore\n      keccak256(0x00, 0x20)\n      swap1\n    tag_268:\n      dup2\n      sload\n      dup2\n      mstore\n      swap1\n      0x01\n      add\n      swap1\n      0x20\n      add\n      dup1\n      dup4\n      gt\n      tag_268\n      jumpi\n      dup3\n      swap1\n      sub\n      0x1f\n      and\n      dup3\n      add\n      swap2\n    tag_266:\n      pop\n      pop\n      pop\n      pop\n      pop\n      dup2\n      mstore\n      0x20\n      add\n      0x01\n      dup3\n      add\n      sload\n      dup2\n      mstore\n      0x20\n      add\n      0x02\n      dup3\n      add\n      sload\n      dup2\n      mstore\n      pop\n      pop\n      dup2\n      mstore\n      0x20\n      add\n      swap1\n      0x01\n      add\n      swap1\n      jump(tag_261)\n    tag_262:\n      pop\n      pop\n      pop\n      pop\n      swap1\n      pop\n        /* \"contracts/CrowdFunding.sol\":3691:3783  function getTiers() public view returns (Tier[] memory){... */\n      swap1\n      jump\t// out\n        /* \"contracts/CrowdFunding.sol\":1328:1744  function checkAndUpdateCampaginState() internal {... */\n    tag_160:\n        /* \"contracts/CrowdFunding.sol\":1403:1423  CampaginState.Active */\n      0x00\n        /* \"contracts/CrowdFunding.sol\":1394:1423  state == CampaginState.Active */\n      0x02\n      dup2\n      gt\n      iszero\n      tag_270\n      jumpi\n      tag_271\n      tag_131\n      jump\t// in\n    tag_271:\n    tag_270:\n        /* \"contracts/CrowdFunding.sol\":1394:1399  state */\n      0x04\n      0x15\n      swap1\n      sload\n      swap1\n      0x0100\n      exp\n      swap1\n      div\n      0xff\n      and\n        /* \"contracts/CrowdFunding.sol\":1394:1423  state == CampaginState.Active */\n      0x02\n      dup2\n      gt\n      iszero\n      tag_272\n      jumpi\n      tag_273\n      tag_131\n      jump\t// in\n    tag_273:\n    tag_272:\n      sub\n        /* \"contracts/CrowdFunding.sol\":1390:1734  if (state == CampaginState.Active) {... */\n      tag_274\n      jumpi\n        /* \"contracts/CrowdFunding.sol\":1466:1474  deadline */\n      sload(0x03)\n        /* \"contracts/CrowdFunding.sol\":1447:1462  block.timestamp */\n      timestamp\n        /* \"contracts/CrowdFunding.sol\":1447:1474  block.timestamp >= deadline */\n      lt\n        /* \"contracts/CrowdFunding.sol\":1443:1720  if (block.timestamp >= deadline) {... */\n      tag_275\n      jumpi\n        /* \"contracts/CrowdFunding.sol\":1531:1535  goal */\n      sload(0x02)\n        /* \"contracts/CrowdFunding.sol\":1506:1527  address(this).balance */\n      selfbalance\n        /* \"contracts/CrowdFunding.sol\":1506:1535  address(this).balance >= goal */\n      lt\n      iszero\n        /* \"contracts/CrowdFunding.sol\":1506:1585  address(this).balance >= goal ? CampaginState.Successful : CampaginState.Failed */\n      tag_276\n      jumpi\n        /* \"contracts/CrowdFunding.sol\":1565:1585  CampaginState.Failed */\n      0x02\n        /* \"contracts/CrowdFunding.sol\":1506:1585  address(this).balance >= goal ? CampaginState.Successful : CampaginState.Failed */\n      jump(tag_277)\n    tag_276:\n        /* \"contracts/CrowdFunding.sol\":1538:1562  CampaginState.Successful */\n      0x01\n        /* \"contracts/CrowdFunding.sol\":1506:1585  address(this).balance >= goal ? CampaginState.Successful : CampaginState.Failed */\n    tag_277:\n        /* \"contracts/CrowdFunding.sol\":1498:1503  state */\n      0x04\n      0x15\n        /* \"contracts/CrowdFunding.sol\":1498:1585  state = address(this).balance >= goal ? CampaginState.Successful : CampaginState.Failed */\n      0x0100\n      exp\n      dup2\n      sload\n      dup2\n      0xff\n      mul\n      not\n      and\n      swap1\n      dup4\n      0x02\n      dup2\n      gt\n      iszero\n      tag_278\n      jumpi\n      tag_279\n      tag_131\n      jump\t// in\n    tag_279:\n    tag_278:\n      mul\n      or\n      swap1\n      sstore\n      pop\n        /* \"contracts/CrowdFunding.sol\":1443:1720  if (block.timestamp >= deadline) {... */\n      jump(tag_280)\n    tag_275:\n        /* \"contracts/CrowdFunding.sol\":1647:1651  goal */\n      sload(0x02)\n        /* \"contracts/CrowdFunding.sol\":1622:1643  address(this).balance */\n      selfbalance\n        /* \"contracts/CrowdFunding.sol\":1622:1651  address(this).balance >= goal */\n      lt\n      iszero\n        /* \"contracts/CrowdFunding.sol\":1622:1701  address(this).balance >= goal ? CampaginState.Successful : CampaginState.Active */\n      tag_281\n      jumpi\n        /* \"contracts/CrowdFunding.sol\":1681:1701  CampaginState.Active */\n      0x00\n        /* \"contracts/CrowdFunding.sol\":1622:1701  address(this).balance >= goal ? CampaginState.Successful : CampaginState.Active */\n      jump(tag_282)\n    tag_281:\n        /* \"contracts/CrowdFunding.sol\":1654:1678  CampaginState.Successful */\n      0x01\n        /* \"contracts/CrowdFunding.sol\":1622:1701  address(this).balance >= goal ? CampaginState.Successful : CampaginState.Active */\n    tag_282:\n        /* \"contracts/CrowdFunding.sol\":1614:1619  state */\n      0x04\n      0x15\n        /* \"contracts/CrowdFunding.sol\":1614:1701  state = address(this).balance >= goal ? CampaginState.Successful : CampaginState.Active */\n      0x0100\n      exp\n      dup2\n      sload\n      dup2\n      0xff\n      mul\n      not\n      and\n      swap1\n      dup4\n      0x02\n      dup2\n      gt\n      iszero\n      tag_283\n      jumpi\n      tag_284\n      tag_131\n      jump\t// in\n    tag_284:\n    tag_283:\n      mul\n      or\n      swap1\n      sstore\n      pop\n        /* \"contracts/CrowdFunding.sol\":1443:1720  if (block.timestamp >= deadline) {... */\n    tag_280:\n        /* \"contracts/CrowdFunding.sol\":1390:1734  if (state == CampaginState.Active) {... */\n    tag_274:\n        /* \"contracts/CrowdFunding.sol\":1328:1744  function checkAndUpdateCampaginState() internal {... */\n      jump\t// out\n    tag_216:\n      pop\n      dup1\n      sload\n      tag_285\n      swap1\n      tag_118\n      jump\t// in\n    tag_285:\n      0x00\n      dup3\n      sstore\n      dup1\n      0x1f\n      lt\n      tag_287\n      jumpi\n      pop\n      jump(tag_286)\n    tag_287:\n      0x1f\n      add\n      0x20\n      swap1\n      div\n      swap1\n      0x00\n      mstore\n      keccak256(0x00, 0x20)\n      swap1\n      dup2\n      add\n      swap1\n      tag_288\n      swap2\n      swap1\n      tag_289\n      jump\t// in\n    tag_288:\n    tag_286:\n      pop\n      jump\t// out\n    tag_289:\n    tag_290:\n      dup1\n      dup3\n      gt\n      iszero\n      tag_291\n      jumpi\n      0x00\n      dup2\n      0x00\n      swap1\n      sstore\n      pop\n      0x01\n      add\n      jump(tag_290)\n    tag_291:\n      pop\n      swap1\n      jump\t// out\n        /* \"#utility.yul\":7:82   */\n    tag_292:\n        /* \"#utility.yul\":40:46   */\n      0x00\n        /* \"#utility.yul\":73:75   */\n      0x40\n        /* \"#utility.yul\":67:76   */\n      mload\n        /* \"#utility.yul\":57:76   */\n      swap1\n      pop\n        /* \"#utility.yul\":7:82   */\n      swap1\n      jump\t// out\n        /* \"#utility.yul\":88:205   */\n    tag_293:\n        /* \"#utility.yul\":197:198   */\n      0x00\n        /* \"#utility.yul\":194:195   */\n      0x00\n        /* \"#utility.yul\":187:199   */\n      revert\n        /* \"#utility.yul\":211:328   */\n    tag_294:\n        /* \"#utility.yul\":320:321   */\n      0x00\n        /* \"#utility.yul\":317:318   */\n      0x00\n        /* \"#utility.yul\":310:322   */\n      revert\n        /* \"#utility.yul\":334:411   */\n    tag_295:\n        /* \"#utility.yul\":371:378   */\n      0x00\n        /* \"#utility.yul\":400:405   */\n      dup2\n        /* \"#utility.yul\":389:405   */\n      swap1\n      pop\n        /* \"#utility.yul\":334:411   */\n      swap2\n      swap1\n      pop\n      jump\t// out\n        /* \"#utility.yul\":417:539   */\n    tag_296:\n        /* \"#utility.yul\":490:514   */\n      tag_380\n        /* \"#utility.yul\":508:513   */\n      dup2\n        /* \"#utility.yul\":490:514   */\n      tag_295\n      jump\t// in\n    tag_380:\n        /* \"#utility.yul\":483:488   */\n      dup2\n        /* \"#utility.yul\":480:515   */\n      eq\n        /* \"#utility.yul\":470:533   */\n      tag_381\n      jumpi\n        /* \"#utility.yul\":529:530   */\n      0x00\n        /* \"#utility.yul\":526:527   */\n      0x00\n        /* \"#utility.yul\":519:531   */\n      revert\n        /* \"#utility.yul\":470:533   */\n    tag_381:\n        /* \"#utility.yul\":417:539   */\n      pop\n      jump\t// out\n        /* \"#utility.yul\":545:684   */\n    tag_297:\n        /* \"#utility.yul\":591:596   */\n      0x00\n        /* \"#utility.yul\":629:635   */\n      dup2\n        /* \"#utility.yul\":616:636   */\n      calldataload\n        /* \"#utility.yul\":607:636   */\n      swap1\n      pop\n        /* \"#utility.yul\":645:678   */\n      tag_383\n        /* \"#utility.yul\":672:677   */\n      dup2\n        /* \"#utility.yul\":645:678   */\n      tag_296\n      jump\t// in\n    tag_383:\n        /* \"#utility.yul\":545:684   */\n      swap3\n      swap2\n      pop\n      pop\n      jump\t// out\n        /* \"#utility.yul\":690:1019   */\n    tag_28:\n        /* \"#utility.yul\":749:755   */\n      0x00\n        /* \"#utility.yul\":798:800   */\n      0x20\n        /* \"#utility.yul\":786:795   */\n      dup3\n        /* \"#utility.yul\":777:784   */\n      dup5\n        /* \"#utility.yul\":773:796   */\n      sub\n        /* \"#utility.yul\":769:801   */\n      slt\n        /* \"#utility.yul\":766:885   */\n      iszero\n      tag_385\n      jumpi\n        /* \"#utility.yul\":804:883   */\n      tag_386\n      tag_293\n      jump\t// in\n    tag_386:\n        /* \"#utility.yul\":766:885   */\n    tag_385:\n        /* \"#utility.yul\":924:925   */\n      0x00\n        /* \"#utility.yul\":949:1002   */\n      tag_387\n        /* \"#utility.yul\":994:1001   */\n      dup5\n        /* \"#utility.yul\":985:991   */\n      dup3\n        /* \"#utility.yul\":974:983   */\n      dup6\n        /* \"#utility.yul\":970:992   */\n      add\n        /* \"#utility.yul\":949:1002   */\n      tag_297\n      jump\t// in\n    tag_387:\n        /* \"#utility.yul\":939:1002   */\n      swap2\n      pop\n        /* \"#utility.yul\":895:1012   */\n      pop\n        /* \"#utility.yul\":690:1019   */\n      swap3\n      swap2\n      pop\n      pop\n      jump\t// out\n        /* \"#utility.yul\":1025:1124   */\n    tag_298:\n        /* \"#utility.yul\":1077:1083   */\n      0x00\n        /* \"#utility.yul\":1111:1116   */\n      dup2\n        /* \"#utility.yul\":1105:1117   */\n      mload\n        /* \"#utility.yul\":1095:1117   */\n      swap1\n      pop\n        /* \"#utility.yul\":1025:1124   */\n      swap2\n      swap1\n      pop\n      jump\t// out\n        /* \"#utility.yul\":1130:1299   */\n    tag_299:\n        /* \"#utility.yul\":1214:1225   */\n      0x00\n        /* \"#utility.yul\":1248:1254   */\n      dup3\n        /* \"#utility.yul\":1243:1246   */\n      dup3\n        /* \"#utility.yul\":1236:1255   */\n      mstore\n        /* \"#utility.yul\":1288:1292   */\n      0x20\n        /* \"#utility.yul\":1283:1286   */\n      dup3\n        /* \"#utility.yul\":1279:1293   */\n      add\n        /* \"#utility.yul\":1264:1293   */\n      swap1\n      pop\n        /* \"#utility.yul\":1130:1299   */\n      swap3\n      swap2\n      pop\n      pop\n      jump\t// out\n        /* \"#utility.yul\":1305:1444   */\n    tag_300:\n        /* \"#utility.yul\":1394:1400   */\n      dup3\n        /* \"#utility.yul\":1389:1392   */\n      dup2\n        /* \"#utility.yul\":1384:1387   */\n      dup4\n        /* \"#utility.yul\":1378:1401   */\n      mcopy\n        /* \"#utility.yul\":1435:1436   */\n      0x00\n        /* \"#utility.yul\":1426:1432   */\n      dup4\n        /* \"#utility.yul\":1421:1424   */\n      dup4\n        /* \"#utility.yul\":1417:1433   */\n      add\n        /* \"#utility.yul\":1410:1437   */\n      mstore\n        /* \"#utility.yul\":1305:1444   */\n      pop\n      pop\n      pop\n      jump\t// out\n        /* \"#utility.yul\":1450:1552   */\n    tag_301:\n        /* \"#utility.yul\":1491:1497   */\n      0x00\n        /* \"#utility.yul\":1542:1544   */\n      0x1f\n        /* \"#utility.yul\":1538:1545   */\n      not\n        /* \"#utility.yul\":1533:1535   */\n      0x1f\n        /* \"#utility.yul\":1526:1531   */\n      dup4\n        /* \"#utility.yul\":1522:1536   */\n      add\n        /* \"#utility.yul\":1518:1546   */\n      and\n        /* \"#utility.yul\":1508:1546   */\n      swap1\n      pop\n        /* \"#utility.yul\":1450:1552   */\n      swap2\n      swap1\n      pop\n      jump\t// out\n        /* \"#utility.yul\":1558:1935   */\n    tag_302:\n        /* \"#utility.yul\":1646:1649   */\n      0x00\n        /* \"#utility.yul\":1674:1713   */\n      tag_393\n        /* \"#utility.yul\":1707:1712   */\n      dup3\n        /* \"#utility.yul\":1674:1713   */\n      tag_298\n      jump\t// in\n    tag_393:\n        /* \"#utility.yul\":1729:1800   */\n      tag_394\n        /* \"#utility.yul\":1793:1799   */\n      dup2\n        /* \"#utility.yul\":1788:1791   */\n      dup6\n        /* \"#utility.yul\":1729:1800   */\n      tag_299\n      jump\t// in\n    tag_394:\n        /* \"#utility.yul\":1722:1800   */\n      swap4\n      pop\n        /* \"#utility.yul\":1809:1874   */\n      tag_395\n        /* \"#utility.yul\":1867:1873   */\n      dup2\n        /* \"#utility.yul\":1862:1865   */\n      dup6\n        /* \"#utility.yul\":1855:1859   */\n      0x20\n        /* \"#utility.yul\":1848:1853   */\n      dup7\n        /* \"#utility.yul\":1844:1860   */\n      add\n        /* \"#utility.yul\":1809:1874   */\n      tag_300\n      jump\t// in\n    tag_395:\n        /* \"#utility.yul\":1899:1928   */\n      tag_396\n        /* \"#utility.yul\":1921:1927   */\n      dup2\n        /* \"#utility.yul\":1899:1928   */\n      tag_301\n      jump\t// in\n    tag_396:\n        /* \"#utility.yul\":1894:1897   */\n      dup5\n        /* \"#utility.yul\":1890:1929   */\n      add\n        /* \"#utility.yul\":1883:1929   */\n      swap2\n      pop\n        /* \"#utility.yul\":1650:1935   */\n      pop\n        /* \"#utility.yul\":1558:1935   */\n      swap3\n      swap2\n      pop\n      pop\n      jump\t// out\n        /* \"#utility.yul\":1941:2059   */\n    tag_303:\n        /* \"#utility.yul\":2028:2052   */\n      tag_398\n        /* \"#utility.yul\":2046:2051   */\n      dup2\n        /* \"#utility.yul\":2028:2052   */\n      tag_295\n      jump\t// in\n    tag_398:\n        /* \"#utility.yul\":2023:2026   */\n      dup3\n        /* \"#utility.yul\":2016:2053   */\n      mstore\n        /* \"#utility.yul\":1941:2059   */\n      pop\n      pop\n      jump\t// out\n        /* \"#utility.yul\":2065:2598   */\n    tag_31:\n        /* \"#utility.yul\":2234:2238   */\n      0x00\n        /* \"#utility.yul\":2272:2274   */\n      0x60\n        /* \"#utility.yul\":2261:2270   */\n      dup3\n        /* \"#utility.yul\":2257:2275   */\n      add\n        /* \"#utility.yul\":2249:2275   */\n      swap1\n      pop\n        /* \"#utility.yul\":2321:2330   */\n      dup2\n        /* \"#utility.yul\":2315:2319   */\n      dup2\n        /* \"#utility.yul\":2311:2331   */\n      sub\n        /* \"#utility.yul\":2307:2308   */\n      0x00\n        /* \"#utility.yul\":2296:2305   */\n      dup4\n        /* \"#utility.yul\":2292:2309   */\n      add\n        /* \"#utility.yul\":2285:2332   */\n      mstore\n        /* \"#utility.yul\":2349:2427   */\n      tag_400\n        /* \"#utility.yul\":2422:2426   */\n      dup2\n        /* \"#utility.yul\":2413:2419   */\n      dup7\n        /* \"#utility.yul\":2349:2427   */\n      tag_302\n      jump\t// in\n    tag_400:\n        /* \"#utility.yul\":2341:2427   */\n      swap1\n      pop\n        /* \"#utility.yul\":2437:2509   */\n      tag_401\n        /* \"#utility.yul\":2505:2507   */\n      0x20\n        /* \"#utility.yul\":2494:2503   */\n      dup4\n        /* \"#utility.yul\":2490:2508   */\n      add\n        /* \"#utility.yul\":2481:2487   */\n      dup6\n        /* \"#utility.yul\":2437:2509   */\n      tag_303\n      jump\t// in\n    tag_401:\n        /* \"#utility.yul\":2519:2591   */\n      tag_402\n        /* \"#utility.yul\":2587:2589   */\n      0x40\n        /* \"#utility.yul\":2576:2585   */\n      dup4\n        /* \"#utility.yul\":2572:2590   */\n      add\n        /* \"#utility.yul\":2563:2569   */\n      dup5\n        /* \"#utility.yul\":2519:2591   */\n      tag_303\n      jump\t// in\n    tag_402:\n        /* \"#utility.yul\":2065:2598   */\n      swap5\n      swap4\n      pop\n      pop\n      pop\n      pop\n      jump\t// out\n        /* \"#utility.yul\":2604:2917   */\n    tag_36:\n        /* \"#utility.yul\":2717:2721   */\n      0x00\n        /* \"#utility.yul\":2755:2757   */\n      0x20\n        /* \"#utility.yul\":2744:2753   */\n      dup3\n        /* \"#utility.yul\":2740:2758   */\n      add\n        /* \"#utility.yul\":2732:2758   */\n      swap1\n      pop\n        /* \"#utility.yul\":2804:2813   */\n      dup2\n        /* \"#utility.yul\":2798:2802   */\n      dup2\n        /* \"#utility.yul\":2794:2814   */\n      sub\n        /* \"#utility.yul\":2790:2791   */\n      0x00\n        /* \"#utility.yul\":2779:2788   */\n      dup4\n        /* \"#utility.yul\":2775:2792   */\n      add\n        /* \"#utility.yul\":2768:2815   */\n      mstore\n        /* \"#utility.yul\":2832:2910   */\n      tag_404\n        /* \"#utility.yul\":2905:2909   */\n      dup2\n        /* \"#utility.yul\":2896:2902   */\n      dup5\n        /* \"#utility.yul\":2832:2910   */\n      tag_302\n      jump\t// in\n    tag_404:\n        /* \"#utility.yul\":2824:2910   */\n      swap1\n      pop\n        /* \"#utility.yul\":2604:2917   */\n      swap3\n      swap2\n      pop\n      pop\n      jump\t// out\n        /* \"#utility.yul\":2923:3103   */\n    tag_131:\n        /* \"#utility.yul\":2971:3048   */\n      0x4e487b7100000000000000000000000000000000000000000000000000000000\n        /* \"#utility.yul\":2968:2969   */\n      0x00\n        /* \"#utility.yul\":2961:3049   */\n      mstore\n        /* \"#utility.yul\":3068:3072   */\n      0x21\n        /* \"#utility.yul\":3065:3066   */\n      0x04\n        /* \"#utility.yul\":3058:3073   */\n      mstore\n        /* \"#utility.yul\":3092:3096   */\n      0x24\n        /* \"#utility.yul\":3089:3090   */\n      0x00\n        /* \"#utility.yul\":3082:3097   */\n      revert\n        /* \"#utility.yul\":3109:3230   */\n    tag_304:\n        /* \"#utility.yul\":3198:3199   */\n      0x03\n        /* \"#utility.yul\":3191:3196   */\n      dup2\n        /* \"#utility.yul\":3188:3200   */\n      lt\n        /* \"#utility.yul\":3178:3224   */\n      tag_407\n      jumpi\n        /* \"#utility.yul\":3204:3222   */\n      tag_408\n      tag_131\n      jump\t// in\n    tag_408:\n        /* \"#utility.yul\":3178:3224   */\n    tag_407:\n        /* \"#utility.yul\":3109:3230   */\n      pop\n      jump\t// out\n        /* \"#utility.yul\":3236:3379   */\n    tag_305:\n        /* \"#utility.yul\":3289:3296   */\n      0x00\n        /* \"#utility.yul\":3318:3323   */\n      dup2\n        /* \"#utility.yul\":3307:3323   */\n      swap1\n      pop\n        /* \"#utility.yul\":3324:3373   */\n      tag_410\n        /* \"#utility.yul\":3367:3372   */\n      dup3\n        /* \"#utility.yul\":3324:3373   */\n      tag_304\n      jump\t// in\n    tag_410:\n        /* \"#utility.yul\":3236:3379   */\n      swap2\n      swap1\n      pop\n      jump\t// out\n        /* \"#utility.yul\":3385:3528   */\n    tag_306:\n        /* \"#utility.yul\":3449:3458   */\n      0x00\n        /* \"#utility.yul\":3482:3522   */\n      tag_412\n        /* \"#utility.yul\":3516:3521   */\n      dup3\n        /* \"#utility.yul\":3482:3522   */\n      tag_305\n      jump\t// in\n    tag_412:\n        /* \"#utility.yul\":3469:3522   */\n      swap1\n      pop\n        /* \"#utility.yul\":3385:3528   */\n      swap2\n      swap1\n      pop\n      jump\t// out\n        /* \"#utility.yul\":3534:3693   */\n    tag_307:\n        /* \"#utility.yul\":3635:3686   */\n      tag_414\n        /* \"#utility.yul\":3680:3685   */\n      dup2\n        /* \"#utility.yul\":3635:3686   */\n      tag_306\n      jump\t// in\n    tag_414:\n        /* \"#utility.yul\":3630:3633   */\n      dup3\n        /* \"#utility.yul\":3623:3687   */\n      mstore\n        /* \"#utility.yul\":3534:3693   */\n      pop\n      pop\n      jump\t// out\n        /* \"#utility.yul\":3699:3949   */\n    tag_41:\n        /* \"#utility.yul\":3806:3810   */\n      0x00\n        /* \"#utility.yul\":3844:3846   */\n      0x20\n        /* \"#utility.yul\":3833:3842   */\n      dup3\n        /* \"#utility.yul\":3829:3847   */\n      add\n        /* \"#utility.yul\":3821:3847   */\n      swap1\n      pop\n        /* \"#utility.yul\":3857:3942   */\n      tag_416\n        /* \"#utility.yul\":3939:3940   */\n      0x00\n        /* \"#utility.yul\":3928:3937   */\n      dup4\n        /* \"#utility.yul\":3924:3941   */\n      add\n        /* \"#utility.yul\":3915:3921   */\n      dup5\n        /* \"#utility.yul\":3857:3942   */\n      tag_307\n      jump\t// in\n    tag_416:\n        /* \"#utility.yul\":3699:3949   */\n      swap3\n      swap2\n      pop\n      pop\n      jump\t// out\n        /* \"#utility.yul\":3955:4177   */\n    tag_46:\n        /* \"#utility.yul\":4048:4052   */\n      0x00\n        /* \"#utility.yul\":4086:4088   */\n      0x20\n        /* \"#utility.yul\":4075:4084   */\n      dup3\n        /* \"#utility.yul\":4071:4089   */\n      add\n        /* \"#utility.yul\":4063:4089   */\n      swap1\n      pop\n        /* \"#utility.yul\":4099:4170   */\n      tag_418\n        /* \"#utility.yul\":4167:4168   */\n      0x00\n        /* \"#utility.yul\":4156:4165   */\n      dup4\n        /* \"#utility.yul\":4152:4169   */\n      add\n        /* \"#utility.yul\":4143:4149   */\n      dup5\n        /* \"#utility.yul\":4099:4170   */\n      tag_303\n      jump\t// in\n    tag_418:\n        /* \"#utility.yul\":3955:4177   */\n      swap3\n      swap2\n      pop\n      pop\n      jump\t// out\n        /* \"#utility.yul\":4183:4273   */\n    tag_308:\n        /* \"#utility.yul\":4217:4224   */\n      0x00\n        /* \"#utility.yul\":4260:4265   */\n      dup2\n        /* \"#utility.yul\":4253:4266   */\n      iszero\n        /* \"#utility.yul\":4246:4267   */\n      iszero\n        /* \"#utility.yul\":4235:4267   */\n      swap1\n      pop\n        /* \"#utility.yul\":4183:4273   */\n      swap2\n      swap1\n      pop\n      jump\t// out\n        /* \"#utility.yul\":4279:4388   */\n    tag_309:\n        /* \"#utility.yul\":4360:4381   */\n      tag_421\n        /* \"#utility.yul\":4375:4380   */\n      dup2\n        /* \"#utility.yul\":4360:4381   */\n      tag_308\n      jump\t// in\n    tag_421:\n        /* \"#utility.yul\":4355:4358   */\n      dup3\n        /* \"#utility.yul\":4348:4382   */\n      mstore\n        /* \"#utility.yul\":4279:4388   */\n      pop\n      pop\n      jump\t// out\n        /* \"#utility.yul\":4394:4604   */\n    tag_65:\n        /* \"#utility.yul\":4481:4485   */\n      0x00\n        /* \"#utility.yul\":4519:4521   */\n      0x20\n        /* \"#utility.yul\":4508:4517   */\n      dup3\n        /* \"#utility.yul\":4504:4522   */\n      add\n        /* \"#utility.yul\":4496:4522   */\n      swap1\n      pop\n        /* \"#utility.yul\":4532:4597   */\n      tag_423\n        /* \"#utility.yul\":4594:4595   */\n      0x00\n        /* \"#utility.yul\":4583:4592   */\n      dup4\n        /* \"#utility.yul\":4579:4596   */\n      add\n        /* \"#utility.yul\":4570:4576   */\n      dup5\n        /* \"#utility.yul\":4532:4597   */\n      tag_309\n      jump\t// in\n    tag_423:\n        /* \"#utility.yul\":4394:4604   */\n      swap3\n      swap2\n      pop\n      pop\n      jump\t// out\n        /* \"#utility.yul\":4610:4736   */\n    tag_310:\n        /* \"#utility.yul\":4647:4654   */\n      0x00\n        /* \"#utility.yul\":4687:4729   */\n      0xffffffffffffffffffffffffffffffffffffffff\n        /* \"#utility.yul\":4680:4685   */\n      dup3\n        /* \"#utility.yul\":4676:4730   */\n      and\n        /* \"#utility.yul\":4665:4730   */\n      swap1\n      pop\n        /* \"#utility.yul\":4610:4736   */\n      swap2\n      swap1\n      pop\n      jump\t// out\n        /* \"#utility.yul\":4742:4838   */\n    tag_311:\n        /* \"#utility.yul\":4779:4786   */\n      0x00\n        /* \"#utility.yul\":4808:4832   */\n      tag_426\n        /* \"#utility.yul\":4826:4831   */\n      dup3\n        /* \"#utility.yul\":4808:4832   */\n      tag_310\n      jump\t// in\n    tag_426:\n        /* \"#utility.yul\":4797:4832   */\n      swap1\n      pop\n        /* \"#utility.yul\":4742:4838   */\n      swap2\n      swap1\n      pop\n      jump\t// out\n        /* \"#utility.yul\":4844:4966   */\n    tag_312:\n        /* \"#utility.yul\":4917:4941   */\n      tag_428\n        /* \"#utility.yul\":4935:4940   */\n      dup2\n        /* \"#utility.yul\":4917:4941   */\n      tag_311\n      jump\t// in\n    tag_428:\n        /* \"#utility.yul\":4910:4915   */\n      dup2\n        /* \"#utility.yul\":4907:4942   */\n      eq\n        /* \"#utility.yul\":4897:4960   */\n      tag_429\n      jumpi\n        /* \"#utility.yul\":4956:4957   */\n      0x00\n        /* \"#utility.yul\":4953:4954   */\n      0x00\n        /* \"#utility.yul\":4946:4958   */\n      revert\n        /* \"#utility.yul\":4897:4960   */\n    tag_429:\n        /* \"#utility.yul\":4844:4966   */\n      pop\n      jump\t// out\n        /* \"#utility.yul\":4972:5111   */\n    tag_313:\n        /* \"#utility.yul\":5018:5023   */\n      0x00\n        /* \"#utility.yul\":5056:5062   */\n      dup2\n        /* \"#utility.yul\":5043:5063   */\n      calldataload\n        /* \"#utility.yul\":5034:5063   */\n      swap1\n      pop\n        /* \"#utility.yul\":5072:5105   */\n      tag_431\n        /* \"#utility.yul\":5099:5104   */\n      dup2\n        /* \"#utility.yul\":5072:5105   */\n      tag_312\n      jump\t// in\n    tag_431:\n        /* \"#utility.yul\":4972:5111   */\n      swap3\n      swap2\n      pop\n      pop\n      jump\t// out\n        /* \"#utility.yul\":5117:5591   */\n    tag_81:\n        /* \"#utility.yul\":5185:5191   */\n      0x00\n        /* \"#utility.yul\":5193:5199   */\n      0x00\n        /* \"#utility.yul\":5242:5244   */\n      0x40\n        /* \"#utility.yul\":5230:5239   */\n      dup4\n        /* \"#utility.yul\":5221:5228   */\n      dup6\n        /* \"#utility.yul\":5217:5240   */\n      sub\n        /* \"#utility.yul\":5213:5245   */\n      slt\n        /* \"#utility.yul\":5210:5329   */\n      iszero\n      tag_433\n      jumpi\n        /* \"#utility.yul\":5248:5327   */\n      tag_434\n      tag_293\n      jump\t// in\n    tag_434:\n        /* \"#utility.yul\":5210:5329   */\n    tag_433:\n        /* \"#utility.yul\":5368:5369   */\n      0x00\n        /* \"#utility.yul\":5393:5446   */\n      tag_435\n        /* \"#utility.yul\":5438:5445   */\n      dup6\n        /* \"#utility.yul\":5429:5435   */\n      dup3\n        /* \"#utility.yul\":5418:5427   */\n      dup7\n        /* \"#utility.yul\":5414:5436   */\n      add\n        /* \"#utility.yul\":5393:5446   */\n      tag_313\n      jump\t// in\n    tag_435:\n        /* \"#utility.yul\":5383:5446   */\n      swap3\n      pop\n        /* \"#utility.yul\":5339:5456   */\n      pop\n        /* \"#utility.yul\":5495:5497   */\n      0x20\n        /* \"#utility.yul\":5521:5574   */\n      tag_436\n        /* \"#utility.yul\":5566:5573   */\n      dup6\n        /* \"#utility.yul\":5557:5563   */\n      dup3\n        /* \"#utility.yul\":5546:5555   */\n      dup7\n        /* \"#utility.yul\":5542:5564   */\n      add\n        /* \"#utility.yul\":5521:5574   */\n      tag_297\n      jump\t// in\n    tag_436:\n        /* \"#utility.yul\":5511:5574   */\n      swap2\n      pop\n        /* \"#utility.yul\":5466:5584   */\n      pop\n        /* \"#utility.yul\":5117:5591   */\n      swap3\n      pop\n      swap3\n      swap1\n      pop\n      jump\t// out\n        /* \"#utility.yul\":5597:5715   */\n    tag_314:\n        /* \"#utility.yul\":5684:5708   */\n      tag_438\n        /* \"#utility.yul\":5702:5707   */\n      dup2\n        /* \"#utility.yul\":5684:5708   */\n      tag_311\n      jump\t// in\n    tag_438:\n        /* \"#utility.yul\":5679:5682   */\n      dup3\n        /* \"#utility.yul\":5672:5709   */\n      mstore\n        /* \"#utility.yul\":5597:5715   */\n      pop\n      pop\n      jump\t// out\n        /* \"#utility.yul\":5721:5943   */\n    tag_88:\n        /* \"#utility.yul\":5814:5818   */\n      0x00\n        /* \"#utility.yul\":5852:5854   */\n      0x20\n        /* \"#utility.yul\":5841:5850   */\n      dup3\n        /* \"#utility.yul\":5837:5855   */\n      add\n        /* \"#utility.yul\":5829:5855   */\n      swap1\n      pop\n        /* \"#utility.yul\":5865:5936   */\n      tag_440\n        /* \"#utility.yul\":5933:5934   */\n      0x00\n        /* \"#utility.yul\":5922:5931   */\n      dup4\n        /* \"#utility.yul\":5918:5935   */\n      add\n        /* \"#utility.yul\":5909:5915   */\n      dup5\n        /* \"#utility.yul\":5865:5936   */\n      tag_314\n      jump\t// in\n    tag_440:\n        /* \"#utility.yul\":5721:5943   */\n      swap3\n      swap2\n      pop\n      pop\n      jump\t// out\n        /* \"#utility.yul\":5949:6066   */\n    tag_315:\n        /* \"#utility.yul\":6058:6059   */\n      0x00\n        /* \"#utility.yul\":6055:6056   */\n      0x00\n        /* \"#utility.yul\":6048:6060   */\n      revert\n        /* \"#utility.yul\":6072:6189   */\n    tag_316:\n        /* \"#utility.yul\":6181:6182   */\n      0x00\n        /* \"#utility.yul\":6178:6179   */\n      0x00\n        /* \"#utility.yul\":6171:6183   */\n      revert\n        /* \"#utility.yul\":6195:6375   */\n    tag_317:\n        /* \"#utility.yul\":6243:6320   */\n      0x4e487b7100000000000000000000000000000000000000000000000000000000\n        /* \"#utility.yul\":6240:6241   */\n      0x00\n        /* \"#utility.yul\":6233:6321   */\n      mstore\n        /* \"#utility.yul\":6340:6344   */\n      0x41\n        /* \"#utility.yul\":6337:6338   */\n      0x04\n        /* \"#utility.yul\":6330:6345   */\n      mstore\n        /* \"#utility.yul\":6364:6368   */\n      0x24\n        /* \"#utility.yul\":6361:6362   */\n      0x00\n        /* \"#utility.yul\":6354:6369   */\n      revert\n        /* \"#utility.yul\":6381:6662   */\n    tag_318:\n        /* \"#utility.yul\":6464:6491   */\n      tag_445\n        /* \"#utility.yul\":6486:6490   */\n      dup3\n        /* \"#utility.yul\":6464:6491   */\n      tag_301\n      jump\t// in\n    tag_445:\n        /* \"#utility.yul\":6456:6462   */\n      dup2\n        /* \"#utility.yul\":6452:6492   */\n      add\n        /* \"#utility.yul\":6594:6600   */\n      dup2\n        /* \"#utility.yul\":6582:6592   */\n      dup2\n        /* \"#utility.yul\":6579:6601   */\n      lt\n        /* \"#utility.yul\":6558:6576   */\n      0xffffffffffffffff\n        /* \"#utility.yul\":6546:6556   */\n      dup3\n        /* \"#utility.yul\":6543:6577   */\n      gt\n        /* \"#utility.yul\":6540:6602   */\n      or\n        /* \"#utility.yul\":6537:6625   */\n      iszero\n      tag_446\n      jumpi\n        /* \"#utility.yul\":6605:6623   */\n      tag_447\n      tag_317\n      jump\t// in\n    tag_447:\n        /* \"#utility.yul\":6537:6625   */\n    tag_446:\n        /* \"#utility.yul\":6645:6655   */\n      dup1\n        /* \"#utility.yul\":6641:6643   */\n      0x40\n        /* \"#utility.yul\":6634:6656   */\n      mstore\n        /* \"#utility.yul\":6424:6662   */\n      pop\n        /* \"#utility.yul\":6381:6662   */\n      pop\n      pop\n      jump\t// out\n        /* \"#utility.yul\":6668:6797   */\n    tag_319:\n        /* \"#utility.yul\":6702:6708   */\n      0x00\n        /* \"#utility.yul\":6729:6749   */\n      tag_449\n      tag_292\n      jump\t// in\n    tag_449:\n        /* \"#utility.yul\":6719:6749   */\n      swap1\n      pop\n        /* \"#utility.yul\":6758:6791   */\n      tag_450\n        /* \"#utility.yul\":6786:6790   */\n      dup3\n        /* \"#utility.yul\":6778:6784   */\n      dup3\n        /* \"#utility.yul\":6758:6791   */\n      tag_318\n      jump\t// in\n    tag_450:\n        /* \"#utility.yul\":6668:6797   */\n      swap2\n      swap1\n      pop\n      jump\t// out\n        /* \"#utility.yul\":6803:7111   */\n    tag_320:\n        /* \"#utility.yul\":6865:6869   */\n      0x00\n        /* \"#utility.yul\":6955:6973   */\n      0xffffffffffffffff\n        /* \"#utility.yul\":6947:6953   */\n      dup3\n        /* \"#utility.yul\":6944:6974   */\n      gt\n        /* \"#utility.yul\":6941:6997   */\n      iszero\n      tag_452\n      jumpi\n        /* \"#utility.yul\":6977:6995   */\n      tag_453\n      tag_317\n      jump\t// in\n    tag_453:\n        /* \"#utility.yul\":6941:6997   */\n    tag_452:\n        /* \"#utility.yul\":7015:7044   */\n      tag_454\n        /* \"#utility.yul\":7037:7043   */\n      dup3\n        /* \"#utility.yul\":7015:7044   */\n      tag_301\n      jump\t// in\n    tag_454:\n        /* \"#utility.yul\":7007:7044   */\n      swap1\n      pop\n        /* \"#utility.yul\":7099:7103   */\n      0x20\n        /* \"#utility.yul\":7093:7097   */\n      dup2\n        /* \"#utility.yul\":7089:7104   */\n      add\n        /* \"#utility.yul\":7081:7104   */\n      swap1\n      pop\n        /* \"#utility.yul\":6803:7111   */\n      swap2\n      swap1\n      pop\n      jump\t// out\n        /* \"#utility.yul\":7117:7265   */\n    tag_321:\n        /* \"#utility.yul\":7215:7221   */\n      dup3\n        /* \"#utility.yul\":7210:7213   */\n      dup2\n        /* \"#utility.yul\":7205:7208   */\n      dup4\n        /* \"#utility.yul\":7192:7222   */\n      calldatacopy\n        /* \"#utility.yul\":7256:7257   */\n      0x00\n        /* \"#utility.yul\":7247:7253   */\n      dup4\n        /* \"#utility.yul\":7242:7245   */\n      dup4\n        /* \"#utility.yul\":7238:7254   */\n      add\n        /* \"#utility.yul\":7231:7258   */\n      mstore\n        /* \"#utility.yul\":7117:7265   */\n      pop\n      pop\n      pop\n      jump\t// out\n        /* \"#utility.yul\":7271:7696   */\n    tag_322:\n        /* \"#utility.yul\":7349:7354   */\n      0x00\n        /* \"#utility.yul\":7374:7440   */\n      tag_457\n        /* \"#utility.yul\":7390:7439   */\n      tag_458\n        /* \"#utility.yul\":7432:7438   */\n      dup5\n        /* \"#utility.yul\":7390:7439   */\n      tag_320\n      jump\t// in\n    tag_458:\n        /* \"#utility.yul\":7374:7440   */\n      tag_319\n      jump\t// in\n    tag_457:\n        /* \"#utility.yul\":7365:7440   */\n      swap1\n      pop\n        /* \"#utility.yul\":7463:7469   */\n      dup3\n        /* \"#utility.yul\":7456:7461   */\n      dup2\n        /* \"#utility.yul\":7449:7470   */\n      mstore\n        /* \"#utility.yul\":7501:7505   */\n      0x20\n        /* \"#utility.yul\":7494:7499   */\n      dup2\n        /* \"#utility.yul\":7490:7506   */\n      add\n        /* \"#utility.yul\":7539:7542   */\n      dup5\n        /* \"#utility.yul\":7530:7536   */\n      dup5\n        /* \"#utility.yul\":7525:7528   */\n      dup5\n        /* \"#utility.yul\":7521:7537   */\n      add\n        /* \"#utility.yul\":7518:7543   */\n      gt\n        /* \"#utility.yul\":7515:7627   */\n      iszero\n      tag_459\n      jumpi\n        /* \"#utility.yul\":7546:7625   */\n      tag_460\n      tag_316\n      jump\t// in\n    tag_460:\n        /* \"#utility.yul\":7515:7627   */\n    tag_459:\n        /* \"#utility.yul\":7636:7690   */\n      tag_461\n        /* \"#utility.yul\":7683:7689   */\n      dup5\n        /* \"#utility.yul\":7678:7681   */\n      dup3\n        /* \"#utility.yul\":7673:7676   */\n      dup6\n        /* \"#utility.yul\":7636:7690   */\n      tag_321\n      jump\t// in\n    tag_461:\n        /* \"#utility.yul\":7355:7696   */\n      pop\n        /* \"#utility.yul\":7271:7696   */\n      swap4\n      swap3\n      pop\n      pop\n      pop\n      jump\t// out\n        /* \"#utility.yul\":7716:8056   */\n    tag_323:\n        /* \"#utility.yul\":7772:7777   */\n      0x00\n        /* \"#utility.yul\":7821:7824   */\n      dup3\n        /* \"#utility.yul\":7814:7818   */\n      0x1f\n        /* \"#utility.yul\":7806:7812   */\n      dup4\n        /* \"#utility.yul\":7802:7819   */\n      add\n        /* \"#utility.yul\":7798:7825   */\n      slt\n        /* \"#utility.yul\":7788:7910   */\n      tag_463\n      jumpi\n        /* \"#utility.yul\":7829:7908   */\n      tag_464\n      tag_315\n      jump\t// in\n    tag_464:\n        /* \"#utility.yul\":7788:7910   */\n    tag_463:\n        /* \"#utility.yul\":7946:7952   */\n      dup2\n        /* \"#utility.yul\":7933:7953   */\n      calldataload\n        /* \"#utility.yul\":7971:8050   */\n      tag_465\n        /* \"#utility.yul\":8046:8049   */\n      dup5\n        /* \"#utility.yul\":8038:8044   */\n      dup3\n        /* \"#utility.yul\":8031:8035   */\n      0x20\n        /* \"#utility.yul\":8023:8029   */\n      dup7\n        /* \"#utility.yul\":8019:8036   */\n      add\n        /* \"#utility.yul\":7971:8050   */\n      tag_322\n      jump\t// in\n    tag_465:\n        /* \"#utility.yul\":7962:8050   */\n      swap2\n      pop\n        /* \"#utility.yul\":7778:8056   */\n      pop\n        /* \"#utility.yul\":7716:8056   */\n      swap3\n      swap2\n      pop\n      pop\n      jump\t// out\n        /* \"#utility.yul\":8062:8716   */\n    tag_92:\n        /* \"#utility.yul\":8140:8146   */\n      0x00\n        /* \"#utility.yul\":8148:8154   */\n      0x00\n        /* \"#utility.yul\":8197:8199   */\n      0x40\n        /* \"#utility.yul\":8185:8194   */\n      dup4\n        /* \"#utility.yul\":8176:8183   */\n      dup6\n        /* \"#utility.yul\":8172:8195   */\n      sub\n        /* \"#utility.yul\":8168:8200   */\n      slt\n        /* \"#utility.yul\":8165:8284   */\n      iszero\n      tag_467\n      jumpi\n        /* \"#utility.yul\":8203:8282   */\n      tag_468\n      tag_293\n      jump\t// in\n    tag_468:\n        /* \"#utility.yul\":8165:8284   */\n    tag_467:\n        /* \"#utility.yul\":8351:8352   */\n      0x00\n        /* \"#utility.yul\":8340:8349   */\n      dup4\n        /* \"#utility.yul\":8336:8353   */\n      add\n        /* \"#utility.yul\":8323:8354   */\n      calldataload\n        /* \"#utility.yul\":8381:8399   */\n      0xffffffffffffffff\n        /* \"#utility.yul\":8373:8379   */\n      dup2\n        /* \"#utility.yul\":8370:8400   */\n      gt\n        /* \"#utility.yul\":8367:8484   */\n      iszero\n      tag_469\n      jumpi\n        /* \"#utility.yul\":8403:8482   */\n      tag_470\n      tag_294\n      jump\t// in\n    tag_470:\n        /* \"#utility.yul\":8367:8484   */\n    tag_469:\n        /* \"#utility.yul\":8508:8571   */\n      tag_471\n        /* \"#utility.yul\":8563:8570   */\n      dup6\n        /* \"#utility.yul\":8554:8560   */\n      dup3\n        /* \"#utility.yul\":8543:8552   */\n      dup7\n        /* \"#utility.yul\":8539:8561   */\n      add\n        /* \"#utility.yul\":8508:8571   */\n      tag_323\n      jump\t// in\n    tag_471:\n        /* \"#utility.yul\":8498:8571   */\n      swap3\n      pop\n        /* \"#utility.yul\":8294:8581   */\n      pop\n        /* \"#utility.yul\":8620:8622   */\n      0x20\n        /* \"#utility.yul\":8646:8699   */\n      tag_472\n        /* \"#utility.yul\":8691:8698   */\n      dup6\n        /* \"#utility.yul\":8682:8688   */\n      dup3\n        /* \"#utility.yul\":8671:8680   */\n      dup7\n        /* \"#utility.yul\":8667:8689   */\n      add\n        /* \"#utility.yul\":8646:8699   */\n      tag_297\n      jump\t// in\n    tag_472:\n        /* \"#utility.yul\":8636:8699   */\n      swap2\n      pop\n        /* \"#utility.yul\":8591:8709   */\n      pop\n        /* \"#utility.yul\":8062:8716   */\n      swap3\n      pop\n      swap3\n      swap1\n      pop\n      jump\t// out\n        /* \"#utility.yul\":8722:9051   */\n    tag_97:\n        /* \"#utility.yul\":8781:8787   */\n      0x00\n        /* \"#utility.yul\":8830:8832   */\n      0x20\n        /* \"#utility.yul\":8818:8827   */\n      dup3\n        /* \"#utility.yul\":8809:8816   */\n      dup5\n        /* \"#utility.yul\":8805:8828   */\n      sub\n        /* \"#utility.yul\":8801:8833   */\n      slt\n        /* \"#utility.yul\":8798:8917   */\n      iszero\n      tag_474\n      jumpi\n        /* \"#utility.yul\":8836:8915   */\n      tag_475\n      tag_293\n      jump\t// in\n    tag_475:\n        /* \"#utility.yul\":8798:8917   */\n    tag_474:\n        /* \"#utility.yul\":8956:8957   */\n      0x00\n        /* \"#utility.yul\":8981:9034   */\n      tag_476\n        /* \"#utility.yul\":9026:9033   */\n      dup5\n        /* \"#utility.yul\":9017:9023   */\n      dup3\n        /* \"#utility.yul\":9006:9015   */\n      dup6\n        /* \"#utility.yul\":9002:9024   */\n      add\n        /* \"#utility.yul\":8981:9034   */\n      tag_313\n      jump\t// in\n    tag_476:\n        /* \"#utility.yul\":8971:9034   */\n      swap2\n      pop\n        /* \"#utility.yul\":8927:9044   */\n      pop\n        /* \"#utility.yul\":8722:9051   */\n      swap3\n      swap2\n      pop\n      pop\n      jump\t// out\n        /* \"#utility.yul\":9057:9191   */\n    tag_324:\n        /* \"#utility.yul\":9144:9150   */\n      0x00\n        /* \"#utility.yul\":9178:9183   */\n      dup2\n        /* \"#utility.yul\":9172:9184   */\n      mload\n        /* \"#utility.yul\":9162:9184   */\n      swap1\n      pop\n        /* \"#utility.yul\":9057:9191   */\n      swap2\n      swap1\n      pop\n      jump\t// out\n        /* \"#utility.yul\":9197:9401   */\n    tag_325:\n        /* \"#utility.yul\":9316:9327   */\n      0x00\n        /* \"#utility.yul\":9350:9356   */\n      dup3\n        /* \"#utility.yul\":9345:9348   */\n      dup3\n        /* \"#utility.yul\":9338:9357   */\n      mstore\n        /* \"#utility.yul\":9390:9394   */\n      0x20\n        /* \"#utility.yul\":9385:9388   */\n      dup3\n        /* \"#utility.yul\":9381:9395   */\n      add\n        /* \"#utility.yul\":9366:9395   */\n      swap1\n      pop\n        /* \"#utility.yul\":9197:9401   */\n      swap3\n      swap2\n      pop\n      pop\n      jump\t// out\n        /* \"#utility.yul\":9407:9559   */\n    tag_326:\n        /* \"#utility.yul\":9494:9498   */\n      0x00\n        /* \"#utility.yul\":9517:9520   */\n      dup2\n        /* \"#utility.yul\":9509:9520   */\n      swap1\n      pop\n        /* \"#utility.yul\":9547:9551   */\n      0x20\n        /* \"#utility.yul\":9542:9545   */\n      dup3\n        /* \"#utility.yul\":9538:9552   */\n      add\n        /* \"#utility.yul\":9530:9552   */\n      swap1\n      pop\n        /* \"#utility.yul\":9407:9559   */\n      swap2\n      swap1\n      pop\n      jump\t// out\n        /* \"#utility.yul\":9565:9724   */\n    tag_327:\n        /* \"#utility.yul\":9639:9650   */\n      0x00\n        /* \"#utility.yul\":9673:9679   */\n      dup3\n        /* \"#utility.yul\":9668:9671   */\n      dup3\n        /* \"#utility.yul\":9661:9680   */\n      mstore\n        /* \"#utility.yul\":9713:9717   */\n      0x20\n        /* \"#utility.yul\":9708:9711   */\n      dup3\n        /* \"#utility.yul\":9704:9718   */\n      add\n        /* \"#utility.yul\":9689:9718   */\n      swap1\n      pop\n        /* \"#utility.yul\":9565:9724   */\n      swap3\n      swap2\n      pop\n      pop\n      jump\t// out\n        /* \"#utility.yul\":9730:10087   */\n    tag_328:\n        /* \"#utility.yul\":9808:9811   */\n      0x00\n        /* \"#utility.yul\":9836:9875   */\n      tag_482\n        /* \"#utility.yul\":9869:9874   */\n      dup3\n        /* \"#utility.yul\":9836:9875   */\n      tag_298\n      jump\t// in\n    tag_482:\n        /* \"#utility.yul\":9891:9952   */\n      tag_483\n        /* \"#utility.yul\":9945:9951   */\n      dup2\n        /* \"#utility.yul\":9940:9943   */\n      dup6\n        /* \"#utility.yul\":9891:9952   */\n      tag_327\n      jump\t// in\n    tag_483:\n        /* \"#utility.yul\":9884:9952   */\n      swap4\n      pop\n        /* \"#utility.yul\":9961:10026   */\n      tag_484\n        /* \"#utility.yul\":10019:10025   */\n      dup2\n        /* \"#utility.yul\":10014:10017   */\n      dup6\n        /* \"#utility.yul\":10007:10011   */\n      0x20\n        /* \"#utility.yul\":10000:10005   */\n      dup7\n        /* \"#utility.yul\":9996:10012   */\n      add\n        /* \"#utility.yul\":9961:10026   */\n      tag_300\n      jump\t// in\n    tag_484:\n        /* \"#utility.yul\":10051:10080   */\n      tag_485\n        /* \"#utility.yul\":10073:10079   */\n      dup2\n        /* \"#utility.yul\":10051:10080   */\n      tag_301\n      jump\t// in\n    tag_485:\n        /* \"#utility.yul\":10046:10049   */\n      dup5\n        /* \"#utility.yul\":10042:10081   */\n      add\n        /* \"#utility.yul\":10035:10081   */\n      swap2\n      pop\n        /* \"#utility.yul\":9812:10087   */\n      pop\n        /* \"#utility.yul\":9730:10087   */\n      swap3\n      swap2\n      pop\n      pop\n      jump\t// out\n        /* \"#utility.yul\":10093:10201   */\n    tag_329:\n        /* \"#utility.yul\":10170:10194   */\n      tag_487\n        /* \"#utility.yul\":10188:10193   */\n      dup2\n        /* \"#utility.yul\":10170:10194   */\n      tag_295\n      jump\t// in\n    tag_487:\n        /* \"#utility.yul\":10165:10168   */\n      dup3\n        /* \"#utility.yul\":10158:10195   */\n      mstore\n        /* \"#utility.yul\":10093:10201   */\n      pop\n      pop\n      jump\t// out\n        /* \"#utility.yul\":10267:11032   */\n    tag_330:\n        /* \"#utility.yul\":10366:10369   */\n      0x00\n        /* \"#utility.yul\":10402:10406   */\n      0x60\n        /* \"#utility.yul\":10397:10400   */\n      dup4\n        /* \"#utility.yul\":10393:10407   */\n      add\n        /* \"#utility.yul\":10489:10493   */\n      0x00\n        /* \"#utility.yul\":10482:10487   */\n      dup4\n        /* \"#utility.yul\":10478:10494   */\n      add\n        /* \"#utility.yul\":10472:10495   */\n      mload\n        /* \"#utility.yul\":10542:10545   */\n      dup5\n        /* \"#utility.yul\":10536:10540   */\n      dup3\n        /* \"#utility.yul\":10532:10546   */\n      sub\n        /* \"#utility.yul\":10525:10529   */\n      0x00\n        /* \"#utility.yul\":10520:10523   */\n      dup7\n        /* \"#utility.yul\":10516:10530   */\n      add\n        /* \"#utility.yul\":10509:10547   */\n      mstore\n        /* \"#utility.yul\":10568:10641   */\n      tag_489\n        /* \"#utility.yul\":10636:10640   */\n      dup3\n        /* \"#utility.yul\":10622:10634   */\n      dup3\n        /* \"#utility.yul\":10568:10641   */\n      tag_328\n      jump\t// in\n    tag_489:\n        /* \"#utility.yul\":10560:10641   */\n      swap2\n      pop\n        /* \"#utility.yul\":10417:10652   */\n      pop\n        /* \"#utility.yul\":10736:10740   */\n      0x20\n        /* \"#utility.yul\":10729:10734   */\n      dup4\n        /* \"#utility.yul\":10725:10741   */\n      add\n        /* \"#utility.yul\":10719:10742   */\n      mload\n        /* \"#utility.yul\":10755:10818   */\n      tag_490\n        /* \"#utility.yul\":10812:10816   */\n      0x20\n        /* \"#utility.yul\":10807:10810   */\n      dup7\n        /* \"#utility.yul\":10803:10817   */\n      add\n        /* \"#utility.yul\":10789:10801   */\n      dup3\n        /* \"#utility.yul\":10755:10818   */\n      tag_329\n      jump\t// in\n    tag_490:\n        /* \"#utility.yul\":10662:10828   */\n      pop\n        /* \"#utility.yul\":10913:10917   */\n      0x40\n        /* \"#utility.yul\":10906:10911   */\n      dup4\n        /* \"#utility.yul\":10902:10918   */\n      add\n        /* \"#utility.yul\":10896:10919   */\n      mload\n        /* \"#utility.yul\":10932:10995   */\n      tag_491\n        /* \"#utility.yul\":10989:10993   */\n      0x40\n        /* \"#utility.yul\":10984:10987   */\n      dup7\n        /* \"#utility.yul\":10980:10994   */\n      add\n        /* \"#utility.yul\":10966:10978   */\n      dup3\n        /* \"#utility.yul\":10932:10995   */\n      tag_329\n      jump\t// in\n    tag_491:\n        /* \"#utility.yul\":10838:11005   */\n      pop\n        /* \"#utility.yul\":11022:11026   */\n      dup1\n        /* \"#utility.yul\":11015:11026   */\n      swap2\n      pop\n        /* \"#utility.yul\":10371:11032   */\n      pop\n        /* \"#utility.yul\":10267:11032   */\n      swap3\n      swap2\n      pop\n      pop\n      jump\t// out\n        /* \"#utility.yul\":11038:11274   */\n    tag_331:\n        /* \"#utility.yul\":11147:11157   */\n      0x00\n        /* \"#utility.yul\":11182:11268   */\n      tag_493\n        /* \"#utility.yul\":11264:11267   */\n      dup4\n        /* \"#utility.yul\":11256:11262   */\n      dup4\n        /* \"#utility.yul\":11182:11268   */\n      tag_330\n      jump\t// in\n    tag_493:\n        /* \"#utility.yul\":11168:11268   */\n      swap1\n      pop\n        /* \"#utility.yul\":11038:11274   */\n      swap3\n      swap2\n      pop\n      pop\n      jump\t// out\n        /* \"#utility.yul\":11280:11413   */\n    tag_332:\n        /* \"#utility.yul\":11370:11374   */\n      0x00\n        /* \"#utility.yul\":11402:11406   */\n      0x20\n        /* \"#utility.yul\":11397:11400   */\n      dup3\n        /* \"#utility.yul\":11393:11407   */\n      add\n        /* \"#utility.yul\":11385:11407   */\n      swap1\n      pop\n        /* \"#utility.yul\":11280:11413   */\n      swap2\n      swap1\n      pop\n      jump\t// out\n        /* \"#utility.yul\":11483:12554   */\n    tag_333:\n        /* \"#utility.yul\":11642:11645   */\n      0x00\n        /* \"#utility.yul\":11671:11745   */\n      tag_496\n        /* \"#utility.yul\":11739:11744   */\n      dup3\n        /* \"#utility.yul\":11671:11745   */\n      tag_324\n      jump\t// in\n    tag_496:\n        /* \"#utility.yul\":11761:11867   */\n      tag_497\n        /* \"#utility.yul\":11860:11866   */\n      dup2\n        /* \"#utility.yul\":11855:11858   */\n      dup6\n        /* \"#utility.yul\":11761:11867   */\n      tag_325\n      jump\t// in\n    tag_497:\n        /* \"#utility.yul\":11754:11867   */\n      swap4\n      pop\n        /* \"#utility.yul\":11893:11896   */\n      dup4\n        /* \"#utility.yul\":11938:11942   */\n      0x20\n        /* \"#utility.yul\":11930:11936   */\n      dup3\n        /* \"#utility.yul\":11926:11943   */\n      mul\n        /* \"#utility.yul\":11921:11924   */\n      dup6\n        /* \"#utility.yul\":11917:11944   */\n      add\n        /* \"#utility.yul\":11968:12044   */\n      tag_498\n        /* \"#utility.yul\":12038:12043   */\n      dup6\n        /* \"#utility.yul\":11968:12044   */\n      tag_326\n      jump\t// in\n    tag_498:\n        /* \"#utility.yul\":12067:12074   */\n      dup1\n        /* \"#utility.yul\":12098:12099   */\n      0x00\n        /* \"#utility.yul\":12083:12509   */\n    tag_499:\n        /* \"#utility.yul\":12108:12114   */\n      dup6\n        /* \"#utility.yul\":12105:12106   */\n      dup2\n        /* \"#utility.yul\":12102:12115   */\n      lt\n        /* \"#utility.yul\":12083:12509   */\n      iszero\n      tag_501\n      jumpi\n        /* \"#utility.yul\":12179:12188   */\n      dup5\n        /* \"#utility.yul\":12173:12177   */\n      dup5\n        /* \"#utility.yul\":12169:12189   */\n      sub\n        /* \"#utility.yul\":12164:12167   */\n      dup10\n        /* \"#utility.yul\":12157:12190   */\n      mstore\n        /* \"#utility.yul\":12230:12236   */\n      dup2\n        /* \"#utility.yul\":12224:12237   */\n      mload\n        /* \"#utility.yul\":12258:12362   */\n      tag_502\n        /* \"#utility.yul\":12357:12361   */\n      dup6\n        /* \"#utility.yul\":12342:12355   */\n      dup3\n        /* \"#utility.yul\":12258:12362   */\n      tag_331\n      jump\t// in\n    tag_502:\n        /* \"#utility.yul\":12250:12362   */\n      swap5\n      pop\n        /* \"#utility.yul\":12385:12465   */\n      tag_503\n        /* \"#utility.yul\":12458:12464   */\n      dup4\n        /* \"#utility.yul\":12385:12465   */\n      tag_332\n      jump\t// in\n    tag_503:\n        /* \"#utility.yul\":12375:12465   */\n      swap3\n      pop\n        /* \"#utility.yul\":12494:12498   */\n      0x20\n        /* \"#utility.yul\":12489:12492   */\n      dup11\n        /* \"#utility.yul\":12485:12499   */\n      add\n        /* \"#utility.yul\":12478:12499   */\n      swap10\n      pop\n        /* \"#utility.yul\":12143:12509   */\n      pop\n        /* \"#utility.yul\":12130:12131   */\n      0x01\n        /* \"#utility.yul\":12127:12128   */\n      dup2\n        /* \"#utility.yul\":12123:12132   */\n      add\n        /* \"#utility.yul\":12118:12132   */\n      swap1\n      pop\n        /* \"#utility.yul\":12083:12509   */\n      jump(tag_499)\n    tag_501:\n        /* \"#utility.yul\":12087:12101   */\n      pop\n        /* \"#utility.yul\":12525:12529   */\n      dup3\n        /* \"#utility.yul\":12518:12529   */\n      swap8\n      pop\n        /* \"#utility.yul\":12545:12548   */\n      dup8\n        /* \"#utility.yul\":12538:12548   */\n      swap6\n      pop\n        /* \"#utility.yul\":11647:12554   */\n      pop\n      pop\n      pop\n      pop\n      pop\n        /* \"#utility.yul\":11483:12554   */\n      swap3\n      swap2\n      pop\n      pop\n      jump\t// out\n        /* \"#utility.yul\":12560:13013   */\n    tag_114:\n        /* \"#utility.yul\":12743:12747   */\n      0x00\n        /* \"#utility.yul\":12781:12783   */\n      0x20\n        /* \"#utility.yul\":12770:12779   */\n      dup3\n        /* \"#utility.yul\":12766:12784   */\n      add\n        /* \"#utility.yul\":12758:12784   */\n      swap1\n      pop\n        /* \"#utility.yul\":12830:12839   */\n      dup2\n        /* \"#utility.yul\":12824:12828   */\n      dup2\n        /* \"#utility.yul\":12820:12840   */\n      sub\n        /* \"#utility.yul\":12816:12817   */\n      0x00\n        /* \"#utility.yul\":12805:12814   */\n      dup4\n        /* \"#utility.yul\":12801:12818   */\n      add\n        /* \"#utility.yul\":12794:12841   */\n      mstore\n        /* \"#utility.yul\":12858:13006   */\n      tag_505\n        /* \"#utility.yul\":13001:13005   */\n      dup2\n        /* \"#utility.yul\":12992:12998   */\n      dup5\n        /* \"#utility.yul\":12858:13006   */\n      tag_333\n      jump\t// in\n    tag_505:\n        /* \"#utility.yul\":12850:13006   */\n      swap1\n      pop\n        /* \"#utility.yul\":12560:13013   */\n      swap3\n      swap2\n      pop\n      pop\n      jump\t// out\n        /* \"#utility.yul\":13019:13199   */\n    tag_334:\n        /* \"#utility.yul\":13067:13144   */\n      0x4e487b7100000000000000000000000000000000000000000000000000000000\n        /* \"#utility.yul\":13064:13065   */\n      0x00\n        /* \"#utility.yul\":13057:13145   */\n      mstore\n        /* \"#utility.yul\":13164:13168   */\n      0x22\n        /* \"#utility.yul\":13161:13162   */\n      0x04\n        /* \"#utility.yul\":13154:13169   */\n      mstore\n        /* \"#utility.yul\":13188:13192   */\n      0x24\n        /* \"#utility.yul\":13185:13186   */\n      0x00\n        /* \"#utility.yul\":13178:13193   */\n      revert\n        /* \"#utility.yul\":13205:13525   */\n    tag_118:\n        /* \"#utility.yul\":13249:13255   */\n      0x00\n        /* \"#utility.yul\":13286:13287   */\n      0x02\n        /* \"#utility.yul\":13280:13284   */\n      dup3\n        /* \"#utility.yul\":13276:13288   */\n      div\n        /* \"#utility.yul\":13266:13288   */\n      swap1\n      pop\n        /* \"#utility.yul\":13333:13334   */\n      0x01\n        /* \"#utility.yul\":13327:13331   */\n      dup3\n        /* \"#utility.yul\":13323:13335   */\n      and\n        /* \"#utility.yul\":13354:13372   */\n      dup1\n        /* \"#utility.yul\":13344:13425   */\n      tag_508\n      jumpi\n        /* \"#utility.yul\":13410:13414   */\n      0x7f\n        /* \"#utility.yul\":13402:13408   */\n      dup3\n        /* \"#utility.yul\":13398:13415   */\n      and\n        /* \"#utility.yul\":13388:13415   */\n      swap2\n      pop\n        /* \"#utility.yul\":13344:13425   */\n    tag_508:\n        /* \"#utility.yul\":13472:13474   */\n      0x20\n        /* \"#utility.yul\":13464:13470   */\n      dup3\n        /* \"#utility.yul\":13461:13475   */\n      lt\n        /* \"#utility.yul\":13441:13459   */\n      dup2\n        /* \"#utility.yul\":13438:13476   */\n      sub\n        /* \"#utility.yul\":13435:13519   */\n      tag_509\n      jumpi\n        /* \"#utility.yul\":13491:13509   */\n      tag_510\n      tag_334\n      jump\t// in\n    tag_510:\n        /* \"#utility.yul\":13435:13519   */\n    tag_509:\n        /* \"#utility.yul\":13256:13525   */\n      pop\n        /* \"#utility.yul\":13205:13525   */\n      swap2\n      swap1\n      pop\n      jump\t// out\n        /* \"#utility.yul\":13531:13694   */\n    tag_335:\n        /* \"#utility.yul\":13671:13686   */\n      0x4e6f7420746865206f776e657200000000000000000000000000000000000000\n        /* \"#utility.yul\":13667:13668   */\n      0x00\n        /* \"#utility.yul\":13659:13665   */\n      dup3\n        /* \"#utility.yul\":13655:13669   */\n      add\n        /* \"#utility.yul\":13648:13687   */\n      mstore\n        /* \"#utility.yul\":13531:13694   */\n      pop\n      jump\t// out\n        /* \"#utility.yul\":13700:14066   */\n    tag_336:\n        /* \"#utility.yul\":13842:13845   */\n      0x00\n        /* \"#utility.yul\":13863:13930   */\n      tag_513\n        /* \"#utility.yul\":13927:13929   */\n      0x0d\n        /* \"#utility.yul\":13922:13925   */\n      dup4\n        /* \"#utility.yul\":13863:13930   */\n      tag_299\n      jump\t// in\n    tag_513:\n        /* \"#utility.yul\":13856:13930   */\n      swap2\n      pop\n        /* \"#utility.yul\":13939:14032   */\n      tag_514\n        /* \"#utility.yul\":14028:14031   */\n      dup3\n        /* \"#utility.yul\":13939:14032   */\n      tag_335\n      jump\t// in\n    tag_514:\n        /* \"#utility.yul\":14057:14059   */\n      0x20\n        /* \"#utility.yul\":14052:14055   */\n      dup3\n        /* \"#utility.yul\":14048:14060   */\n      add\n        /* \"#utility.yul\":14041:14060   */\n      swap1\n      pop\n        /* \"#utility.yul\":13700:14066   */\n      swap2\n      swap1\n      pop\n      jump\t// out\n        /* \"#utility.yul\":14072:14491   */\n    tag_141:\n        /* \"#utility.yul\":14238:14242   */\n      0x00\n        /* \"#utility.yul\":14276:14278   */\n      0x20\n        /* \"#utility.yul\":14265:14274   */\n      dup3\n        /* \"#utility.yul\":14261:14279   */\n      add\n        /* \"#utility.yul\":14253:14279   */\n      swap1\n      pop\n        /* \"#utility.yul\":14325:14334   */\n      dup2\n        /* \"#utility.yul\":14319:14323   */\n      dup2\n        /* \"#utility.yul\":14315:14335   */\n      sub\n        /* \"#utility.yul\":14311:14312   */\n      0x00\n        /* \"#utility.yul\":14300:14309   */\n      dup4\n        /* \"#utility.yul\":14296:14313   */\n      add\n        /* \"#utility.yul\":14289:14336   */\n      mstore\n        /* \"#utility.yul\":14353:14484   */\n      tag_516\n        /* \"#utility.yul\":14479:14483   */\n      dup2\n        /* \"#utility.yul\":14353:14484   */\n      tag_336\n      jump\t// in\n    tag_516:\n        /* \"#utility.yul\":14345:14484   */\n      swap1\n      pop\n        /* \"#utility.yul\":14072:14491   */\n      swap2\n      swap1\n      pop\n      jump\t// out\n        /* \"#utility.yul\":14497:14670   */\n    tag_337:\n        /* \"#utility.yul\":14637:14662   */\n      0x43616d706169676e206973206e6f742061637469766520000000000000000000\n        /* \"#utility.yul\":14633:14634   */\n      0x00\n        /* \"#utility.yul\":14625:14631   */\n      dup3\n        /* \"#utility.yul\":14621:14635   */\n      add\n        /* \"#utility.yul\":14614:14663   */\n      mstore\n        /* \"#utility.yul\":14497:14670   */\n      pop\n      jump\t// out\n        /* \"#utility.yul\":14676:15042   */\n    tag_338:\n        /* \"#utility.yul\":14818:14821   */\n      0x00\n        /* \"#utility.yul\":14839:14906   */\n      tag_519\n        /* \"#utility.yul\":14903:14905   */\n      0x17\n        /* \"#utility.yul\":14898:14901   */\n      dup4\n        /* \"#utility.yul\":14839:14906   */\n      tag_299\n      jump\t// in\n    tag_519:\n        /* \"#utility.yul\":14832:14906   */\n      swap2\n      pop\n        /* \"#utility.yul\":14915:15008   */\n      tag_520\n        /* \"#utility.yul\":15004:15007   */\n      dup3\n        /* \"#utility.yul\":14915:15008   */\n      tag_337\n      jump\t// in\n    tag_520:\n        /* \"#utility.yul\":15033:15035   */\n      0x20\n        /* \"#utility.yul\":15028:15031   */\n      dup3\n        /* \"#utility.yul\":15024:15036   */\n      add\n        /* \"#utility.yul\":15017:15036   */\n      swap1\n      pop\n        /* \"#utility.yul\":14676:15042   */\n      swap2\n      swap1\n      pop\n      jump\t// out\n        /* \"#utility.yul\":15048:15467   */\n    tag_149:\n        /* \"#utility.yul\":15214:15218   */\n      0x00\n        /* \"#utility.yul\":15252:15254   */\n      0x20\n        /* \"#utility.yul\":15241:15250   */\n      dup3\n        /* \"#utility.yul\":15237:15255   */\n      add\n        /* \"#utility.yul\":15229:15255   */\n      swap1\n      pop\n        /* \"#utility.yul\":15301:15310   */\n      dup2\n        /* \"#utility.yul\":15295:15299   */\n      dup2\n        /* \"#utility.yul\":15291:15311   */\n      sub\n        /* \"#utility.yul\":15287:15288   */\n      0x00\n        /* \"#utility.yul\":15276:15285   */\n      dup4\n        /* \"#utility.yul\":15272:15289   */\n      add\n        /* \"#utility.yul\":15265:15312   */\n      mstore\n        /* \"#utility.yul\":15329:15460   */\n      tag_522\n        /* \"#utility.yul\":15455:15459   */\n      dup2\n        /* \"#utility.yul\":15329:15460   */\n      tag_338\n      jump\t// in\n    tag_522:\n        /* \"#utility.yul\":15321:15460   */\n      swap1\n      pop\n        /* \"#utility.yul\":15048:15467   */\n      swap2\n      swap1\n      pop\n      jump\t// out\n        /* \"#utility.yul\":15473:15653   */\n    tag_339:\n        /* \"#utility.yul\":15521:15598   */\n      0x4e487b7100000000000000000000000000000000000000000000000000000000\n        /* \"#utility.yul\":15518:15519   */\n      0x00\n        /* \"#utility.yul\":15511:15599   */\n      mstore\n        /* \"#utility.yul\":15618:15622   */\n      0x11\n        /* \"#utility.yul\":15615:15616   */\n      0x04\n        /* \"#utility.yul\":15608:15623   */\n      mstore\n        /* \"#utility.yul\":15642:15646   */\n      0x24\n        /* \"#utility.yul\":15639:15640   */\n      0x00\n        /* \"#utility.yul\":15632:15647   */\n      revert\n        /* \"#utility.yul\":15659:16069   */\n    tag_152:\n        /* \"#utility.yul\":15699:15706   */\n      0x00\n        /* \"#utility.yul\":15722:15742   */\n      tag_525\n        /* \"#utility.yul\":15740:15741   */\n      dup3\n        /* \"#utility.yul\":15722:15742   */\n      tag_295\n      jump\t// in\n    tag_525:\n        /* \"#utility.yul\":15717:15742   */\n      swap2\n      pop\n        /* \"#utility.yul\":15756:15776   */\n      tag_526\n        /* \"#utility.yul\":15774:15775   */\n      dup4\n        /* \"#utility.yul\":15756:15776   */\n      tag_295\n      jump\t// in\n    tag_526:\n        /* \"#utility.yul\":15751:15776   */\n      swap3\n      pop\n        /* \"#utility.yul\":15811:15812   */\n      dup3\n        /* \"#utility.yul\":15808:15809   */\n      dup3\n        /* \"#utility.yul\":15804:15813   */\n      mul\n        /* \"#utility.yul\":15833:15863   */\n      tag_527\n        /* \"#utility.yul\":15851:15862   */\n      dup2\n        /* \"#utility.yul\":15833:15863   */\n      tag_295\n      jump\t// in\n    tag_527:\n        /* \"#utility.yul\":15822:15863   */\n      swap2\n      pop\n        /* \"#utility.yul\":16012:16013   */\n      dup3\n        /* \"#utility.yul\":16003:16010   */\n      dup3\n        /* \"#utility.yul\":15999:16014   */\n      div\n        /* \"#utility.yul\":15996:15997   */\n      dup5\n        /* \"#utility.yul\":15993:16015   */\n      eq\n        /* \"#utility.yul\":15973:15974   */\n      dup4\n        /* \"#utility.yul\":15966:15975   */\n      iszero\n        /* \"#utility.yul\":15946:16029   */\n      or\n        /* \"#utility.yul\":15923:16062   */\n      tag_528\n      jumpi\n        /* \"#utility.yul\":16042:16060   */\n      tag_529\n      tag_339\n      jump\t// in\n    tag_529:\n        /* \"#utility.yul\":15923:16062   */\n    tag_528:\n        /* \"#utility.yul\":15707:16069   */\n      pop\n        /* \"#utility.yul\":15659:16069   */\n      swap3\n      swap2\n      pop\n      pop\n      jump\t// out\n        /* \"#utility.yul\":16075:16266   */\n    tag_154:\n        /* \"#utility.yul\":16115:16118   */\n      0x00\n        /* \"#utility.yul\":16134:16154   */\n      tag_531\n        /* \"#utility.yul\":16152:16153   */\n      dup3\n        /* \"#utility.yul\":16134:16154   */\n      tag_295\n      jump\t// in\n    tag_531:\n        /* \"#utility.yul\":16129:16154   */\n      swap2\n      pop\n        /* \"#utility.yul\":16168:16188   */\n      tag_532\n        /* \"#utility.yul\":16186:16187   */\n      dup4\n        /* \"#utility.yul\":16168:16188   */\n      tag_295\n      jump\t// in\n    tag_532:\n        /* \"#utility.yul\":16163:16188   */\n      swap3\n      pop\n        /* \"#utility.yul\":16211:16212   */\n      dup3\n        /* \"#utility.yul\":16208:16209   */\n      dup3\n        /* \"#utility.yul\":16204:16213   */\n      add\n        /* \"#utility.yul\":16197:16213   */\n      swap1\n      pop\n        /* \"#utility.yul\":16232:16235   */\n      dup1\n        /* \"#utility.yul\":16229:16230   */\n      dup3\n        /* \"#utility.yul\":16226:16236   */\n      gt\n        /* \"#utility.yul\":16223:16259   */\n      iszero\n      tag_533\n      jumpi\n        /* \"#utility.yul\":16239:16257   */\n      tag_534\n      tag_339\n      jump\t// in\n    tag_534:\n        /* \"#utility.yul\":16223:16259   */\n    tag_533:\n        /* \"#utility.yul\":16075:16266   */\n      swap3\n      swap2\n      pop\n      pop\n      jump\t// out\n        /* \"#utility.yul\":16272:16445   */\n    tag_340:\n        /* \"#utility.yul\":16412:16437   */\n      0x43616d706167696e206e6f74207375636365737366756c000000000000000000\n        /* \"#utility.yul\":16408:16409   */\n      0x00\n        /* \"#utility.yul\":16400:16406   */\n      dup3\n        /* \"#utility.yul\":16396:16410   */\n      add\n        /* \"#utility.yul\":16389:16438   */\n      mstore\n        /* \"#utility.yul\":16272:16445   */\n      pop\n      jump\t// out\n        /* \"#utility.yul\":16451:16817   */\n    tag_341:\n        /* \"#utility.yul\":16593:16596   */\n      0x00\n        /* \"#utility.yul\":16614:16681   */\n      tag_537\n        /* \"#utility.yul\":16678:16680   */\n      0x17\n        /* \"#utility.yul\":16673:16676   */\n      dup4\n        /* \"#utility.yul\":16614:16681   */\n      tag_299\n      jump\t// in\n    tag_537:\n        /* \"#utility.yul\":16607:16681   */\n      swap2\n      pop\n        /* \"#utility.yul\":16690:16783   */\n      tag_538\n        /* \"#utility.yul\":16779:16782   */\n      dup3\n        /* \"#utility.yul\":16690:16783   */\n      tag_340\n      jump\t// in\n    tag_538:\n        /* \"#utility.yul\":16808:16810   */\n      0x20\n        /* \"#utility.yul\":16803:16806   */\n      dup3\n        /* \"#utility.yul\":16799:16811   */\n      add\n        /* \"#utility.yul\":16792:16811   */\n      swap1\n      pop\n        /* \"#utility.yul\":16451:16817   */\n      swap2\n      swap1\n      pop\n      jump\t// out\n        /* \"#utility.yul\":16823:17242   */\n    tag_167:\n        /* \"#utility.yul\":16989:16993   */\n      0x00\n        /* \"#utility.yul\":17027:17029   */\n      0x20\n        /* \"#utility.yul\":17016:17025   */\n      dup3\n        /* \"#utility.yul\":17012:17030   */\n      add\n        /* \"#utility.yul\":17004:17030   */\n      swap1\n      pop\n        /* \"#utility.yul\":17076:17085   */\n      dup2\n        /* \"#utility.yul\":17070:17074   */\n      dup2\n        /* \"#utility.yul\":17066:17086   */\n      sub\n        /* \"#utility.yul\":17062:17063   */\n      0x00\n        /* \"#utility.yul\":17051:17060   */\n      dup4\n        /* \"#utility.yul\":17047:17064   */\n      add\n        /* \"#utility.yul\":17040:17087   */\n      mstore\n        /* \"#utility.yul\":17104:17235   */\n      tag_540\n        /* \"#utility.yul\":17230:17234   */\n      dup2\n        /* \"#utility.yul\":17104:17235   */\n      tag_341\n      jump\t// in\n    tag_540:\n        /* \"#utility.yul\":17096:17235   */\n      swap1\n      pop\n        /* \"#utility.yul\":16823:17242   */\n      swap2\n      swap1\n      pop\n      jump\t// out\n        /* \"#utility.yul\":17248:17421   */\n    tag_342:\n        /* \"#utility.yul\":17388:17413   */\n      0x4e6f2062616c616e636520746f2077697468647261772e000000000000000000\n        /* \"#utility.yul\":17384:17385   */\n      0x00\n        /* \"#utility.yul\":17376:17382   */\n      dup3\n        /* \"#utility.yul\":17372:17386   */\n      add\n        /* \"#utility.yul\":17365:17414   */\n      mstore\n        /* \"#utility.yul\":17248:17421   */\n      pop\n      jump\t// out\n        /* \"#utility.yul\":17427:17793   */\n    tag_343:\n        /* \"#utility.yul\":17569:17572   */\n      0x00\n        /* \"#utility.yul\":17590:17657   */\n      tag_543\n        /* \"#utility.yul\":17654:17656   */\n      0x17\n        /* \"#utility.yul\":17649:17652   */\n      dup4\n        /* \"#utility.yul\":17590:17657   */\n      tag_299\n      jump\t// in\n    tag_543:\n        /* \"#utility.yul\":17583:17657   */\n      swap2\n      pop\n        /* \"#utility.yul\":17666:17759   */\n      tag_544\n        /* \"#utility.yul\":17755:17758   */\n      dup3\n        /* \"#utility.yul\":17666:17759   */\n      tag_342\n      jump\t// in\n    tag_544:\n        /* \"#utility.yul\":17784:17786   */\n      0x20\n        /* \"#utility.yul\":17779:17782   */\n      dup3\n        /* \"#utility.yul\":17775:17787   */\n      add\n        /* \"#utility.yul\":17768:17787   */\n      swap1\n      pop\n        /* \"#utility.yul\":17427:17793   */\n      swap2\n      swap1\n      pop\n      jump\t// out\n        /* \"#utility.yul\":17799:18218   */\n    tag_170:\n        /* \"#utility.yul\":17965:17969   */\n      0x00\n        /* \"#utility.yul\":18003:18005   */\n      0x20\n        /* \"#utility.yul\":17992:18001   */\n      dup3\n        /* \"#utility.yul\":17988:18006   */\n      add\n        /* \"#utility.yul\":17980:18006   */\n      swap1\n      pop\n        /* \"#utility.yul\":18052:18061   */\n      dup2\n        /* \"#utility.yul\":18046:18050   */\n      dup2\n        /* \"#utility.yul\":18042:18062   */\n      sub\n        /* \"#utility.yul\":18038:18039   */\n      0x00\n        /* \"#utility.yul\":18027:18036   */\n      dup4\n        /* \"#utility.yul\":18023:18040   */\n      add\n        /* \"#utility.yul\":18016:18063   */\n      mstore\n        /* \"#utility.yul\":18080:18211   */\n      tag_546\n        /* \"#utility.yul\":18206:18210   */\n      dup2\n        /* \"#utility.yul\":18080:18211   */\n      tag_343\n      jump\t// in\n    tag_546:\n        /* \"#utility.yul\":18072:18211   */\n      swap1\n      pop\n        /* \"#utility.yul\":17799:18218   */\n      swap2\n      swap1\n      pop\n      jump\t// out\n        /* \"#utility.yul\":18224:18396   */\n    tag_344:\n        /* \"#utility.yul\":18364:18388   */\n      0x526566756e6473206e6f74207375636365737366756c00000000000000000000\n        /* \"#utility.yul\":18360:18361   */\n      0x00\n        /* \"#utility.yul\":18352:18358   */\n      dup3\n        /* \"#utility.yul\":18348:18362   */\n      add\n        /* \"#utility.yul\":18341:18389   */\n      mstore\n        /* \"#utility.yul\":18224:18396   */\n      pop\n      jump\t// out\n        /* \"#utility.yul\":18402:18768   */\n    tag_345:\n        /* \"#utility.yul\":18544:18547   */\n      0x00\n        /* \"#utility.yul\":18565:18632   */\n      tag_549\n        /* \"#utility.yul\":18629:18631   */\n      0x16\n        /* \"#utility.yul\":18624:18627   */\n      dup4\n        /* \"#utility.yul\":18565:18632   */\n      tag_299\n      jump\t// in\n    tag_549:\n        /* \"#utility.yul\":18558:18632   */\n      swap2\n      pop\n        /* \"#utility.yul\":18641:18734   */\n      tag_550\n        /* \"#utility.yul\":18730:18733   */\n      dup3\n        /* \"#utility.yul\":18641:18734   */\n      tag_344\n      jump\t// in\n    tag_550:\n        /* \"#utility.yul\":18759:18761   */\n      0x20\n        /* \"#utility.yul\":18754:18757   */\n      dup3\n        /* \"#utility.yul\":18750:18762   */\n      add\n        /* \"#utility.yul\":18743:18762   */\n      swap1\n      pop\n        /* \"#utility.yul\":18402:18768   */\n      swap2\n      swap1\n      pop\n      jump\t// out\n        /* \"#utility.yul\":18774:19193   */\n    tag_181:\n        /* \"#utility.yul\":18940:18944   */\n      0x00\n        /* \"#utility.yul\":18978:18980   */\n      0x20\n        /* \"#utility.yul\":18967:18976   */\n      dup3\n        /* \"#utility.yul\":18963:18981   */\n      add\n        /* \"#utility.yul\":18955:18981   */\n      swap1\n      pop\n        /* \"#utility.yul\":19027:19036   */\n      dup2\n        /* \"#utility.yul\":19021:19025   */\n      dup2\n        /* \"#utility.yul\":19017:19037   */\n      sub\n        /* \"#utility.yul\":19013:19014   */\n      0x00\n        /* \"#utility.yul\":19002:19011   */\n      dup4\n        /* \"#utility.yul\":18998:19015   */\n      add\n        /* \"#utility.yul\":18991:19038   */\n      mstore\n        /* \"#utility.yul\":19055:19186   */\n      tag_552\n        /* \"#utility.yul\":19181:19185   */\n      dup2\n        /* \"#utility.yul\":19055:19186   */\n      tag_345\n      jump\t// in\n    tag_552:\n        /* \"#utility.yul\":19047:19186   */\n      swap1\n      pop\n        /* \"#utility.yul\":18774:19193   */\n      swap2\n      swap1\n      pop\n      jump\t// out\n        /* \"#utility.yul\":19199:19373   */\n    tag_346:\n        /* \"#utility.yul\":19339:19365   */\n      0x4e6f20436f6e747275627574696f6e20526566756e6465640000000000000000\n        /* \"#utility.yul\":19335:19336   */\n      0x00\n        /* \"#utility.yul\":19327:19333   */\n      dup3\n        /* \"#utility.yul\":19323:19337   */\n      add\n        /* \"#utility.yul\":19316:19366   */\n      mstore\n        /* \"#utility.yul\":19199:19373   */\n      pop\n      jump\t// out\n        /* \"#utility.yul\":19379:19745   */\n    tag_347:\n        /* \"#utility.yul\":19521:19524   */\n      0x00\n        /* \"#utility.yul\":19542:19609   */\n      tag_555\n        /* \"#utility.yul\":19606:19608   */\n      0x18\n        /* \"#utility.yul\":19601:19604   */\n      dup4\n        /* \"#utility.yul\":19542:19609   */\n      tag_299\n      jump\t// in\n    tag_555:\n        /* \"#utility.yul\":19535:19609   */\n      swap2\n      pop\n        /* \"#utility.yul\":19618:19711   */\n      tag_556\n        /* \"#utility.yul\":19707:19710   */\n      dup3\n        /* \"#utility.yul\":19618:19711   */\n      tag_346\n      jump\t// in\n    tag_556:\n        /* \"#utility.yul\":19736:19738   */\n      0x20\n        /* \"#utility.yul\":19731:19734   */\n      dup3\n        /* \"#utility.yul\":19727:19739   */\n      add\n        /* \"#utility.yul\":19720:19739   */\n      swap1\n      pop\n        /* \"#utility.yul\":19379:19745   */\n      swap2\n      swap1\n      pop\n      jump\t// out\n        /* \"#utility.yul\":19751:20170   */\n    tag_184:\n        /* \"#utility.yul\":19917:19921   */\n      0x00\n        /* \"#utility.yul\":19955:19957   */\n      0x20\n        /* \"#utility.yul\":19944:19953   */\n      dup3\n        /* \"#utility.yul\":19940:19958   */\n      add\n        /* \"#utility.yul\":19932:19958   */\n      swap1\n      pop\n        /* \"#utility.yul\":20004:20013   */\n      dup2\n        /* \"#utility.yul\":19998:20002   */\n      dup2\n        /* \"#utility.yul\":19994:20014   */\n      sub\n        /* \"#utility.yul\":19990:19991   */\n      0x00\n        /* \"#utility.yul\":19979:19988   */\n      dup4\n        /* \"#utility.yul\":19975:19992   */\n      add\n        /* \"#utility.yul\":19968:20015   */\n      mstore\n        /* \"#utility.yul\":20032:20163   */\n      tag_558\n        /* \"#utility.yul\":20158:20162   */\n      dup2\n        /* \"#utility.yul\":20032:20163   */\n      tag_347\n      jump\t// in\n    tag_558:\n        /* \"#utility.yul\":20024:20163   */\n      swap1\n      pop\n        /* \"#utility.yul\":19751:20170   */\n      swap2\n      swap1\n      pop\n      jump\t// out\n        /* \"#utility.yul\":20176:20346   */\n    tag_348:\n        /* \"#utility.yul\":20316:20338   */\n      0x746972657320646f6573206e6f74206578697473000000000000000000000000\n        /* \"#utility.yul\":20312:20313   */\n      0x00\n        /* \"#utility.yul\":20304:20310   */\n      dup3\n        /* \"#utility.yul\":20300:20314   */\n      add\n        /* \"#utility.yul\":20293:20339   */\n      mstore\n        /* \"#utility.yul\":20176:20346   */\n      pop\n      jump\t// out\n        /* \"#utility.yul\":20352:20718   */\n    tag_349:\n        /* \"#utility.yul\":20494:20497   */\n      0x00\n        /* \"#utility.yul\":20515:20582   */\n      tag_561\n        /* \"#utility.yul\":20579:20581   */\n      0x14\n        /* \"#utility.yul\":20574:20577   */\n      dup4\n        /* \"#utility.yul\":20515:20582   */\n      tag_299\n      jump\t// in\n    tag_561:\n        /* \"#utility.yul\":20508:20582   */\n      swap2\n      pop\n        /* \"#utility.yul\":20591:20684   */\n      tag_562\n        /* \"#utility.yul\":20680:20683   */\n      dup3\n        /* \"#utility.yul\":20591:20684   */\n      tag_348\n      jump\t// in\n    tag_562:\n        /* \"#utility.yul\":20709:20711   */\n      0x20\n        /* \"#utility.yul\":20704:20707   */\n      dup3\n        /* \"#utility.yul\":20700:20712   */\n      add\n        /* \"#utility.yul\":20693:20712   */\n      swap1\n      pop\n        /* \"#utility.yul\":20352:20718   */\n      swap2\n      swap1\n      pop\n      jump\t// out\n        /* \"#utility.yul\":20724:21143   */\n    tag_199:\n        /* \"#utility.yul\":20890:20894   */\n      0x00\n        /* \"#utility.yul\":20928:20930   */\n      0x20\n        /* \"#utility.yul\":20917:20926   */\n      dup3\n        /* \"#utility.yul\":20913:20931   */\n      add\n        /* \"#utility.yul\":20905:20931   */\n      swap1\n      pop\n        /* \"#utility.yul\":20977:20986   */\n      dup2\n        /* \"#utility.yul\":20971:20975   */\n      dup2\n        /* \"#utility.yul\":20967:20987   */\n      sub\n        /* \"#utility.yul\":20963:20964   */\n      0x00\n        /* \"#utility.yul\":20952:20961   */\n      dup4\n        /* \"#utility.yul\":20948:20965   */\n      add\n        /* \"#utility.yul\":20941:20988   */\n      mstore\n        /* \"#utility.yul\":21005:21136   */\n      tag_564\n        /* \"#utility.yul\":21131:21135   */\n      dup2\n        /* \"#utility.yul\":21005:21136   */\n      tag_349\n      jump\t// in\n    tag_564:\n        /* \"#utility.yul\":20997:21136   */\n      swap1\n      pop\n        /* \"#utility.yul\":20724:21143   */\n      swap2\n      swap1\n      pop\n      jump\t// out\n        /* \"#utility.yul\":21149:21343   */\n    tag_201:\n        /* \"#utility.yul\":21189:21193   */\n      0x00\n        /* \"#utility.yul\":21209:21229   */\n      tag_566\n        /* \"#utility.yul\":21227:21228   */\n      dup3\n        /* \"#utility.yul\":21209:21229   */\n      tag_295\n      jump\t// in\n    tag_566:\n        /* \"#utility.yul\":21204:21229   */\n      swap2\n      pop\n        /* \"#utility.yul\":21243:21263   */\n      tag_567\n        /* \"#utility.yul\":21261:21262   */\n      dup4\n        /* \"#utility.yul\":21243:21263   */\n      tag_295\n      jump\t// in\n    tag_567:\n        /* \"#utility.yul\":21238:21263   */\n      swap3\n      pop\n        /* \"#utility.yul\":21287:21288   */\n      dup3\n        /* \"#utility.yul\":21284:21285   */\n      dup3\n        /* \"#utility.yul\":21280:21289   */\n      sub\n        /* \"#utility.yul\":21272:21289   */\n      swap1\n      pop\n        /* \"#utility.yul\":21311:21312   */\n      dup2\n        /* \"#utility.yul\":21305:21309   */\n      dup2\n        /* \"#utility.yul\":21302:21313   */\n      gt\n        /* \"#utility.yul\":21299:21336   */\n      iszero\n      tag_568\n      jumpi\n        /* \"#utility.yul\":21316:21334   */\n      tag_569\n      tag_339\n      jump\t// in\n    tag_569:\n        /* \"#utility.yul\":21299:21336   */\n    tag_568:\n        /* \"#utility.yul\":21149:21343   */\n      swap3\n      swap2\n      pop\n      pop\n      jump\t// out\n        /* \"#utility.yul\":21349:21529   */\n    tag_204:\n        /* \"#utility.yul\":21397:21474   */\n      0x4e487b7100000000000000000000000000000000000000000000000000000000\n        /* \"#utility.yul\":21394:21395   */\n      0x00\n        /* \"#utility.yul\":21387:21475   */\n      mstore\n        /* \"#utility.yul\":21494:21498   */\n      0x32\n        /* \"#utility.yul\":21491:21492   */\n      0x04\n        /* \"#utility.yul\":21484:21499   */\n      mstore\n        /* \"#utility.yul\":21518:21522   */\n      0x24\n        /* \"#utility.yul\":21515:21516   */\n      0x00\n        /* \"#utility.yul\":21508:21523   */\n      revert\n        /* \"#utility.yul\":21535:21684   */\n    tag_350:\n        /* \"#utility.yul\":21584:21590   */\n      0x00\n        /* \"#utility.yul\":21618:21623   */\n      dup2\n        /* \"#utility.yul\":21612:21624   */\n      sload\n        /* \"#utility.yul\":21602:21624   */\n      swap1\n      pop\n        /* \"#utility.yul\":21644:21677   */\n      tag_572\n        /* \"#utility.yul\":21670:21676   */\n      dup2\n        /* \"#utility.yul\":21644:21677   */\n      tag_118\n      jump\t// in\n    tag_572:\n        /* \"#utility.yul\":21634:21677   */\n      swap1\n      pop\n        /* \"#utility.yul\":21535:21684   */\n      swap2\n      swap1\n      pop\n      jump\t// out\n        /* \"#utility.yul\":21690:21831   */\n    tag_351:\n        /* \"#utility.yul\":21739:21743   */\n      0x00\n        /* \"#utility.yul\":21762:21765   */\n      dup2\n        /* \"#utility.yul\":21754:21765   */\n      swap1\n      pop\n        /* \"#utility.yul\":21785:21788   */\n      dup2\n        /* \"#utility.yul\":21782:21783   */\n      0x00\n        /* \"#utility.yul\":21775:21789   */\n      mstore\n        /* \"#utility.yul\":21819:21823   */\n      0x20\n        /* \"#utility.yul\":21816:21817   */\n      0x00\n        /* \"#utility.yul\":21806:21824   */\n      keccak256\n        /* \"#utility.yul\":21798:21824   */\n      swap1\n      pop\n        /* \"#utility.yul\":21690:21831   */\n      swap2\n      swap1\n      pop\n      jump\t// out\n        /* \"#utility.yul\":21837:21930   */\n    tag_352:\n        /* \"#utility.yul\":21874:21880   */\n      0x00\n        /* \"#utility.yul\":21921:21923   */\n      0x20\n        /* \"#utility.yul\":21916:21918   */\n      0x1f\n        /* \"#utility.yul\":21909:21914   */\n      dup4\n        /* \"#utility.yul\":21905:21919   */\n      add\n        /* \"#utility.yul\":21901:21924   */\n      div\n        /* \"#utility.yul\":21891:21924   */\n      swap1\n      pop\n        /* \"#utility.yul\":21837:21930   */\n      swap2\n      swap1\n      pop\n      jump\t// out\n        /* \"#utility.yul\":21936:22043   */\n    tag_353:\n        /* \"#utility.yul\":21980:21988   */\n      0x00\n        /* \"#utility.yul\":22030:22035   */\n      dup3\n        /* \"#utility.yul\":22024:22028   */\n      dup3\n        /* \"#utility.yul\":22020:22036   */\n      shl\n        /* \"#utility.yul\":21999:22036   */\n      swap1\n      pop\n        /* \"#utility.yul\":21936:22043   */\n      swap3\n      swap2\n      pop\n      pop\n      jump\t// out\n        /* \"#utility.yul\":22049:22442   */\n    tag_354:\n        /* \"#utility.yul\":22118:22124   */\n      0x00\n        /* \"#utility.yul\":22168:22169   */\n      0x08\n        /* \"#utility.yul\":22156:22166   */\n      dup4\n        /* \"#utility.yul\":22152:22170   */\n      mul\n        /* \"#utility.yul\":22191:22288   */\n      tag_577\n        /* \"#utility.yul\":22221:22287   */\n      0xffffffffffffffffffffffffffffffffffffffffffffffffffffffffffffffff\n        /* \"#utility.yul\":22210:22219   */\n      dup3\n        /* \"#utility.yul\":22191:22288   */\n      tag_353\n      jump\t// in\n    tag_577:\n        /* \"#utility.yul\":22309:22348   */\n      tag_578\n        /* \"#utility.yul\":22339:22347   */\n      dup7\n        /* \"#utility.yul\":22328:22337   */\n      dup4\n        /* \"#utility.yul\":22309:22348   */\n      tag_353\n      jump\t// in\n    tag_578:\n        /* \"#utility.yul\":22297:22348   */\n      swap6\n      pop\n        /* \"#utility.yul\":22381:22385   */\n      dup1\n        /* \"#utility.yul\":22377:22386   */\n      not\n        /* \"#utility.yul\":22370:22375   */\n      dup5\n        /* \"#utility.yul\":22366:22387   */\n      and\n        /* \"#utility.yul\":22357:22387   */\n      swap4\n      pop\n        /* \"#utility.yul\":22430:22434   */\n      dup1\n        /* \"#utility.yul\":22420:22428   */\n      dup7\n        /* \"#utility.yul\":22416:22435   */\n      and\n        /* \"#utility.yul\":22409:22414   */\n      dup5\n        /* \"#utility.yul\":22406:22436   */\n      or\n        /* \"#utility.yul\":22396:22436   */\n      swap3\n      pop\n        /* \"#utility.yul\":22125:22442   */\n      pop\n      pop\n        /* \"#utility.yul\":22049:22442   */\n      swap4\n      swap3\n      pop\n      pop\n      pop\n      jump\t// out\n        /* \"#utility.yul\":22448:22508   */\n    tag_355:\n        /* \"#utility.yul\":22476:22479   */\n      0x00\n        /* \"#utility.yul\":22497:22502   */\n      dup2\n        /* \"#utility.yul\":22490:22502   */\n      swap1\n      pop\n        /* \"#utility.yul\":22448:22508   */\n      swap2\n      swap1\n      pop\n      jump\t// out\n        /* \"#utility.yul\":22514:22656   */\n    tag_356:\n        /* \"#utility.yul\":22564:22573   */\n      0x00\n        /* \"#utility.yul\":22597:22650   */\n      tag_581\n        /* \"#utility.yul\":22615:22649   */\n      tag_582\n        /* \"#utility.yul\":22624:22648   */\n      tag_583\n        /* \"#utility.yul\":22642:22647   */\n      dup5\n        /* \"#utility.yul\":22624:22648   */\n      tag_295\n      jump\t// in\n    tag_583:\n        /* \"#utility.yul\":22615:22649   */\n      tag_355\n      jump\t// in\n    tag_582:\n        /* \"#utility.yul\":22597:22650   */\n      tag_295\n      jump\t// in\n    tag_581:\n        /* \"#utility.yul\":22584:22650   */\n      swap1\n      pop\n        /* \"#utility.yul\":22514:22656   */\n      swap2\n      swap1\n      pop\n      jump\t// out\n        /* \"#utility.yul\":22662:22737   */\n    tag_357:\n        /* \"#utility.yul\":22705:22708   */\n      0x00\n        /* \"#utility.yul\":22726:22731   */\n      dup2\n        /* \"#utility.yul\":22719:22731   */\n      swap1\n      pop\n        /* \"#utility.yul\":22662:22737   */\n      swap2\n      swap1\n      pop\n      jump\t// out\n        /* \"#utility.yul\":22743:23012   */\n    tag_358:\n        /* \"#utility.yul\":22853:22892   */\n      tag_586\n        /* \"#utility.yul\":22884:22891   */\n      dup4\n        /* \"#utility.yul\":22853:22892   */\n      tag_356\n      jump\t// in\n    tag_586:\n        /* \"#utility.yul\":22914:23005   */\n      tag_587\n        /* \"#utility.yul\":22963:23004   */\n      tag_588\n        /* \"#utility.yul\":22987:23003   */\n      dup3\n        /* \"#utility.yul\":22963:23004   */\n      tag_357\n      jump\t// in\n    tag_588:\n        /* \"#utility.yul\":22955:22961   */\n      dup5\n        /* \"#utility.yul\":22948:22952   */\n      dup5\n        /* \"#utility.yul\":22942:22953   */\n      sload\n        /* \"#utility.yul\":22914:23005   */\n      tag_354\n      jump\t// in\n    tag_587:\n        /* \"#utility.yul\":22908:22912   */\n      dup3\n        /* \"#utility.yul\":22901:23006   */\n      sstore\n        /* \"#utility.yul\":22819:23012   */\n      pop\n        /* \"#utility.yul\":22743:23012   */\n      pop\n      pop\n      pop\n      jump\t// out\n        /* \"#utility.yul\":23018:23091   */\n    tag_359:\n        /* \"#utility.yul\":23063:23066   */\n      0x00\n        /* \"#utility.yul\":23084:23085   */\n      0x00\n        /* \"#utility.yul\":23077:23085   */\n      swap1\n      pop\n        /* \"#utility.yul\":23018:23091   */\n      swap1\n      jump\t// out\n        /* \"#utility.yul\":23097:23286   */\n    tag_360:\n        /* \"#utility.yul\":23174:23206   */\n      tag_591\n      tag_359\n      jump\t// in\n    tag_591:\n        /* \"#utility.yul\":23215:23280   */\n      tag_592\n        /* \"#utility.yul\":23273:23279   */\n      dup2\n        /* \"#utility.yul\":23265:23271   */\n      dup5\n        /* \"#utility.yul\":23259:23263   */\n      dup5\n        /* \"#utility.yul\":23215:23280   */\n      tag_358\n      jump\t// in\n    tag_592:\n        /* \"#utility.yul\":23150:23286   */\n      pop\n        /* \"#utility.yul\":23097:23286   */\n      pop\n      pop\n      jump\t// out\n        /* \"#utility.yul\":23292:23478   */\n    tag_361:\n        /* \"#utility.yul\":23352:23472   */\n    tag_594:\n        /* \"#utility.yul\":23369:23372   */\n      dup2\n        /* \"#utility.yul\":23362:23367   */\n      dup2\n        /* \"#utility.yul\":23359:23373   */\n      lt\n        /* \"#utility.yul\":23352:23472   */\n      iszero\n      tag_596\n      jumpi\n        /* \"#utility.yul\":23423:23462   */\n      tag_597\n        /* \"#utility.yul\":23460:23461   */\n      0x00\n        /* \"#utility.yul\":23453:23458   */\n      dup3\n        /* \"#utility.yul\":23423:23462   */\n      tag_360\n      jump\t// in\n    tag_597:\n        /* \"#utility.yul\":23396:23397   */\n      0x01\n        /* \"#utility.yul\":23389:23394   */\n      dup2\n        /* \"#utility.yul\":23385:23398   */\n      add\n        /* \"#utility.yul\":23376:23398   */\n      swap1\n      pop\n        /* \"#utility.yul\":23352:23472   */\n      jump(tag_594)\n    tag_596:\n        /* \"#utility.yul\":23292:23478   */\n      pop\n      pop\n      jump\t// out\n        /* \"#utility.yul\":23484:24027   */\n    tag_362:\n        /* \"#utility.yul\":23585:23587   */\n      0x1f\n        /* \"#utility.yul\":23580:23583   */\n      dup3\n        /* \"#utility.yul\":23577:23588   */\n      gt\n        /* \"#utility.yul\":23574:24020   */\n      iszero\n      tag_599\n      jumpi\n        /* \"#utility.yul\":23619:23657   */\n      tag_600\n        /* \"#utility.yul\":23651:23656   */\n      dup2\n        /* \"#utility.yul\":23619:23657   */\n      tag_351\n      jump\t// in\n    tag_600:\n        /* \"#utility.yul\":23703:23732   */\n      tag_601\n        /* \"#utility.yul\":23721:23731   */\n      dup5\n        /* \"#utility.yul\":23703:23732   */\n      tag_352\n      jump\t// in\n    tag_601:\n        /* \"#utility.yul\":23693:23701   */\n      dup2\n        /* \"#utility.yul\":23689:23733   */\n      add\n        /* \"#utility.yul\":23886:23888   */\n      0x20\n        /* \"#utility.yul\":23874:23884   */\n      dup6\n        /* \"#utility.yul\":23871:23889   */\n      lt\n        /* \"#utility.yul\":23868:23917   */\n      iszero\n      tag_602\n      jumpi\n        /* \"#utility.yul\":23907:23915   */\n      dup2\n        /* \"#utility.yul\":23892:23915   */\n      swap1\n      pop\n        /* \"#utility.yul\":23868:23917   */\n    tag_602:\n        /* \"#utility.yul\":23930:24010   */\n      tag_603\n        /* \"#utility.yul\":23986:24008   */\n      tag_604\n        /* \"#utility.yul\":24004:24007   */\n      dup6\n        /* \"#utility.yul\":23986:24008   */\n      tag_352\n      jump\t// in\n    tag_604:\n        /* \"#utility.yul\":23976:23984   */\n      dup4\n        /* \"#utility.yul\":23972:24009   */\n      add\n        /* \"#utility.yul\":23959:23970   */\n      dup3\n        /* \"#utility.yul\":23930:24010   */\n      tag_361\n      jump\t// in\n    tag_603:\n        /* \"#utility.yul\":23589:24020   */\n      pop\n      pop\n        /* \"#utility.yul\":23574:24020   */\n    tag_599:\n        /* \"#utility.yul\":23484:24027   */\n      pop\n      pop\n      pop\n      jump\t// out\n        /* \"#utility.yul\":24033:24150   */\n    tag_363:\n        /* \"#utility.yul\":24087:24095   */\n      0x00\n        /* \"#utility.yul\":24137:24142   */\n      dup3\n        /* \"#utility.yul\":24131:24135   */\n      dup3\n        /* \"#utility.yul\":24127:24143   */\n      shr\n        /* \"#utility.yul\":24106:24143   */\n      swap1\n      pop\n        /* \"#utility.yul\":24033:24150   */\n      swap3\n      swap2\n      pop\n      pop\n      jump\t// out\n        /* \"#utility.yul\":24156:24325   */\n    tag_364:\n        /* \"#utility.yul\":24200:24206   */\n      0x00\n        /* \"#utility.yul\":24233:24284   */\n      tag_607\n        /* \"#utility.yul\":24281:24282   */\n      0x00\n        /* \"#utility.yul\":24277:24283   */\n      not\n        /* \"#utility.yul\":24269:24274   */\n      dup5\n        /* \"#utility.yul\":24266:24267   */\n      0x08\n        /* \"#utility.yul\":24262:24275   */\n      mul\n        /* \"#utility.yul\":24233:24284   */\n      tag_363\n      jump\t// in\n    tag_607:\n        /* \"#utility.yul\":24229:24285   */\n      not\n        /* \"#utility.yul\":24314:24318   */\n      dup1\n        /* \"#utility.yul\":24308:24312   */\n      dup4\n        /* \"#utility.yul\":24304:24319   */\n      and\n        /* \"#utility.yul\":24294:24319   */\n      swap2\n      pop\n        /* \"#utility.yul\":24207:24325   */\n      pop\n        /* \"#utility.yul\":24156:24325   */\n      swap3\n      swap2\n      pop\n      pop\n      jump\t// out\n        /* \"#utility.yul\":24330:24625   */\n    tag_365:\n        /* \"#utility.yul\":24406:24410   */\n      0x00\n        /* \"#utility.yul\":24552:24581   */\n      tag_609\n        /* \"#utility.yul\":24577:24580   */\n      dup4\n        /* \"#utility.yul\":24571:24575   */\n      dup4\n        /* \"#utility.yul\":24552:24581   */\n      tag_364\n      jump\t// in\n    tag_609:\n        /* \"#utility.yul\":24544:24581   */\n      swap2\n      pop\n        /* \"#utility.yul\":24614:24617   */\n      dup3\n        /* \"#utility.yul\":24611:24612   */\n      0x02\n        /* \"#utility.yul\":24607:24618   */\n      mul\n        /* \"#utility.yul\":24601:24605   */\n      dup3\n        /* \"#utility.yul\":24598:24619   */\n      or\n        /* \"#utility.yul\":24590:24619   */\n      swap1\n      pop\n        /* \"#utility.yul\":24330:24625   */\n      swap3\n      swap2\n      pop\n      pop\n      jump\t// out\n        /* \"#utility.yul\":24630:26081   */\n    tag_210:\n        /* \"#utility.yul\":24741:24744   */\n      dup2\n        /* \"#utility.yul\":24735:24739   */\n      dup2\n        /* \"#utility.yul\":24732:24745   */\n      sub\n        /* \"#utility.yul\":24729:24755   */\n      tag_611\n      jumpi\n        /* \"#utility.yul\":24748:24753   */\n      pop\n      pop\n      jump(tag_610)\n        /* \"#utility.yul\":24729:24755   */\n    tag_611:\n        /* \"#utility.yul\":24779:24813   */\n      tag_612\n        /* \"#utility.yul\":24809:24812   */\n      dup3\n        /* \"#utility.yul\":24779:24813   */\n      tag_350\n      jump\t// in\n    tag_612:\n        /* \"#utility.yul\":24878:24896   */\n      0xffffffffffffffff\n        /* \"#utility.yul\":24870:24876   */\n      dup2\n        /* \"#utility.yul\":24867:24897   */\n      gt\n        /* \"#utility.yul\":24864:24920   */\n      iszero\n      tag_613\n      jumpi\n        /* \"#utility.yul\":24900:24918   */\n      tag_614\n      tag_317\n      jump\t// in\n    tag_614:\n        /* \"#utility.yul\":24864:24920   */\n    tag_613:\n        /* \"#utility.yul\":24944:24982   */\n      tag_615\n        /* \"#utility.yul\":24976:24980   */\n      dup3\n        /* \"#utility.yul\":24970:24981   */\n      sload\n        /* \"#utility.yul\":24944:24982   */\n      tag_118\n      jump\t// in\n    tag_615:\n        /* \"#utility.yul\":25029:25096   */\n      tag_616\n        /* \"#utility.yul\":25089:25095   */\n      dup3\n        /* \"#utility.yul\":25081:25087   */\n      dup3\n        /* \"#utility.yul\":25075:25079   */\n      dup6\n        /* \"#utility.yul\":25029:25096   */\n      tag_362\n      jump\t// in\n    tag_616:\n        /* \"#utility.yul\":25123:25124   */\n      0x00\n        /* \"#utility.yul\":25152:25154   */\n      0x1f\n        /* \"#utility.yul\":25144:25150   */\n      dup4\n        /* \"#utility.yul\":25141:25155   */\n      gt\n        /* \"#utility.yul\":25169:25170   */\n      0x01\n        /* \"#utility.yul\":25164:25836   */\n      dup2\n      eq\n      tag_618\n      jumpi\n        /* \"#utility.yul\":25880:25881   */\n      0x00\n        /* \"#utility.yul\":25897:25903   */\n      dup5\n        /* \"#utility.yul\":25894:25971   */\n      iszero\n      tag_619\n      jumpi\n        /* \"#utility.yul\":25946:25955   */\n      dup3\n        /* \"#utility.yul\":25941:25944   */\n      dup8\n        /* \"#utility.yul\":25937:25956   */\n      add\n        /* \"#utility.yul\":25931:25957   */\n      sload\n        /* \"#utility.yul\":25922:25957   */\n      swap1\n      pop\n        /* \"#utility.yul\":25894:25971   */\n    tag_619:\n        /* \"#utility.yul\":25997:26064   */\n      tag_620\n        /* \"#utility.yul\":26057:26063   */\n      dup6\n        /* \"#utility.yul\":26050:26055   */\n      dup3\n        /* \"#utility.yul\":25997:26064   */\n      tag_365\n      jump\t// in\n    tag_620:\n        /* \"#utility.yul\":25991:25995   */\n      dup7\n        /* \"#utility.yul\":25984:26065   */\n      sstore\n        /* \"#utility.yul\":25853:26075   */\n      pop\n        /* \"#utility.yul\":25134:26075   */\n      jump(tag_617)\n        /* \"#utility.yul\":25164:25836   */\n    tag_618:\n        /* \"#utility.yul\":25216:25220   */\n      0x1f\n        /* \"#utility.yul\":25212:25221   */\n      not\n        /* \"#utility.yul\":25204:25210   */\n      dup5\n        /* \"#utility.yul\":25200:25222   */\n      and\n        /* \"#utility.yul\":25242:25278   */\n      tag_621\n        /* \"#utility.yul\":25274:25277   */\n      dup8\n        /* \"#utility.yul\":25242:25278   */\n      tag_351\n      jump\t// in\n    tag_621:\n        /* \"#utility.yul\":25235:25278   */\n      swap7\n      pop\n        /* \"#utility.yul\":25305:25342   */\n      tag_622\n        /* \"#utility.yul\":25337:25341   */\n      dup7\n        /* \"#utility.yul\":25305:25342   */\n      tag_351\n      jump\t// in\n    tag_622:\n        /* \"#utility.yul\":25364:25365   */\n      0x00\n        /* \"#utility.yul\":25378:25585   */\n    tag_623:\n        /* \"#utility.yul\":25392:25399   */\n      dup3\n        /* \"#utility.yul\":25389:25390   */\n      dup2\n        /* \"#utility.yul\":25386:25400   */\n      lt\n        /* \"#utility.yul\":25378:25585   */\n      iszero\n      tag_625\n      jumpi\n        /* \"#utility.yul\":25471:25480   */\n      dup5\n        /* \"#utility.yul\":25466:25469   */\n      dup10\n        /* \"#utility.yul\":25462:25481   */\n      add\n        /* \"#utility.yul\":25456:25482   */\n      sload\n        /* \"#utility.yul\":25448:25454   */\n      dup3\n        /* \"#utility.yul\":25441:25483   */\n      sstore\n        /* \"#utility.yul\":25522:25523   */\n      0x01\n        /* \"#utility.yul\":25514:25520   */\n      dup3\n        /* \"#utility.yul\":25510:25524   */\n      add\n        /* \"#utility.yul\":25500:25524   */\n      swap2\n      pop\n        /* \"#utility.yul\":25569:25570   */\n      0x01\n        /* \"#utility.yul\":25558:25567   */\n      dup6\n        /* \"#utility.yul\":25554:25571   */\n      add\n        /* \"#utility.yul\":25541:25571   */\n      swap5\n      pop\n        /* \"#utility.yul\":25415:25419   */\n      0x20\n        /* \"#utility.yul\":25412:25413   */\n      dup2\n        /* \"#utility.yul\":25408:25420   */\n      add\n        /* \"#utility.yul\":25403:25420   */\n      swap1\n      pop\n        /* \"#utility.yul\":25378:25585   */\n      jump(tag_623)\n    tag_625:\n        /* \"#utility.yul\":25613:25619   */\n      dup7\n        /* \"#utility.yul\":25604:25611   */\n      dup4\n        /* \"#utility.yul\":25601:25620   */\n      lt\n        /* \"#utility.yul\":25598:25777   */\n      iszero\n      tag_626\n      jumpi\n        /* \"#utility.yul\":25671:25680   */\n      dup5\n        /* \"#utility.yul\":25666:25669   */\n      dup10\n        /* \"#utility.yul\":25662:25681   */\n      add\n        /* \"#utility.yul\":25656:25682   */\n      sload\n        /* \"#utility.yul\":25714:25762   */\n      tag_627\n        /* \"#utility.yul\":25756:25760   */\n      0x1f\n        /* \"#utility.yul\":25748:25754   */\n      dup10\n        /* \"#utility.yul\":25744:25761   */\n      and\n        /* \"#utility.yul\":25733:25742   */\n      dup3\n        /* \"#utility.yul\":25714:25762   */\n      tag_364\n      jump\t// in\n    tag_627:\n        /* \"#utility.yul\":25706:25712   */\n      dup4\n        /* \"#utility.yul\":25699:25763   */\n      sstore\n        /* \"#utility.yul\":25621:25777   */\n      pop\n        /* \"#utility.yul\":25598:25777   */\n    tag_626:\n        /* \"#utility.yul\":25823:25824   */\n      0x01\n        /* \"#utility.yul\":25819:25820   */\n      0x02\n        /* \"#utility.yul\":25811:25817   */\n      dup9\n        /* \"#utility.yul\":25807:25821   */\n      mul\n        /* \"#utility.yul\":25803:25825   */\n      add\n        /* \"#utility.yul\":25797:25801   */\n      dup9\n        /* \"#utility.yul\":25790:25826   */\n      sstore\n        /* \"#utility.yul\":25171:25836   */\n      pop\n      pop\n      pop\n        /* \"#utility.yul\":25134:26075   */\n    tag_617:\n      pop\n        /* \"#utility.yul\":24719:26081   */\n      pop\n      pop\n      pop\n        /* \"#utility.yul\":24630:26081   */\n      pop\n      pop\n    tag_610:\n      jump\t// out\n        /* \"#utility.yul\":26087:26267   */\n    tag_213:\n        /* \"#utility.yul\":26135:26212   */\n      0x4e487b7100000000000000000000000000000000000000000000000000000000\n        /* \"#utility.yul\":26132:26133   */\n      0x00\n        /* \"#utility.yul\":26125:26213   */\n      mstore\n        /* \"#utility.yul\":26232:26236   */\n      0x31\n        /* \"#utility.yul\":26229:26230   */\n      0x04\n        /* \"#utility.yul\":26222:26237   */\n      mstore\n        /* \"#utility.yul\":26256:26260   */\n      0x24\n        /* \"#utility.yul\":26253:26254   */\n      0x00\n        /* \"#utility.yul\":26246:26261   */\n      revert\n        /* \"#utility.yul\":26273:26455   */\n    tag_366:\n        /* \"#utility.yul\":26413:26447   */\n      0x416d6f756e74206d7573742062652067726561746572207468616e207a65726f\n        /* \"#utility.yul\":26409:26410   */\n      0x00\n        /* \"#utility.yul\":26401:26407   */\n      dup3\n        /* \"#utility.yul\":26397:26411   */\n      add\n        /* \"#utility.yul\":26390:26448   */\n      mstore\n        /* \"#utility.yul\":26273:26455   */\n      pop\n      jump\t// out\n        /* \"#utility.yul\":26461:26827   */\n    tag_367:\n        /* \"#utility.yul\":26603:26606   */\n      0x00\n        /* \"#utility.yul\":26624:26691   */\n      tag_631\n        /* \"#utility.yul\":26688:26690   */\n      0x20\n        /* \"#utility.yul\":26683:26686   */\n      dup4\n        /* \"#utility.yul\":26624:26691   */\n      tag_299\n      jump\t// in\n    tag_631:\n        /* \"#utility.yul\":26617:26691   */\n      swap2\n      pop\n        /* \"#utility.yul\":26700:26793   */\n      tag_632\n        /* \"#utility.yul\":26789:26792   */\n      dup3\n        /* \"#utility.yul\":26700:26793   */\n      tag_366\n      jump\t// in\n    tag_632:\n        /* \"#utility.yul\":26818:26820   */\n      0x20\n        /* \"#utility.yul\":26813:26816   */\n      dup3\n        /* \"#utility.yul\":26809:26821   */\n      add\n        /* \"#utility.yul\":26802:26821   */\n      swap1\n      pop\n        /* \"#utility.yul\":26461:26827   */\n      swap2\n      swap1\n      pop\n      jump\t// out\n        /* \"#utility.yul\":26833:27252   */\n    tag_224:\n        /* \"#utility.yul\":26999:27003   */\n      0x00\n        /* \"#utility.yul\":27037:27039   */\n      0x20\n        /* \"#utility.yul\":27026:27035   */\n      dup3\n        /* \"#utility.yul\":27022:27040   */\n      add\n        /* \"#utility.yul\":27014:27040   */\n      swap1\n      pop\n        /* \"#utility.yul\":27086:27095   */\n      dup2\n        /* \"#utility.yul\":27080:27084   */\n      dup2\n        /* \"#utility.yul\":27076:27096   */\n      sub\n        /* \"#utility.yul\":27072:27073   */\n      0x00\n        /* \"#utility.yul\":27061:27070   */\n      dup4\n        /* \"#utility.yul\":27057:27074   */\n      add\n        /* \"#utility.yul\":27050:27097   */\n      mstore\n        /* \"#utility.yul\":27114:27245   */\n      tag_634\n        /* \"#utility.yul\":27240:27244   */\n      dup2\n        /* \"#utility.yul\":27114:27245   */\n      tag_367\n      jump\t// in\n    tag_634:\n        /* \"#utility.yul\":27106:27245   */\n      swap1\n      pop\n        /* \"#utility.yul\":26833:27252   */\n      swap2\n      swap1\n      pop\n      jump\t// out\n        /* \"#utility.yul\":27258:28653   */\n    tag_227:\n        /* \"#utility.yul\":27375:27412   */\n      tag_636\n        /* \"#utility.yul\":27408:27411   */\n      dup3\n        /* \"#utility.yul\":27375:27412   */\n      tag_298\n      jump\t// in\n    tag_636:\n        /* \"#utility.yul\":27477:27495   */\n      0xffffffffffffffff\n        /* \"#utility.yul\":27469:27475   */\n      dup2\n        /* \"#utility.yul\":27466:27496   */\n      gt\n        /* \"#utility.yul\":27463:27519   */\n      iszero\n      tag_637\n      jumpi\n        /* \"#utility.yul\":27499:27517   */\n      tag_638\n      tag_317\n      jump\t// in\n    tag_638:\n        /* \"#utility.yul\":27463:27519   */\n    tag_637:\n        /* \"#utility.yul\":27543:27581   */\n      tag_639\n        /* \"#utility.yul\":27575:27579   */\n      dup3\n        /* \"#utility.yul\":27569:27580   */\n      sload\n        /* \"#utility.yul\":27543:27581   */\n      tag_118\n      jump\t// in\n    tag_639:\n        /* \"#utility.yul\":27628:27695   */\n      tag_640\n        /* \"#utility.yul\":27688:27694   */\n      dup3\n        /* \"#utility.yul\":27680:27686   */\n      dup3\n        /* \"#utility.yul\":27674:27678   */\n      dup6\n        /* \"#utility.yul\":27628:27695   */\n      tag_362\n      jump\t// in\n    tag_640:\n        /* \"#utility.yul\":27722:27723   */\n      0x00\n        /* \"#utility.yul\":27746:27750   */\n      0x20\n        /* \"#utility.yul\":27733:27750   */\n      swap1\n      pop\n        /* \"#utility.yul\":27778:27780   */\n      0x1f\n        /* \"#utility.yul\":27770:27776   */\n      dup4\n        /* \"#utility.yul\":27767:27781   */\n      gt\n        /* \"#utility.yul\":27795:27796   */\n      0x01\n        /* \"#utility.yul\":27790:28408   */\n      dup2\n      eq\n      tag_642\n      jumpi\n        /* \"#utility.yul\":28452:28453   */\n      0x00\n        /* \"#utility.yul\":28469:28475   */\n      dup5\n        /* \"#utility.yul\":28466:28543   */\n      iszero\n      tag_643\n      jumpi\n        /* \"#utility.yul\":28518:28527   */\n      dup3\n        /* \"#utility.yul\":28513:28516   */\n      dup8\n        /* \"#utility.yul\":28509:28528   */\n      add\n        /* \"#utility.yul\":28503:28529   */\n      mload\n        /* \"#utility.yul\":28494:28529   */\n      swap1\n      pop\n        /* \"#utility.yul\":28466:28543   */\n    tag_643:\n        /* \"#utility.yul\":28569:28636   */\n      tag_644\n        /* \"#utility.yul\":28629:28635   */\n      dup6\n        /* \"#utility.yul\":28622:28627   */\n      dup3\n        /* \"#utility.yul\":28569:28636   */\n      tag_365\n      jump\t// in\n    tag_644:\n        /* \"#utility.yul\":28563:28567   */\n      dup7\n        /* \"#utility.yul\":28556:28637   */\n      sstore\n        /* \"#utility.yul\":28425:28647   */\n      pop\n        /* \"#utility.yul\":27760:28647   */\n      jump(tag_641)\n        /* \"#utility.yul\":27790:28408   */\n    tag_642:\n        /* \"#utility.yul\":27842:27846   */\n      0x1f\n        /* \"#utility.yul\":27838:27847   */\n      not\n        /* \"#utility.yul\":27830:27836   */\n      dup5\n        /* \"#utility.yul\":27826:27848   */\n      and\n        /* \"#utility.yul\":27876:27913   */\n      tag_645\n        /* \"#utility.yul\":27908:27912   */\n      dup7\n        /* \"#utility.yul\":27876:27913   */\n      tag_351\n      jump\t// in\n    tag_645:\n        /* \"#utility.yul\":27935:27936   */\n      0x00\n        /* \"#utility.yul\":27949:28157   */\n    tag_646:\n        /* \"#utility.yul\":27963:27970   */\n      dup3\n        /* \"#utility.yul\":27960:27961   */\n      dup2\n        /* \"#utility.yul\":27957:27971   */\n      lt\n        /* \"#utility.yul\":27949:28157   */\n      iszero\n      tag_648\n      jumpi\n        /* \"#utility.yul\":28042:28051   */\n      dup5\n        /* \"#utility.yul\":28037:28040   */\n      dup10\n        /* \"#utility.yul\":28033:28052   */\n      add\n        /* \"#utility.yul\":28027:28053   */\n      mload\n        /* \"#utility.yul\":28019:28025   */\n      dup3\n        /* \"#utility.yul\":28012:28054   */\n      sstore\n        /* \"#utility.yul\":28093:28094   */\n      0x01\n        /* \"#utility.yul\":28085:28091   */\n      dup3\n        /* \"#utility.yul\":28081:28095   */\n      add\n        /* \"#utility.yul\":28071:28095   */\n      swap2\n      pop\n        /* \"#utility.yul\":28140:28142   */\n      0x20\n        /* \"#utility.yul\":28129:28138   */\n      dup6\n        /* \"#utility.yul\":28125:28143   */\n      add\n        /* \"#utility.yul\":28112:28143   */\n      swap5\n      pop\n        /* \"#utility.yul\":27986:27990   */\n      0x20\n        /* \"#utility.yul\":27983:27984   */\n      dup2\n        /* \"#utility.yul\":27979:27991   */\n      add\n        /* \"#utility.yul\":27974:27991   */\n      swap1\n      pop\n        /* \"#utility.yul\":27949:28157   */\n      jump(tag_646)\n    tag_648:\n        /* \"#utility.yul\":28185:28191   */\n      dup7\n        /* \"#utility.yul\":28176:28183   */\n      dup4\n        /* \"#utility.yul\":28173:28192   */\n      lt\n        /* \"#utility.yul\":28170:28349   */\n      iszero\n      tag_649\n      jumpi\n        /* \"#utility.yul\":28243:28252   */\n      dup5\n        /* \"#utility.yul\":28238:28241   */\n      dup10\n        /* \"#utility.yul\":28234:28253   */\n      add\n        /* \"#utility.yul\":28228:28254   */\n      mload\n        /* \"#utility.yul\":28286:28334   */\n      tag_650\n        /* \"#utility.yul\":28328:28332   */\n      0x1f\n        /* \"#utility.yul\":28320:28326   */\n      dup10\n        /* \"#utility.yul\":28316:28333   */\n      and\n        /* \"#utility.yul\":28305:28314   */\n      dup3\n        /* \"#utility.yul\":28286:28334   */\n      tag_364\n      jump\t// in\n    tag_650:\n        /* \"#utility.yul\":28278:28284   */\n      dup4\n        /* \"#utility.yul\":28271:28335   */\n      sstore\n        /* \"#utility.yul\":28193:28349   */\n      pop\n        /* \"#utility.yul\":28170:28349   */\n    tag_649:\n        /* \"#utility.yul\":28395:28396   */\n      0x01\n        /* \"#utility.yul\":28391:28392   */\n      0x02\n        /* \"#utility.yul\":28383:28389   */\n      dup9\n        /* \"#utility.yul\":28379:28393   */\n      mul\n        /* \"#utility.yul\":28375:28397   */\n      add\n        /* \"#utility.yul\":28369:28373   */\n      dup9\n        /* \"#utility.yul\":28362:28398   */\n      sstore\n        /* \"#utility.yul\":27797:28408   */\n      pop\n      pop\n      pop\n        /* \"#utility.yul\":27760:28647   */\n    tag_641:\n      pop\n        /* \"#utility.yul\":27350:28653   */\n      pop\n      pop\n      pop\n        /* \"#utility.yul\":27258:28653   */\n      pop\n      pop\n      jump\t// out\n        /* \"#utility.yul\":28659:28827   */\n    tag_368:\n        /* \"#utility.yul\":28799:28819   */\n      0x436f6e7472616374206973205061737565640000000000000000000000000000\n        /* \"#utility.yul\":28795:28796   */\n      0x00\n        /* \"#utility.yul\":28787:28793   */\n      dup3\n        /* \"#utility.yul\":28783:28797   */\n      add\n        /* \"#utility.yul\":28776:28820   */\n      mstore\n        /* \"#utility.yul\":28659:28827   */\n      pop\n      jump\t// out\n        /* \"#utility.yul\":28833:29199   */\n    tag_369:\n        /* \"#utility.yul\":28975:28978   */\n      0x00\n        /* \"#utility.yul\":28996:29063   */\n      tag_653\n        /* \"#utility.yul\":29060:29062   */\n      0x12\n        /* \"#utility.yul\":29055:29058   */\n      dup4\n        /* \"#utility.yul\":28996:29063   */\n      tag_299\n      jump\t// in\n    tag_653:\n        /* \"#utility.yul\":28989:29063   */\n      swap2\n      pop\n        /* \"#utility.yul\":29072:29165   */\n      tag_654\n        /* \"#utility.yul\":29161:29164   */\n      dup3\n        /* \"#utility.yul\":29072:29165   */\n      tag_368\n      jump\t// in\n    tag_654:\n        /* \"#utility.yul\":29190:29192   */\n      0x20\n        /* \"#utility.yul\":29185:29188   */\n      dup3\n        /* \"#utility.yul\":29181:29193   */\n      add\n        /* \"#utility.yul\":29174:29193   */\n      swap1\n      pop\n        /* \"#utility.yul\":28833:29199   */\n      swap2\n      swap1\n      pop\n      jump\t// out\n        /* \"#utility.yul\":29205:29624   */\n    tag_238:\n        /* \"#utility.yul\":29371:29375   */\n      0x00\n        /* \"#utility.yul\":29409:29411   */\n      0x20\n        /* \"#utility.yul\":29398:29407   */\n      dup3\n        /* \"#utility.yul\":29394:29412   */\n      add\n        /* \"#utility.yul\":29386:29412   */\n      swap1\n      pop\n        /* \"#utility.yul\":29458:29467   */\n      dup2\n        /* \"#utility.yul\":29452:29456   */\n      dup2\n        /* \"#utility.yul\":29448:29468   */\n      sub\n        /* \"#utility.yul\":29444:29445   */\n      0x00\n        /* \"#utility.yul\":29433:29442   */\n      dup4\n        /* \"#utility.yul\":29429:29446   */\n      add\n        /* \"#utility.yul\":29422:29469   */\n      mstore\n        /* \"#utility.yul\":29486:29617   */\n      tag_656\n        /* \"#utility.yul\":29612:29616   */\n      dup2\n        /* \"#utility.yul\":29486:29617   */\n      tag_369\n      jump\t// in\n    tag_656:\n        /* \"#utility.yul\":29478:29617   */\n      swap1\n      pop\n        /* \"#utility.yul\":29205:29624   */\n      swap2\n      swap1\n      pop\n      jump\t// out\n        /* \"#utility.yul\":29630:29800   */\n    tag_370:\n        /* \"#utility.yul\":29770:29792   */\n      0x746965727320646f6573206e6f74206578697473000000000000000000000000\n        /* \"#utility.yul\":29766:29767   */\n      0x00\n        /* \"#utility.yul\":29758:29764   */\n      dup3\n        /* \"#utility.yul\":29754:29768   */\n      add\n        /* \"#utility.yul\":29747:29793   */\n      mstore\n        /* \"#utility.yul\":29630:29800   */\n      pop\n      jump\t// out\n        /* \"#utility.yul\":29806:30172   */\n    tag_371:\n        /* \"#utility.yul\":29948:29951   */\n      0x00\n        /* \"#utility.yul\":29969:30036   */\n      tag_659\n        /* \"#utility.yul\":30033:30035   */\n      0x14\n        /* \"#utility.yul\":30028:30031   */\n      dup4\n        /* \"#utility.yul\":29969:30036   */\n      tag_299\n      jump\t// in\n    tag_659:\n        /* \"#utility.yul\":29962:30036   */\n      swap2\n      pop\n        /* \"#utility.yul\":30045:30138   */\n      tag_660\n        /* \"#utility.yul\":30134:30137   */\n      dup3\n        /* \"#utility.yul\":30045:30138   */\n      tag_370\n      jump\t// in\n    tag_660:\n        /* \"#utility.yul\":30163:30165   */\n      0x20\n        /* \"#utility.yul\":30158:30161   */\n      dup3\n        /* \"#utility.yul\":30154:30166   */\n      add\n        /* \"#utility.yul\":30147:30166   */\n      swap1\n      pop\n        /* \"#utility.yul\":29806:30172   */\n      swap2\n      swap1\n      pop\n      jump\t// out\n        /* \"#utility.yul\":30178:30597   */\n    tag_242:\n        /* \"#utility.yul\":30344:30348   */\n      0x00\n        /* \"#utility.yul\":30382:30384   */\n      0x20\n        /* \"#utility.yul\":30371:30380   */\n      dup3\n        /* \"#utility.yul\":30367:30385   */\n      add\n        /* \"#utility.yul\":30359:30385   */\n      swap1\n      pop\n        /* \"#utility.yul\":30431:30440   */\n      dup2\n        /* \"#utility.yul\":30425:30429   */\n      dup2\n        /* \"#utility.yul\":30421:30441   */\n      sub\n        /* \"#utility.yul\":30417:30418   */\n      0x00\n        /* \"#utility.yul\":30406:30415   */\n      dup4\n        /* \"#utility.yul\":30402:30419   */\n      add\n        /* \"#utility.yul\":30395:30442   */\n      mstore\n        /* \"#utility.yul\":30459:30590   */\n      tag_662\n        /* \"#utility.yul\":30585:30589   */\n      dup2\n        /* \"#utility.yul\":30459:30590   */\n      tag_371\n      jump\t// in\n    tag_662:\n        /* \"#utility.yul\":30451:30590   */\n      swap1\n      pop\n        /* \"#utility.yul\":30178:30597   */\n      swap2\n      swap1\n      pop\n      jump\t// out\n        /* \"#utility.yul\":30603:30769   */\n    tag_372:\n        /* \"#utility.yul\":30743:30761   */\n      0x696e636f727265637420616d6f756e7400000000000000000000000000000000\n        /* \"#utility.yul\":30739:30740   */\n      0x00\n        /* \"#utility.yul\":30731:30737   */\n      dup3\n        /* \"#utility.yul\":30727:30741   */\n      add\n        /* \"#utility.yul\":30720:30762   */\n      mstore\n        /* \"#utility.yul\":30603:30769   */\n      pop\n      jump\t// out\n        /* \"#utility.yul\":30775:31141   */\n    tag_373:\n        /* \"#utility.yul\":30917:30920   */\n      0x00\n        /* \"#utility.yul\":30938:31005   */\n      tag_665\n        /* \"#utility.yul\":31002:31004   */\n      0x10\n        /* \"#utility.yul\":30997:31000   */\n      dup4\n        /* \"#utility.yul\":30938:31005   */\n      tag_299\n      jump\t// in\n    tag_665:\n        /* \"#utility.yul\":30931:31005   */\n      swap2\n      pop\n        /* \"#utility.yul\":31014:31107   */\n      tag_666\n        /* \"#utility.yul\":31103:31106   */\n      dup3\n        /* \"#utility.yul\":31014:31107   */\n      tag_372\n      jump\t// in\n    tag_666:\n        /* \"#utility.yul\":31132:31134   */\n      0x20\n        /* \"#utility.yul\":31127:31130   */\n      dup3\n        /* \"#utility.yul\":31123:31135   */\n      add\n        /* \"#utility.yul\":31116:31135   */\n      swap1\n      pop\n        /* \"#utility.yul\":30775:31141   */\n      swap2\n      swap1\n      pop\n      jump\t// out\n        /* \"#utility.yul\":31147:31566   */\n    tag_248:\n        /* \"#utility.yul\":31313:31317   */\n      0x00\n        /* \"#utility.yul\":31351:31353   */\n      0x20\n        /* \"#utility.yul\":31340:31349   */\n      dup3\n        /* \"#utility.yul\":31336:31354   */\n      add\n        /* \"#utility.yul\":31328:31354   */\n      swap1\n      pop\n        /* \"#utility.yul\":31400:31409   */\n      dup2\n        /* \"#utility.yul\":31394:31398   */\n      dup2\n        /* \"#utility.yul\":31390:31410   */\n      sub\n        /* \"#utility.yul\":31386:31387   */\n      0x00\n        /* \"#utility.yul\":31375:31384   */\n      dup4\n        /* \"#utility.yul\":31371:31388   */\n      add\n        /* \"#utility.yul\":31364:31411   */\n      mstore\n        /* \"#utility.yul\":31428:31559   */\n      tag_668\n        /* \"#utility.yul\":31554:31558   */\n      dup2\n        /* \"#utility.yul\":31428:31559   */\n      tag_373\n      jump\t// in\n    tag_668:\n        /* \"#utility.yul\":31420:31559   */\n      swap1\n      pop\n        /* \"#utility.yul\":31147:31566   */\n      swap2\n      swap1\n      pop\n      jump\t// out\n        /* \"#utility.yul\":31572:31805   */\n    tag_253:\n        /* \"#utility.yul\":31611:31614   */\n      0x00\n        /* \"#utility.yul\":31634:31658   */\n      tag_670\n        /* \"#utility.yul\":31652:31657   */\n      dup3\n        /* \"#utility.yul\":31634:31658   */\n      tag_295\n      jump\t// in\n    tag_670:\n        /* \"#utility.yul\":31625:31658   */\n      swap2\n      pop\n        /* \"#utility.yul\":31680:31746   */\n      0xffffffffffffffffffffffffffffffffffffffffffffffffffffffffffffffff\n        /* \"#utility.yul\":31673:31678   */\n      dup3\n        /* \"#utility.yul\":31670:31747   */\n      sub\n        /* \"#utility.yul\":31667:31770   */\n      tag_671\n      jumpi\n        /* \"#utility.yul\":31750:31768   */\n      tag_672\n      tag_339\n      jump\t// in\n    tag_672:\n        /* \"#utility.yul\":31667:31770   */\n    tag_671:\n        /* \"#utility.yul\":31797:31798   */\n      0x01\n        /* \"#utility.yul\":31790:31795   */\n      dup3\n        /* \"#utility.yul\":31786:31799   */\n      add\n        /* \"#utility.yul\":31779:31799   */\n      swap1\n      pop\n        /* \"#utility.yul\":31572:31805   */\n      swap2\n      swap1\n      pop\n      jump\t// out\n\n    auxdata: 0xa264697066735822122082068f66b52ef7b54f8b735722bdffd64491450af00cca7e0cab345cecaca44d64736f6c634300081e0033\n}\n",
				"bytecode": {
					"linkReferences": {},
					"object": "608060405234801561000f575f5ffd5b50604051612b32380380612b32833981810160405281019061003191906102c5565b835f908161003f919061057b565b50826001908161004f919061057b565b508160028190555062015180816100669190610677565b4261007191906106b8565b6003819055508460045f6101000a81548173ffffffffffffffffffffffffffffffffffffffff021916908373ffffffffffffffffffffffffffffffffffffffff1602179055505f600460156101000a81548160ff021916908360028111156100dc576100db6106eb565b5b02179055505050505050610718565b5f604051905090565b5f5ffd5b5f5ffd5b5f73ffffffffffffffffffffffffffffffffffffffff82169050919050565b5f610125826100fc565b9050919050565b6101358161011b565b811461013f575f5ffd5b50565b5f815190506101508161012c565b92915050565b5f5ffd5b5f5ffd5b5f601f19601f8301169050919050565b7f4e487b71000000000000000000000000000000000000000000000000000000005f52604160045260245ffd5b6101a48261015e565b810181811067ffffffffffffffff821117156101c3576101c261016e565b5b80604052505050565b5f6101d56100eb565b90506101e1828261019b565b919050565b5f67ffffffffffffffff821115610200576101ff61016e565b5b6102098261015e565b9050602081019050919050565b8281835e5f83830152505050565b5f610236610231846101e6565b6101cc565b9050828152602081018484840111156102525761025161015a565b5b61025d848285610216565b509392505050565b5f82601f83011261027957610278610156565b5b8151610289848260208601610224565b91505092915050565b5f819050919050565b6102a481610292565b81146102ae575f5ffd5b50565b5f815190506102bf8161029b565b92915050565b5f5f5f5f5f60a086880312156102de576102dd6100f4565b5b5f6102eb88828901610142565b955050602086015167ffffffffffffffff81111561030c5761030b6100f8565b5b61031888828901610265565b945050604086015167ffffffffffffffff811115610339576103386100f8565b5b61034588828901610265565b9350506060610356888289016102b1565b9250506080610367888289016102b1565b9150509295509295909350565b5f81519050919050565b7f4e487b71000000000000000000000000000000000000000000000000000000005f52602260045260245ffd5b5f60028204905060018216806103c257607f821691505b6020821081036103d5576103d461037e565b5b50919050565b5f819050815f5260205f209050919050565b5f6020601f8301049050919050565b5f82821b905092915050565b5f600883026104377fffffffffffffffffffffffffffffffffffffffffffffffffffffffffffffffff826103fc565b61044186836103fc565b95508019841693508086168417925050509392505050565b5f819050919050565b5f61047c61047761047284610292565b610459565b610292565b9050919050565b5f819050919050565b61049583610462565b6104a96104a182610483565b848454610408565b825550505050565b5f5f905090565b6104c06104b1565b6104cb81848461048c565b505050565b5b818110156104ee576104e35f826104b8565b6001810190506104d1565b5050565b601f82111561053357610504816103db565b61050d846103ed565b8101602085101561051c578190505b610530610528856103ed565b8301826104d0565b50505b505050565b5f82821c905092915050565b5f6105535f1984600802610538565b1980831691505092915050565b5f61056b8383610544565b9150826002028217905092915050565b61058482610374565b67ffffffffffffffff81111561059d5761059c61016e565b5b6105a782546103ab565b6105b28282856104f2565b5f60209050601f8311600181146105e3575f84156105d1578287015190505b6105db8582610560565b865550610642565b601f1984166105f1866103db565b5f5b82811015610618578489015182556001820191506020850194506020810190506105f3565b868310156106355784890151610631601f891682610544565b8355505b6001600288020188555050505b505050505050565b7f4e487b71000000000000000000000000000000000000000000000000000000005f52601160045260245ffd5b5f61068182610292565b915061068c83610292565b925082820261069a81610292565b915082820484148315176106b1576106b061064a565b5b5092915050565b5f6106c282610292565b91506106cd83610292565b92508282019050808211156106e5576106e461064a565b5b92915050565b7f4e487b71000000000000000000000000000000000000000000000000000000005f52602160045260245ffd5b61240d806107255f395ff3fe60806040526004361061011e575f3560e01c80637284e4161161009f578063b85dfb8011610063578063b85dfb8014610390578063c19d93fb146103cc578063ca1d209d146103f6578063d621a77614610412578063de170570146104285761011e565b80637284e416146102b05780637497211b146102da5780637adba527146103025780638da5cb5b1461033e5780638ece7b91146103685761011e565b80633ccfd60b116100e65780633ccfd60b14610206578063401938831461021c578063590e1ae3146102465780635c975abb1461025c5780636f9fb98a146102865761011e565b8063039af9eb1461012257806306fdde0314610160578063105505151461018a57806329dcb0cf146101b4578063389b7533146101de575b5f5ffd5b34801561012d575f5ffd5b5061014860048036038101906101439190611456565b610452565b60405161015793929190611500565b60405180910390f35b34801561016b575f5ffd5b5061017461050d565b604051610181919061153c565b60405180910390f35b348015610195575f5ffd5b5061019e610598565b6040516101ab91906115cf565b60405180910390f35b3480156101bf575f5ffd5b506101c8610612565b6040516101d591906115e8565b60405180910390f35b3480156101e9575f5ffd5b5061020460048036038101906101ff9190611456565b610618565b005b348015610211575f5ffd5b5061021a610745565b005b348015610227575f5ffd5b50610230610900565b60405161023d91906115e8565b60405180910390f35b348015610251575f5ffd5b5061025a610906565b005b348015610267575f5ffd5b50610270610a93565b60405161027d919061161b565b60405180910390f35b348015610291575f5ffd5b5061029a610aa6565b6040516102a791906115e8565b60405180910390f35b3480156102bb575f5ffd5b506102c4610aad565b6040516102d1919061153c565b60405180910390f35b3480156102e5575f5ffd5b5061030060048036038101906102fb9190611456565b610b39565b005b34801561030d575f5ffd5b506103286004803603810190610323919061168e565b610cd2565b604051610335919061161b565b60405180910390f35b348015610349575f5ffd5b50610352610d37565b60405161035f91906116db565b60405180910390f35b348015610373575f5ffd5b5061038e60048036038101906103899190611820565b610d5c565b005b34801561039b575f5ffd5b506103b660048036038101906103b1919061187a565b610e9e565b6040516103c391906115e8565b60405180910390f35b3480156103d7575f5ffd5b506103e0610eb8565b6040516103ed91906115cf565b60405180910390f35b610410600480360381019061040b9190611456565b610ecb565b005b34801561041d575f5ffd5b5061042661113b565b005b348015610433575f5ffd5b5061043c6111f6565b6040516104499190611a04565b60405180910390f35b60058181548110610461575f80fd5b905f5260205f2090600302015f91509050805f01805461048090611a51565b80601f01602080910402602001604051908101604052809291908181526020018280546104ac90611a51565b80156104f75780601f106104ce576101008083540402835291602001916104f7565b820191905f5260205f20905b8154815290600101906020018083116104da57829003601f168201915b5050505050908060010154908060020154905083565b5f805461051990611a51565b80601f016020809104026020016040519081016040528092919081815260200182805461054590611a51565b80156105905780601f1061056757610100808354040283529160200191610590565b820191905f5260205f20905b81548152906001019060200180831161057357829003601f168201915b505050505081565b5f5f60028111156105ac576105ab61155c565b5b600460159054906101000a900460ff1660028111156105ce576105cd61155c565b5b1480156105dc575060035442115b156105fc576002544710156105f25760026105f5565b60015b905061060f565b600460159054906101000a900460ff1690505b90565b60035481565b60045f9054906101000a900473ffffffffffffffffffffffffffffffffffffffff1673ffffffffffffffffffffffffffffffffffffffff163373ffffffffffffffffffffffffffffffffffffffff16146106a7576040517f08c379a000000000000000000000000000000000000000000000000000000000815260040161069e90611acb565b60405180910390fd5b5f60028111156106ba576106b961155c565b5b600460159054906101000a900460ff1660028111156106dc576106db61155c565b5b1461071c576040517f08c379a000000000000000000000000000000000000000000000000000000000815260040161071390611b33565b60405180910390fd5b620151808161072b9190611b7e565b60035f82825461073b9190611bbf565b9250508190555050565b60045f9054906101000a900473ffffffffffffffffffffffffffffffffffffffff1673ffffffffffffffffffffffffffffffffffffffff163373ffffffffffffffffffffffffffffffffffffffff16146107d4576040517f08c379a00000000000000000000000000000000000000000000000000000000081526004016107cb90611acb565b60405180910390fd5b6107dc6112f5565b600160028111156107f0576107ef61155c565b5b600460159054906101000a900460ff1660028111156108125761081161155c565b5b14610852576040517f08c379a000000000000000000000000000000000000000000000000000000000815260040161084990611c3c565b60405180910390fd5b5f4790505f8111610898576040517f08c379a000000000000000000000000000000000000000000000000000000000815260040161088f90611ca4565b60405180910390fd5b60045f9054906101000a900473ffffffffffffffffffffffffffffffffffffffff1673ffffffffffffffffffffffffffffffffffffffff166108fc8290811502906040515f60405180830381858888f193505050501580156108fc573d5f5f3e3d5ffd5b5050565b60025481565b61090e6112f5565b6002808111156109215761092061155c565b5b600460159054906101000a900460ff1660028111156109435761094261155c565b5b14610983576040517f08c379a000000000000000000000000000000000000000000000000000000000815260040161097a90611d0c565b60405180910390fd5b5f60065f3373ffffffffffffffffffffffffffffffffffffffff1673ffffffffffffffffffffffffffffffffffffffff1681526020019081526020015f205f015490505f8111610a08576040517f08c379a00000000000000000000000000000000000000000000000000000000081526004016109ff90611d74565b60405180910390fd5b5f60065f3373ffffffffffffffffffffffffffffffffffffffff1673ffffffffffffffffffffffffffffffffffffffff1681526020019081526020015f205f01819055503373ffffffffffffffffffffffffffffffffffffffff166108fc8290811502906040515f60405180830381858888f19350505050158015610a8f573d5f5f3e3d5ffd5b5050565b600460149054906101000a900460ff1681565b5f47905090565b60018054610aba90611a51565b80601f0160208091040260200160405190810160405280929190818152602001828054610ae690611a51565b8015610b315780601f10610b0857610100808354040283529160200191610b31565b820191905f5260205f20905b815481529060010190602001808311610b1457829003601f168201915b505050505081565b60045f9054906101000a900473ffffffffffffffffffffffffffffffffffffffff1673ffffffffffffffffffffffffffffffffffffffff163373ffffffffffffffffffffffffffffffffffffffff1614610bc8576040517f08c379a0000000000000000000000000000000000000000000000000000000008152600401610bbf90611acb565b60405180910390fd5b6005805490508110610c0f576040517f08c379a0000000000000000000000000000000000000000000000000000000008152600401610c0690611ddc565b60405180910390fd5b60056001600580549050610c239190611dfa565b81548110610c3457610c33611e2d565b5b905f5260205f20906003020160058281548110610c5457610c53611e2d565b5b905f5260205f2090600302015f8201815f019081610c72919061200f565b5060018201548160010155600282015481600201559050506005805480610c9c57610c9b6120f4565b5b600190038181905f5260205f2090600302015f5f82015f610cbd91906113ba565b600182015f9055600282015f90555050905550565b5f60065f8473ffffffffffffffffffffffffffffffffffffffff1673ffffffffffffffffffffffffffffffffffffffff1681526020019081526020015f206001015f8381526020019081526020015f205f9054906101000a900460ff16905092915050565b60045f9054906101000a900473ffffffffffffffffffffffffffffffffffffffff1681565b60045f9054906101000a900473ffffffffffffffffffffffffffffffffffffffff1673ffffffffffffffffffffffffffffffffffffffff163373ffffffffffffffffffffffffffffffffffffffff1614610deb576040517f08c379a0000000000000000000000000000000000000000000000000000000008152600401610de290611acb565b60405180910390fd5b5f8111610e2d576040517f08c379a0000000000000000000000000000000000000000000000000000000008152600401610e249061216b565b60405180910390fd5b600560405180606001604052808481526020018381526020015f815250908060018154018082558091505060019003905f5260205f2090600302015f909190919091505f820151815f019081610e839190612189565b50602082015181600101556040820151816002015550505050565b6006602052805f5260405f205f91509050805f0154905081565b600460159054906101000a900460ff1681565b5f6002811115610ede57610edd61155c565b5b600460159054906101000a900460ff166002811115610f0057610eff61155c565b5b14610f40576040517f08c379a0000000000000000000000000000000000000000000000000000000008152600401610f3790611b33565b60405180910390fd5b600460149054906101000a900460ff1615610f90576040517f08c379a0000000000000000000000000000000000000000000000000000000008152600401610f87906122a2565b60405180910390fd5b6005805490508110610fd7576040517f08c379a0000000000000000000000000000000000000000000000000000000008152600401610fce9061230a565b60405180910390fd5b60058181548110610feb57610fea611e2d565b5b905f5260205f20906003020160010154341461103c576040517f08c379a000000000000000000000000000000000000000000000000000000000815260040161103390612372565b60405180910390fd5b600581815481106110505761104f611e2d565b5b905f5260205f2090600302016002015f81548092919061106f90612390565b91905055503460065f3373ffffffffffffffffffffffffffffffffffffffff1673ffffffffffffffffffffffffffffffffffffffff1681526020019081526020015f205f015f8282546110c29190611bbf565b92505081905550600160065f3373ffffffffffffffffffffffffffffffffffffffff1673ffffffffffffffffffffffffffffffffffffffff1681526020019081526020015f206001015f8381526020019081526020015f205f6101000a81548160ff0219169083151502179055506111386112f5565b50565b60045f9054906101000a900473ffffffffffffffffffffffffffffffffffffffff1673ffffffffffffffffffffffffffffffffffffffff163373ffffffffffffffffffffffffffffffffffffffff16146111ca576040517f08c379a00000000000000000000000000000000000000000000000000000000081526004016111c190611acb565b60405180910390fd5b600460149054906101000a900460ff1615600460146101000a81548160ff021916908315150217905550565b60606005805480602002602001604051908101604052809291908181526020015f905b828210156112ec578382905f5260205f2090600302016040518060600160405290815f8201805461124990611a51565b80601f016020809104026020016040519081016040528092919081815260200182805461127590611a51565b80156112c05780601f10611297576101008083540402835291602001916112c0565b820191905f5260205f20905b8154815290600101906020018083116112a357829003601f168201915b505050505081526020016001820154815260200160028201548152505081526020019060010190611219565b50505050905090565b5f60028111156113085761130761155c565b5b600460159054906101000a900460ff16600281111561132a5761132961155c565b5b036113b857600354421061137a5760025447101561134957600261134c565b60015b600460156101000a81548160ff021916908360028111156113705761136f61155c565b5b02179055506113b7565b60025447101561138a575f61138d565b60015b600460156101000a81548160ff021916908360028111156113b1576113b061155c565b5b02179055505b5b565b5080546113c690611a51565b5f825580601f106113d757506113f4565b601f0160209004905f5260205f20908101906113f391906113f7565b5b50565b5b8082111561140e575f815f9055506001016113f8565b5090565b5f604051905090565b5f5ffd5b5f5ffd5b5f819050919050565b61143581611423565b811461143f575f5ffd5b50565b5f813590506114508161142c565b92915050565b5f6020828403121561146b5761146a61141b565b5b5f61147884828501611442565b91505092915050565b5f81519050919050565b5f82825260208201905092915050565b8281835e5f83830152505050565b5f601f19601f8301169050919050565b5f6114c382611481565b6114cd818561148b565b93506114dd81856020860161149b565b6114e6816114a9565b840191505092915050565b6114fa81611423565b82525050565b5f6060820190508181035f83015261151881866114b9565b905061152760208301856114f1565b61153460408301846114f1565b949350505050565b5f6020820190508181035f83015261155481846114b9565b905092915050565b7f4e487b71000000000000000000000000000000000000000000000000000000005f52602160045260245ffd5b6003811061159a5761159961155c565b5b50565b5f8190506115aa82611589565b919050565b5f6115b98261159d565b9050919050565b6115c9816115af565b82525050565b5f6020820190506115e25f8301846115c0565b92915050565b5f6020820190506115fb5f8301846114f1565b92915050565b5f8115159050919050565b61161581611601565b82525050565b5f60208201905061162e5f83018461160c565b92915050565b5f73ffffffffffffffffffffffffffffffffffffffff82169050919050565b5f61165d82611634565b9050919050565b61166d81611653565b8114611677575f5ffd5b50565b5f8135905061168881611664565b92915050565b5f5f604083850312156116a4576116a361141b565b5b5f6116b18582860161167a565b92505060206116c285828601611442565b9150509250929050565b6116d581611653565b82525050565b5f6020820190506116ee5f8301846116cc565b92915050565b5f5ffd5b5f5ffd5b7f4e487b71000000000000000000000000000000000000000000000000000000005f52604160045260245ffd5b611732826114a9565b810181811067ffffffffffffffff82111715611751576117506116fc565b5b80604052505050565b5f611763611412565b905061176f8282611729565b919050565b5f67ffffffffffffffff82111561178e5761178d6116fc565b5b611797826114a9565b9050602081019050919050565b828183375f83830152505050565b5f6117c46117bf84611774565b61175a565b9050828152602081018484840111156117e0576117df6116f8565b5b6117eb8482856117a4565b509392505050565b5f82601f830112611807576118066116f4565b5b81356118178482602086016117b2565b91505092915050565b5f5f604083850312156118365761183561141b565b5b5f83013567ffffffffffffffff8111156118535761185261141f565b5b61185f858286016117f3565b925050602061187085828601611442565b9150509250929050565b5f6020828403121561188f5761188e61141b565b5b5f61189c8482850161167a565b91505092915050565b5f81519050919050565b5f82825260208201905092915050565b5f819050602082019050919050565b5f82825260208201905092915050565b5f6118e882611481565b6118f281856118ce565b935061190281856020860161149b565b61190b816114a9565b840191505092915050565b61191f81611423565b82525050565b5f606083015f8301518482035f86015261193f82826118de565b91505060208301516119546020860182611916565b5060408301516119676040860182611916565b508091505092915050565b5f61197d8383611925565b905092915050565b5f602082019050919050565b5f61199b826118a5565b6119a581856118af565b9350836020820285016119b7856118bf565b805f5b858110156119f257848403895281516119d38582611972565b94506119de83611985565b925060208a019950506001810190506119ba565b50829750879550505050505092915050565b5f6020820190508181035f830152611a1c8184611991565b905092915050565b7f4e487b71000000000000000000000000000000000000000000000000000000005f52602260045260245ffd5b5f6002820490506001821680611a6857607f821691505b602082108103611a7b57611a7a611a24565b5b50919050565b7f4e6f7420746865206f776e6572000000000000000000000000000000000000005f82015250565b5f611ab5600d8361148b565b9150611ac082611a81565b602082019050919050565b5f6020820190508181035f830152611ae281611aa9565b9050919050565b7f43616d706169676e206973206e6f7420616374697665200000000000000000005f82015250565b5f611b1d60178361148b565b9150611b2882611ae9565b602082019050919050565b5f6020820190508181035f830152611b4a81611b11565b9050919050565b7f4e487b71000000000000000000000000000000000000000000000000000000005f52601160045260245ffd5b5f611b8882611423565b9150611b9383611423565b9250828202611ba181611423565b91508282048414831517611bb857611bb7611b51565b5b5092915050565b5f611bc982611423565b9150611bd483611423565b9250828201905080821115611bec57611beb611b51565b5b92915050565b7f43616d706167696e206e6f74207375636365737366756c0000000000000000005f82015250565b5f611c2660178361148b565b9150611c3182611bf2565b602082019050919050565b5f6020820190508181035f830152611c5381611c1a565b9050919050565b7f4e6f2062616c616e636520746f2077697468647261772e0000000000000000005f82015250565b5f611c8e60178361148b565b9150611c9982611c5a565b602082019050919050565b5f6020820190508181035f830152611cbb81611c82565b9050919050565b7f526566756e6473206e6f74207375636365737366756c000000000000000000005f82015250565b5f611cf660168361148b565b9150611d0182611cc2565b602082019050919050565b5f6020820190508181035f830152611d2381611cea565b9050919050565b7f4e6f20436f6e747275627574696f6e20526566756e64656400000000000000005f82015250565b5f611d5e60188361148b565b9150611d6982611d2a565b602082019050919050565b5f6020820190508181035f830152611d8b81611d52565b9050919050565b7f746972657320646f6573206e6f742065786974730000000000000000000000005f82015250565b5f611dc660148361148b565b9150611dd182611d92565b602082019050919050565b5f6020820190508181035f830152611df381611dba565b9050919050565b5f611e0482611423565b9150611e0f83611423565b9250828203905081811115611e2757611e26611b51565b5b92915050565b7f4e487b71000000000000000000000000000000000000000000000000000000005f52603260045260245ffd5b5f81549050611e6881611a51565b9050919050565b5f819050815f5260205f209050919050565b5f6020601f8301049050919050565b5f82821b905092915050565b5f60088302611ecb7fffffffffffffffffffffffffffffffffffffffffffffffffffffffffffffffff82611e90565b611ed58683611e90565b95508019841693508086168417925050509392505050565b5f819050919050565b5f611f10611f0b611f0684611423565b611eed565b611423565b9050919050565b5f819050919050565b611f2983611ef6565b611f3d611f3582611f17565b848454611e9c565b825550505050565b5f5f905090565b611f54611f45565b611f5f818484611f20565b505050565b5b81811015611f8257611f775f82611f4c565b600181019050611f65565b5050565b601f821115611fc757611f9881611e6f565b611fa184611e81565b81016020851015611fb0578190505b611fc4611fbc85611e81565b830182611f64565b50505b505050565b5f82821c905092915050565b5f611fe75f1984600802611fcc565b1980831691505092915050565b5f611fff8383611fd8565b9150826002028217905092915050565b81810361201d5750506120f2565b61202682611e5a565b67ffffffffffffffff81111561203f5761203e6116fc565b5b6120498254611a51565b612054828285611f86565b5f601f831160018114612081575f841561206f578287015490505b6120798582611ff4565b8655506120eb565b601f19841661208f87611e6f565b965061209a86611e6f565b5f5b828110156120c15784890154825560018201915060018501945060208101905061209c565b868310156120de57848901546120da601f891682611fd8565b8355505b6001600288020188555050505b5050505050505b565b7f4e487b71000000000000000000000000000000000000000000000000000000005f52603160045260245ffd5b7f416d6f756e74206d7573742062652067726561746572207468616e207a65726f5f82015250565b5f61215560208361148b565b915061216082612121565b602082019050919050565b5f6020820190508181035f83015261218281612149565b9050919050565b61219282611481565b67ffffffffffffffff8111156121ab576121aa6116fc565b5b6121b58254611a51565b6121c0828285611f86565b5f60209050601f8311600181146121f1575f84156121df578287015190505b6121e98582611ff4565b865550612250565b601f1984166121ff86611e6f565b5f5b8281101561222657848901518255600182019150602085019450602081019050612201565b86831015612243578489015161223f601f891682611fd8565b8355505b6001600288020188555050505b505050505050565b7f436f6e74726163742069732050617375656400000000000000000000000000005f82015250565b5f61228c60128361148b565b915061229782612258565b602082019050919050565b5f6020820190508181035f8301526122b981612280565b9050919050565b7f746965727320646f6573206e6f742065786974730000000000000000000000005f82015250565b5f6122f460148361148b565b91506122ff826122c0565b602082019050919050565b5f6020820190508181035f830152612321816122e8565b9050919050565b7f696e636f727265637420616d6f756e74000000000000000000000000000000005f82015250565b5f61235c60108361148b565b915061236782612328565b602082019050919050565b5f6020820190508181035f83015261238981612350565b9050919050565b5f61239a82611423565b91507fffffffffffffffffffffffffffffffffffffffffffffffffffffffffffffffff82036123cc576123cb611b51565b5b60018201905091905056fea264697066735822122082068f66b52ef7b54f8b735722bdffd64491450af00cca7e0cab345cecaca44d64736f6c634300081e0033",
					"opcodes": "PUSH1 0x80 PUSH1 0x40 MSTORE CALLVALUE DUP1 ISZERO PUSH2 0xF JUMPI PUSH0 PUSH0 REVERT JUMPDEST POP PUSH1 0x40 MLOAD PUSH2 0x2B32 CODESIZE SUB DUP1 PUSH2 0x2B32 DUP4 CODECOPY DUP2 DUP2 ADD PUSH1 0x40 MSTORE DUP2 ADD SWAP1 PUSH2 0x31 SWAP2 SWAP1 PUSH2 0x2C5 JUMP JUMPDEST DUP4 PUSH0 SWAP1 DUP2 PUSH2 0x3F SWAP2 SWAP1 PUSH2 0x57B JUMP JUMPDEST POP DUP3 PUSH1 0x1 SWAP1 DUP2 PUSH2 0x4F SWAP2 SWAP1 PUSH2 0x57B JUMP JUMPDEST POP DUP2 PUSH1 0x2 DUP2 SWAP1 SSTORE POP PUSH3 0x15180 DUP2 PUSH2 0x66 SWAP2 SWAP1 PUSH2 0x677 JUMP JUMPDEST TIMESTAMP PUSH2 0x71 SWAP2 SWAP1 PUSH2 0x6B8 JUMP JUMPDEST PUSH1 0x3 DUP2 SWAP1 SSTORE POP DUP5 PUSH1 0x4 PUSH0 PUSH2 0x100 EXP DUP2 SLOAD DUP2 PUSH20 0xFFFFFFFFFFFFFFFFFFFFFFFFFFFFFFFFFFFFFFFF MUL NOT AND SWAP1 DUP4 PUSH20 0xFFFFFFFFFFFFFFFFFFFFFFFFFFFFFFFFFFFFFFFF AND MUL OR SWAP1 SSTORE POP PUSH0 PUSH1 0x4 PUSH1 0x15 PUSH2 0x100 EXP DUP2 SLOAD DUP2 PUSH1 0xFF MUL NOT AND SWAP1 DUP4 PUSH1 0x2 DUP2 GT ISZERO PUSH2 0xDC JUMPI PUSH2 0xDB PUSH2 0x6EB JUMP JUMPDEST JUMPDEST MUL OR SWAP1 SSTORE POP POP POP POP POP POP PUSH2 0x718 JUMP JUMPDEST PUSH0 PUSH1 0x40 MLOAD SWAP1 POP SWAP1 JUMP JUMPDEST PUSH0 PUSH0 REVERT JUMPDEST PUSH0 PUSH0 REVERT JUMPDEST PUSH0 PUSH20 0xFFFFFFFFFFFFFFFFFFFFFFFFFFFFFFFFFFFFFFFF DUP3 AND SWAP1 POP SWAP2 SWAP1 POP JUMP JUMPDEST PUSH0 PUSH2 0x125 DUP3 PUSH2 0xFC JUMP JUMPDEST SWAP1 POP SWAP2 SWAP1 POP JUMP JUMPDEST PUSH2 0x135 DUP2 PUSH2 0x11B JUMP JUMPDEST DUP2 EQ PUSH2 0x13F JUMPI PUSH0 PUSH0 REVERT JUMPDEST POP JUMP JUMPDEST PUSH0 DUP2 MLOAD SWAP1 POP PUSH2 0x150 DUP2 PUSH2 0x12C JUMP JUMPDEST SWAP3 SWAP2 POP POP JUMP JUMPDEST PUSH0 PUSH0 REVERT JUMPDEST PUSH0 PUSH0 REVERT JUMPDEST PUSH0 PUSH1 0x1F NOT PUSH1 0x1F DUP4 ADD AND SWAP1 POP SWAP2 SWAP1 POP JUMP JUMPDEST PUSH32 0x4E487B7100000000000000000000000000000000000000000000000000000000 PUSH0 MSTORE PUSH1 0x41 PUSH1 0x4 MSTORE PUSH1 0x24 PUSH0 REVERT JUMPDEST PUSH2 0x1A4 DUP3 PUSH2 0x15E JUMP JUMPDEST DUP2 ADD DUP2 DUP2 LT PUSH8 0xFFFFFFFFFFFFFFFF DUP3 GT OR ISZERO PUSH2 0x1C3 JUMPI PUSH2 0x1C2 PUSH2 0x16E JUMP JUMPDEST JUMPDEST DUP1 PUSH1 0x40 MSTORE POP POP POP JUMP JUMPDEST PUSH0 PUSH2 0x1D5 PUSH2 0xEB JUMP JUMPDEST SWAP1 POP PUSH2 0x1E1 DUP3 DUP3 PUSH2 0x19B JUMP JUMPDEST SWAP2 SWAP1 POP JUMP JUMPDEST PUSH0 PUSH8 0xFFFFFFFFFFFFFFFF DUP3 GT ISZERO PUSH2 0x200 JUMPI PUSH2 0x1FF PUSH2 0x16E JUMP JUMPDEST JUMPDEST PUSH2 0x209 DUP3 PUSH2 0x15E JUMP JUMPDEST SWAP1 POP PUSH1 0x20 DUP2 ADD SWAP1 POP SWAP2 SWAP1 POP JUMP JUMPDEST DUP3 DUP2 DUP4 MCOPY PUSH0 DUP4 DUP4 ADD MSTORE POP POP POP JUMP JUMPDEST PUSH0 PUSH2 0x236 PUSH2 0x231 DUP5 PUSH2 0x1E6 JUMP JUMPDEST PUSH2 0x1CC JUMP JUMPDEST SWAP1 POP DUP3 DUP2 MSTORE PUSH1 0x20 DUP2 ADD DUP5 DUP5 DUP5 ADD GT ISZERO PUSH2 0x252 JUMPI PUSH2 0x251 PUSH2 0x15A JUMP JUMPDEST JUMPDEST PUSH2 0x25D DUP5 DUP3 DUP6 PUSH2 0x216 JUMP JUMPDEST POP SWAP4 SWAP3 POP POP POP JUMP JUMPDEST PUSH0 DUP3 PUSH1 0x1F DUP4 ADD SLT PUSH2 0x279 JUMPI PUSH2 0x278 PUSH2 0x156 JUMP JUMPDEST JUMPDEST DUP2 MLOAD PUSH2 0x289 DUP5 DUP3 PUSH1 0x20 DUP7 ADD PUSH2 0x224 JUMP JUMPDEST SWAP2 POP POP SWAP3 SWAP2 POP POP JUMP JUMPDEST PUSH0 DUP2 SWAP1 POP SWAP2 SWAP1 POP JUMP JUMPDEST PUSH2 0x2A4 DUP2 PUSH2 0x292 JUMP JUMPDEST DUP2 EQ PUSH2 0x2AE JUMPI PUSH0 PUSH0 REVERT JUMPDEST POP JUMP JUMPDEST PUSH0 DUP2 MLOAD SWAP1 POP PUSH2 0x2BF DUP2 PUSH2 0x29B JUMP JUMPDEST SWAP3 SWAP2 POP POP JUMP JUMPDEST PUSH0 PUSH0 PUSH0 PUSH0 PUSH0 PUSH1 0xA0 DUP7 DUP9 SUB SLT ISZERO PUSH2 0x2DE JUMPI PUSH2 0x2DD PUSH2 0xF4 JUMP JUMPDEST JUMPDEST PUSH0 PUSH2 0x2EB DUP9 DUP3 DUP10 ADD PUSH2 0x142 JUMP JUMPDEST SWAP6 POP POP PUSH1 0x20 DUP7 ADD MLOAD PUSH8 0xFFFFFFFFFFFFFFFF DUP2 GT ISZERO PUSH2 0x30C JUMPI PUSH2 0x30B PUSH2 0xF8 JUMP JUMPDEST JUMPDEST PUSH2 0x318 DUP9 DUP3 DUP10 ADD PUSH2 0x265 JUMP JUMPDEST SWAP5 POP POP PUSH1 0x40 DUP7 ADD MLOAD PUSH8 0xFFFFFFFFFFFFFFFF DUP2 GT ISZERO PUSH2 0x339 JUMPI PUSH2 0x338 PUSH2 0xF8 JUMP JUMPDEST JUMPDEST PUSH2 0x345 DUP9 DUP3 DUP10 ADD PUSH2 0x265 JUMP JUMPDEST SWAP4 POP POP PUSH1 0x60 PUSH2 0x356 DUP9 DUP3 DUP10 ADD PUSH2 0x2B1 JUMP JUMPDEST SWAP3 POP POP PUSH1 0x80 PUSH2 0x367 DUP9 DUP3 DUP10 ADD PUSH2 0x2B1 JUMP JUMPDEST SWAP2 POP POP SWAP3 SWAP6 POP SWAP3 SWAP6 SWAP1 SWAP4 POP JUMP JUMPDEST PUSH0 DUP2 MLOAD SWAP1 POP SWAP2 SWAP1 POP JUMP JUMPDEST PUSH32 0x4E487B7100000000000000000000000000000000000000000000000000000000 PUSH0 MSTORE PUSH1 0x22 PUSH1 0x4 MSTORE PUSH1 0x24 PUSH0 REVERT JUMPDEST PUSH0 PUSH1 0x2 DUP3 DIV SWAP1 POP PUSH1 0x1 DUP3 AND DUP1 PUSH2 0x3C2 JUMPI PUSH1 0x7F DUP3 AND SWAP2 POP JUMPDEST PUSH1 0x20 DUP3 LT DUP2 SUB PUSH2 0x3D5 JUMPI PUSH2 0x3D4 PUSH2 0x37E JUMP JUMPDEST JUMPDEST POP SWAP2 SWAP1 POP JUMP JUMPDEST PUSH0 DUP2 SWAP1 POP DUP2 PUSH0 MSTORE PUSH1 0x20 PUSH0 KECCAK256 SWAP1 POP SWAP2 SWAP1 POP JUMP JUMPDEST PUSH0 PUSH1 0x20 PUSH1 0x1F DUP4 ADD DIV SWAP1 POP SWAP2 SWAP1 POP JUMP JUMPDEST PUSH0 DUP3 DUP3 SHL SWAP1 POP SWAP3 SWAP2 POP POP JUMP JUMPDEST PUSH0 PUSH1 0x8 DUP4 MUL PUSH2 0x437 PUSH32 0xFFFFFFFFFFFFFFFFFFFFFFFFFFFFFFFFFFFFFFFFFFFFFFFFFFFFFFFFFFFFFFFF DUP3 PUSH2 0x3FC JUMP JUMPDEST PUSH2 0x441 DUP7 DUP4 PUSH2 0x3FC JUMP JUMPDEST SWAP6 POP DUP1 NOT DUP5 AND SWAP4 POP DUP1 DUP7 AND DUP5 OR SWAP3 POP POP POP SWAP4 SWAP3 POP POP POP JUMP JUMPDEST PUSH0 DUP2 SWAP1 POP SWAP2 SWAP1 POP JUMP JUMPDEST PUSH0 PUSH2 0x47C PUSH2 0x477 PUSH2 0x472 DUP5 PUSH2 0x292 JUMP JUMPDEST PUSH2 0x459 JUMP JUMPDEST PUSH2 0x292 JUMP JUMPDEST SWAP1 POP SWAP2 SWAP1 POP JUMP JUMPDEST PUSH0 DUP2 SWAP1 POP SWAP2 SWAP1 POP JUMP JUMPDEST PUSH2 0x495 DUP4 PUSH2 0x462 JUMP JUMPDEST PUSH2 0x4A9 PUSH2 0x4A1 DUP3 PUSH2 0x483 JUMP JUMPDEST DUP5 DUP5 SLOAD PUSH2 0x408 JUMP JUMPDEST DUP3 SSTORE POP POP POP POP JUMP JUMPDEST PUSH0 PUSH0 SWAP1 POP SWAP1 JUMP JUMPDEST PUSH2 0x4C0 PUSH2 0x4B1 JUMP JUMPDEST PUSH2 0x4CB DUP2 DUP5 DUP5 PUSH2 0x48C JUMP JUMPDEST POP POP POP JUMP JUMPDEST JUMPDEST DUP2 DUP2 LT ISZERO PUSH2 0x4EE JUMPI PUSH2 0x4E3 PUSH0 DUP3 PUSH2 0x4B8 JUMP JUMPDEST PUSH1 0x1 DUP2 ADD SWAP1 POP PUSH2 0x4D1 JUMP JUMPDEST POP POP JUMP JUMPDEST PUSH1 0x1F DUP3 GT ISZERO PUSH2 0x533 JUMPI PUSH2 0x504 DUP2 PUSH2 0x3DB JUMP JUMPDEST PUSH2 0x50D DUP5 PUSH2 0x3ED JUMP JUMPDEST DUP2 ADD PUSH1 0x20 DUP6 LT ISZERO PUSH2 0x51C JUMPI DUP2 SWAP1 POP JUMPDEST PUSH2 0x530 PUSH2 0x528 DUP6 PUSH2 0x3ED JUMP JUMPDEST DUP4 ADD DUP3 PUSH2 0x4D0 JUMP JUMPDEST POP POP JUMPDEST POP POP POP JUMP JUMPDEST PUSH0 DUP3 DUP3 SHR SWAP1 POP SWAP3 SWAP2 POP POP JUMP JUMPDEST PUSH0 PUSH2 0x553 PUSH0 NOT DUP5 PUSH1 0x8 MUL PUSH2 0x538 JUMP JUMPDEST NOT DUP1 DUP4 AND SWAP2 POP POP SWAP3 SWAP2 POP POP JUMP JUMPDEST PUSH0 PUSH2 0x56B DUP4 DUP4 PUSH2 0x544 JUMP JUMPDEST SWAP2 POP DUP3 PUSH1 0x2 MUL DUP3 OR SWAP1 POP SWAP3 SWAP2 POP POP JUMP JUMPDEST PUSH2 0x584 DUP3 PUSH2 0x374 JUMP JUMPDEST PUSH8 0xFFFFFFFFFFFFFFFF DUP2 GT ISZERO PUSH2 0x59D JUMPI PUSH2 0x59C PUSH2 0x16E JUMP JUMPDEST JUMPDEST PUSH2 0x5A7 DUP3 SLOAD PUSH2 0x3AB JUMP JUMPDEST PUSH2 0x5B2 DUP3 DUP3 DUP6 PUSH2 0x4F2 JUMP JUMPDEST PUSH0 PUSH1 0x20 SWAP1 POP PUSH1 0x1F DUP4 GT PUSH1 0x1 DUP2 EQ PUSH2 0x5E3 JUMPI PUSH0 DUP5 ISZERO PUSH2 0x5D1 JUMPI DUP3 DUP8 ADD MLOAD SWAP1 POP JUMPDEST PUSH2 0x5DB DUP6 DUP3 PUSH2 0x560 JUMP JUMPDEST DUP7 SSTORE POP PUSH2 0x642 JUMP JUMPDEST PUSH1 0x1F NOT DUP5 AND PUSH2 0x5F1 DUP7 PUSH2 0x3DB JUMP JUMPDEST PUSH0 JUMPDEST DUP3 DUP2 LT ISZERO PUSH2 0x618 JUMPI DUP5 DUP10 ADD MLOAD DUP3 SSTORE PUSH1 0x1 DUP3 ADD SWAP2 POP PUSH1 0x20 DUP6 ADD SWAP5 POP PUSH1 0x20 DUP2 ADD SWAP1 POP PUSH2 0x5F3 JUMP JUMPDEST DUP7 DUP4 LT ISZERO PUSH2 0x635 JUMPI DUP5 DUP10 ADD MLOAD PUSH2 0x631 PUSH1 0x1F DUP10 AND DUP3 PUSH2 0x544 JUMP JUMPDEST DUP4 SSTORE POP JUMPDEST PUSH1 0x1 PUSH1 0x2 DUP9 MUL ADD DUP9 SSTORE POP POP POP JUMPDEST POP POP POP POP POP POP JUMP JUMPDEST PUSH32 0x4E487B7100000000000000000000000000000000000000000000000000000000 PUSH0 MSTORE PUSH1 0x11 PUSH1 0x4 MSTORE PUSH1 0x24 PUSH0 REVERT JUMPDEST PUSH0 PUSH2 0x681 DUP3 PUSH2 0x292 JUMP JUMPDEST SWAP2 POP PUSH2 0x68C DUP4 PUSH2 0x292 JUMP JUMPDEST SWAP3 POP DUP3 DUP3 MUL PUSH2 0x69A DUP2 PUSH2 0x292 JUMP JUMPDEST SWAP2 POP DUP3 DUP3 DIV DUP5 EQ DUP4 ISZERO OR PUSH2 0x6B1 JUMPI PUSH2 0x6B0 PUSH2 0x64A JUMP JUMPDEST JUMPDEST POP SWAP3 SWAP2 POP POP JUMP JUMPDEST PUSH0 PUSH2 0x6C2 DUP3 PUSH2 0x292 JUMP JUMPDEST SWAP2 POP PUSH2 0x6CD DUP4 PUSH2 0x292 JUMP JUMPDEST SWAP3 POP DUP3 DUP3 ADD SWAP1 POP DUP1 DUP3 GT ISZERO PUSH2 0x6E5 JUMPI PUSH2 0x6E4 PUSH2 0x64A JUMP JUMPDEST JUMPDEST SWAP3 SWAP2 POP POP JUMP JUMPDEST PUSH32 0x4E487B7100000000000000000000000000000000000000000000000000000000 PUSH0 MSTORE PUSH1 0x21 PUSH1 0x4 MSTORE PUSH1 0x24 PUSH0 REVERT JUMPDEST PUSH2 0x240D DUP1 PUSH2 0x725 PUSH0 CODECOPY PUSH0 RETURN INVALID PUSH1 0x80 PUSH1 0x40 MSTORE PUSH1 0x4 CALLDATASIZE LT PUSH2 0x11E JUMPI PUSH0 CALLDATALOAD PUSH1 0xE0 SHR DUP1 PUSH4 0x7284E416 GT PUSH2 0x9F JUMPI DUP1 PUSH4 0xB85DFB80 GT PUSH2 0x63 JUMPI DUP1 PUSH4 0xB85DFB80 EQ PUSH2 0x390 JUMPI DUP1 PUSH4 0xC19D93FB EQ PUSH2 0x3CC JUMPI DUP1 PUSH4 0xCA1D209D EQ PUSH2 0x3F6 JUMPI DUP1 PUSH4 0xD621A776 EQ PUSH2 0x412 JUMPI DUP1 PUSH4 0xDE170570 EQ PUSH2 0x428 JUMPI PUSH2 0x11E JUMP JUMPDEST DUP1 PUSH4 0x7284E416 EQ PUSH2 0x2B0 JUMPI DUP1 PUSH4 0x7497211B EQ PUSH2 0x2DA JUMPI DUP1 PUSH4 0x7ADBA527 EQ PUSH2 0x302 JUMPI DUP1 PUSH4 0x8DA5CB5B EQ PUSH2 0x33E JUMPI DUP1 PUSH4 0x8ECE7B91 EQ PUSH2 0x368 JUMPI PUSH2 0x11E JUMP JUMPDEST DUP1 PUSH4 0x3CCFD60B GT PUSH2 0xE6 JUMPI DUP1 PUSH4 0x3CCFD60B EQ PUSH2 0x206 JUMPI DUP1 PUSH4 0x40193883 EQ PUSH2 0x21C JUMPI DUP1 PUSH4 0x590E1AE3 EQ PUSH2 0x246 JUMPI DUP1 PUSH4 0x5C975ABB EQ PUSH2 0x25C JUMPI DUP1 PUSH4 0x6F9FB98A EQ PUSH2 0x286 JUMPI PUSH2 0x11E JUMP JUMPDEST DUP1 PUSH4 0x39AF9EB EQ PUSH2 0x122 JUMPI DUP1 PUSH4 0x6FDDE03 EQ PUSH2 0x160 JUMPI DUP1 PUSH4 0x10550515 EQ PUSH2 0x18A JUMPI DUP1 PUSH4 0x29DCB0CF EQ PUSH2 0x1B4 JUMPI DUP1 PUSH4 0x389B7533 EQ PUSH2 0x1DE JUMPI JUMPDEST PUSH0 PUSH0 REVERT JUMPDEST CALLVALUE DUP1 ISZERO PUSH2 0x12D JUMPI PUSH0 PUSH0 REVERT JUMPDEST POP PUSH2 0x148 PUSH1 0x4 DUP1 CALLDATASIZE SUB DUP2 ADD SWAP1 PUSH2 0x143 SWAP2 SWAP1 PUSH2 0x1456 JUMP JUMPDEST PUSH2 0x452 JUMP JUMPDEST PUSH1 0x40 MLOAD PUSH2 0x157 SWAP4 SWAP3 SWAP2 SWAP1 PUSH2 0x1500 JUMP JUMPDEST PUSH1 0x40 MLOAD DUP1 SWAP2 SUB SWAP1 RETURN JUMPDEST CALLVALUE DUP1 ISZERO PUSH2 0x16B JUMPI PUSH0 PUSH0 REVERT JUMPDEST POP PUSH2 0x174 PUSH2 0x50D JUMP JUMPDEST PUSH1 0x40 MLOAD PUSH2 0x181 SWAP2 SWAP1 PUSH2 0x153C JUMP JUMPDEST PUSH1 0x40 MLOAD DUP1 SWAP2 SUB SWAP1 RETURN JUMPDEST CALLVALUE DUP1 ISZERO PUSH2 0x195 JUMPI PUSH0 PUSH0 REVERT JUMPDEST POP PUSH2 0x19E PUSH2 0x598 JUMP JUMPDEST PUSH1 0x40 MLOAD PUSH2 0x1AB SWAP2 SWAP1 PUSH2 0x15CF JUMP JUMPDEST PUSH1 0x40 MLOAD DUP1 SWAP2 SUB SWAP1 RETURN JUMPDEST CALLVALUE DUP1 ISZERO PUSH2 0x1BF JUMPI PUSH0 PUSH0 REVERT JUMPDEST POP PUSH2 0x1C8 PUSH2 0x612 JUMP JUMPDEST PUSH1 0x40 MLOAD PUSH2 0x1D5 SWAP2 SWAP1 PUSH2 0x15E8 JUMP JUMPDEST PUSH1 0x40 MLOAD DUP1 SWAP2 SUB SWAP1 RETURN JUMPDEST CALLVALUE DUP1 ISZERO PUSH2 0x1E9 JUMPI PUSH0 PUSH0 REVERT JUMPDEST POP PUSH2 0x204 PUSH1 0x4 DUP1 CALLDATASIZE SUB DUP2 ADD SWAP1 PUSH2 0x1FF SWAP2 SWAP1 PUSH2 0x1456 JUMP JUMPDEST PUSH2 0x618 JUMP JUMPDEST STOP JUMPDEST CALLVALUE DUP1 ISZERO PUSH2 0x211 JUMPI PUSH0 PUSH0 REVERT JUMPDEST POP PUSH2 0x21A PUSH2 0x745 JUMP JUMPDEST STOP JUMPDEST CALLVALUE DUP1 ISZERO PUSH2 0x227 JUMPI PUSH0 PUSH0 REVERT JUMPDEST POP PUSH2 0x230 PUSH2 0x900 JUMP JUMPDEST PUSH1 0x40 MLOAD PUSH2 0x23D SWAP2 SWAP1 PUSH2 0x15E8 JUMP JUMPDEST PUSH1 0x40 MLOAD DUP1 SWAP2 SUB SWAP1 RETURN JUMPDEST CALLVALUE DUP1 ISZERO PUSH2 0x251 JUMPI PUSH0 PUSH0 REVERT JUMPDEST POP PUSH2 0x25A PUSH2 0x906 JUMP JUMPDEST STOP JUMPDEST CALLVALUE DUP1 ISZERO PUSH2 0x267 JUMPI PUSH0 PUSH0 REVERT JUMPDEST POP PUSH2 0x270 PUSH2 0xA93 JUMP JUMPDEST PUSH1 0x40 MLOAD PUSH2 0x27D SWAP2 SWAP1 PUSH2 0x161B JUMP JUMPDEST PUSH1 0x40 MLOAD DUP1 SWAP2 SUB SWAP1 RETURN JUMPDEST CALLVALUE DUP1 ISZERO PUSH2 0x291 JUMPI PUSH0 PUSH0 REVERT JUMPDEST POP PUSH2 0x29A PUSH2 0xAA6 JUMP JUMPDEST PUSH1 0x40 MLOAD PUSH2 0x2A7 SWAP2 SWAP1 PUSH2 0x15E8 JUMP JUMPDEST PUSH1 0x40 MLOAD DUP1 SWAP2 SUB SWAP1 RETURN JUMPDEST CALLVALUE DUP1 ISZERO PUSH2 0x2BB JUMPI PUSH0 PUSH0 REVERT JUMPDEST POP PUSH2 0x2C4 PUSH2 0xAAD JUMP JUMPDEST PUSH1 0x40 MLOAD PUSH2 0x2D1 SWAP2 SWAP1 PUSH2 0x153C JUMP JUMPDEST PUSH1 0x40 MLOAD DUP1 SWAP2 SUB SWAP1 RETURN JUMPDEST CALLVALUE DUP1 ISZERO PUSH2 0x2E5 JUMPI PUSH0 PUSH0 REVERT JUMPDEST POP PUSH2 0x300 PUSH1 0x4 DUP1 CALLDATASIZE SUB DUP2 ADD SWAP1 PUSH2 0x2FB SWAP2 SWAP1 PUSH2 0x1456 JUMP JUMPDEST PUSH2 0xB39 JUMP JUMPDEST STOP JUMPDEST CALLVALUE DUP1 ISZERO PUSH2 0x30D JUMPI PUSH0 PUSH0 REVERT JUMPDEST POP PUSH2 0x328 PUSH1 0x4 DUP1 CALLDATASIZE SUB DUP2 ADD SWAP1 PUSH2 0x323 SWAP2 SWAP1 PUSH2 0x168E JUMP JUMPDEST PUSH2 0xCD2 JUMP JUMPDEST PUSH1 0x40 MLOAD PUSH2 0x335 SWAP2 SWAP1 PUSH2 0x161B JUMP JUMPDEST PUSH1 0x40 MLOAD DUP1 SWAP2 SUB SWAP1 RETURN JUMPDEST CALLVALUE DUP1 ISZERO PUSH2 0x349 JUMPI PUSH0 PUSH0 REVERT JUMPDEST POP PUSH2 0x352 PUSH2 0xD37 JUMP JUMPDEST PUSH1 0x40 MLOAD PUSH2 0x35F SWAP2 SWAP1 PUSH2 0x16DB JUMP JUMPDEST PUSH1 0x40 MLOAD DUP1 SWAP2 SUB SWAP1 RETURN JUMPDEST CALLVALUE DUP1 ISZERO PUSH2 0x373 JUMPI PUSH0 PUSH0 REVERT JUMPDEST POP PUSH2 0x38E PUSH1 0x4 DUP1 CALLDATASIZE SUB DUP2 ADD SWAP1 PUSH2 0x389 SWAP2 SWAP1 PUSH2 0x1820 JUMP JUMPDEST PUSH2 0xD5C JUMP JUMPDEST STOP JUMPDEST CALLVALUE DUP1 ISZERO PUSH2 0x39B JUMPI PUSH0 PUSH0 REVERT JUMPDEST POP PUSH2 0x3B6 PUSH1 0x4 DUP1 CALLDATASIZE SUB DUP2 ADD SWAP1 PUSH2 0x3B1 SWAP2 SWAP1 PUSH2 0x187A JUMP JUMPDEST PUSH2 0xE9E JUMP JUMPDEST PUSH1 0x40 MLOAD PUSH2 0x3C3 SWAP2 SWAP1 PUSH2 0x15E8 JUMP JUMPDEST PUSH1 0x40 MLOAD DUP1 SWAP2 SUB SWAP1 RETURN JUMPDEST CALLVALUE DUP1 ISZERO PUSH2 0x3D7 JUMPI PUSH0 PUSH0 REVERT JUMPDEST POP PUSH2 0x3E0 PUSH2 0xEB8 JUMP JUMPDEST PUSH1 0x40 MLOAD PUSH2 0x3ED SWAP2 SWAP1 PUSH2 0x15CF JUMP JUMPDEST PUSH1 0x40 MLOAD DUP1 SWAP2 SUB SWAP1 RETURN JUMPDEST PUSH2 0x410 PUSH1 0x4 DUP1 CALLDATASIZE SUB DUP2 ADD SWAP1 PUSH2 0x40B SWAP2 SWAP1 PUSH2 0x1456 JUMP JUMPDEST PUSH2 0xECB JUMP JUMPDEST STOP JUMPDEST CALLVALUE DUP1 ISZERO PUSH2 0x41D JUMPI PUSH0 PUSH0 REVERT JUMPDEST POP PUSH2 0x426 PUSH2 0x113B JUMP JUMPDEST STOP JUMPDEST CALLVALUE DUP1 ISZERO PUSH2 0x433 JUMPI PUSH0 PUSH0 REVERT JUMPDEST POP PUSH2 0x43C PUSH2 0x11F6 JUMP JUMPDEST PUSH1 0x40 MLOAD PUSH2 0x449 SWAP2 SWAP1 PUSH2 0x1A04 JUMP JUMPDEST PUSH1 0x40 MLOAD DUP1 SWAP2 SUB SWAP1 RETURN JUMPDEST PUSH1 0x5 DUP2 DUP2 SLOAD DUP2 LT PUSH2 0x461 JUMPI PUSH0 DUP1 REVERT JUMPDEST SWAP1 PUSH0 MSTORE PUSH1 0x20 PUSH0 KECCAK256 SWAP1 PUSH1 0x3 MUL ADD PUSH0 SWAP2 POP SWAP1 POP DUP1 PUSH0 ADD DUP1 SLOAD PUSH2 0x480 SWAP1 PUSH2 0x1A51 JUMP JUMPDEST DUP1 PUSH1 0x1F ADD PUSH1 0x20 DUP1 SWAP2 DIV MUL PUSH1 0x20 ADD PUSH1 0x40 MLOAD SWAP1 DUP2 ADD PUSH1 0x40 MSTORE DUP1 SWAP3 SWAP2 SWAP1 DUP2 DUP2 MSTORE PUSH1 0x20 ADD DUP3 DUP1 SLOAD PUSH2 0x4AC SWAP1 PUSH2 0x1A51 JUMP JUMPDEST DUP1 ISZERO PUSH2 0x4F7 JUMPI DUP1 PUSH1 0x1F LT PUSH2 0x4CE JUMPI PUSH2 0x100 DUP1 DUP4 SLOAD DIV MUL DUP4 MSTORE SWAP2 PUSH1 0x20 ADD SWAP2 PUSH2 0x4F7 JUMP JUMPDEST DUP3 ADD SWAP2 SWAP1 PUSH0 MSTORE PUSH1 0x20 PUSH0 KECCAK256 SWAP1 JUMPDEST DUP2 SLOAD DUP2 MSTORE SWAP1 PUSH1 0x1 ADD SWAP1 PUSH1 0x20 ADD DUP1 DUP4 GT PUSH2 0x4DA JUMPI DUP3 SWAP1 SUB PUSH1 0x1F AND DUP3 ADD SWAP2 JUMPDEST POP POP POP POP POP SWAP1 DUP1 PUSH1 0x1 ADD SLOAD SWAP1 DUP1 PUSH1 0x2 ADD SLOAD SWAP1 POP DUP4 JUMP JUMPDEST PUSH0 DUP1 SLOAD PUSH2 0x519 SWAP1 PUSH2 0x1A51 JUMP JUMPDEST DUP1 PUSH1 0x1F ADD PUSH1 0x20 DUP1 SWAP2 DIV MUL PUSH1 0x20 ADD PUSH1 0x40 MLOAD SWAP1 DUP2 ADD PUSH1 0x40 MSTORE DUP1 SWAP3 SWAP2 SWAP1 DUP2 DUP2 MSTORE PUSH1 0x20 ADD DUP3 DUP1 SLOAD PUSH2 0x545 SWAP1 PUSH2 0x1A51 JUMP JUMPDEST DUP1 ISZERO PUSH2 0x590 JUMPI DUP1 PUSH1 0x1F LT PUSH2 0x567 JUMPI PUSH2 0x100 DUP1 DUP4 SLOAD DIV MUL DUP4 MSTORE SWAP2 PUSH1 0x20 ADD SWAP2 PUSH2 0x590 JUMP JUMPDEST DUP3 ADD SWAP2 SWAP1 PUSH0 MSTORE PUSH1 0x20 PUSH0 KECCAK256 SWAP1 JUMPDEST DUP2 SLOAD DUP2 MSTORE SWAP1 PUSH1 0x1 ADD SWAP1 PUSH1 0x20 ADD DUP1 DUP4 GT PUSH2 0x573 JUMPI DUP3 SWAP1 SUB PUSH1 0x1F AND DUP3 ADD SWAP2 JUMPDEST POP POP POP POP POP DUP2 JUMP JUMPDEST PUSH0 PUSH0 PUSH1 0x2 DUP2 GT ISZERO PUSH2 0x5AC JUMPI PUSH2 0x5AB PUSH2 0x155C JUMP JUMPDEST JUMPDEST PUSH1 0x4 PUSH1 0x15 SWAP1 SLOAD SWAP1 PUSH2 0x100 EXP SWAP1 DIV PUSH1 0xFF AND PUSH1 0x2 DUP2 GT ISZERO PUSH2 0x5CE JUMPI PUSH2 0x5CD PUSH2 0x155C JUMP JUMPDEST JUMPDEST EQ DUP1 ISZERO PUSH2 0x5DC JUMPI POP PUSH1 0x3 SLOAD TIMESTAMP GT JUMPDEST ISZERO PUSH2 0x5FC JUMPI PUSH1 0x2 SLOAD SELFBALANCE LT ISZERO PUSH2 0x5F2 JUMPI PUSH1 0x2 PUSH2 0x5F5 JUMP JUMPDEST PUSH1 0x1 JUMPDEST SWAP1 POP PUSH2 0x60F JUMP JUMPDEST PUSH1 0x4 PUSH1 0x15 SWAP1 SLOAD SWAP1 PUSH2 0x100 EXP SWAP1 DIV PUSH1 0xFF AND SWAP1 POP JUMPDEST SWAP1 JUMP JUMPDEST PUSH1 0x3 SLOAD DUP2 JUMP JUMPDEST PUSH1 0x4 PUSH0 SWAP1 SLOAD SWAP1 PUSH2 0x100 EXP SWAP1 DIV PUSH20 0xFFFFFFFFFFFFFFFFFFFFFFFFFFFFFFFFFFFFFFFF AND PUSH20 0xFFFFFFFFFFFFFFFFFFFFFFFFFFFFFFFFFFFFFFFF AND CALLER PUSH20 0xFFFFFFFFFFFFFFFFFFFFFFFFFFFFFFFFFFFFFFFF AND EQ PUSH2 0x6A7 JUMPI PUSH1 0x40 MLOAD PUSH32 0x8C379A000000000000000000000000000000000000000000000000000000000 DUP2 MSTORE PUSH1 0x4 ADD PUSH2 0x69E SWAP1 PUSH2 0x1ACB JUMP JUMPDEST PUSH1 0x40 MLOAD DUP1 SWAP2 SUB SWAP1 REVERT JUMPDEST PUSH0 PUSH1 0x2 DUP2 GT ISZERO PUSH2 0x6BA JUMPI PUSH2 0x6B9 PUSH2 0x155C JUMP JUMPDEST JUMPDEST PUSH1 0x4 PUSH1 0x15 SWAP1 SLOAD SWAP1 PUSH2 0x100 EXP SWAP1 DIV PUSH1 0xFF AND PUSH1 0x2 DUP2 GT ISZERO PUSH2 0x6DC JUMPI PUSH2 0x6DB PUSH2 0x155C JUMP JUMPDEST JUMPDEST EQ PUSH2 0x71C JUMPI PUSH1 0x40 MLOAD PUSH32 0x8C379A000000000000000000000000000000000000000000000000000000000 DUP2 MSTORE PUSH1 0x4 ADD PUSH2 0x713 SWAP1 PUSH2 0x1B33 JUMP JUMPDEST PUSH1 0x40 MLOAD DUP1 SWAP2 SUB SWAP1 REVERT JUMPDEST PUSH3 0x15180 DUP2 PUSH2 0x72B SWAP2 SWAP1 PUSH2 0x1B7E JUMP JUMPDEST PUSH1 0x3 PUSH0 DUP3 DUP3 SLOAD PUSH2 0x73B SWAP2 SWAP1 PUSH2 0x1BBF JUMP JUMPDEST SWAP3 POP POP DUP2 SWAP1 SSTORE POP POP JUMP JUMPDEST PUSH1 0x4 PUSH0 SWAP1 SLOAD SWAP1 PUSH2 0x100 EXP SWAP1 DIV PUSH20 0xFFFFFFFFFFFFFFFFFFFFFFFFFFFFFFFFFFFFFFFF AND PUSH20 0xFFFFFFFFFFFFFFFFFFFFFFFFFFFFFFFFFFFFFFFF AND CALLER PUSH20 0xFFFFFFFFFFFFFFFFFFFFFFFFFFFFFFFFFFFFFFFF AND EQ PUSH2 0x7D4 JUMPI PUSH1 0x40 MLOAD PUSH32 0x8C379A000000000000000000000000000000000000000000000000000000000 DUP2 MSTORE PUSH1 0x4 ADD PUSH2 0x7CB SWAP1 PUSH2 0x1ACB JUMP JUMPDEST PUSH1 0x40 MLOAD DUP1 SWAP2 SUB SWAP1 REVERT JUMPDEST PUSH2 0x7DC PUSH2 0x12F5 JUMP JUMPDEST PUSH1 0x1 PUSH1 0x2 DUP2 GT ISZERO PUSH2 0x7F0 JUMPI PUSH2 0x7EF PUSH2 0x155C JUMP JUMPDEST JUMPDEST PUSH1 0x4 PUSH1 0x15 SWAP1 SLOAD SWAP1 PUSH2 0x100 EXP SWAP1 DIV PUSH1 0xFF AND PUSH1 0x2 DUP2 GT ISZERO PUSH2 0x812 JUMPI PUSH2 0x811 PUSH2 0x155C JUMP JUMPDEST JUMPDEST EQ PUSH2 0x852 JUMPI PUSH1 0x40 MLOAD PUSH32 0x8C379A000000000000000000000000000000000000000000000000000000000 DUP2 MSTORE PUSH1 0x4 ADD PUSH2 0x849 SWAP1 PUSH2 0x1C3C JUMP JUMPDEST PUSH1 0x40 MLOAD DUP1 SWAP2 SUB SWAP1 REVERT JUMPDEST PUSH0 SELFBALANCE SWAP1 POP PUSH0 DUP2 GT PUSH2 0x898 JUMPI PUSH1 0x40 MLOAD PUSH32 0x8C379A000000000000000000000000000000000000000000000000000000000 DUP2 MSTORE PUSH1 0x4 ADD PUSH2 0x88F SWAP1 PUSH2 0x1CA4 JUMP JUMPDEST PUSH1 0x40 MLOAD DUP1 SWAP2 SUB SWAP1 REVERT JUMPDEST PUSH1 0x4 PUSH0 SWAP1 SLOAD SWAP1 PUSH2 0x100 EXP SWAP1 DIV PUSH20 0xFFFFFFFFFFFFFFFFFFFFFFFFFFFFFFFFFFFFFFFF AND PUSH20 0xFFFFFFFFFFFFFFFFFFFFFFFFFFFFFFFFFFFFFFFF AND PUSH2 0x8FC DUP3 SWAP1 DUP2 ISZERO MUL SWAP1 PUSH1 0x40 MLOAD PUSH0 PUSH1 0x40 MLOAD DUP1 DUP4 SUB DUP2 DUP6 DUP9 DUP9 CALL SWAP4 POP POP POP POP ISZERO DUP1 ISZERO PUSH2 0x8FC JUMPI RETURNDATASIZE PUSH0 PUSH0 RETURNDATACOPY RETURNDATASIZE PUSH0 REVERT JUMPDEST POP POP JUMP JUMPDEST PUSH1 0x2 SLOAD DUP2 JUMP JUMPDEST PUSH2 0x90E PUSH2 0x12F5 JUMP JUMPDEST PUSH1 0x2 DUP1 DUP2 GT ISZERO PUSH2 0x921 JUMPI PUSH2 0x920 PUSH2 0x155C JUMP JUMPDEST JUMPDEST PUSH1 0x4 PUSH1 0x15 SWAP1 SLOAD SWAP1 PUSH2 0x100 EXP SWAP1 DIV PUSH1 0xFF AND PUSH1 0x2 DUP2 GT ISZERO PUSH2 0x943 JUMPI PUSH2 0x942 PUSH2 0x155C JUMP JUMPDEST JUMPDEST EQ PUSH2 0x983 JUMPI PUSH1 0x40 MLOAD PUSH32 0x8C379A000000000000000000000000000000000000000000000000000000000 DUP2 MSTORE PUSH1 0x4 ADD PUSH2 0x97A SWAP1 PUSH2 0x1D0C JUMP JUMPDEST PUSH1 0x40 MLOAD DUP1 SWAP2 SUB SWAP1 REVERT JUMPDEST PUSH0 PUSH1 0x6 PUSH0 CALLER PUSH20 0xFFFFFFFFFFFFFFFFFFFFFFFFFFFFFFFFFFFFFFFF AND PUSH20 0xFFFFFFFFFFFFFFFFFFFFFFFFFFFFFFFFFFFFFFFF AND DUP2 MSTORE PUSH1 0x20 ADD SWAP1 DUP2 MSTORE PUSH1 0x20 ADD PUSH0 KECCAK256 PUSH0 ADD SLOAD SWAP1 POP PUSH0 DUP2 GT PUSH2 0xA08 JUMPI PUSH1 0x40 MLOAD PUSH32 0x8C379A000000000000000000000000000000000000000000000000000000000 DUP2 MSTORE PUSH1 0x4 ADD PUSH2 0x9FF SWAP1 PUSH2 0x1D74 JUMP JUMPDEST PUSH1 0x40 MLOAD DUP1 SWAP2 SUB SWAP1 REVERT JUMPDEST PUSH0 PUSH1 0x6 PUSH0 CALLER PUSH20 0xFFFFFFFFFFFFFFFFFFFFFFFFFFFFFFFFFFFFFFFF AND PUSH20 0xFFFFFFFFFFFFFFFFFFFFFFFFFFFFFFFFFFFFFFFF AND DUP2 MSTORE PUSH1 0x20 ADD SWAP1 DUP2 MSTORE PUSH1 0x20 ADD PUSH0 KECCAK256 PUSH0 ADD DUP2 SWAP1 SSTORE POP CALLER PUSH20 0xFFFFFFFFFFFFFFFFFFFFFFFFFFFFFFFFFFFFFFFF AND PUSH2 0x8FC DUP3 SWAP1 DUP2 ISZERO MUL SWAP1 PUSH1 0x40 MLOAD PUSH0 PUSH1 0x40 MLOAD DUP1 DUP4 SUB DUP2 DUP6 DUP9 DUP9 CALL SWAP4 POP POP POP POP ISZERO DUP1 ISZERO PUSH2 0xA8F JUMPI RETURNDATASIZE PUSH0 PUSH0 RETURNDATACOPY RETURNDATASIZE PUSH0 REVERT JUMPDEST POP POP JUMP JUMPDEST PUSH1 0x4 PUSH1 0x14 SWAP1 SLOAD SWAP1 PUSH2 0x100 EXP SWAP1 DIV PUSH1 0xFF AND DUP2 JUMP JUMPDEST PUSH0 SELFBALANCE SWAP1 POP SWAP1 JUMP JUMPDEST PUSH1 0x1 DUP1 SLOAD PUSH2 0xABA SWAP1 PUSH2 0x1A51 JUMP JUMPDEST DUP1 PUSH1 0x1F ADD PUSH1 0x20 DUP1 SWAP2 DIV MUL PUSH1 0x20 ADD PUSH1 0x40 MLOAD SWAP1 DUP2 ADD PUSH1 0x40 MSTORE DUP1 SWAP3 SWAP2 SWAP1 DUP2 DUP2 MSTORE PUSH1 0x20 ADD DUP3 DUP1 SLOAD PUSH2 0xAE6 SWAP1 PUSH2 0x1A51 JUMP JUMPDEST DUP1 ISZERO PUSH2 0xB31 JUMPI DUP1 PUSH1 0x1F LT PUSH2 0xB08 JUMPI PUSH2 0x100 DUP1 DUP4 SLOAD DIV MUL DUP4 MSTORE SWAP2 PUSH1 0x20 ADD SWAP2 PUSH2 0xB31 JUMP JUMPDEST DUP3 ADD SWAP2 SWAP1 PUSH0 MSTORE PUSH1 0x20 PUSH0 KECCAK256 SWAP1 JUMPDEST DUP2 SLOAD DUP2 MSTORE SWAP1 PUSH1 0x1 ADD SWAP1 PUSH1 0x20 ADD DUP1 DUP4 GT PUSH2 0xB14 JUMPI DUP3 SWAP1 SUB PUSH1 0x1F AND DUP3 ADD SWAP2 JUMPDEST POP POP POP POP POP DUP2 JUMP JUMPDEST PUSH1 0x4 PUSH0 SWAP1 SLOAD SWAP1 PUSH2 0x100 EXP SWAP1 DIV PUSH20 0xFFFFFFFFFFFFFFFFFFFFFFFFFFFFFFFFFFFFFFFF AND PUSH20 0xFFFFFFFFFFFFFFFFFFFFFFFFFFFFFFFFFFFFFFFF AND CALLER PUSH20 0xFFFFFFFFFFFFFFFFFFFFFFFFFFFFFFFFFFFFFFFF AND EQ PUSH2 0xBC8 JUMPI PUSH1 0x40 MLOAD PUSH32 0x8C379A000000000000000000000000000000000000000000000000000000000 DUP2 MSTORE PUSH1 0x4 ADD PUSH2 0xBBF SWAP1 PUSH2 0x1ACB JUMP JUMPDEST PUSH1 0x40 MLOAD DUP1 SWAP2 SUB SWAP1 REVERT JUMPDEST PUSH1 0x5 DUP1 SLOAD SWAP1 POP DUP2 LT PUSH2 0xC0F JUMPI PUSH1 0x40 MLOAD PUSH32 0x8C379A000000000000000000000000000000000000000000000000000000000 DUP2 MSTORE PUSH1 0x4 ADD PUSH2 0xC06 SWAP1 PUSH2 0x1DDC JUMP JUMPDEST PUSH1 0x40 MLOAD DUP1 SWAP2 SUB SWAP1 REVERT JUMPDEST PUSH1 0x5 PUSH1 0x1 PUSH1 0x5 DUP1 SLOAD SWAP1 POP PUSH2 0xC23 SWAP2 SWAP1 PUSH2 0x1DFA JUMP JUMPDEST DUP2 SLOAD DUP2 LT PUSH2 0xC34 JUMPI PUSH2 0xC33 PUSH2 0x1E2D JUMP JUMPDEST JUMPDEST SWAP1 PUSH0 MSTORE PUSH1 0x20 PUSH0 KECCAK256 SWAP1 PUSH1 0x3 MUL ADD PUSH1 0x5 DUP3 DUP2 SLOAD DUP2 LT PUSH2 0xC54 JUMPI PUSH2 0xC53 PUSH2 0x1E2D JUMP JUMPDEST JUMPDEST SWAP1 PUSH0 MSTORE PUSH1 0x20 PUSH0 KECCAK256 SWAP1 PUSH1 0x3 MUL ADD PUSH0 DUP3 ADD DUP2 PUSH0 ADD SWAP1 DUP2 PUSH2 0xC72 SWAP2 SWAP1 PUSH2 0x200F JUMP JUMPDEST POP PUSH1 0x1 DUP3 ADD SLOAD DUP2 PUSH1 0x1 ADD SSTORE PUSH1 0x2 DUP3 ADD SLOAD DUP2 PUSH1 0x2 ADD SSTORE SWAP1 POP POP PUSH1 0x5 DUP1 SLOAD DUP1 PUSH2 0xC9C JUMPI PUSH2 0xC9B PUSH2 0x20F4 JUMP JUMPDEST JUMPDEST PUSH1 0x1 SWAP1 SUB DUP2 DUP2 SWAP1 PUSH0 MSTORE PUSH1 0x20 PUSH0 KECCAK256 SWAP1 PUSH1 0x3 MUL ADD PUSH0 PUSH0 DUP3 ADD PUSH0 PUSH2 0xCBD SWAP2 SWAP1 PUSH2 0x13BA JUMP JUMPDEST PUSH1 0x1 DUP3 ADD PUSH0 SWAP1 SSTORE PUSH1 0x2 DUP3 ADD PUSH0 SWAP1 SSTORE POP POP SWAP1 SSTORE POP JUMP JUMPDEST PUSH0 PUSH1 0x6 PUSH0 DUP5 PUSH20 0xFFFFFFFFFFFFFFFFFFFFFFFFFFFFFFFFFFFFFFFF AND PUSH20 0xFFFFFFFFFFFFFFFFFFFFFFFFFFFFFFFFFFFFFFFF AND DUP2 MSTORE PUSH1 0x20 ADD SWAP1 DUP2 MSTORE PUSH1 0x20 ADD PUSH0 KECCAK256 PUSH1 0x1 ADD PUSH0 DUP4 DUP2 MSTORE PUSH1 0x20 ADD SWAP1 DUP2 MSTORE PUSH1 0x20 ADD PUSH0 KECCAK256 PUSH0 SWAP1 SLOAD SWAP1 PUSH2 0x100 EXP SWAP1 DIV PUSH1 0xFF AND SWAP1 POP SWAP3 SWAP2 POP POP JUMP JUMPDEST PUSH1 0x4 PUSH0 SWAP1 SLOAD SWAP1 PUSH2 0x100 EXP SWAP1 DIV PUSH20 0xFFFFFFFFFFFFFFFFFFFFFFFFFFFFFFFFFFFFFFFF AND DUP2 JUMP JUMPDEST PUSH1 0x4 PUSH0 SWAP1 SLOAD SWAP1 PUSH2 0x100 EXP SWAP1 DIV PUSH20 0xFFFFFFFFFFFFFFFFFFFFFFFFFFFFFFFFFFFFFFFF AND PUSH20 0xFFFFFFFFFFFFFFFFFFFFFFFFFFFFFFFFFFFFFFFF AND CALLER PUSH20 0xFFFFFFFFFFFFFFFFFFFFFFFFFFFFFFFFFFFFFFFF AND EQ PUSH2 0xDEB JUMPI PUSH1 0x40 MLOAD PUSH32 0x8C379A000000000000000000000000000000000000000000000000000000000 DUP2 MSTORE PUSH1 0x4 ADD PUSH2 0xDE2 SWAP1 PUSH2 0x1ACB JUMP JUMPDEST PUSH1 0x40 MLOAD DUP1 SWAP2 SUB SWAP1 REVERT JUMPDEST PUSH0 DUP2 GT PUSH2 0xE2D JUMPI PUSH1 0x40 MLOAD PUSH32 0x8C379A000000000000000000000000000000000000000000000000000000000 DUP2 MSTORE PUSH1 0x4 ADD PUSH2 0xE24 SWAP1 PUSH2 0x216B JUMP JUMPDEST PUSH1 0x40 MLOAD DUP1 SWAP2 SUB SWAP1 REVERT JUMPDEST PUSH1 0x5 PUSH1 0x40 MLOAD DUP1 PUSH1 0x60 ADD PUSH1 0x40 MSTORE DUP1 DUP5 DUP2 MSTORE PUSH1 0x20 ADD DUP4 DUP2 MSTORE PUSH1 0x20 ADD PUSH0 DUP2 MSTORE POP SWAP1 DUP1 PUSH1 0x1 DUP2 SLOAD ADD DUP1 DUP3 SSTORE DUP1 SWAP2 POP POP PUSH1 0x1 SWAP1 SUB SWAP1 PUSH0 MSTORE PUSH1 0x20 PUSH0 KECCAK256 SWAP1 PUSH1 0x3 MUL ADD PUSH0 SWAP1 SWAP2 SWAP1 SWAP2 SWAP1 SWAP2 POP PUSH0 DUP3 ADD MLOAD DUP2 PUSH0 ADD SWAP1 DUP2 PUSH2 0xE83 SWAP2 SWAP1 PUSH2 0x2189 JUMP JUMPDEST POP PUSH1 0x20 DUP3 ADD MLOAD DUP2 PUSH1 0x1 ADD SSTORE PUSH1 0x40 DUP3 ADD MLOAD DUP2 PUSH1 0x2 ADD SSTORE POP POP POP POP JUMP JUMPDEST PUSH1 0x6 PUSH1 0x20 MSTORE DUP1 PUSH0 MSTORE PUSH1 0x40 PUSH0 KECCAK256 PUSH0 SWAP2 POP SWAP1 POP DUP1 PUSH0 ADD SLOAD SWAP1 POP DUP2 JUMP JUMPDEST PUSH1 0x4 PUSH1 0x15 SWAP1 SLOAD SWAP1 PUSH2 0x100 EXP SWAP1 DIV PUSH1 0xFF AND DUP2 JUMP JUMPDEST PUSH0 PUSH1 0x2 DUP2 GT ISZERO PUSH2 0xEDE JUMPI PUSH2 0xEDD PUSH2 0x155C JUMP JUMPDEST JUMPDEST PUSH1 0x4 PUSH1 0x15 SWAP1 SLOAD SWAP1 PUSH2 0x100 EXP SWAP1 DIV PUSH1 0xFF AND PUSH1 0x2 DUP2 GT ISZERO PUSH2 0xF00 JUMPI PUSH2 0xEFF PUSH2 0x155C JUMP JUMPDEST JUMPDEST EQ PUSH2 0xF40 JUMPI PUSH1 0x40 MLOAD PUSH32 0x8C379A000000000000000000000000000000000000000000000000000000000 DUP2 MSTORE PUSH1 0x4 ADD PUSH2 0xF37 SWAP1 PUSH2 0x1B33 JUMP JUMPDEST PUSH1 0x40 MLOAD DUP1 SWAP2 SUB SWAP1 REVERT JUMPDEST PUSH1 0x4 PUSH1 0x14 SWAP1 SLOAD SWAP1 PUSH2 0x100 EXP SWAP1 DIV PUSH1 0xFF AND ISZERO PUSH2 0xF90 JUMPI PUSH1 0x40 MLOAD PUSH32 0x8C379A000000000000000000000000000000000000000000000000000000000 DUP2 MSTORE PUSH1 0x4 ADD PUSH2 0xF87 SWAP1 PUSH2 0x22A2 JUMP JUMPDEST PUSH1 0x40 MLOAD DUP1 SWAP2 SUB SWAP1 REVERT JUMPDEST PUSH1 0x5 DUP1 SLOAD SWAP1 POP DUP2 LT PUSH2 0xFD7 JUMPI PUSH1 0x40 MLOAD PUSH32 0x8C379A000000000000000000000000000000000000000000000000000000000 DUP2 MSTORE PUSH1 0x4 ADD PUSH2 0xFCE SWAP1 PUSH2 0x230A JUMP JUMPDEST PUSH1 0x40 MLOAD DUP1 SWAP2 SUB SWAP1 REVERT JUMPDEST PUSH1 0x5 DUP2 DUP2 SLOAD DUP2 LT PUSH2 0xFEB JUMPI PUSH2 0xFEA PUSH2 0x1E2D JUMP JUMPDEST JUMPDEST SWAP1 PUSH0 MSTORE PUSH1 0x20 PUSH0 KECCAK256 SWAP1 PUSH1 0x3 MUL ADD PUSH1 0x1 ADD SLOAD CALLVALUE EQ PUSH2 0x103C JUMPI PUSH1 0x40 MLOAD PUSH32 0x8C379A000000000000000000000000000000000000000000000000000000000 DUP2 MSTORE PUSH1 0x4 ADD PUSH2 0x1033 SWAP1 PUSH2 0x2372 JUMP JUMPDEST PUSH1 0x40 MLOAD DUP1 SWAP2 SUB SWAP1 REVERT JUMPDEST PUSH1 0x5 DUP2 DUP2 SLOAD DUP2 LT PUSH2 0x1050 JUMPI PUSH2 0x104F PUSH2 0x1E2D JUMP JUMPDEST JUMPDEST SWAP1 PUSH0 MSTORE PUSH1 0x20 PUSH0 KECCAK256 SWAP1 PUSH1 0x3 MUL ADD PUSH1 0x2 ADD PUSH0 DUP2 SLOAD DUP1 SWAP3 SWAP2 SWAP1 PUSH2 0x106F SWAP1 PUSH2 0x2390 JUMP JUMPDEST SWAP2 SWAP1 POP SSTORE POP CALLVALUE PUSH1 0x6 PUSH0 CALLER PUSH20 0xFFFFFFFFFFFFFFFFFFFFFFFFFFFFFFFFFFFFFFFF AND PUSH20 0xFFFFFFFFFFFFFFFFFFFFFFFFFFFFFFFFFFFFFFFF AND DUP2 MSTORE PUSH1 0x20 ADD SWAP1 DUP2 MSTORE PUSH1 0x20 ADD PUSH0 KECCAK256 PUSH0 ADD PUSH0 DUP3 DUP3 SLOAD PUSH2 0x10C2 SWAP2 SWAP1 PUSH2 0x1BBF JUMP JUMPDEST SWAP3 POP POP DUP2 SWAP1 SSTORE POP PUSH1 0x1 PUSH1 0x6 PUSH0 CALLER PUSH20 0xFFFFFFFFFFFFFFFFFFFFFFFFFFFFFFFFFFFFFFFF AND PUSH20 0xFFFFFFFFFFFFFFFFFFFFFFFFFFFFFFFFFFFFFFFF AND DUP2 MSTORE PUSH1 0x20 ADD SWAP1 DUP2 MSTORE PUSH1 0x20 ADD PUSH0 KECCAK256 PUSH1 0x1 ADD PUSH0 DUP4 DUP2 MSTORE PUSH1 0x20 ADD SWAP1 DUP2 MSTORE PUSH1 0x20 ADD PUSH0 KECCAK256 PUSH0 PUSH2 0x100 EXP DUP2 SLOAD DUP2 PUSH1 0xFF MUL NOT AND SWAP1 DUP4 ISZERO ISZERO MUL OR SWAP1 SSTORE POP PUSH2 0x1138 PUSH2 0x12F5 JUMP JUMPDEST POP JUMP JUMPDEST PUSH1 0x4 PUSH0 SWAP1 SLOAD SWAP1 PUSH2 0x100 EXP SWAP1 DIV PUSH20 0xFFFFFFFFFFFFFFFFFFFFFFFFFFFFFFFFFFFFFFFF AND PUSH20 0xFFFFFFFFFFFFFFFFFFFFFFFFFFFFFFFFFFFFFFFF AND CALLER PUSH20 0xFFFFFFFFFFFFFFFFFFFFFFFFFFFFFFFFFFFFFFFF AND EQ PUSH2 0x11CA JUMPI PUSH1 0x40 MLOAD PUSH32 0x8C379A000000000000000000000000000000000000000000000000000000000 DUP2 MSTORE PUSH1 0x4 ADD PUSH2 0x11C1 SWAP1 PUSH2 0x1ACB JUMP JUMPDEST PUSH1 0x40 MLOAD DUP1 SWAP2 SUB SWAP1 REVERT JUMPDEST PUSH1 0x4 PUSH1 0x14 SWAP1 SLOAD SWAP1 PUSH2 0x100 EXP SWAP1 DIV PUSH1 0xFF AND ISZERO PUSH1 0x4 PUSH1 0x14 PUSH2 0x100 EXP DUP2 SLOAD DUP2 PUSH1 0xFF MUL NOT AND SWAP1 DUP4 ISZERO ISZERO MUL OR SWAP1 SSTORE POP JUMP JUMPDEST PUSH1 0x60 PUSH1 0x5 DUP1 SLOAD DUP1 PUSH1 0x20 MUL PUSH1 0x20 ADD PUSH1 0x40 MLOAD SWAP1 DUP2 ADD PUSH1 0x40 MSTORE DUP1 SWAP3 SWAP2 SWAP1 DUP2 DUP2 MSTORE PUSH1 0x20 ADD PUSH0 SWAP1 JUMPDEST DUP3 DUP3 LT ISZERO PUSH2 0x12EC JUMPI DUP4 DUP3 SWAP1 PUSH0 MSTORE PUSH1 0x20 PUSH0 KECCAK256 SWAP1 PUSH1 0x3 MUL ADD PUSH1 0x40 MLOAD DUP1 PUSH1 0x60 ADD PUSH1 0x40 MSTORE SWAP1 DUP2 PUSH0 DUP3 ADD DUP1 SLOAD PUSH2 0x1249 SWAP1 PUSH2 0x1A51 JUMP JUMPDEST DUP1 PUSH1 0x1F ADD PUSH1 0x20 DUP1 SWAP2 DIV MUL PUSH1 0x20 ADD PUSH1 0x40 MLOAD SWAP1 DUP2 ADD PUSH1 0x40 MSTORE DUP1 SWAP3 SWAP2 SWAP1 DUP2 DUP2 MSTORE PUSH1 0x20 ADD DUP3 DUP1 SLOAD PUSH2 0x1275 SWAP1 PUSH2 0x1A51 JUMP JUMPDEST DUP1 ISZERO PUSH2 0x12C0 JUMPI DUP1 PUSH1 0x1F LT PUSH2 0x1297 JUMPI PUSH2 0x100 DUP1 DUP4 SLOAD DIV MUL DUP4 MSTORE SWAP2 PUSH1 0x20 ADD SWAP2 PUSH2 0x12C0 JUMP JUMPDEST DUP3 ADD SWAP2 SWAP1 PUSH0 MSTORE PUSH1 0x20 PUSH0 KECCAK256 SWAP1 JUMPDEST DUP2 SLOAD DUP2 MSTORE SWAP1 PUSH1 0x1 ADD SWAP1 PUSH1 0x20 ADD DUP1 DUP4 GT PUSH2 0x12A3 JUMPI DUP3 SWAP1 SUB PUSH1 0x1F AND DUP3 ADD SWAP2 JUMPDEST POP POP POP POP POP DUP2 MSTORE PUSH1 0x20 ADD PUSH1 0x1 DUP3 ADD SLOAD DUP2 MSTORE PUSH1 0x20 ADD PUSH1 0x2 DUP3 ADD SLOAD DUP2 MSTORE POP POP DUP2 MSTORE PUSH1 0x20 ADD SWAP1 PUSH1 0x1 ADD SWAP1 PUSH2 0x1219 JUMP JUMPDEST POP POP POP POP SWAP1 POP SWAP1 JUMP JUMPDEST PUSH0 PUSH1 0x2 DUP2 GT ISZERO PUSH2 0x1308 JUMPI PUSH2 0x1307 PUSH2 0x155C JUMP JUMPDEST JUMPDEST PUSH1 0x4 PUSH1 0x15 SWAP1 SLOAD SWAP1 PUSH2 0x100 EXP SWAP1 DIV PUSH1 0xFF AND PUSH1 0x2 DUP2 GT ISZERO PUSH2 0x132A JUMPI PUSH2 0x1329 PUSH2 0x155C JUMP JUMPDEST JUMPDEST SUB PUSH2 0x13B8 JUMPI PUSH1 0x3 SLOAD TIMESTAMP LT PUSH2 0x137A JUMPI PUSH1 0x2 SLOAD SELFBALANCE LT ISZERO PUSH2 0x1349 JUMPI PUSH1 0x2 PUSH2 0x134C JUMP JUMPDEST PUSH1 0x1 JUMPDEST PUSH1 0x4 PUSH1 0x15 PUSH2 0x100 EXP DUP2 SLOAD DUP2 PUSH1 0xFF MUL NOT AND SWAP1 DUP4 PUSH1 0x2 DUP2 GT ISZERO PUSH2 0x1370 JUMPI PUSH2 0x136F PUSH2 0x155C JUMP JUMPDEST JUMPDEST MUL OR SWAP1 SSTORE POP PUSH2 0x13B7 JUMP JUMPDEST PUSH1 0x2 SLOAD SELFBALANCE LT ISZERO PUSH2 0x138A JUMPI PUSH0 PUSH2 0x138D JUMP JUMPDEST PUSH1 0x1 JUMPDEST PUSH1 0x4 PUSH1 0x15 PUSH2 0x100 EXP DUP2 SLOAD DUP2 PUSH1 0xFF MUL NOT AND SWAP1 DUP4 PUSH1 0x2 DUP2 GT ISZERO PUSH2 0x13B1 JUMPI PUSH2 0x13B0 PUSH2 0x155C JUMP JUMPDEST JUMPDEST MUL OR SWAP1 SSTORE POP JUMPDEST JUMPDEST JUMP JUMPDEST POP DUP1 SLOAD PUSH2 0x13C6 SWAP1 PUSH2 0x1A51 JUMP JUMPDEST PUSH0 DUP3 SSTORE DUP1 PUSH1 0x1F LT PUSH2 0x13D7 JUMPI POP PUSH2 0x13F4 JUMP JUMPDEST PUSH1 0x1F ADD PUSH1 0x20 SWAP1 DIV SWAP1 PUSH0 MSTORE PUSH1 0x20 PUSH0 KECCAK256 SWAP1 DUP2 ADD SWAP1 PUSH2 0x13F3 SWAP2 SWAP1 PUSH2 0x13F7 JUMP JUMPDEST JUMPDEST POP JUMP JUMPDEST JUMPDEST DUP1 DUP3 GT ISZERO PUSH2 0x140E JUMPI PUSH0 DUP2 PUSH0 SWAP1 SSTORE POP PUSH1 0x1 ADD PUSH2 0x13F8 JUMP JUMPDEST POP SWAP1 JUMP JUMPDEST PUSH0 PUSH1 0x40 MLOAD SWAP1 POP SWAP1 JUMP JUMPDEST PUSH0 PUSH0 REVERT JUMPDEST PUSH0 PUSH0 REVERT JUMPDEST PUSH0 DUP2 SWAP1 POP SWAP2 SWAP1 POP JUMP JUMPDEST PUSH2 0x1435 DUP2 PUSH2 0x1423 JUMP JUMPDEST DUP2 EQ PUSH2 0x143F JUMPI PUSH0 PUSH0 REVERT JUMPDEST POP JUMP JUMPDEST PUSH0 DUP2 CALLDATALOAD SWAP1 POP PUSH2 0x1450 DUP2 PUSH2 0x142C JUMP JUMPDEST SWAP3 SWAP2 POP POP JUMP JUMPDEST PUSH0 PUSH1 0x20 DUP3 DUP5 SUB SLT ISZERO PUSH2 0x146B JUMPI PUSH2 0x146A PUSH2 0x141B JUMP JUMPDEST JUMPDEST PUSH0 PUSH2 0x1478 DUP5 DUP3 DUP6 ADD PUSH2 0x1442 JUMP JUMPDEST SWAP2 POP POP SWAP3 SWAP2 POP POP JUMP JUMPDEST PUSH0 DUP2 MLOAD SWAP1 POP SWAP2 SWAP1 POP JUMP JUMPDEST PUSH0 DUP3 DUP3 MSTORE PUSH1 0x20 DUP3 ADD SWAP1 POP SWAP3 SWAP2 POP POP JUMP JUMPDEST DUP3 DUP2 DUP4 MCOPY PUSH0 DUP4 DUP4 ADD MSTORE POP POP POP JUMP JUMPDEST PUSH0 PUSH1 0x1F NOT PUSH1 0x1F DUP4 ADD AND SWAP1 POP SWAP2 SWAP1 POP JUMP JUMPDEST PUSH0 PUSH2 0x14C3 DUP3 PUSH2 0x1481 JUMP JUMPDEST PUSH2 0x14CD DUP2 DUP6 PUSH2 0x148B JUMP JUMPDEST SWAP4 POP PUSH2 0x14DD DUP2 DUP6 PUSH1 0x20 DUP7 ADD PUSH2 0x149B JUMP JUMPDEST PUSH2 0x14E6 DUP2 PUSH2 0x14A9 JUMP JUMPDEST DUP5 ADD SWAP2 POP POP SWAP3 SWAP2 POP POP JUMP JUMPDEST PUSH2 0x14FA DUP2 PUSH2 0x1423 JUMP JUMPDEST DUP3 MSTORE POP POP JUMP JUMPDEST PUSH0 PUSH1 0x60 DUP3 ADD SWAP1 POP DUP2 DUP2 SUB PUSH0 DUP4 ADD MSTORE PUSH2 0x1518 DUP2 DUP7 PUSH2 0x14B9 JUMP JUMPDEST SWAP1 POP PUSH2 0x1527 PUSH1 0x20 DUP4 ADD DUP6 PUSH2 0x14F1 JUMP JUMPDEST PUSH2 0x1534 PUSH1 0x40 DUP4 ADD DUP5 PUSH2 0x14F1 JUMP JUMPDEST SWAP5 SWAP4 POP POP POP POP JUMP JUMPDEST PUSH0 PUSH1 0x20 DUP3 ADD SWAP1 POP DUP2 DUP2 SUB PUSH0 DUP4 ADD MSTORE PUSH2 0x1554 DUP2 DUP5 PUSH2 0x14B9 JUMP JUMPDEST SWAP1 POP SWAP3 SWAP2 POP POP JUMP JUMPDEST PUSH32 0x4E487B7100000000000000000000000000000000000000000000000000000000 PUSH0 MSTORE PUSH1 0x21 PUSH1 0x4 MSTORE PUSH1 0x24 PUSH0 REVERT JUMPDEST PUSH1 0x3 DUP2 LT PUSH2 0x159A JUMPI PUSH2 0x1599 PUSH2 0x155C JUMP JUMPDEST JUMPDEST POP JUMP JUMPDEST PUSH0 DUP2 SWAP1 POP PUSH2 0x15AA DUP3 PUSH2 0x1589 JUMP JUMPDEST SWAP2 SWAP1 POP JUMP JUMPDEST PUSH0 PUSH2 0x15B9 DUP3 PUSH2 0x159D JUMP JUMPDEST SWAP1 POP SWAP2 SWAP1 POP JUMP JUMPDEST PUSH2 0x15C9 DUP2 PUSH2 0x15AF JUMP JUMPDEST DUP3 MSTORE POP POP JUMP JUMPDEST PUSH0 PUSH1 0x20 DUP3 ADD SWAP1 POP PUSH2 0x15E2 PUSH0 DUP4 ADD DUP5 PUSH2 0x15C0 JUMP JUMPDEST SWAP3 SWAP2 POP POP JUMP JUMPDEST PUSH0 PUSH1 0x20 DUP3 ADD SWAP1 POP PUSH2 0x15FB PUSH0 DUP4 ADD DUP5 PUSH2 0x14F1 JUMP JUMPDEST SWAP3 SWAP2 POP POP JUMP JUMPDEST PUSH0 DUP2 ISZERO ISZERO SWAP1 POP SWAP2 SWAP1 POP JUMP JUMPDEST PUSH2 0x1615 DUP2 PUSH2 0x1601 JUMP JUMPDEST DUP3 MSTORE POP POP JUMP JUMPDEST PUSH0 PUSH1 0x20 DUP3 ADD SWAP1 POP PUSH2 0x162E PUSH0 DUP4 ADD DUP5 PUSH2 0x160C JUMP JUMPDEST SWAP3 SWAP2 POP POP JUMP JUMPDEST PUSH0 PUSH20 0xFFFFFFFFFFFFFFFFFFFFFFFFFFFFFFFFFFFFFFFF DUP3 AND SWAP1 POP SWAP2 SWAP1 POP JUMP JUMPDEST PUSH0 PUSH2 0x165D DUP3 PUSH2 0x1634 JUMP JUMPDEST SWAP1 POP SWAP2 SWAP1 POP JUMP JUMPDEST PUSH2 0x166D DUP2 PUSH2 0x1653 JUMP JUMPDEST DUP2 EQ PUSH2 0x1677 JUMPI PUSH0 PUSH0 REVERT JUMPDEST POP JUMP JUMPDEST PUSH0 DUP2 CALLDATALOAD SWAP1 POP PUSH2 0x1688 DUP2 PUSH2 0x1664 JUMP JUMPDEST SWAP3 SWAP2 POP POP JUMP JUMPDEST PUSH0 PUSH0 PUSH1 0x40 DUP4 DUP6 SUB SLT ISZERO PUSH2 0x16A4 JUMPI PUSH2 0x16A3 PUSH2 0x141B JUMP JUMPDEST JUMPDEST PUSH0 PUSH2 0x16B1 DUP6 DUP3 DUP7 ADD PUSH2 0x167A JUMP JUMPDEST SWAP3 POP POP PUSH1 0x20 PUSH2 0x16C2 DUP6 DUP3 DUP7 ADD PUSH2 0x1442 JUMP JUMPDEST SWAP2 POP POP SWAP3 POP SWAP3 SWAP1 POP JUMP JUMPDEST PUSH2 0x16D5 DUP2 PUSH2 0x1653 JUMP JUMPDEST DUP3 MSTORE POP POP JUMP JUMPDEST PUSH0 PUSH1 0x20 DUP3 ADD SWAP1 POP PUSH2 0x16EE PUSH0 DUP4 ADD DUP5 PUSH2 0x16CC JUMP JUMPDEST SWAP3 SWAP2 POP POP JUMP JUMPDEST PUSH0 PUSH0 REVERT JUMPDEST PUSH0 PUSH0 REVERT JUMPDEST PUSH32 0x4E487B7100000000000000000000000000000000000000000000000000000000 PUSH0 MSTORE PUSH1 0x41 PUSH1 0x4 MSTORE PUSH1 0x24 PUSH0 REVERT JUMPDEST PUSH2 0x1732 DUP3 PUSH2 0x14A9 JUMP JUMPDEST DUP2 ADD DUP2 DUP2 LT PUSH8 0xFFFFFFFFFFFFFFFF DUP3 GT OR ISZERO PUSH2 0x1751 JUMPI PUSH2 0x1750 PUSH2 0x16FC JUMP JUMPDEST JUMPDEST DUP1 PUSH1 0x40 MSTORE POP POP POP JUMP JUMPDEST PUSH0 PUSH2 0x1763 PUSH2 0x1412 JUMP JUMPDEST SWAP1 POP PUSH2 0x176F DUP3 DUP3 PUSH2 0x1729 JUMP JUMPDEST SWAP2 SWAP1 POP JUMP JUMPDEST PUSH0 PUSH8 0xFFFFFFFFFFFFFFFF DUP3 GT ISZERO PUSH2 0x178E JUMPI PUSH2 0x178D PUSH2 0x16FC JUMP JUMPDEST JUMPDEST PUSH2 0x1797 DUP3 PUSH2 0x14A9 JUMP JUMPDEST SWAP1 POP PUSH1 0x20 DUP2 ADD SWAP1 POP SWAP2 SWAP1 POP JUMP JUMPDEST DUP3 DUP2 DUP4 CALLDATACOPY PUSH0 DUP4 DUP4 ADD MSTORE POP POP POP JUMP JUMPDEST PUSH0 PUSH2 0x17C4 PUSH2 0x17BF DUP5 PUSH2 0x1774 JUMP JUMPDEST PUSH2 0x175A JUMP JUMPDEST SWAP1 POP DUP3 DUP2 MSTORE PUSH1 0x20 DUP2 ADD DUP5 DUP5 DUP5 ADD GT ISZERO PUSH2 0x17E0 JUMPI PUSH2 0x17DF PUSH2 0x16F8 JUMP JUMPDEST JUMPDEST PUSH2 0x17EB DUP5 DUP3 DUP6 PUSH2 0x17A4 JUMP JUMPDEST POP SWAP4 SWAP3 POP POP POP JUMP JUMPDEST PUSH0 DUP3 PUSH1 0x1F DUP4 ADD SLT PUSH2 0x1807 JUMPI PUSH2 0x1806 PUSH2 0x16F4 JUMP JUMPDEST JUMPDEST DUP2 CALLDATALOAD PUSH2 0x1817 DUP5 DUP3 PUSH1 0x20 DUP7 ADD PUSH2 0x17B2 JUMP JUMPDEST SWAP2 POP POP SWAP3 SWAP2 POP POP JUMP JUMPDEST PUSH0 PUSH0 PUSH1 0x40 DUP4 DUP6 SUB SLT ISZERO PUSH2 0x1836 JUMPI PUSH2 0x1835 PUSH2 0x141B JUMP JUMPDEST JUMPDEST PUSH0 DUP4 ADD CALLDATALOAD PUSH8 0xFFFFFFFFFFFFFFFF DUP2 GT ISZERO PUSH2 0x1853 JUMPI PUSH2 0x1852 PUSH2 0x141F JUMP JUMPDEST JUMPDEST PUSH2 0x185F DUP6 DUP3 DUP7 ADD PUSH2 0x17F3 JUMP JUMPDEST SWAP3 POP POP PUSH1 0x20 PUSH2 0x1870 DUP6 DUP3 DUP7 ADD PUSH2 0x1442 JUMP JUMPDEST SWAP2 POP POP SWAP3 POP SWAP3 SWAP1 POP JUMP JUMPDEST PUSH0 PUSH1 0x20 DUP3 DUP5 SUB SLT ISZERO PUSH2 0x188F JUMPI PUSH2 0x188E PUSH2 0x141B JUMP JUMPDEST JUMPDEST PUSH0 PUSH2 0x189C DUP5 DUP3 DUP6 ADD PUSH2 0x167A JUMP JUMPDEST SWAP2 POP POP SWAP3 SWAP2 POP POP JUMP JUMPDEST PUSH0 DUP2 MLOAD SWAP1 POP SWAP2 SWAP1 POP JUMP JUMPDEST PUSH0 DUP3 DUP3 MSTORE PUSH1 0x20 DUP3 ADD SWAP1 POP SWAP3 SWAP2 POP POP JUMP JUMPDEST PUSH0 DUP2 SWAP1 POP PUSH1 0x20 DUP3 ADD SWAP1 POP SWAP2 SWAP1 POP JUMP JUMPDEST PUSH0 DUP3 DUP3 MSTORE PUSH1 0x20 DUP3 ADD SWAP1 POP SWAP3 SWAP2 POP POP JUMP JUMPDEST PUSH0 PUSH2 0x18E8 DUP3 PUSH2 0x1481 JUMP JUMPDEST PUSH2 0x18F2 DUP2 DUP6 PUSH2 0x18CE JUMP JUMPDEST SWAP4 POP PUSH2 0x1902 DUP2 DUP6 PUSH1 0x20 DUP7 ADD PUSH2 0x149B JUMP JUMPDEST PUSH2 0x190B DUP2 PUSH2 0x14A9 JUMP JUMPDEST DUP5 ADD SWAP2 POP POP SWAP3 SWAP2 POP POP JUMP JUMPDEST PUSH2 0x191F DUP2 PUSH2 0x1423 JUMP JUMPDEST DUP3 MSTORE POP POP JUMP JUMPDEST PUSH0 PUSH1 0x60 DUP4 ADD PUSH0 DUP4 ADD MLOAD DUP5 DUP3 SUB PUSH0 DUP7 ADD MSTORE PUSH2 0x193F DUP3 DUP3 PUSH2 0x18DE JUMP JUMPDEST SWAP2 POP POP PUSH1 0x20 DUP4 ADD MLOAD PUSH2 0x1954 PUSH1 0x20 DUP7 ADD DUP3 PUSH2 0x1916 JUMP JUMPDEST POP PUSH1 0x40 DUP4 ADD MLOAD PUSH2 0x1967 PUSH1 0x40 DUP7 ADD DUP3 PUSH2 0x1916 JUMP JUMPDEST POP DUP1 SWAP2 POP POP SWAP3 SWAP2 POP POP JUMP JUMPDEST PUSH0 PUSH2 0x197D DUP4 DUP4 PUSH2 0x1925 JUMP JUMPDEST SWAP1 POP SWAP3 SWAP2 POP POP JUMP JUMPDEST PUSH0 PUSH1 0x20 DUP3 ADD SWAP1 POP SWAP2 SWAP1 POP JUMP JUMPDEST PUSH0 PUSH2 0x199B DUP3 PUSH2 0x18A5 JUMP JUMPDEST PUSH2 0x19A5 DUP2 DUP6 PUSH2 0x18AF JUMP JUMPDEST SWAP4 POP DUP4 PUSH1 0x20 DUP3 MUL DUP6 ADD PUSH2 0x19B7 DUP6 PUSH2 0x18BF JUMP JUMPDEST DUP1 PUSH0 JUMPDEST DUP6 DUP2 LT ISZERO PUSH2 0x19F2 JUMPI DUP5 DUP5 SUB DUP10 MSTORE DUP2 MLOAD PUSH2 0x19D3 DUP6 DUP3 PUSH2 0x1972 JUMP JUMPDEST SWAP5 POP PUSH2 0x19DE DUP4 PUSH2 0x1985 JUMP JUMPDEST SWAP3 POP PUSH1 0x20 DUP11 ADD SWAP10 POP POP PUSH1 0x1 DUP2 ADD SWAP1 POP PUSH2 0x19BA JUMP JUMPDEST POP DUP3 SWAP8 POP DUP8 SWAP6 POP POP POP POP POP POP SWAP3 SWAP2 POP POP JUMP JUMPDEST PUSH0 PUSH1 0x20 DUP3 ADD SWAP1 POP DUP2 DUP2 SUB PUSH0 DUP4 ADD MSTORE PUSH2 0x1A1C DUP2 DUP5 PUSH2 0x1991 JUMP JUMPDEST SWAP1 POP SWAP3 SWAP2 POP POP JUMP JUMPDEST PUSH32 0x4E487B7100000000000000000000000000000000000000000000000000000000 PUSH0 MSTORE PUSH1 0x22 PUSH1 0x4 MSTORE PUSH1 0x24 PUSH0 REVERT JUMPDEST PUSH0 PUSH1 0x2 DUP3 DIV SWAP1 POP PUSH1 0x1 DUP3 AND DUP1 PUSH2 0x1A68 JUMPI PUSH1 0x7F DUP3 AND SWAP2 POP JUMPDEST PUSH1 0x20 DUP3 LT DUP2 SUB PUSH2 0x1A7B JUMPI PUSH2 0x1A7A PUSH2 0x1A24 JUMP JUMPDEST JUMPDEST POP SWAP2 SWAP1 POP JUMP JUMPDEST PUSH32 0x4E6F7420746865206F776E657200000000000000000000000000000000000000 PUSH0 DUP3 ADD MSTORE POP JUMP JUMPDEST PUSH0 PUSH2 0x1AB5 PUSH1 0xD DUP4 PUSH2 0x148B JUMP JUMPDEST SWAP2 POP PUSH2 0x1AC0 DUP3 PUSH2 0x1A81 JUMP JUMPDEST PUSH1 0x20 DUP3 ADD SWAP1 POP SWAP2 SWAP1 POP JUMP JUMPDEST PUSH0 PUSH1 0x20 DUP3 ADD SWAP1 POP DUP2 DUP2 SUB PUSH0 DUP4 ADD MSTORE PUSH2 0x1AE2 DUP2 PUSH2 0x1AA9 JUMP JUMPDEST SWAP1 POP SWAP2 SWAP1 POP JUMP JUMPDEST PUSH32 0x43616D706169676E206973206E6F742061637469766520000000000000000000 PUSH0 DUP3 ADD MSTORE POP JUMP JUMPDEST PUSH0 PUSH2 0x1B1D PUSH1 0x17 DUP4 PUSH2 0x148B JUMP JUMPDEST SWAP2 POP PUSH2 0x1B28 DUP3 PUSH2 0x1AE9 JUMP JUMPDEST PUSH1 0x20 DUP3 ADD SWAP1 POP SWAP2 SWAP1 POP JUMP JUMPDEST PUSH0 PUSH1 0x20 DUP3 ADD SWAP1 POP DUP2 DUP2 SUB PUSH0 DUP4 ADD MSTORE PUSH2 0x1B4A DUP2 PUSH2 0x1B11 JUMP JUMPDEST SWAP1 POP SWAP2 SWAP1 POP JUMP JUMPDEST PUSH32 0x4E487B7100000000000000000000000000000000000000000000000000000000 PUSH0 MSTORE PUSH1 0x11 PUSH1 0x4 MSTORE PUSH1 0x24 PUSH0 REVERT JUMPDEST PUSH0 PUSH2 0x1B88 DUP3 PUSH2 0x1423 JUMP JUMPDEST SWAP2 POP PUSH2 0x1B93 DUP4 PUSH2 0x1423 JUMP JUMPDEST SWAP3 POP DUP3 DUP3 MUL PUSH2 0x1BA1 DUP2 PUSH2 0x1423 JUMP JUMPDEST SWAP2 POP DUP3 DUP3 DIV DUP5 EQ DUP4 ISZERO OR PUSH2 0x1BB8 JUMPI PUSH2 0x1BB7 PUSH2 0x1B51 JUMP JUMPDEST JUMPDEST POP SWAP3 SWAP2 POP POP JUMP JUMPDEST PUSH0 PUSH2 0x1BC9 DUP3 PUSH2 0x1423 JUMP JUMPDEST SWAP2 POP PUSH2 0x1BD4 DUP4 PUSH2 0x1423 JUMP JUMPDEST SWAP3 POP DUP3 DUP3 ADD SWAP1 POP DUP1 DUP3 GT ISZERO PUSH2 0x1BEC JUMPI PUSH2 0x1BEB PUSH2 0x1B51 JUMP JUMPDEST JUMPDEST SWAP3 SWAP2 POP POP JUMP JUMPDEST PUSH32 0x43616D706167696E206E6F74207375636365737366756C000000000000000000 PUSH0 DUP3 ADD MSTORE POP JUMP JUMPDEST PUSH0 PUSH2 0x1C26 PUSH1 0x17 DUP4 PUSH2 0x148B JUMP JUMPDEST SWAP2 POP PUSH2 0x1C31 DUP3 PUSH2 0x1BF2 JUMP JUMPDEST PUSH1 0x20 DUP3 ADD SWAP1 POP SWAP2 SWAP1 POP JUMP JUMPDEST PUSH0 PUSH1 0x20 DUP3 ADD SWAP1 POP DUP2 DUP2 SUB PUSH0 DUP4 ADD MSTORE PUSH2 0x1C53 DUP2 PUSH2 0x1C1A JUMP JUMPDEST SWAP1 POP SWAP2 SWAP1 POP JUMP JUMPDEST PUSH32 0x4E6F2062616C616E636520746F2077697468647261772E000000000000000000 PUSH0 DUP3 ADD MSTORE POP JUMP JUMPDEST PUSH0 PUSH2 0x1C8E PUSH1 0x17 DUP4 PUSH2 0x148B JUMP JUMPDEST SWAP2 POP PUSH2 0x1C99 DUP3 PUSH2 0x1C5A JUMP JUMPDEST PUSH1 0x20 DUP3 ADD SWAP1 POP SWAP2 SWAP1 POP JUMP JUMPDEST PUSH0 PUSH1 0x20 DUP3 ADD SWAP1 POP DUP2 DUP2 SUB PUSH0 DUP4 ADD MSTORE PUSH2 0x1CBB DUP2 PUSH2 0x1C82 JUMP JUMPDEST SWAP1 POP SWAP2 SWAP1 POP JUMP JUMPDEST PUSH32 0x526566756E6473206E6F74207375636365737366756C00000000000000000000 PUSH0 DUP3 ADD MSTORE POP JUMP JUMPDEST PUSH0 PUSH2 0x1CF6 PUSH1 0x16 DUP4 PUSH2 0x148B JUMP JUMPDEST SWAP2 POP PUSH2 0x1D01 DUP3 PUSH2 0x1CC2 JUMP JUMPDEST PUSH1 0x20 DUP3 ADD SWAP1 POP SWAP2 SWAP1 POP JUMP JUMPDEST PUSH0 PUSH1 0x20 DUP3 ADD SWAP1 POP DUP2 DUP2 SUB PUSH0 DUP4 ADD MSTORE PUSH2 0x1D23 DUP2 PUSH2 0x1CEA JUMP JUMPDEST SWAP1 POP SWAP2 SWAP1 POP JUMP JUMPDEST PUSH32 0x4E6F20436F6E747275627574696F6E20526566756E6465640000000000000000 PUSH0 DUP3 ADD MSTORE POP JUMP JUMPDEST PUSH0 PUSH2 0x1D5E PUSH1 0x18 DUP4 PUSH2 0x148B JUMP JUMPDEST SWAP2 POP PUSH2 0x1D69 DUP3 PUSH2 0x1D2A JUMP JUMPDEST PUSH1 0x20 DUP3 ADD SWAP1 POP SWAP2 SWAP1 POP JUMP JUMPDEST PUSH0 PUSH1 0x20 DUP3 ADD SWAP1 POP DUP2 DUP2 SUB PUSH0 DUP4 ADD MSTORE PUSH2 0x1D8B DUP2 PUSH2 0x1D52 JUMP JUMPDEST SWAP1 POP SWAP2 SWAP1 POP JUMP JUMPDEST PUSH32 0x746972657320646F6573206E6F74206578697473000000000000000000000000 PUSH0 DUP3 ADD MSTORE POP JUMP JUMPDEST PUSH0 PUSH2 0x1DC6 PUSH1 0x14 DUP4 PUSH2 0x148B JUMP JUMPDEST SWAP2 POP PUSH2 0x1DD1 DUP3 PUSH2 0x1D92 JUMP JUMPDEST PUSH1 0x20 DUP3 ADD SWAP1 POP SWAP2 SWAP1 POP JUMP JUMPDEST PUSH0 PUSH1 0x20 DUP3 ADD SWAP1 POP DUP2 DUP2 SUB PUSH0 DUP4 ADD MSTORE PUSH2 0x1DF3 DUP2 PUSH2 0x1DBA JUMP JUMPDEST SWAP1 POP SWAP2 SWAP1 POP JUMP JUMPDEST PUSH0 PUSH2 0x1E04 DUP3 PUSH2 0x1423 JUMP JUMPDEST SWAP2 POP PUSH2 0x1E0F DUP4 PUSH2 0x1423 JUMP JUMPDEST SWAP3 POP DUP3 DUP3 SUB SWAP1 POP DUP2 DUP2 GT ISZERO PUSH2 0x1E27 JUMPI PUSH2 0x1E26 PUSH2 0x1B51 JUMP JUMPDEST JUMPDEST SWAP3 SWAP2 POP POP JUMP JUMPDEST PUSH32 0x4E487B7100000000000000000000000000000000000000000000000000000000 PUSH0 MSTORE PUSH1 0x32 PUSH1 0x4 MSTORE PUSH1 0x24 PUSH0 REVERT JUMPDEST PUSH0 DUP2 SLOAD SWAP1 POP PUSH2 0x1E68 DUP2 PUSH2 0x1A51 JUMP JUMPDEST SWAP1 POP SWAP2 SWAP1 POP JUMP JUMPDEST PUSH0 DUP2 SWAP1 POP DUP2 PUSH0 MSTORE PUSH1 0x20 PUSH0 KECCAK256 SWAP1 POP SWAP2 SWAP1 POP JUMP JUMPDEST PUSH0 PUSH1 0x20 PUSH1 0x1F DUP4 ADD DIV SWAP1 POP SWAP2 SWAP1 POP JUMP JUMPDEST PUSH0 DUP3 DUP3 SHL SWAP1 POP SWAP3 SWAP2 POP POP JUMP JUMPDEST PUSH0 PUSH1 0x8 DUP4 MUL PUSH2 0x1ECB PUSH32 0xFFFFFFFFFFFFFFFFFFFFFFFFFFFFFFFFFFFFFFFFFFFFFFFFFFFFFFFFFFFFFFFF DUP3 PUSH2 0x1E90 JUMP JUMPDEST PUSH2 0x1ED5 DUP7 DUP4 PUSH2 0x1E90 JUMP JUMPDEST SWAP6 POP DUP1 NOT DUP5 AND SWAP4 POP DUP1 DUP7 AND DUP5 OR SWAP3 POP POP POP SWAP4 SWAP3 POP POP POP JUMP JUMPDEST PUSH0 DUP2 SWAP1 POP SWAP2 SWAP1 POP JUMP JUMPDEST PUSH0 PUSH2 0x1F10 PUSH2 0x1F0B PUSH2 0x1F06 DUP5 PUSH2 0x1423 JUMP JUMPDEST PUSH2 0x1EED JUMP JUMPDEST PUSH2 0x1423 JUMP JUMPDEST SWAP1 POP SWAP2 SWAP1 POP JUMP JUMPDEST PUSH0 DUP2 SWAP1 POP SWAP2 SWAP1 POP JUMP JUMPDEST PUSH2 0x1F29 DUP4 PUSH2 0x1EF6 JUMP JUMPDEST PUSH2 0x1F3D PUSH2 0x1F35 DUP3 PUSH2 0x1F17 JUMP JUMPDEST DUP5 DUP5 SLOAD PUSH2 0x1E9C JUMP JUMPDEST DUP3 SSTORE POP POP POP POP JUMP JUMPDEST PUSH0 PUSH0 SWAP1 POP SWAP1 JUMP JUMPDEST PUSH2 0x1F54 PUSH2 0x1F45 JUMP JUMPDEST PUSH2 0x1F5F DUP2 DUP5 DUP5 PUSH2 0x1F20 JUMP JUMPDEST POP POP POP JUMP JUMPDEST JUMPDEST DUP2 DUP2 LT ISZERO PUSH2 0x1F82 JUMPI PUSH2 0x1F77 PUSH0 DUP3 PUSH2 0x1F4C JUMP JUMPDEST PUSH1 0x1 DUP2 ADD SWAP1 POP PUSH2 0x1F65 JUMP JUMPDEST POP POP JUMP JUMPDEST PUSH1 0x1F DUP3 GT ISZERO PUSH2 0x1FC7 JUMPI PUSH2 0x1F98 DUP2 PUSH2 0x1E6F JUMP JUMPDEST PUSH2 0x1FA1 DUP5 PUSH2 0x1E81 JUMP JUMPDEST DUP2 ADD PUSH1 0x20 DUP6 LT ISZERO PUSH2 0x1FB0 JUMPI DUP2 SWAP1 POP JUMPDEST PUSH2 0x1FC4 PUSH2 0x1FBC DUP6 PUSH2 0x1E81 JUMP JUMPDEST DUP4 ADD DUP3 PUSH2 0x1F64 JUMP JUMPDEST POP POP JUMPDEST POP POP POP JUMP JUMPDEST PUSH0 DUP3 DUP3 SHR SWAP1 POP SWAP3 SWAP2 POP POP JUMP JUMPDEST PUSH0 PUSH2 0x1FE7 PUSH0 NOT DUP5 PUSH1 0x8 MUL PUSH2 0x1FCC JUMP JUMPDEST NOT DUP1 DUP4 AND SWAP2 POP POP SWAP3 SWAP2 POP POP JUMP JUMPDEST PUSH0 PUSH2 0x1FFF DUP4 DUP4 PUSH2 0x1FD8 JUMP JUMPDEST SWAP2 POP DUP3 PUSH1 0x2 MUL DUP3 OR SWAP1 POP SWAP3 SWAP2 POP POP JUMP JUMPDEST DUP2 DUP2 SUB PUSH2 0x201D JUMPI POP POP PUSH2 0x20F2 JUMP JUMPDEST PUSH2 0x2026 DUP3 PUSH2 0x1E5A JUMP JUMPDEST PUSH8 0xFFFFFFFFFFFFFFFF DUP2 GT ISZERO PUSH2 0x203F JUMPI PUSH2 0x203E PUSH2 0x16FC JUMP JUMPDEST JUMPDEST PUSH2 0x2049 DUP3 SLOAD PUSH2 0x1A51 JUMP JUMPDEST PUSH2 0x2054 DUP3 DUP3 DUP6 PUSH2 0x1F86 JUMP JUMPDEST PUSH0 PUSH1 0x1F DUP4 GT PUSH1 0x1 DUP2 EQ PUSH2 0x2081 JUMPI PUSH0 DUP5 ISZERO PUSH2 0x206F JUMPI DUP3 DUP8 ADD SLOAD SWAP1 POP JUMPDEST PUSH2 0x2079 DUP6 DUP3 PUSH2 0x1FF4 JUMP JUMPDEST DUP7 SSTORE POP PUSH2 0x20EB JUMP JUMPDEST PUSH1 0x1F NOT DUP5 AND PUSH2 0x208F DUP8 PUSH2 0x1E6F JUMP JUMPDEST SWAP7 POP PUSH2 0x209A DUP7 PUSH2 0x1E6F JUMP JUMPDEST PUSH0 JUMPDEST DUP3 DUP2 LT ISZERO PUSH2 0x20C1 JUMPI DUP5 DUP10 ADD SLOAD DUP3 SSTORE PUSH1 0x1 DUP3 ADD SWAP2 POP PUSH1 0x1 DUP6 ADD SWAP5 POP PUSH1 0x20 DUP2 ADD SWAP1 POP PUSH2 0x209C JUMP JUMPDEST DUP7 DUP4 LT ISZERO PUSH2 0x20DE JUMPI DUP5 DUP10 ADD SLOAD PUSH2 0x20DA PUSH1 0x1F DUP10 AND DUP3 PUSH2 0x1FD8 JUMP JUMPDEST DUP4 SSTORE POP JUMPDEST PUSH1 0x1 PUSH1 0x2 DUP9 MUL ADD DUP9 SSTORE POP POP POP JUMPDEST POP POP POP POP POP POP JUMPDEST JUMP JUMPDEST PUSH32 0x4E487B7100000000000000000000000000000000000000000000000000000000 PUSH0 MSTORE PUSH1 0x31 PUSH1 0x4 MSTORE PUSH1 0x24 PUSH0 REVERT JUMPDEST PUSH32 0x416D6F756E74206D7573742062652067726561746572207468616E207A65726F PUSH0 DUP3 ADD MSTORE POP JUMP JUMPDEST PUSH0 PUSH2 0x2155 PUSH1 0x20 DUP4 PUSH2 0x148B JUMP JUMPDEST SWAP2 POP PUSH2 0x2160 DUP3 PUSH2 0x2121 JUMP JUMPDEST PUSH1 0x20 DUP3 ADD SWAP1 POP SWAP2 SWAP1 POP JUMP JUMPDEST PUSH0 PUSH1 0x20 DUP3 ADD SWAP1 POP DUP2 DUP2 SUB PUSH0 DUP4 ADD MSTORE PUSH2 0x2182 DUP2 PUSH2 0x2149 JUMP JUMPDEST SWAP1 POP SWAP2 SWAP1 POP JUMP JUMPDEST PUSH2 0x2192 DUP3 PUSH2 0x1481 JUMP JUMPDEST PUSH8 0xFFFFFFFFFFFFFFFF DUP2 GT ISZERO PUSH2 0x21AB JUMPI PUSH2 0x21AA PUSH2 0x16FC JUMP JUMPDEST JUMPDEST PUSH2 0x21B5 DUP3 SLOAD PUSH2 0x1A51 JUMP JUMPDEST PUSH2 0x21C0 DUP3 DUP3 DUP6 PUSH2 0x1F86 JUMP JUMPDEST PUSH0 PUSH1 0x20 SWAP1 POP PUSH1 0x1F DUP4 GT PUSH1 0x1 DUP2 EQ PUSH2 0x21F1 JUMPI PUSH0 DUP5 ISZERO PUSH2 0x21DF JUMPI DUP3 DUP8 ADD MLOAD SWAP1 POP JUMPDEST PUSH2 0x21E9 DUP6 DUP3 PUSH2 0x1FF4 JUMP JUMPDEST DUP7 SSTORE POP PUSH2 0x2250 JUMP JUMPDEST PUSH1 0x1F NOT DUP5 AND PUSH2 0x21FF DUP7 PUSH2 0x1E6F JUMP JUMPDEST PUSH0 JUMPDEST DUP3 DUP2 LT ISZERO PUSH2 0x2226 JUMPI DUP5 DUP10 ADD MLOAD DUP3 SSTORE PUSH1 0x1 DUP3 ADD SWAP2 POP PUSH1 0x20 DUP6 ADD SWAP5 POP PUSH1 0x20 DUP2 ADD SWAP1 POP PUSH2 0x2201 JUMP JUMPDEST DUP7 DUP4 LT ISZERO PUSH2 0x2243 JUMPI DUP5 DUP10 ADD MLOAD PUSH2 0x223F PUSH1 0x1F DUP10 AND DUP3 PUSH2 0x1FD8 JUMP JUMPDEST DUP4 SSTORE POP JUMPDEST PUSH1 0x1 PUSH1 0x2 DUP9 MUL ADD DUP9 SSTORE POP POP POP JUMPDEST POP POP POP POP POP POP JUMP JUMPDEST PUSH32 0x436F6E7472616374206973205061737565640000000000000000000000000000 PUSH0 DUP3 ADD MSTORE POP JUMP JUMPDEST PUSH0 PUSH2 0x228C PUSH1 0x12 DUP4 PUSH2 0x148B JUMP JUMPDEST SWAP2 POP PUSH2 0x2297 DUP3 PUSH2 0x2258 JUMP JUMPDEST PUSH1 0x20 DUP3 ADD SWAP1 POP SWAP2 SWAP1 POP JUMP JUMPDEST PUSH0 PUSH1 0x20 DUP3 ADD SWAP1 POP DUP2 DUP2 SUB PUSH0 DUP4 ADD MSTORE PUSH2 0x22B9 DUP2 PUSH2 0x2280 JUMP JUMPDEST SWAP1 POP SWAP2 SWAP1 POP JUMP JUMPDEST PUSH32 0x746965727320646F6573206E6F74206578697473000000000000000000000000 PUSH0 DUP3 ADD MSTORE POP JUMP JUMPDEST PUSH0 PUSH2 0x22F4 PUSH1 0x14 DUP4 PUSH2 0x148B JUMP JUMPDEST SWAP2 POP PUSH2 0x22FF DUP3 PUSH2 0x22C0 JUMP JUMPDEST PUSH1 0x20 DUP3 ADD SWAP1 POP SWAP2 SWAP1 POP JUMP JUMPDEST PUSH0 PUSH1 0x20 DUP3 ADD SWAP1 POP DUP2 DUP2 SUB PUSH0 DUP4 ADD MSTORE PUSH2 0x2321 DUP2 PUSH2 0x22E8 JUMP JUMPDEST SWAP1 POP SWAP2 SWAP1 POP JUMP JUMPDEST PUSH32 0x696E636F727265637420616D6F756E7400000000000000000000000000000000 PUSH0 DUP3 ADD MSTORE POP JUMP JUMPDEST PUSH0 PUSH2 0x235C PUSH1 0x10 DUP4 PUSH2 0x148B JUMP JUMPDEST SWAP2 POP PUSH2 0x2367 DUP3 PUSH2 0x2328 JUMP JUMPDEST PUSH1 0x20 DUP3 ADD SWAP1 POP SWAP2 SWAP1 POP JUMP JUMPDEST PUSH0 PUSH1 0x20 DUP3 ADD SWAP1 POP DUP2 DUP2 SUB PUSH0 DUP4 ADD MSTORE PUSH2 0x2389 DUP2 PUSH2 0x2350 JUMP JUMPDEST SWAP1 POP SWAP2 SWAP1 POP JUMP JUMPDEST PUSH0 PUSH2 0x239A DUP3 PUSH2 0x1423 JUMP JUMPDEST SWAP2 POP PUSH32 0xFFFFFFFFFFFFFFFFFFFFFFFFFFFFFFFFFFFFFFFFFFFFFFFFFFFFFFFFFFFFFFFF DUP3 SUB PUSH2 0x23CC JUMPI PUSH2 0x23CB PUSH2 0x1B51 JUMP JUMPDEST JUMPDEST PUSH1 0x1 DUP3 ADD SWAP1 POP SWAP2 SWAP1 POP JUMP INVALID LOG2 PUSH5 0x6970667358 0x22 SLT KECCAK256 DUP3 MOD DUP16 PUSH7 0xB52EF7B54F8B73 JUMPI 0x22 0xBD SELFDESTRUCT 0xD6 PREVRANDAO SWAP2 GASLIMIT EXP CREATE 0xC 0xCA PUSH31 0xCAB345CECACA44D64736F6C634300081E0033000000000000000000000000 "
				},
				"gasEstimates": {
					"creation": {
						"codeDepositCost": "1845800",
						"executionCost": "infinite",
						"totalCost": "infinite"
					},
					"external": {
						"addTier(string,uint256)": "infinite",
						"backers(address)": "2837",
						"deadline()": "2515",
						"description()": "infinite",
						"extendDeadline(uint256)": "infinite",
						"fund(uint256)": "infinite",
						"getCampaignStatus()": "7074",
						"getContractBalance()": "445",
						"getTiers()": "infinite",
						"goal()": "2470",
						"hasFundedTier(address,uint256)": "3189",
						"name()": "infinite",
						"owner()": "2597",
						"paused()": "2606",
						"refund()": "infinite",
						"removeTier(uint256)": "infinite",
						"state()": "2649",
						"tiers(uint256)": "infinite",
						"tooglePause()": "28906",
						"withdraw()": "infinite"
					},
					"internal": {
						"checkAndUpdateCampaginState()": "30878"
					}
				},
				"methodIdentifiers": {
					"addTier(string,uint256)": "8ece7b91",
					"backers(address)": "b85dfb80",
					"deadline()": "29dcb0cf",
					"description()": "7284e416",
					"extendDeadline(uint256)": "389b7533",
					"fund(uint256)": "ca1d209d",
					"getCampaignStatus()": "10550515",
					"getContractBalance()": "6f9fb98a",
					"getTiers()": "de170570",
					"goal()": "40193883",
					"hasFundedTier(address,uint256)": "7adba527",
					"name()": "06fdde03",
					"owner()": "8da5cb5b",
					"paused()": "5c975abb",
					"refund()": "590e1ae3",
					"removeTier(uint256)": "7497211b",
					"state()": "c19d93fb",
					"tiers(uint256)": "039af9eb",
					"tooglePause()": "d621a776",
					"withdraw()": "3ccfd60b"
				}
			},
			"storageLayout": {
				"storage": [
					{
						"astId": 3,
						"contract": "contracts/CrowdFunding.sol:CrowdFunding",
						"label": "name",
						"offset": 0,
						"slot": "0",
						"type": "t_string_storage"
					},
					{
						"astId": 5,
						"contract": "contracts/CrowdFunding.sol:CrowdFunding",
						"label": "description",
						"offset": 0,
						"slot": "1",
						"type": "t_string_storage"
					},
					{
						"astId": 7,
						"contract": "contracts/CrowdFunding.sol:CrowdFunding",
						"label": "goal",
						"offset": 0,
						"slot": "2",
						"type": "t_uint256"
					},
					{
						"astId": 9,
						"contract": "contracts/CrowdFunding.sol:CrowdFunding",
						"label": "deadline",
						"offset": 0,
						"slot": "3",
						"type": "t_uint256"
					},
					{
						"astId": 11,
						"contract": "contracts/CrowdFunding.sol:CrowdFunding",
						"label": "owner",
						"offset": 0,
						"slot": "4",
						"type": "t_address"
					},
					{
						"astId": 13,
						"contract": "contracts/CrowdFunding.sol:CrowdFunding",
						"label": "paused",
						"offset": 20,
						"slot": "4",
						"type": "t_bool"
					},
					{
						"astId": 20,
						"contract": "contracts/CrowdFunding.sol:CrowdFunding",
						"label": "state",
						"offset": 21,
						"slot": "4",
						"type": "t_enum(CampaginState)17"
					},
					{
						"astId": 38,
						"contract": "contracts/CrowdFunding.sol:CrowdFunding",
						"label": "tiers",
						"offset": 0,
						"slot": "5",
						"type": "t_array(t_struct(Tier)27_storage)dyn_storage"
					},
					{
						"astId": 43,
						"contract": "contracts/CrowdFunding.sol:CrowdFunding",
						"label": "backers",
						"offset": 0,
						"slot": "6",
						"type": "t_mapping(t_address,t_struct(Backer)34_storage)"
					}
				],
				"types": {
					"t_address": {
						"encoding": "inplace",
						"label": "address",
						"numberOfBytes": "20"
					},
					"t_array(t_struct(Tier)27_storage)dyn_storage": {
						"base": "t_struct(Tier)27_storage",
						"encoding": "dynamic_array",
						"label": "struct CrowdFunding.Tier[]",
						"numberOfBytes": "32"
					},
					"t_bool": {
						"encoding": "inplace",
						"label": "bool",
						"numberOfBytes": "1"
					},
					"t_enum(CampaginState)17": {
						"encoding": "inplace",
						"label": "enum CrowdFunding.CampaginState",
						"numberOfBytes": "1"
					},
					"t_mapping(t_address,t_struct(Backer)34_storage)": {
						"encoding": "mapping",
						"key": "t_address",
						"label": "mapping(address => struct CrowdFunding.Backer)",
						"numberOfBytes": "32",
						"value": "t_struct(Backer)34_storage"
					},
					"t_mapping(t_uint256,t_bool)": {
						"encoding": "mapping",
						"key": "t_uint256",
						"label": "mapping(uint256 => bool)",
						"numberOfBytes": "32",
						"value": "t_bool"
					},
					"t_string_storage": {
						"encoding": "bytes",
						"label": "string",
						"numberOfBytes": "32"
					},
					"t_struct(Backer)34_storage": {
						"encoding": "inplace",
						"label": "struct CrowdFunding.Backer",
						"members": [
							{
								"astId": 29,
								"contract": "contracts/CrowdFunding.sol:CrowdFunding",
								"label": "totalContribution",
								"offset": 0,
								"slot": "0",
								"type": "t_uint256"
							},
							{
								"astId": 33,
								"contract": "contracts/CrowdFunding.sol:CrowdFunding",
								"label": "fundedTiers",
								"offset": 0,
								"slot": "1",
								"type": "t_mapping(t_uint256,t_bool)"
							}
						],
						"numberOfBytes": "64"
					},
					"t_struct(Tier)27_storage": {
						"encoding": "inplace",
						"label": "struct CrowdFunding.Tier",
						"members": [
							{
								"astId": 22,
								"contract": "contracts/CrowdFunding.sol:CrowdFunding",
								"label": "name",
								"offset": 0,
								"slot": "0",
								"type": "t_string_storage"
							},
							{
								"astId": 24,
								"contract": "contracts/CrowdFunding.sol:CrowdFunding",
								"label": "amount",
								"offset": 0,
								"slot": "1",
								"type": "t_uint256"
							},
							{
								"astId": 26,
								"contract": "contracts/CrowdFunding.sol:CrowdFunding",
								"label": "backers",
								"offset": 0,
								"slot": "2",
								"type": "t_uint256"
							}
						],
						"numberOfBytes": "96"
					},
					"t_uint256": {
						"encoding": "inplace",
						"label": "uint256",
						"numberOfBytes": "32"
					}
				}
			},
			"userdoc": {
				"kind": "user",
				"methods": {},
				"version": 1
			}
		}
	}
}