{
	"data": {
		"bytecode": {
			"linkReferences": {},
			"object": "608060405234801561000f575f5ffd5b50604051611c23380380611c2383398181016040528101906100319190610240565b835f908161003f91906104e3565b50826001908161004f91906104e3565b5081600281905550620151808161006691906105df565b426100719190610620565b6003819055503360045f6101000a81548173ffffffffffffffffffffffffffffffffffffffff021916908373ffffffffffffffffffffffffffffffffffffffff16021790555050505050610653565b5f604051905090565b5f5ffd5b5f5ffd5b5f5ffd5b5f5ffd5b5f601f19601f8301169050919050565b7f4e487b71000000000000000000000000000000000000000000000000000000005f52604160045260245ffd5b61011f826100d9565b810181811067ffffffffffffffff8211171561013e5761013d6100e9565b5b80604052505050565b5f6101506100c0565b905061015c8282610116565b919050565b5f67ffffffffffffffff82111561017b5761017a6100e9565b5b610184826100d9565b9050602081019050919050565b8281835e5f83830152505050565b5f6101b16101ac84610161565b610147565b9050828152602081018484840111156101cd576101cc6100d5565b5b6101d8848285610191565b509392505050565b5f82601f8301126101f4576101f36100d1565b5b815161020484826020860161019f565b91505092915050565b5f819050919050565b61021f8161020d565b8114610229575f5ffd5b50565b5f8151905061023a81610216565b92915050565b5f5f5f5f60808587031215610258576102576100c9565b5b5f85015167ffffffffffffffff811115610275576102746100cd565b5b610281878288016101e0565b945050602085015167ffffffffffffffff8111156102a2576102a16100cd565b5b6102ae878288016101e0565b93505060406102bf8782880161022c565b92505060606102d08782880161022c565b91505092959194509250565b5f81519050919050565b7f4e487b71000000000000000000000000000000000000000000000000000000005f52602260045260245ffd5b5f600282049050600182168061032a57607f821691505b60208210810361033d5761033c6102e6565b5b50919050565b5f819050815f5260205f209050919050565b5f6020601f8301049050919050565b5f82821b905092915050565b5f6008830261039f7fffffffffffffffffffffffffffffffffffffffffffffffffffffffffffffffff82610364565b6103a98683610364565b95508019841693508086168417925050509392505050565b5f819050919050565b5f6103e46103df6103da8461020d565b6103c1565b61020d565b9050919050565b5f819050919050565b6103fd836103ca565b610411610409826103eb565b848454610370565b825550505050565b5f5f905090565b610428610419565b6104338184846103f4565b505050565b5b818110156104565761044b5f82610420565b600181019050610439565b5050565b601f82111561049b5761046c81610343565b61047584610355565b81016020851015610484578190505b61049861049085610355565b830182610438565b50505b505050565b5f82821c905092915050565b5f6104bb5f19846008026104a0565b1980831691505092915050565b5f6104d383836104ac565b9150826002028217905092915050565b6104ec826102dc565b67ffffffffffffffff811115610505576105046100e9565b5b61050f8254610313565b61051a82828561045a565b5f60209050601f83116001811461054b575f8415610539578287015190505b61054385826104c8565b8655506105aa565b601f19841661055986610343565b5f5b828110156105805784890151825560018201915060208501945060208101905061055b565b8683101561059d5784890151610599601f8916826104ac565b8355505b6001600288020188555050505b505050505050565b7f4e487b71000000000000000000000000000000000000000000000000000000005f52601160045260245ffd5b5f6105e98261020d565b91506105f48361020d565b92508282026106028161020d565b91508282048414831517610619576106186105b2565b5b5092915050565b5f61062a8261020d565b91506106358361020d565b925082820190508082111561064d5761064c6105b2565b5b92915050565b6115c3806106605f395ff3fe60806040526004361061009b575f3560e01c80636f9fb98a116100635780636f9fb98a146101715780637284e4161461019b5780637497211b146101c55780638da5cb5b146101ed5780638ece7b9114610217578063ca1d209d1461023f5761009b565b8063039af9eb1461009f57806306fdde03146100dd57806329dcb0cf146101075780633ccfd60b146101315780634019388314610147575b5f5ffd5b3480156100aa575f5ffd5b506100c560048036038101906100c09190610a89565b61025b565b6040516100d493929190610b33565b60405180910390f35b3480156100e8575f5ffd5b506100f1610316565b6040516100fe9190610b6f565b60405180910390f35b348015610112575f5ffd5b5061011b6103a1565b6040516101289190610b8f565b60405180910390f35b34801561013c575f5ffd5b506101456103a7565b005b348015610152575f5ffd5b5061015b610529565b6040516101689190610b8f565b60405180910390f35b34801561017c575f5ffd5b5061018561052f565b6040516101929190610b8f565b60405180910390f35b3480156101a6575f5ffd5b506101af610536565b6040516101bc9190610b6f565b60405180910390f35b3480156101d0575f5ffd5b506101eb60048036038101906101e69190610a89565b6105c2565b005b3480156101f8575f5ffd5b5061020161075b565b60405161020e9190610be7565b60405180910390f35b348015610222575f5ffd5b5061023d60048036038101906102389190610d2c565b610780565b005b61025960048036038101906102549190610a89565b6108c2565b005b6005818154811061026a575f80fd5b905f5260205f2090600302015f91509050805f01805461028990610db3565b80601f01602080910402602001604051908101604052809291908181526020018280546102b590610db3565b80156103005780601f106102d757610100808354040283529160200191610300565b820191905f5260205f20905b8154815290600101906020018083116102e357829003601f168201915b5050505050908060010154908060020154905083565b5f805461032290610db3565b80601f016020809104026020016040519081016040528092919081815260200182805461034e90610db3565b80156103995780601f1061037057610100808354040283529160200191610399565b820191905f5260205f20905b81548152906001019060200180831161037c57829003601f168201915b505050505081565b60035481565b60045f9054906101000a900473ffffffffffffffffffffffffffffffffffffffff1673ffffffffffffffffffffffffffffffffffffffff163373ffffffffffffffffffffffffffffffffffffffff1614610436576040517f08c379a000000000000000000000000000000000000000000000000000000000815260040161042d90610e2d565b60405180910390fd5b60025447101561047b576040517f08c379a000000000000000000000000000000000000000000000000000000000815260040161047290610e95565b60405180910390fd5b5f4790505f81116104c1576040517f08c379a00000000000000000000000000000000000000000000000000000000081526004016104b890610efd565b60405180910390fd5b60045f9054906101000a900473ffffffffffffffffffffffffffffffffffffffff1673ffffffffffffffffffffffffffffffffffffffff166108fc8290811502906040515f60405180830381858888f19350505050158015610525573d5f5f3e3d5ffd5b5050565b60025481565b5f47905090565b6001805461054390610db3565b80601f016020809104026020016040519081016040528092919081815260200182805461056f90610db3565b80156105ba5780601f10610591576101008083540402835291602001916105ba565b820191905f5260205f20905b81548152906001019060200180831161059d57829003601f168201915b505050505081565b60045f9054906101000a900473ffffffffffffffffffffffffffffffffffffffff1673ffffffffffffffffffffffffffffffffffffffff163373ffffffffffffffffffffffffffffffffffffffff1614610651576040517f08c379a000000000000000000000000000000000000000000000000000000000815260040161064890610e2d565b60405180910390fd5b6005805490508110610698576040517f08c379a000000000000000000000000000000000000000000000000000000000815260040161068f90610f65565b60405180910390fd5b600560016005805490506106ac9190610fb0565b815481106106bd576106bc610fe3565b5b905f5260205f209060030201600582815481106106dd576106dc610fe3565b5b905f5260205f2090600302015f8201815f0190816106fb91906111c5565b5060018201548160010155600282015481600201559050506005805480610725576107246112aa565b5b600190038181905f5260205f2090600302015f5f82015f61074691906109ed565b600182015f9055600282015f90555050905550565b60045f9054906101000a900473ffffffffffffffffffffffffffffffffffffffff1681565b60045f9054906101000a900473ffffffffffffffffffffffffffffffffffffffff1673ffffffffffffffffffffffffffffffffffffffff163373ffffffffffffffffffffffffffffffffffffffff161461080f576040517f08c379a000000000000000000000000000000000000000000000000000000000815260040161080690610e2d565b60405180910390fd5b5f8111610851576040517f08c379a000000000000000000000000000000000000000000000000000000000815260040161084890611321565b60405180910390fd5b600560405180606001604052808481526020018381526020015f815250908060018154018082558091505060019003905f5260205f2090600302015f909190919091505f820151815f0190816108a7919061133f565b50602082015181600101556040820151816002015550505050565b6003544210610906576040517f08c379a00000000000000000000000000000000000000000000000000000000081526004016108fd90611458565b60405180910390fd5b600580549050811061094d576040517f08c379a0000000000000000000000000000000000000000000000000000000008152600401610944906114c0565b60405180910390fd5b6005818154811061096157610960610fe3565b5b905f5260205f2090600302016001015434146109b2576040517f08c379a00000000000000000000000000000000000000000000000000000000081526004016109a990611528565b60405180910390fd5b600581815481106109c6576109c5610fe3565b5b905f5260205f2090600302016002015f8154809291906109e590611546565b919050555050565b5080546109f990610db3565b5f825580601f10610a0a5750610a27565b601f0160209004905f5260205f2090810190610a269190610a2a565b5b50565b5b80821115610a41575f815f905550600101610a2b565b5090565b5f604051905090565b5f5ffd5b5f5ffd5b5f819050919050565b610a6881610a56565b8114610a72575f5ffd5b50565b5f81359050610a8381610a5f565b92915050565b5f60208284031215610a9e57610a9d610a4e565b5b5f610aab84828501610a75565b91505092915050565b5f81519050919050565b5f82825260208201905092915050565b8281835e5f83830152505050565b5f601f19601f8301169050919050565b5f610af682610ab4565b610b008185610abe565b9350610b10818560208601610ace565b610b1981610adc565b840191505092915050565b610b2d81610a56565b82525050565b5f6060820190508181035f830152610b4b8186610aec565b9050610b5a6020830185610b24565b610b676040830184610b24565b949350505050565b5f6020820190508181035f830152610b878184610aec565b905092915050565b5f602082019050610ba25f830184610b24565b92915050565b5f73ffffffffffffffffffffffffffffffffffffffff82169050919050565b5f610bd182610ba8565b9050919050565b610be181610bc7565b82525050565b5f602082019050610bfa5f830184610bd8565b92915050565b5f5ffd5b5f5ffd5b7f4e487b71000000000000000000000000000000000000000000000000000000005f52604160045260245ffd5b610c3e82610adc565b810181811067ffffffffffffffff82111715610c5d57610c5c610c08565b5b80604052505050565b5f610c6f610a45565b9050610c7b8282610c35565b919050565b5f67ffffffffffffffff821115610c9a57610c99610c08565b5b610ca382610adc565b9050602081019050919050565b828183375f83830152505050565b5f610cd0610ccb84610c80565b610c66565b905082815260208101848484011115610cec57610ceb610c04565b5b610cf7848285610cb0565b509392505050565b5f82601f830112610d1357610d12610c00565b5b8135610d23848260208601610cbe565b91505092915050565b5f5f60408385031215610d4257610d41610a4e565b5b5f83013567ffffffffffffffff811115610d5f57610d5e610a52565b5b610d6b85828601610cff565b9250506020610d7c85828601610a75565b9150509250929050565b7f4e487b71000000000000000000000000000000000000000000000000000000005f52602260045260245ffd5b5f6002820490506001821680610dca57607f821691505b602082108103610ddd57610ddc610d86565b5b50919050565b7f4e6f7420746865206f776e6572000000000000000000000000000000000000005f82015250565b5f610e17600d83610abe565b9150610e2282610de3565b602082019050919050565b5f6020820190508181035f830152610e4481610e0b565b9050919050565b7f476f616c20686173206e6f74206265656e2072656163686564000000000000005f82015250565b5f610e7f601983610abe565b9150610e8a82610e4b565b602082019050919050565b5f6020820190508181035f830152610eac81610e73565b9050919050565b7f4e6f2062616c616e636520746f2077697468647261772e0000000000000000005f82015250565b5f610ee7601783610abe565b9150610ef282610eb3565b602082019050919050565b5f6020820190508181035f830152610f1481610edb565b9050919050565b7f746972657320646f6573206e6f742065786974730000000000000000000000005f82015250565b5f610f4f601483610abe565b9150610f5a82610f1b565b602082019050919050565b5f6020820190508181035f830152610f7c81610f43565b9050919050565b7f4e487b71000000000000000000000000000000000000000000000000000000005f52601160045260245ffd5b5f610fba82610a56565b9150610fc583610a56565b9250828203905081811115610fdd57610fdc610f83565b5b92915050565b7f4e487b71000000000000000000000000000000000000000000000000000000005f52603260045260245ffd5b5f8154905061101e81610db3565b9050919050565b5f819050815f5260205f209050919050565b5f6020601f8301049050919050565b5f82821b905092915050565b5f600883026110817fffffffffffffffffffffffffffffffffffffffffffffffffffffffffffffffff82611046565b61108b8683611046565b95508019841693508086168417925050509392505050565b5f819050919050565b5f6110c66110c16110bc84610a56565b6110a3565b610a56565b9050919050565b5f819050919050565b6110df836110ac565b6110f36110eb826110cd565b848454611052565b825550505050565b5f5f905090565b61110a6110fb565b6111158184846110d6565b505050565b5b818110156111385761112d5f82611102565b60018101905061111b565b5050565b601f82111561117d5761114e81611025565b61115784611037565b81016020851015611166578190505b61117a61117285611037565b83018261111a565b50505b505050565b5f82821c905092915050565b5f61119d5f1984600802611182565b1980831691505092915050565b5f6111b5838361118e565b9150826002028217905092915050565b8181036111d35750506112a8565b6111dc82611010565b67ffffffffffffffff8111156111f5576111f4610c08565b5b6111ff8254610db3565b61120a82828561113c565b5f601f831160018114611237575f8415611225578287015490505b61122f85826111aa565b8655506112a1565b601f19841661124587611025565b965061125086611025565b5f5b8281101561127757848901548255600182019150600185019450602081019050611252565b868310156112945784890154611290601f89168261118e565b8355505b6001600288020188555050505b5050505050505b565b7f4e487b71000000000000000000000000000000000000000000000000000000005f52603160045260245ffd5b7f416d6f756e74206d7573742062652067726561746572207468616e207a65726f5f82015250565b5f61130b602083610abe565b9150611316826112d7565b602082019050919050565b5f6020820190508181035f830152611338816112ff565b9050919050565b61134882610ab4565b67ffffffffffffffff81111561136157611360610c08565b5b61136b8254610db3565b61137682828561113c565b5f60209050601f8311600181146113a7575f8415611395578287015190505b61139f85826111aa565b865550611406565b601f1984166113b586611025565b5f5b828110156113dc578489015182556001820191506020850194506020810190506113b7565b868310156113f957848901516113f5601f89168261118e565b8355505b6001600288020188555050505b505050505050565b7f43616d706169676e2068617320656e64656400000000000000000000000000005f82015250565b5f611442601283610abe565b915061144d8261140e565b602082019050919050565b5f6020820190508181035f83015261146f81611436565b9050919050565b7f746965727320646f6573206e6f742065786974730000000000000000000000005f82015250565b5f6114aa601483610abe565b91506114b582611476565b602082019050919050565b5f6020820190508181035f8301526114d78161149e565b9050919050565b7f696e636f727265637420616d6f756e74000000000000000000000000000000005f82015250565b5f611512601083610abe565b915061151d826114de565b602082019050919050565b5f6020820190508181035f83015261153f81611506565b9050919050565b5f61155082610a56565b91507fffffffffffffffffffffffffffffffffffffffffffffffffffffffffffffffff820361158257611581610f83565b5b60018201905091905056fea2646970667358221220cd446c57c9e620ef2cda4ad7106308d1904846b79c4c60955d773a640f0f7a3564736f6c634300081e0033",
			"opcodes": "PUSH1 0x80 PUSH1 0x40 MSTORE CALLVALUE DUP1 ISZERO PUSH2 0xF JUMPI PUSH0 PUSH0 REVERT JUMPDEST POP PUSH1 0x40 MLOAD PUSH2 0x1C23 CODESIZE SUB DUP1 PUSH2 0x1C23 DUP4 CODECOPY DUP2 DUP2 ADD PUSH1 0x40 MSTORE DUP2 ADD SWAP1 PUSH2 0x31 SWAP2 SWAP1 PUSH2 0x240 JUMP JUMPDEST DUP4 PUSH0 SWAP1 DUP2 PUSH2 0x3F SWAP2 SWAP1 PUSH2 0x4E3 JUMP JUMPDEST POP DUP3 PUSH1 0x1 SWAP1 DUP2 PUSH2 0x4F SWAP2 SWAP1 PUSH2 0x4E3 JUMP JUMPDEST POP DUP2 PUSH1 0x2 DUP2 SWAP1 SSTORE POP PUSH3 0x15180 DUP2 PUSH2 0x66 SWAP2 SWAP1 PUSH2 0x5DF JUMP JUMPDEST TIMESTAMP PUSH2 0x71 SWAP2 SWAP1 PUSH2 0x620 JUMP JUMPDEST PUSH1 0x3 DUP2 SWAP1 SSTORE POP CALLER PUSH1 0x4 PUSH0 PUSH2 0x100 EXP DUP2 SLOAD DUP2 PUSH20 0xFFFFFFFFFFFFFFFFFFFFFFFFFFFFFFFFFFFFFFFF MUL NOT AND SWAP1 DUP4 PUSH20 0xFFFFFFFFFFFFFFFFFFFFFFFFFFFFFFFFFFFFFFFF AND MUL OR SWAP1 SSTORE POP POP POP POP POP PUSH2 0x653 JUMP JUMPDEST PUSH0 PUSH1 0x40 MLOAD SWAP1 POP SWAP1 JUMP JUMPDEST PUSH0 PUSH0 REVERT JUMPDEST PUSH0 PUSH0 REVERT JUMPDEST PUSH0 PUSH0 REVERT JUMPDEST PUSH0 PUSH0 REVERT JUMPDEST PUSH0 PUSH1 0x1F NOT PUSH1 0x1F DUP4 ADD AND SWAP1 POP SWAP2 SWAP1 POP JUMP JUMPDEST PUSH32 0x4E487B7100000000000000000000000000000000000000000000000000000000 PUSH0 MSTORE PUSH1 0x41 PUSH1 0x4 MSTORE PUSH1 0x24 PUSH0 REVERT JUMPDEST PUSH2 0x11F DUP3 PUSH2 0xD9 JUMP JUMPDEST DUP2 ADD DUP2 DUP2 LT PUSH8 0xFFFFFFFFFFFFFFFF DUP3 GT OR ISZERO PUSH2 0x13E JUMPI PUSH2 0x13D PUSH2 0xE9 JUMP JUMPDEST JUMPDEST DUP1 PUSH1 0x40 MSTORE POP POP POP JUMP JUMPDEST PUSH0 PUSH2 0x150 PUSH2 0xC0 JUMP JUMPDEST SWAP1 POP PUSH2 0x15C DUP3 DUP3 PUSH2 0x116 JUMP JUMPDEST SWAP2 SWAP1 POP JUMP JUMPDEST PUSH0 PUSH8 0xFFFFFFFFFFFFFFFF DUP3 GT ISZERO PUSH2 0x17B JUMPI PUSH2 0x17A PUSH2 0xE9 JUMP JUMPDEST JUMPDEST PUSH2 0x184 DUP3 PUSH2 0xD9 JUMP JUMPDEST SWAP1 POP PUSH1 0x20 DUP2 ADD SWAP1 POP SWAP2 SWAP1 POP JUMP JUMPDEST DUP3 DUP2 DUP4 MCOPY PUSH0 DUP4 DUP4 ADD MSTORE POP POP POP JUMP JUMPDEST PUSH0 PUSH2 0x1B1 PUSH2 0x1AC DUP5 PUSH2 0x161 JUMP JUMPDEST PUSH2 0x147 JUMP JUMPDEST SWAP1 POP DUP3 DUP2 MSTORE PUSH1 0x20 DUP2 ADD DUP5 DUP5 DUP5 ADD GT ISZERO PUSH2 0x1CD JUMPI PUSH2 0x1CC PUSH2 0xD5 JUMP JUMPDEST JUMPDEST PUSH2 0x1D8 DUP5 DUP3 DUP6 PUSH2 0x191 JUMP JUMPDEST POP SWAP4 SWAP3 POP POP POP JUMP JUMPDEST PUSH0 DUP3 PUSH1 0x1F DUP4 ADD SLT PUSH2 0x1F4 JUMPI PUSH2 0x1F3 PUSH2 0xD1 JUMP JUMPDEST JUMPDEST DUP2 MLOAD PUSH2 0x204 DUP5 DUP3 PUSH1 0x20 DUP7 ADD PUSH2 0x19F JUMP JUMPDEST SWAP2 POP POP SWAP3 SWAP2 POP POP JUMP JUMPDEST PUSH0 DUP2 SWAP1 POP SWAP2 SWAP1 POP JUMP JUMPDEST PUSH2 0x21F DUP2 PUSH2 0x20D JUMP JUMPDEST DUP2 EQ PUSH2 0x229 JUMPI PUSH0 PUSH0 REVERT JUMPDEST POP JUMP JUMPDEST PUSH0 DUP2 MLOAD SWAP1 POP PUSH2 0x23A DUP2 PUSH2 0x216 JUMP JUMPDEST SWAP3 SWAP2 POP POP JUMP JUMPDEST PUSH0 PUSH0 PUSH0 PUSH0 PUSH1 0x80 DUP6 DUP8 SUB SLT ISZERO PUSH2 0x258 JUMPI PUSH2 0x257 PUSH2 0xC9 JUMP JUMPDEST JUMPDEST PUSH0 DUP6 ADD MLOAD PUSH8 0xFFFFFFFFFFFFFFFF DUP2 GT ISZERO PUSH2 0x275 JUMPI PUSH2 0x274 PUSH2 0xCD JUMP JUMPDEST JUMPDEST PUSH2 0x281 DUP8 DUP3 DUP9 ADD PUSH2 0x1E0 JUMP JUMPDEST SWAP5 POP POP PUSH1 0x20 DUP6 ADD MLOAD PUSH8 0xFFFFFFFFFFFFFFFF DUP2 GT ISZERO PUSH2 0x2A2 JUMPI PUSH2 0x2A1 PUSH2 0xCD JUMP JUMPDEST JUMPDEST PUSH2 0x2AE DUP8 DUP3 DUP9 ADD PUSH2 0x1E0 JUMP JUMPDEST SWAP4 POP POP PUSH1 0x40 PUSH2 0x2BF DUP8 DUP3 DUP9 ADD PUSH2 0x22C JUMP JUMPDEST SWAP3 POP POP PUSH1 0x60 PUSH2 0x2D0 DUP8 DUP3 DUP9 ADD PUSH2 0x22C JUMP JUMPDEST SWAP2 POP POP SWAP3 SWAP6 SWAP2 SWAP5 POP SWAP3 POP JUMP JUMPDEST PUSH0 DUP2 MLOAD SWAP1 POP SWAP2 SWAP1 POP JUMP JUMPDEST PUSH32 0x4E487B7100000000000000000000000000000000000000000000000000000000 PUSH0 MSTORE PUSH1 0x22 PUSH1 0x4 MSTORE PUSH1 0x24 PUSH0 REVERT JUMPDEST PUSH0 PUSH1 0x2 DUP3 DIV SWAP1 POP PUSH1 0x1 DUP3 AND DUP1 PUSH2 0x32A JUMPI PUSH1 0x7F DUP3 AND SWAP2 POP JUMPDEST PUSH1 0x20 DUP3 LT DUP2 SUB PUSH2 0x33D JUMPI PUSH2 0x33C PUSH2 0x2E6 JUMP JUMPDEST JUMPDEST POP SWAP2 SWAP1 POP JUMP JUMPDEST PUSH0 DUP2 SWAP1 POP DUP2 PUSH0 MSTORE PUSH1 0x20 PUSH0 KECCAK256 SWAP1 POP SWAP2 SWAP1 POP JUMP JUMPDEST PUSH0 PUSH1 0x20 PUSH1 0x1F DUP4 ADD DIV SWAP1 POP SWAP2 SWAP1 POP JUMP JUMPDEST PUSH0 DUP3 DUP3 SHL SWAP1 POP SWAP3 SWAP2 POP POP JUMP JUMPDEST PUSH0 PUSH1 0x8 DUP4 MUL PUSH2 0x39F PUSH32 0xFFFFFFFFFFFFFFFFFFFFFFFFFFFFFFFFFFFFFFFFFFFFFFFFFFFFFFFFFFFFFFFF DUP3 PUSH2 0x364 JUMP JUMPDEST PUSH2 0x3A9 DUP7 DUP4 PUSH2 0x364 JUMP JUMPDEST SWAP6 POP DUP1 NOT DUP5 AND SWAP4 POP DUP1 DUP7 AND DUP5 OR SWAP3 POP POP POP SWAP4 SWAP3 POP POP POP JUMP JUMPDEST PUSH0 DUP2 SWAP1 POP SWAP2 SWAP1 POP JUMP JUMPDEST PUSH0 PUSH2 0x3E4 PUSH2 0x3DF PUSH2 0x3DA DUP5 PUSH2 0x20D JUMP JUMPDEST PUSH2 0x3C1 JUMP JUMPDEST PUSH2 0x20D JUMP JUMPDEST SWAP1 POP SWAP2 SWAP1 POP JUMP JUMPDEST PUSH0 DUP2 SWAP1 POP SWAP2 SWAP1 POP JUMP JUMPDEST PUSH2 0x3FD DUP4 PUSH2 0x3CA JUMP JUMPDEST PUSH2 0x411 PUSH2 0x409 DUP3 PUSH2 0x3EB JUMP JUMPDEST DUP5 DUP5 SLOAD PUSH2 0x370 JUMP JUMPDEST DUP3 SSTORE POP POP POP POP JUMP JUMPDEST PUSH0 PUSH0 SWAP1 POP SWAP1 JUMP JUMPDEST PUSH2 0x428 PUSH2 0x419 JUMP JUMPDEST PUSH2 0x433 DUP2 DUP5 DUP5 PUSH2 0x3F4 JUMP JUMPDEST POP POP POP JUMP JUMPDEST JUMPDEST DUP2 DUP2 LT ISZERO PUSH2 0x456 JUMPI PUSH2 0x44B PUSH0 DUP3 PUSH2 0x420 JUMP JUMPDEST PUSH1 0x1 DUP2 ADD SWAP1 POP PUSH2 0x439 JUMP JUMPDEST POP POP JUMP JUMPDEST PUSH1 0x1F DUP3 GT ISZERO PUSH2 0x49B JUMPI PUSH2 0x46C DUP2 PUSH2 0x343 JUMP JUMPDEST PUSH2 0x475 DUP5 PUSH2 0x355 JUMP JUMPDEST DUP2 ADD PUSH1 0x20 DUP6 LT ISZERO PUSH2 0x484 JUMPI DUP2 SWAP1 POP JUMPDEST PUSH2 0x498 PUSH2 0x490 DUP6 PUSH2 0x355 JUMP JUMPDEST DUP4 ADD DUP3 PUSH2 0x438 JUMP JUMPDEST POP POP JUMPDEST POP POP POP JUMP JUMPDEST PUSH0 DUP3 DUP3 SHR SWAP1 POP SWAP3 SWAP2 POP POP JUMP JUMPDEST PUSH0 PUSH2 0x4BB PUSH0 NOT DUP5 PUSH1 0x8 MUL PUSH2 0x4A0 JUMP JUMPDEST NOT DUP1 DUP4 AND SWAP2 POP POP SWAP3 SWAP2 POP POP JUMP JUMPDEST PUSH0 PUSH2 0x4D3 DUP4 DUP4 PUSH2 0x4AC JUMP JUMPDEST SWAP2 POP DUP3 PUSH1 0x2 MUL DUP3 OR SWAP1 POP SWAP3 SWAP2 POP POP JUMP JUMPDEST PUSH2 0x4EC DUP3 PUSH2 0x2DC JUMP JUMPDEST PUSH8 0xFFFFFFFFFFFFFFFF DUP2 GT ISZERO PUSH2 0x505 JUMPI PUSH2 0x504 PUSH2 0xE9 JUMP JUMPDEST JUMPDEST PUSH2 0x50F DUP3 SLOAD PUSH2 0x313 JUMP JUMPDEST PUSH2 0x51A DUP3 DUP3 DUP6 PUSH2 0x45A JUMP JUMPDEST PUSH0 PUSH1 0x20 SWAP1 POP PUSH1 0x1F DUP4 GT PUSH1 0x1 DUP2 EQ PUSH2 0x54B JUMPI PUSH0 DUP5 ISZERO PUSH2 0x539 JUMPI DUP3 DUP8 ADD MLOAD SWAP1 POP JUMPDEST PUSH2 0x543 DUP6 DUP3 PUSH2 0x4C8 JUMP JUMPDEST DUP7 SSTORE POP PUSH2 0x5AA JUMP JUMPDEST PUSH1 0x1F NOT DUP5 AND PUSH2 0x559 DUP7 PUSH2 0x343 JUMP JUMPDEST PUSH0 JUMPDEST DUP3 DUP2 LT ISZERO PUSH2 0x580 JUMPI DUP5 DUP10 ADD MLOAD DUP3 SSTORE PUSH1 0x1 DUP3 ADD SWAP2 POP PUSH1 0x20 DUP6 ADD SWAP5 POP PUSH1 0x20 DUP2 ADD SWAP1 POP PUSH2 0x55B JUMP JUMPDEST DUP7 DUP4 LT ISZERO PUSH2 0x59D JUMPI DUP5 DUP10 ADD MLOAD PUSH2 0x599 PUSH1 0x1F DUP10 AND DUP3 PUSH2 0x4AC JUMP JUMPDEST DUP4 SSTORE POP JUMPDEST PUSH1 0x1 PUSH1 0x2 DUP9 MUL ADD DUP9 SSTORE POP POP POP JUMPDEST POP POP POP POP POP POP JUMP JUMPDEST PUSH32 0x4E487B7100000000000000000000000000000000000000000000000000000000 PUSH0 MSTORE PUSH1 0x11 PUSH1 0x4 MSTORE PUSH1 0x24 PUSH0 REVERT JUMPDEST PUSH0 PUSH2 0x5E9 DUP3 PUSH2 0x20D JUMP JUMPDEST SWAP2 POP PUSH2 0x5F4 DUP4 PUSH2 0x20D JUMP JUMPDEST SWAP3 POP DUP3 DUP3 MUL PUSH2 0x602 DUP2 PUSH2 0x20D JUMP JUMPDEST SWAP2 POP DUP3 DUP3 DIV DUP5 EQ DUP4 ISZERO OR PUSH2 0x619 JUMPI PUSH2 0x618 PUSH2 0x5B2 JUMP JUMPDEST JUMPDEST POP SWAP3 SWAP2 POP POP JUMP JUMPDEST PUSH0 PUSH2 0x62A DUP3 PUSH2 0x20D JUMP JUMPDEST SWAP2 POP PUSH2 0x635 DUP4 PUSH2 0x20D JUMP JUMPDEST SWAP3 POP DUP3 DUP3 ADD SWAP1 POP DUP1 DUP3 GT ISZERO PUSH2 0x64D JUMPI PUSH2 0x64C PUSH2 0x5B2 JUMP JUMPDEST JUMPDEST SWAP3 SWAP2 POP POP JUMP JUMPDEST PUSH2 0x15C3 DUP1 PUSH2 0x660 PUSH0 CODECOPY PUSH0 RETURN INVALID PUSH1 0x80 PUSH1 0x40 MSTORE PUSH1 0x4 CALLDATASIZE LT PUSH2 0x9B JUMPI PUSH0 CALLDATALOAD PUSH1 0xE0 SHR DUP1 PUSH4 0x6F9FB98A GT PUSH2 0x63 JUMPI DUP1 PUSH4 0x6F9FB98A EQ PUSH2 0x171 JUMPI DUP1 PUSH4 0x7284E416 EQ PUSH2 0x19B JUMPI DUP1 PUSH4 0x7497211B EQ PUSH2 0x1C5 JUMPI DUP1 PUSH4 0x8DA5CB5B EQ PUSH2 0x1ED JUMPI DUP1 PUSH4 0x8ECE7B91 EQ PUSH2 0x217 JUMPI DUP1 PUSH4 0xCA1D209D EQ PUSH2 0x23F JUMPI PUSH2 0x9B JUMP JUMPDEST DUP1 PUSH4 0x39AF9EB EQ PUSH2 0x9F JUMPI DUP1 PUSH4 0x6FDDE03 EQ PUSH2 0xDD JUMPI DUP1 PUSH4 0x29DCB0CF EQ PUSH2 0x107 JUMPI DUP1 PUSH4 0x3CCFD60B EQ PUSH2 0x131 JUMPI DUP1 PUSH4 0x40193883 EQ PUSH2 0x147 JUMPI JUMPDEST PUSH0 PUSH0 REVERT JUMPDEST CALLVALUE DUP1 ISZERO PUSH2 0xAA JUMPI PUSH0 PUSH0 REVERT JUMPDEST POP PUSH2 0xC5 PUSH1 0x4 DUP1 CALLDATASIZE SUB DUP2 ADD SWAP1 PUSH2 0xC0 SWAP2 SWAP1 PUSH2 0xA89 JUMP JUMPDEST PUSH2 0x25B JUMP JUMPDEST PUSH1 0x40 MLOAD PUSH2 0xD4 SWAP4 SWAP3 SWAP2 SWAP1 PUSH2 0xB33 JUMP JUMPDEST PUSH1 0x40 MLOAD DUP1 SWAP2 SUB SWAP1 RETURN JUMPDEST CALLVALUE DUP1 ISZERO PUSH2 0xE8 JUMPI PUSH0 PUSH0 REVERT JUMPDEST POP PUSH2 0xF1 PUSH2 0x316 JUMP JUMPDEST PUSH1 0x40 MLOAD PUSH2 0xFE SWAP2 SWAP1 PUSH2 0xB6F JUMP JUMPDEST PUSH1 0x40 MLOAD DUP1 SWAP2 SUB SWAP1 RETURN JUMPDEST CALLVALUE DUP1 ISZERO PUSH2 0x112 JUMPI PUSH0 PUSH0 REVERT JUMPDEST POP PUSH2 0x11B PUSH2 0x3A1 JUMP JUMPDEST PUSH1 0x40 MLOAD PUSH2 0x128 SWAP2 SWAP1 PUSH2 0xB8F JUMP JUMPDEST PUSH1 0x40 MLOAD DUP1 SWAP2 SUB SWAP1 RETURN JUMPDEST CALLVALUE DUP1 ISZERO PUSH2 0x13C JUMPI PUSH0 PUSH0 REVERT JUMPDEST POP PUSH2 0x145 PUSH2 0x3A7 JUMP JUMPDEST STOP JUMPDEST CALLVALUE DUP1 ISZERO PUSH2 0x152 JUMPI PUSH0 PUSH0 REVERT JUMPDEST POP PUSH2 0x15B PUSH2 0x529 JUMP JUMPDEST PUSH1 0x40 MLOAD PUSH2 0x168 SWAP2 SWAP1 PUSH2 0xB8F JUMP JUMPDEST PUSH1 0x40 MLOAD DUP1 SWAP2 SUB SWAP1 RETURN JUMPDEST CALLVALUE DUP1 ISZERO PUSH2 0x17C JUMPI PUSH0 PUSH0 REVERT JUMPDEST POP PUSH2 0x185 PUSH2 0x52F JUMP JUMPDEST PUSH1 0x40 MLOAD PUSH2 0x192 SWAP2 SWAP1 PUSH2 0xB8F JUMP JUMPDEST PUSH1 0x40 MLOAD DUP1 SWAP2 SUB SWAP1 RETURN JUMPDEST CALLVALUE DUP1 ISZERO PUSH2 0x1A6 JUMPI PUSH0 PUSH0 REVERT JUMPDEST POP PUSH2 0x1AF PUSH2 0x536 JUMP JUMPDEST PUSH1 0x40 MLOAD PUSH2 0x1BC SWAP2 SWAP1 PUSH2 0xB6F JUMP JUMPDEST PUSH1 0x40 MLOAD DUP1 SWAP2 SUB SWAP1 RETURN JUMPDEST CALLVALUE DUP1 ISZERO PUSH2 0x1D0 JUMPI PUSH0 PUSH0 REVERT JUMPDEST POP PUSH2 0x1EB PUSH1 0x4 DUP1 CALLDATASIZE SUB DUP2 ADD SWAP1 PUSH2 0x1E6 SWAP2 SWAP1 PUSH2 0xA89 JUMP JUMPDEST PUSH2 0x5C2 JUMP JUMPDEST STOP JUMPDEST CALLVALUE DUP1 ISZERO PUSH2 0x1F8 JUMPI PUSH0 PUSH0 REVERT JUMPDEST POP PUSH2 0x201 PUSH2 0x75B JUMP JUMPDEST PUSH1 0x40 MLOAD PUSH2 0x20E SWAP2 SWAP1 PUSH2 0xBE7 JUMP JUMPDEST PUSH1 0x40 MLOAD DUP1 SWAP2 SUB SWAP1 RETURN JUMPDEST CALLVALUE DUP1 ISZERO PUSH2 0x222 JUMPI PUSH0 PUSH0 REVERT JUMPDEST POP PUSH2 0x23D PUSH1 0x4 DUP1 CALLDATASIZE SUB DUP2 ADD SWAP1 PUSH2 0x238 SWAP2 SWAP1 PUSH2 0xD2C JUMP JUMPDEST PUSH2 0x780 JUMP JUMPDEST STOP JUMPDEST PUSH2 0x259 PUSH1 0x4 DUP1 CALLDATASIZE SUB DUP2 ADD SWAP1 PUSH2 0x254 SWAP2 SWAP1 PUSH2 0xA89 JUMP JUMPDEST PUSH2 0x8C2 JUMP JUMPDEST STOP JUMPDEST PUSH1 0x5 DUP2 DUP2 SLOAD DUP2 LT PUSH2 0x26A JUMPI PUSH0 DUP1 REVERT JUMPDEST SWAP1 PUSH0 MSTORE PUSH1 0x20 PUSH0 KECCAK256 SWAP1 PUSH1 0x3 MUL ADD PUSH0 SWAP2 POP SWAP1 POP DUP1 PUSH0 ADD DUP1 SLOAD PUSH2 0x289 SWAP1 PUSH2 0xDB3 JUMP JUMPDEST DUP1 PUSH1 0x1F ADD PUSH1 0x20 DUP1 SWAP2 DIV MUL PUSH1 0x20 ADD PUSH1 0x40 MLOAD SWAP1 DUP2 ADD PUSH1 0x40 MSTORE DUP1 SWAP3 SWAP2 SWAP1 DUP2 DUP2 MSTORE PUSH1 0x20 ADD DUP3 DUP1 SLOAD PUSH2 0x2B5 SWAP1 PUSH2 0xDB3 JUMP JUMPDEST DUP1 ISZERO PUSH2 0x300 JUMPI DUP1 PUSH1 0x1F LT PUSH2 0x2D7 JUMPI PUSH2 0x100 DUP1 DUP4 SLOAD DIV MUL DUP4 MSTORE SWAP2 PUSH1 0x20 ADD SWAP2 PUSH2 0x300 JUMP JUMPDEST DUP3 ADD SWAP2 SWAP1 PUSH0 MSTORE PUSH1 0x20 PUSH0 KECCAK256 SWAP1 JUMPDEST DUP2 SLOAD DUP2 MSTORE SWAP1 PUSH1 0x1 ADD SWAP1 PUSH1 0x20 ADD DUP1 DUP4 GT PUSH2 0x2E3 JUMPI DUP3 SWAP1 SUB PUSH1 0x1F AND DUP3 ADD SWAP2 JUMPDEST POP POP POP POP POP SWAP1 DUP1 PUSH1 0x1 ADD SLOAD SWAP1 DUP1 PUSH1 0x2 ADD SLOAD SWAP1 POP DUP4 JUMP JUMPDEST PUSH0 DUP1 SLOAD PUSH2 0x322 SWAP1 PUSH2 0xDB3 JUMP JUMPDEST DUP1 PUSH1 0x1F ADD PUSH1 0x20 DUP1 SWAP2 DIV MUL PUSH1 0x20 ADD PUSH1 0x40 MLOAD SWAP1 DUP2 ADD PUSH1 0x40 MSTORE DUP1 SWAP3 SWAP2 SWAP1 DUP2 DUP2 MSTORE PUSH1 0x20 ADD DUP3 DUP1 SLOAD PUSH2 0x34E SWAP1 PUSH2 0xDB3 JUMP JUMPDEST DUP1 ISZERO PUSH2 0x399 JUMPI DUP1 PUSH1 0x1F LT PUSH2 0x370 JUMPI PUSH2 0x100 DUP1 DUP4 SLOAD DIV MUL DUP4 MSTORE SWAP2 PUSH1 0x20 ADD SWAP2 PUSH2 0x399 JUMP JUMPDEST DUP3 ADD SWAP2 SWAP1 PUSH0 MSTORE PUSH1 0x20 PUSH0 KECCAK256 SWAP1 JUMPDEST DUP2 SLOAD DUP2 MSTORE SWAP1 PUSH1 0x1 ADD SWAP1 PUSH1 0x20 ADD DUP1 DUP4 GT PUSH2 0x37C JUMPI DUP3 SWAP1 SUB PUSH1 0x1F AND DUP3 ADD SWAP2 JUMPDEST POP POP POP POP POP DUP2 JUMP JUMPDEST PUSH1 0x3 SLOAD DUP2 JUMP JUMPDEST PUSH1 0x4 PUSH0 SWAP1 SLOAD SWAP1 PUSH2 0x100 EXP SWAP1 DIV PUSH20 0xFFFFFFFFFFFFFFFFFFFFFFFFFFFFFFFFFFFFFFFF AND PUSH20 0xFFFFFFFFFFFFFFFFFFFFFFFFFFFFFFFFFFFFFFFF AND CALLER PUSH20 0xFFFFFFFFFFFFFFFFFFFFFFFFFFFFFFFFFFFFFFFF AND EQ PUSH2 0x436 JUMPI PUSH1 0x40 MLOAD PUSH32 0x8C379A000000000000000000000000000000000000000000000000000000000 DUP2 MSTORE PUSH1 0x4 ADD PUSH2 0x42D SWAP1 PUSH2 0xE2D JUMP JUMPDEST PUSH1 0x40 MLOAD DUP1 SWAP2 SUB SWAP1 REVERT JUMPDEST PUSH1 0x2 SLOAD SELFBALANCE LT ISZERO PUSH2 0x47B JUMPI PUSH1 0x40 MLOAD PUSH32 0x8C379A000000000000000000000000000000000000000000000000000000000 DUP2 MSTORE PUSH1 0x4 ADD PUSH2 0x472 SWAP1 PUSH2 0xE95 JUMP JUMPDEST PUSH1 0x40 MLOAD DUP1 SWAP2 SUB SWAP1 REVERT JUMPDEST PUSH0 SELFBALANCE SWAP1 POP PUSH0 DUP2 GT PUSH2 0x4C1 JUMPI PUSH1 0x40 MLOAD PUSH32 0x8C379A000000000000000000000000000000000000000000000000000000000 DUP2 MSTORE PUSH1 0x4 ADD PUSH2 0x4B8 SWAP1 PUSH2 0xEFD JUMP JUMPDEST PUSH1 0x40 MLOAD DUP1 SWAP2 SUB SWAP1 REVERT JUMPDEST PUSH1 0x4 PUSH0 SWAP1 SLOAD SWAP1 PUSH2 0x100 EXP SWAP1 DIV PUSH20 0xFFFFFFFFFFFFFFFFFFFFFFFFFFFFFFFFFFFFFFFF AND PUSH20 0xFFFFFFFFFFFFFFFFFFFFFFFFFFFFFFFFFFFFFFFF AND PUSH2 0x8FC DUP3 SWAP1 DUP2 ISZERO MUL SWAP1 PUSH1 0x40 MLOAD PUSH0 PUSH1 0x40 MLOAD DUP1 DUP4 SUB DUP2 DUP6 DUP9 DUP9 CALL SWAP4 POP POP POP POP ISZERO DUP1 ISZERO PUSH2 0x525 JUMPI RETURNDATASIZE PUSH0 PUSH0 RETURNDATACOPY RETURNDATASIZE PUSH0 REVERT JUMPDEST POP POP JUMP JUMPDEST PUSH1 0x2 SLOAD DUP2 JUMP JUMPDEST PUSH0 SELFBALANCE SWAP1 POP SWAP1 JUMP JUMPDEST PUSH1 0x1 DUP1 SLOAD PUSH2 0x543 SWAP1 PUSH2 0xDB3 JUMP JUMPDEST DUP1 PUSH1 0x1F ADD PUSH1 0x20 DUP1 SWAP2 DIV MUL PUSH1 0x20 ADD PUSH1 0x40 MLOAD SWAP1 DUP2 ADD PUSH1 0x40 MSTORE DUP1 SWAP3 SWAP2 SWAP1 DUP2 DUP2 MSTORE PUSH1 0x20 ADD DUP3 DUP1 SLOAD PUSH2 0x56F SWAP1 PUSH2 0xDB3 JUMP JUMPDEST DUP1 ISZERO PUSH2 0x5BA JUMPI DUP1 PUSH1 0x1F LT PUSH2 0x591 JUMPI PUSH2 0x100 DUP1 DUP4 SLOAD DIV MUL DUP4 MSTORE SWAP2 PUSH1 0x20 ADD SWAP2 PUSH2 0x5BA JUMP JUMPDEST DUP3 ADD SWAP2 SWAP1 PUSH0 MSTORE PUSH1 0x20 PUSH0 KECCAK256 SWAP1 JUMPDEST DUP2 SLOAD DUP2 MSTORE SWAP1 PUSH1 0x1 ADD SWAP1 PUSH1 0x20 ADD DUP1 DUP4 GT PUSH2 0x59D JUMPI DUP3 SWAP1 SUB PUSH1 0x1F AND DUP3 ADD SWAP2 JUMPDEST POP POP POP POP POP DUP2 JUMP JUMPDEST PUSH1 0x4 PUSH0 SWAP1 SLOAD SWAP1 PUSH2 0x100 EXP SWAP1 DIV PUSH20 0xFFFFFFFFFFFFFFFFFFFFFFFFFFFFFFFFFFFFFFFF AND PUSH20 0xFFFFFFFFFFFFFFFFFFFFFFFFFFFFFFFFFFFFFFFF AND CALLER PUSH20 0xFFFFFFFFFFFFFFFFFFFFFFFFFFFFFFFFFFFFFFFF AND EQ PUSH2 0x651 JUMPI PUSH1 0x40 MLOAD PUSH32 0x8C379A000000000000000000000000000000000000000000000000000000000 DUP2 MSTORE PUSH1 0x4 ADD PUSH2 0x648 SWAP1 PUSH2 0xE2D JUMP JUMPDEST PUSH1 0x40 MLOAD DUP1 SWAP2 SUB SWAP1 REVERT JUMPDEST PUSH1 0x5 DUP1 SLOAD SWAP1 POP DUP2 LT PUSH2 0x698 JUMPI PUSH1 0x40 MLOAD PUSH32 0x8C379A000000000000000000000000000000000000000000000000000000000 DUP2 MSTORE PUSH1 0x4 ADD PUSH2 0x68F SWAP1 PUSH2 0xF65 JUMP JUMPDEST PUSH1 0x40 MLOAD DUP1 SWAP2 SUB SWAP1 REVERT JUMPDEST PUSH1 0x5 PUSH1 0x1 PUSH1 0x5 DUP1 SLOAD SWAP1 POP PUSH2 0x6AC SWAP2 SWAP1 PUSH2 0xFB0 JUMP JUMPDEST DUP2 SLOAD DUP2 LT PUSH2 0x6BD JUMPI PUSH2 0x6BC PUSH2 0xFE3 JUMP JUMPDEST JUMPDEST SWAP1 PUSH0 MSTORE PUSH1 0x20 PUSH0 KECCAK256 SWAP1 PUSH1 0x3 MUL ADD PUSH1 0x5 DUP3 DUP2 SLOAD DUP2 LT PUSH2 0x6DD JUMPI PUSH2 0x6DC PUSH2 0xFE3 JUMP JUMPDEST JUMPDEST SWAP1 PUSH0 MSTORE PUSH1 0x20 PUSH0 KECCAK256 SWAP1 PUSH1 0x3 MUL ADD PUSH0 DUP3 ADD DUP2 PUSH0 ADD SWAP1 DUP2 PUSH2 0x6FB SWAP2 SWAP1 PUSH2 0x11C5 JUMP JUMPDEST POP PUSH1 0x1 DUP3 ADD SLOAD DUP2 PUSH1 0x1 ADD SSTORE PUSH1 0x2 DUP3 ADD SLOAD DUP2 PUSH1 0x2 ADD SSTORE SWAP1 POP POP PUSH1 0x5 DUP1 SLOAD DUP1 PUSH2 0x725 JUMPI PUSH2 0x724 PUSH2 0x12AA JUMP JUMPDEST JUMPDEST PUSH1 0x1 SWAP1 SUB DUP2 DUP2 SWAP1 PUSH0 MSTORE PUSH1 0x20 PUSH0 KECCAK256 SWAP1 PUSH1 0x3 MUL ADD PUSH0 PUSH0 DUP3 ADD PUSH0 PUSH2 0x746 SWAP2 SWAP1 PUSH2 0x9ED JUMP JUMPDEST PUSH1 0x1 DUP3 ADD PUSH0 SWAP1 SSTORE PUSH1 0x2 DUP3 ADD PUSH0 SWAP1 SSTORE POP POP SWAP1 SSTORE POP JUMP JUMPDEST PUSH1 0x4 PUSH0 SWAP1 SLOAD SWAP1 PUSH2 0x100 EXP SWAP1 DIV PUSH20 0xFFFFFFFFFFFFFFFFFFFFFFFFFFFFFFFFFFFFFFFF AND DUP2 JUMP JUMPDEST PUSH1 0x4 PUSH0 SWAP1 SLOAD SWAP1 PUSH2 0x100 EXP SWAP1 DIV PUSH20 0xFFFFFFFFFFFFFFFFFFFFFFFFFFFFFFFFFFFFFFFF AND PUSH20 0xFFFFFFFFFFFFFFFFFFFFFFFFFFFFFFFFFFFFFFFF AND CALLER PUSH20 0xFFFFFFFFFFFFFFFFFFFFFFFFFFFFFFFFFFFFFFFF AND EQ PUSH2 0x80F JUMPI PUSH1 0x40 MLOAD PUSH32 0x8C379A000000000000000000000000000000000000000000000000000000000 DUP2 MSTORE PUSH1 0x4 ADD PUSH2 0x806 SWAP1 PUSH2 0xE2D JUMP JUMPDEST PUSH1 0x40 MLOAD DUP1 SWAP2 SUB SWAP1 REVERT JUMPDEST PUSH0 DUP2 GT PUSH2 0x851 JUMPI PUSH1 0x40 MLOAD PUSH32 0x8C379A000000000000000000000000000000000000000000000000000000000 DUP2 MSTORE PUSH1 0x4 ADD PUSH2 0x848 SWAP1 PUSH2 0x1321 JUMP JUMPDEST PUSH1 0x40 MLOAD DUP1 SWAP2 SUB SWAP1 REVERT JUMPDEST PUSH1 0x5 PUSH1 0x40 MLOAD DUP1 PUSH1 0x60 ADD PUSH1 0x40 MSTORE DUP1 DUP5 DUP2 MSTORE PUSH1 0x20 ADD DUP4 DUP2 MSTORE PUSH1 0x20 ADD PUSH0 DUP2 MSTORE POP SWAP1 DUP1 PUSH1 0x1 DUP2 SLOAD ADD DUP1 DUP3 SSTORE DUP1 SWAP2 POP POP PUSH1 0x1 SWAP1 SUB SWAP1 PUSH0 MSTORE PUSH1 0x20 PUSH0 KECCAK256 SWAP1 PUSH1 0x3 MUL ADD PUSH0 SWAP1 SWAP2 SWAP1 SWAP2 SWAP1 SWAP2 POP PUSH0 DUP3 ADD MLOAD DUP2 PUSH0 ADD SWAP1 DUP2 PUSH2 0x8A7 SWAP2 SWAP1 PUSH2 0x133F JUMP JUMPDEST POP PUSH1 0x20 DUP3 ADD MLOAD DUP2 PUSH1 0x1 ADD SSTORE PUSH1 0x40 DUP3 ADD MLOAD DUP2 PUSH1 0x2 ADD SSTORE POP POP POP POP JUMP JUMPDEST PUSH1 0x3 SLOAD TIMESTAMP LT PUSH2 0x906 JUMPI PUSH1 0x40 MLOAD PUSH32 0x8C379A000000000000000000000000000000000000000000000000000000000 DUP2 MSTORE PUSH1 0x4 ADD PUSH2 0x8FD SWAP1 PUSH2 0x1458 JUMP JUMPDEST PUSH1 0x40 MLOAD DUP1 SWAP2 SUB SWAP1 REVERT JUMPDEST PUSH1 0x5 DUP1 SLOAD SWAP1 POP DUP2 LT PUSH2 0x94D JUMPI PUSH1 0x40 MLOAD PUSH32 0x8C379A000000000000000000000000000000000000000000000000000000000 DUP2 MSTORE PUSH1 0x4 ADD PUSH2 0x944 SWAP1 PUSH2 0x14C0 JUMP JUMPDEST PUSH1 0x40 MLOAD DUP1 SWAP2 SUB SWAP1 REVERT JUMPDEST PUSH1 0x5 DUP2 DUP2 SLOAD DUP2 LT PUSH2 0x961 JUMPI PUSH2 0x960 PUSH2 0xFE3 JUMP JUMPDEST JUMPDEST SWAP1 PUSH0 MSTORE PUSH1 0x20 PUSH0 KECCAK256 SWAP1 PUSH1 0x3 MUL ADD PUSH1 0x1 ADD SLOAD CALLVALUE EQ PUSH2 0x9B2 JUMPI PUSH1 0x40 MLOAD PUSH32 0x8C379A000000000000000000000000000000000000000000000000000000000 DUP2 MSTORE PUSH1 0x4 ADD PUSH2 0x9A9 SWAP1 PUSH2 0x1528 JUMP JUMPDEST PUSH1 0x40 MLOAD DUP1 SWAP2 SUB SWAP1 REVERT JUMPDEST PUSH1 0x5 DUP2 DUP2 SLOAD DUP2 LT PUSH2 0x9C6 JUMPI PUSH2 0x9C5 PUSH2 0xFE3 JUMP JUMPDEST JUMPDEST SWAP1 PUSH0 MSTORE PUSH1 0x20 PUSH0 KECCAK256 SWAP1 PUSH1 0x3 MUL ADD PUSH1 0x2 ADD PUSH0 DUP2 SLOAD DUP1 SWAP3 SWAP2 SWAP1 PUSH2 0x9E5 SWAP1 PUSH2 0x1546 JUMP JUMPDEST SWAP2 SWAP1 POP SSTORE POP POP JUMP JUMPDEST POP DUP1 SLOAD PUSH2 0x9F9 SWAP1 PUSH2 0xDB3 JUMP JUMPDEST PUSH0 DUP3 SSTORE DUP1 PUSH1 0x1F LT PUSH2 0xA0A JUMPI POP PUSH2 0xA27 JUMP JUMPDEST PUSH1 0x1F ADD PUSH1 0x20 SWAP1 DIV SWAP1 PUSH0 MSTORE PUSH1 0x20 PUSH0 KECCAK256 SWAP1 DUP2 ADD SWAP1 PUSH2 0xA26 SWAP2 SWAP1 PUSH2 0xA2A JUMP JUMPDEST JUMPDEST POP JUMP JUMPDEST JUMPDEST DUP1 DUP3 GT ISZERO PUSH2 0xA41 JUMPI PUSH0 DUP2 PUSH0 SWAP1 SSTORE POP PUSH1 0x1 ADD PUSH2 0xA2B JUMP JUMPDEST POP SWAP1 JUMP JUMPDEST PUSH0 PUSH1 0x40 MLOAD SWAP1 POP SWAP1 JUMP JUMPDEST PUSH0 PUSH0 REVERT JUMPDEST PUSH0 PUSH0 REVERT JUMPDEST PUSH0 DUP2 SWAP1 POP SWAP2 SWAP1 POP JUMP JUMPDEST PUSH2 0xA68 DUP2 PUSH2 0xA56 JUMP JUMPDEST DUP2 EQ PUSH2 0xA72 JUMPI PUSH0 PUSH0 REVERT JUMPDEST POP JUMP JUMPDEST PUSH0 DUP2 CALLDATALOAD SWAP1 POP PUSH2 0xA83 DUP2 PUSH2 0xA5F JUMP JUMPDEST SWAP3 SWAP2 POP POP JUMP JUMPDEST PUSH0 PUSH1 0x20 DUP3 DUP5 SUB SLT ISZERO PUSH2 0xA9E JUMPI PUSH2 0xA9D PUSH2 0xA4E JUMP JUMPDEST JUMPDEST PUSH0 PUSH2 0xAAB DUP5 DUP3 DUP6 ADD PUSH2 0xA75 JUMP JUMPDEST SWAP2 POP POP SWAP3 SWAP2 POP POP JUMP JUMPDEST PUSH0 DUP2 MLOAD SWAP1 POP SWAP2 SWAP1 POP JUMP JUMPDEST PUSH0 DUP3 DUP3 MSTORE PUSH1 0x20 DUP3 ADD SWAP1 POP SWAP3 SWAP2 POP POP JUMP JUMPDEST DUP3 DUP2 DUP4 MCOPY PUSH0 DUP4 DUP4 ADD MSTORE POP POP POP JUMP JUMPDEST PUSH0 PUSH1 0x1F NOT PUSH1 0x1F DUP4 ADD AND SWAP1 POP SWAP2 SWAP1 POP JUMP JUMPDEST PUSH0 PUSH2 0xAF6 DUP3 PUSH2 0xAB4 JUMP JUMPDEST PUSH2 0xB00 DUP2 DUP6 PUSH2 0xABE JUMP JUMPDEST SWAP4 POP PUSH2 0xB10 DUP2 DUP6 PUSH1 0x20 DUP7 ADD PUSH2 0xACE JUMP JUMPDEST PUSH2 0xB19 DUP2 PUSH2 0xADC JUMP JUMPDEST DUP5 ADD SWAP2 POP POP SWAP3 SWAP2 POP POP JUMP JUMPDEST PUSH2 0xB2D DUP2 PUSH2 0xA56 JUMP JUMPDEST DUP3 MSTORE POP POP JUMP JUMPDEST PUSH0 PUSH1 0x60 DUP3 ADD SWAP1 POP DUP2 DUP2 SUB PUSH0 DUP4 ADD MSTORE PUSH2 0xB4B DUP2 DUP7 PUSH2 0xAEC JUMP JUMPDEST SWAP1 POP PUSH2 0xB5A PUSH1 0x20 DUP4 ADD DUP6 PUSH2 0xB24 JUMP JUMPDEST PUSH2 0xB67 PUSH1 0x40 DUP4 ADD DUP5 PUSH2 0xB24 JUMP JUMPDEST SWAP5 SWAP4 POP POP POP POP JUMP JUMPDEST PUSH0 PUSH1 0x20 DUP3 ADD SWAP1 POP DUP2 DUP2 SUB PUSH0 DUP4 ADD MSTORE PUSH2 0xB87 DUP2 DUP5 PUSH2 0xAEC JUMP JUMPDEST SWAP1 POP SWAP3 SWAP2 POP POP JUMP JUMPDEST PUSH0 PUSH1 0x20 DUP3 ADD SWAP1 POP PUSH2 0xBA2 PUSH0 DUP4 ADD DUP5 PUSH2 0xB24 JUMP JUMPDEST SWAP3 SWAP2 POP POP JUMP JUMPDEST PUSH0 PUSH20 0xFFFFFFFFFFFFFFFFFFFFFFFFFFFFFFFFFFFFFFFF DUP3 AND SWAP1 POP SWAP2 SWAP1 POP JUMP JUMPDEST PUSH0 PUSH2 0xBD1 DUP3 PUSH2 0xBA8 JUMP JUMPDEST SWAP1 POP SWAP2 SWAP1 POP JUMP JUMPDEST PUSH2 0xBE1 DUP2 PUSH2 0xBC7 JUMP JUMPDEST DUP3 MSTORE POP POP JUMP JUMPDEST PUSH0 PUSH1 0x20 DUP3 ADD SWAP1 POP PUSH2 0xBFA PUSH0 DUP4 ADD DUP5 PUSH2 0xBD8 JUMP JUMPDEST SWAP3 SWAP2 POP POP JUMP JUMPDEST PUSH0 PUSH0 REVERT JUMPDEST PUSH0 PUSH0 REVERT JUMPDEST PUSH32 0x4E487B7100000000000000000000000000000000000000000000000000000000 PUSH0 MSTORE PUSH1 0x41 PUSH1 0x4 MSTORE PUSH1 0x24 PUSH0 REVERT JUMPDEST PUSH2 0xC3E DUP3 PUSH2 0xADC JUMP JUMPDEST DUP2 ADD DUP2 DUP2 LT PUSH8 0xFFFFFFFFFFFFFFFF DUP3 GT OR ISZERO PUSH2 0xC5D JUMPI PUSH2 0xC5C PUSH2 0xC08 JUMP JUMPDEST JUMPDEST DUP1 PUSH1 0x40 MSTORE POP POP POP JUMP JUMPDEST PUSH0 PUSH2 0xC6F PUSH2 0xA45 JUMP JUMPDEST SWAP1 POP PUSH2 0xC7B DUP3 DUP3 PUSH2 0xC35 JUMP JUMPDEST SWAP2 SWAP1 POP JUMP JUMPDEST PUSH0 PUSH8 0xFFFFFFFFFFFFFFFF DUP3 GT ISZERO PUSH2 0xC9A JUMPI PUSH2 0xC99 PUSH2 0xC08 JUMP JUMPDEST JUMPDEST PUSH2 0xCA3 DUP3 PUSH2 0xADC JUMP JUMPDEST SWAP1 POP PUSH1 0x20 DUP2 ADD SWAP1 POP SWAP2 SWAP1 POP JUMP JUMPDEST DUP3 DUP2 DUP4 CALLDATACOPY PUSH0 DUP4 DUP4 ADD MSTORE POP POP POP JUMP JUMPDEST PUSH0 PUSH2 0xCD0 PUSH2 0xCCB DUP5 PUSH2 0xC80 JUMP JUMPDEST PUSH2 0xC66 JUMP JUMPDEST SWAP1 POP DUP3 DUP2 MSTORE PUSH1 0x20 DUP2 ADD DUP5 DUP5 DUP5 ADD GT ISZERO PUSH2 0xCEC JUMPI PUSH2 0xCEB PUSH2 0xC04 JUMP JUMPDEST JUMPDEST PUSH2 0xCF7 DUP5 DUP3 DUP6 PUSH2 0xCB0 JUMP JUMPDEST POP SWAP4 SWAP3 POP POP POP JUMP JUMPDEST PUSH0 DUP3 PUSH1 0x1F DUP4 ADD SLT PUSH2 0xD13 JUMPI PUSH2 0xD12 PUSH2 0xC00 JUMP JUMPDEST JUMPDEST DUP2 CALLDATALOAD PUSH2 0xD23 DUP5 DUP3 PUSH1 0x20 DUP7 ADD PUSH2 0xCBE JUMP JUMPDEST SWAP2 POP POP SWAP3 SWAP2 POP POP JUMP JUMPDEST PUSH0 PUSH0 PUSH1 0x40 DUP4 DUP6 SUB SLT ISZERO PUSH2 0xD42 JUMPI PUSH2 0xD41 PUSH2 0xA4E JUMP JUMPDEST JUMPDEST PUSH0 DUP4 ADD CALLDATALOAD PUSH8 0xFFFFFFFFFFFFFFFF DUP2 GT ISZERO PUSH2 0xD5F JUMPI PUSH2 0xD5E PUSH2 0xA52 JUMP JUMPDEST JUMPDEST PUSH2 0xD6B DUP6 DUP3 DUP7 ADD PUSH2 0xCFF JUMP JUMPDEST SWAP3 POP POP PUSH1 0x20 PUSH2 0xD7C DUP6 DUP3 DUP7 ADD PUSH2 0xA75 JUMP JUMPDEST SWAP2 POP POP SWAP3 POP SWAP3 SWAP1 POP JUMP JUMPDEST PUSH32 0x4E487B7100000000000000000000000000000000000000000000000000000000 PUSH0 MSTORE PUSH1 0x22 PUSH1 0x4 MSTORE PUSH1 0x24 PUSH0 REVERT JUMPDEST PUSH0 PUSH1 0x2 DUP3 DIV SWAP1 POP PUSH1 0x1 DUP3 AND DUP1 PUSH2 0xDCA JUMPI PUSH1 0x7F DUP3 AND SWAP2 POP JUMPDEST PUSH1 0x20 DUP3 LT DUP2 SUB PUSH2 0xDDD JUMPI PUSH2 0xDDC PUSH2 0xD86 JUMP JUMPDEST JUMPDEST POP SWAP2 SWAP1 POP JUMP JUMPDEST PUSH32 0x4E6F7420746865206F776E657200000000000000000000000000000000000000 PUSH0 DUP3 ADD MSTORE POP JUMP JUMPDEST PUSH0 PUSH2 0xE17 PUSH1 0xD DUP4 PUSH2 0xABE JUMP JUMPDEST SWAP2 POP PUSH2 0xE22 DUP3 PUSH2 0xDE3 JUMP JUMPDEST PUSH1 0x20 DUP3 ADD SWAP1 POP SWAP2 SWAP1 POP JUMP JUMPDEST PUSH0 PUSH1 0x20 DUP3 ADD SWAP1 POP DUP2 DUP2 SUB PUSH0 DUP4 ADD MSTORE PUSH2 0xE44 DUP2 PUSH2 0xE0B JUMP JUMPDEST SWAP1 POP SWAP2 SWAP1 POP JUMP JUMPDEST PUSH32 0x476F616C20686173206E6F74206265656E207265616368656400000000000000 PUSH0 DUP3 ADD MSTORE POP JUMP JUMPDEST PUSH0 PUSH2 0xE7F PUSH1 0x19 DUP4 PUSH2 0xABE JUMP JUMPDEST SWAP2 POP PUSH2 0xE8A DUP3 PUSH2 0xE4B JUMP JUMPDEST PUSH1 0x20 DUP3 ADD SWAP1 POP SWAP2 SWAP1 POP JUMP JUMPDEST PUSH0 PUSH1 0x20 DUP3 ADD SWAP1 POP DUP2 DUP2 SUB PUSH0 DUP4 ADD MSTORE PUSH2 0xEAC DUP2 PUSH2 0xE73 JUMP JUMPDEST SWAP1 POP SWAP2 SWAP1 POP JUMP JUMPDEST PUSH32 0x4E6F2062616C616E636520746F2077697468647261772E000000000000000000 PUSH0 DUP3 ADD MSTORE POP JUMP JUMPDEST PUSH0 PUSH2 0xEE7 PUSH1 0x17 DUP4 PUSH2 0xABE JUMP JUMPDEST SWAP2 POP PUSH2 0xEF2 DUP3 PUSH2 0xEB3 JUMP JUMPDEST PUSH1 0x20 DUP3 ADD SWAP1 POP SWAP2 SWAP1 POP JUMP JUMPDEST PUSH0 PUSH1 0x20 DUP3 ADD SWAP1 POP DUP2 DUP2 SUB PUSH0 DUP4 ADD MSTORE PUSH2 0xF14 DUP2 PUSH2 0xEDB JUMP JUMPDEST SWAP1 POP SWAP2 SWAP1 POP JUMP JUMPDEST PUSH32 0x746972657320646F6573206E6F74206578697473000000000000000000000000 PUSH0 DUP3 ADD MSTORE POP JUMP JUMPDEST PUSH0 PUSH2 0xF4F PUSH1 0x14 DUP4 PUSH2 0xABE JUMP JUMPDEST SWAP2 POP PUSH2 0xF5A DUP3 PUSH2 0xF1B JUMP JUMPDEST PUSH1 0x20 DUP3 ADD SWAP1 POP SWAP2 SWAP1 POP JUMP JUMPDEST PUSH0 PUSH1 0x20 DUP3 ADD SWAP1 POP DUP2 DUP2 SUB PUSH0 DUP4 ADD MSTORE PUSH2 0xF7C DUP2 PUSH2 0xF43 JUMP JUMPDEST SWAP1 POP SWAP2 SWAP1 POP JUMP JUMPDEST PUSH32 0x4E487B7100000000000000000000000000000000000000000000000000000000 PUSH0 MSTORE PUSH1 0x11 PUSH1 0x4 MSTORE PUSH1 0x24 PUSH0 REVERT JUMPDEST PUSH0 PUSH2 0xFBA DUP3 PUSH2 0xA56 JUMP JUMPDEST SWAP2 POP PUSH2 0xFC5 DUP4 PUSH2 0xA56 JUMP JUMPDEST SWAP3 POP DUP3 DUP3 SUB SWAP1 POP DUP2 DUP2 GT ISZERO PUSH2 0xFDD JUMPI PUSH2 0xFDC PUSH2 0xF83 JUMP JUMPDEST JUMPDEST SWAP3 SWAP2 POP POP JUMP JUMPDEST PUSH32 0x4E487B7100000000000000000000000000000000000000000000000000000000 PUSH0 MSTORE PUSH1 0x32 PUSH1 0x4 MSTORE PUSH1 0x24 PUSH0 REVERT JUMPDEST PUSH0 DUP2 SLOAD SWAP1 POP PUSH2 0x101E DUP2 PUSH2 0xDB3 JUMP JUMPDEST SWAP1 POP SWAP2 SWAP1 POP JUMP JUMPDEST PUSH0 DUP2 SWAP1 POP DUP2 PUSH0 MSTORE PUSH1 0x20 PUSH0 KECCAK256 SWAP1 POP SWAP2 SWAP1 POP JUMP JUMPDEST PUSH0 PUSH1 0x20 PUSH1 0x1F DUP4 ADD DIV SWAP1 POP SWAP2 SWAP1 POP JUMP JUMPDEST PUSH0 DUP3 DUP3 SHL SWAP1 POP SWAP3 SWAP2 POP POP JUMP JUMPDEST PUSH0 PUSH1 0x8 DUP4 MUL PUSH2 0x1081 PUSH32 0xFFFFFFFFFFFFFFFFFFFFFFFFFFFFFFFFFFFFFFFFFFFFFFFFFFFFFFFFFFFFFFFF DUP3 PUSH2 0x1046 JUMP JUMPDEST PUSH2 0x108B DUP7 DUP4 PUSH2 0x1046 JUMP JUMPDEST SWAP6 POP DUP1 NOT DUP5 AND SWAP4 POP DUP1 DUP7 AND DUP5 OR SWAP3 POP POP POP SWAP4 SWAP3 POP POP POP JUMP JUMPDEST PUSH0 DUP2 SWAP1 POP SWAP2 SWAP1 POP JUMP JUMPDEST PUSH0 PUSH2 0x10C6 PUSH2 0x10C1 PUSH2 0x10BC DUP5 PUSH2 0xA56 JUMP JUMPDEST PUSH2 0x10A3 JUMP JUMPDEST PUSH2 0xA56 JUMP JUMPDEST SWAP1 POP SWAP2 SWAP1 POP JUMP JUMPDEST PUSH0 DUP2 SWAP1 POP SWAP2 SWAP1 POP JUMP JUMPDEST PUSH2 0x10DF DUP4 PUSH2 0x10AC JUMP JUMPDEST PUSH2 0x10F3 PUSH2 0x10EB DUP3 PUSH2 0x10CD JUMP JUMPDEST DUP5 DUP5 SLOAD PUSH2 0x1052 JUMP JUMPDEST DUP3 SSTORE POP POP POP POP JUMP JUMPDEST PUSH0 PUSH0 SWAP1 POP SWAP1 JUMP JUMPDEST PUSH2 0x110A PUSH2 0x10FB JUMP JUMPDEST PUSH2 0x1115 DUP2 DUP5 DUP5 PUSH2 0x10D6 JUMP JUMPDEST POP POP POP JUMP JUMPDEST JUMPDEST DUP2 DUP2 LT ISZERO PUSH2 0x1138 JUMPI PUSH2 0x112D PUSH0 DUP3 PUSH2 0x1102 JUMP JUMPDEST PUSH1 0x1 DUP2 ADD SWAP1 POP PUSH2 0x111B JUMP JUMPDEST POP POP JUMP JUMPDEST PUSH1 0x1F DUP3 GT ISZERO PUSH2 0x117D JUMPI PUSH2 0x114E DUP2 PUSH2 0x1025 JUMP JUMPDEST PUSH2 0x1157 DUP5 PUSH2 0x1037 JUMP JUMPDEST DUP2 ADD PUSH1 0x20 DUP6 LT ISZERO PUSH2 0x1166 JUMPI DUP2 SWAP1 POP JUMPDEST PUSH2 0x117A PUSH2 0x1172 DUP6 PUSH2 0x1037 JUMP JUMPDEST DUP4 ADD DUP3 PUSH2 0x111A JUMP JUMPDEST POP POP JUMPDEST POP POP POP JUMP JUMPDEST PUSH0 DUP3 DUP3 SHR SWAP1 POP SWAP3 SWAP2 POP POP JUMP JUMPDEST PUSH0 PUSH2 0x119D PUSH0 NOT DUP5 PUSH1 0x8 MUL PUSH2 0x1182 JUMP JUMPDEST NOT DUP1 DUP4 AND SWAP2 POP POP SWAP3 SWAP2 POP POP JUMP JUMPDEST PUSH0 PUSH2 0x11B5 DUP4 DUP4 PUSH2 0x118E JUMP JUMPDEST SWAP2 POP DUP3 PUSH1 0x2 MUL DUP3 OR SWAP1 POP SWAP3 SWAP2 POP POP JUMP JUMPDEST DUP2 DUP2 SUB PUSH2 0x11D3 JUMPI POP POP PUSH2 0x12A8 JUMP JUMPDEST PUSH2 0x11DC DUP3 PUSH2 0x1010 JUMP JUMPDEST PUSH8 0xFFFFFFFFFFFFFFFF DUP2 GT ISZERO PUSH2 0x11F5 JUMPI PUSH2 0x11F4 PUSH2 0xC08 JUMP JUMPDEST JUMPDEST PUSH2 0x11FF DUP3 SLOAD PUSH2 0xDB3 JUMP JUMPDEST PUSH2 0x120A DUP3 DUP3 DUP6 PUSH2 0x113C JUMP JUMPDEST PUSH0 PUSH1 0x1F DUP4 GT PUSH1 0x1 DUP2 EQ PUSH2 0x1237 JUMPI PUSH0 DUP5 ISZERO PUSH2 0x1225 JUMPI DUP3 DUP8 ADD SLOAD SWAP1 POP JUMPDEST PUSH2 0x122F DUP6 DUP3 PUSH2 0x11AA JUMP JUMPDEST DUP7 SSTORE POP PUSH2 0x12A1 JUMP JUMPDEST PUSH1 0x1F NOT DUP5 AND PUSH2 0x1245 DUP8 PUSH2 0x1025 JUMP JUMPDEST SWAP7 POP PUSH2 0x1250 DUP7 PUSH2 0x1025 JUMP JUMPDEST PUSH0 JUMPDEST DUP3 DUP2 LT ISZERO PUSH2 0x1277 JUMPI DUP5 DUP10 ADD SLOAD DUP3 SSTORE PUSH1 0x1 DUP3 ADD SWAP2 POP PUSH1 0x1 DUP6 ADD SWAP5 POP PUSH1 0x20 DUP2 ADD SWAP1 POP PUSH2 0x1252 JUMP JUMPDEST DUP7 DUP4 LT ISZERO PUSH2 0x1294 JUMPI DUP5 DUP10 ADD SLOAD PUSH2 0x1290 PUSH1 0x1F DUP10 AND DUP3 PUSH2 0x118E JUMP JUMPDEST DUP4 SSTORE POP JUMPDEST PUSH1 0x1 PUSH1 0x2 DUP9 MUL ADD DUP9 SSTORE POP POP POP JUMPDEST POP POP POP POP POP POP JUMPDEST JUMP JUMPDEST PUSH32 0x4E487B7100000000000000000000000000000000000000000000000000000000 PUSH0 MSTORE PUSH1 0x31 PUSH1 0x4 MSTORE PUSH1 0x24 PUSH0 REVERT JUMPDEST PUSH32 0x416D6F756E74206D7573742062652067726561746572207468616E207A65726F PUSH0 DUP3 ADD MSTORE POP JUMP JUMPDEST PUSH0 PUSH2 0x130B PUSH1 0x20 DUP4 PUSH2 0xABE JUMP JUMPDEST SWAP2 POP PUSH2 0x1316 DUP3 PUSH2 0x12D7 JUMP JUMPDEST PUSH1 0x20 DUP3 ADD SWAP1 POP SWAP2 SWAP1 POP JUMP JUMPDEST PUSH0 PUSH1 0x20 DUP3 ADD SWAP1 POP DUP2 DUP2 SUB PUSH0 DUP4 ADD MSTORE PUSH2 0x1338 DUP2 PUSH2 0x12FF JUMP JUMPDEST SWAP1 POP SWAP2 SWAP1 POP JUMP JUMPDEST PUSH2 0x1348 DUP3 PUSH2 0xAB4 JUMP JUMPDEST PUSH8 0xFFFFFFFFFFFFFFFF DUP2 GT ISZERO PUSH2 0x1361 JUMPI PUSH2 0x1360 PUSH2 0xC08 JUMP JUMPDEST JUMPDEST PUSH2 0x136B DUP3 SLOAD PUSH2 0xDB3 JUMP JUMPDEST PUSH2 0x1376 DUP3 DUP3 DUP6 PUSH2 0x113C JUMP JUMPDEST PUSH0 PUSH1 0x20 SWAP1 POP PUSH1 0x1F DUP4 GT PUSH1 0x1 DUP2 EQ PUSH2 0x13A7 JUMPI PUSH0 DUP5 ISZERO PUSH2 0x1395 JUMPI DUP3 DUP8 ADD MLOAD SWAP1 POP JUMPDEST PUSH2 0x139F DUP6 DUP3 PUSH2 0x11AA JUMP JUMPDEST DUP7 SSTORE POP PUSH2 0x1406 JUMP JUMPDEST PUSH1 0x1F NOT DUP5 AND PUSH2 0x13B5 DUP7 PUSH2 0x1025 JUMP JUMPDEST PUSH0 JUMPDEST DUP3 DUP2 LT ISZERO PUSH2 0x13DC JUMPI DUP5 DUP10 ADD MLOAD DUP3 SSTORE PUSH1 0x1 DUP3 ADD SWAP2 POP PUSH1 0x20 DUP6 ADD SWAP5 POP PUSH1 0x20 DUP2 ADD SWAP1 POP PUSH2 0x13B7 JUMP JUMPDEST DUP7 DUP4 LT ISZERO PUSH2 0x13F9 JUMPI DUP5 DUP10 ADD MLOAD PUSH2 0x13F5 PUSH1 0x1F DUP10 AND DUP3 PUSH2 0x118E JUMP JUMPDEST DUP4 SSTORE POP JUMPDEST PUSH1 0x1 PUSH1 0x2 DUP9 MUL ADD DUP9 SSTORE POP POP POP JUMPDEST POP POP POP POP POP POP JUMP JUMPDEST PUSH32 0x43616D706169676E2068617320656E6465640000000000000000000000000000 PUSH0 DUP3 ADD MSTORE POP JUMP JUMPDEST PUSH0 PUSH2 0x1442 PUSH1 0x12 DUP4 PUSH2 0xABE JUMP JUMPDEST SWAP2 POP PUSH2 0x144D DUP3 PUSH2 0x140E JUMP JUMPDEST PUSH1 0x20 DUP3 ADD SWAP1 POP SWAP2 SWAP1 POP JUMP JUMPDEST PUSH0 PUSH1 0x20 DUP3 ADD SWAP1 POP DUP2 DUP2 SUB PUSH0 DUP4 ADD MSTORE PUSH2 0x146F DUP2 PUSH2 0x1436 JUMP JUMPDEST SWAP1 POP SWAP2 SWAP1 POP JUMP JUMPDEST PUSH32 0x746965727320646F6573206E6F74206578697473000000000000000000000000 PUSH0 DUP3 ADD MSTORE POP JUMP JUMPDEST PUSH0 PUSH2 0x14AA PUSH1 0x14 DUP4 PUSH2 0xABE JUMP JUMPDEST SWAP2 POP PUSH2 0x14B5 DUP3 PUSH2 0x1476 JUMP JUMPDEST PUSH1 0x20 DUP3 ADD SWAP1 POP SWAP2 SWAP1 POP JUMP JUMPDEST PUSH0 PUSH1 0x20 DUP3 ADD SWAP1 POP DUP2 DUP2 SUB PUSH0 DUP4 ADD MSTORE PUSH2 0x14D7 DUP2 PUSH2 0x149E JUMP JUMPDEST SWAP1 POP SWAP2 SWAP1 POP JUMP JUMPDEST PUSH32 0x696E636F727265637420616D6F756E7400000000000000000000000000000000 PUSH0 DUP3 ADD MSTORE POP JUMP JUMPDEST PUSH0 PUSH2 0x1512 PUSH1 0x10 DUP4 PUSH2 0xABE JUMP JUMPDEST SWAP2 POP PUSH2 0x151D DUP3 PUSH2 0x14DE JUMP JUMPDEST PUSH1 0x20 DUP3 ADD SWAP1 POP SWAP2 SWAP1 POP JUMP JUMPDEST PUSH0 PUSH1 0x20 DUP3 ADD SWAP1 POP DUP2 DUP2 SUB PUSH0 DUP4 ADD MSTORE PUSH2 0x153F DUP2 PUSH2 0x1506 JUMP JUMPDEST SWAP1 POP SWAP2 SWAP1 POP JUMP JUMPDEST PUSH0 PUSH2 0x1550 DUP3 PUSH2 0xA56 JUMP JUMPDEST SWAP2 POP PUSH32 0xFFFFFFFFFFFFFFFFFFFFFFFFFFFFFFFFFFFFFFFFFFFFFFFFFFFFFFFFFFFFFFFF DUP3 SUB PUSH2 0x1582 JUMPI PUSH2 0x1581 PUSH2 0xF83 JUMP JUMPDEST JUMPDEST PUSH1 0x1 DUP3 ADD SWAP1 POP SWAP2 SWAP1 POP JUMP INVALID LOG2 PUSH5 0x6970667358 0x22 SLT KECCAK256 0xCD PREVRANDAO PUSH13 0x57C9E620EF2CDA4AD7106308D1 SWAP1 BASEFEE CHAINID 0xB7 SWAP13 0x4C PUSH1 0x95 TSTORE PUSH24 0x3A640F0F7A3564736F6C634300081E003300000000000000 "
		},
		"gasEstimates": {
			"creation": {
				"codeDepositCost": "1114200",
				"executionCost": "infinite",
				"totalCost": "infinite"
			},
			"external": {
				"addTier(string,uint256)": "infinite",
				"deadline()": "2470",
				"description()": "infinite",
				"fund(uint256)": "infinite",
				"getContractBalance()": "334",
				"goal()": "2514",
				"name()": "infinite",
				"owner()": "2574",
				"removeTier(uint256)": "infinite",
				"tiers(uint256)": "infinite",
				"withdraw()": "infinite"
			}
		},
		"methodIdentifiers": {
			"addTier(string,uint256)": "8ece7b91",
			"deadline()": "29dcb0cf",
			"description()": "7284e416",
			"fund(uint256)": "ca1d209d",
			"getContractBalance()": "6f9fb98a",
			"goal()": "40193883",
			"name()": "06fdde03",
			"owner()": "8da5cb5b",
			"removeTier(uint256)": "7497211b",
			"tiers(uint256)": "039af9eb",
			"withdraw()": "3ccfd60b"
		}
	},
	"abi": [
		{
			"inputs": [
				{
					"internalType": "string",
					"name": "_name",
					"type": "string"
				},
				{
					"internalType": "string",
					"name": "_description",
					"type": "string"
				},
				{
					"internalType": "uint256",
					"name": "_goal",
					"type": "uint256"
				},
				{
					"internalType": "uint256",
					"name": "_durationInDays",
					"type": "uint256"
				}
			],
			"stateMutability": "nonpayable",
			"type": "constructor"
		},
		{
			"inputs": [
				{
					"internalType": "string",
					"name": "_name",
					"type": "string"
				},
				{
					"internalType": "uint256",
					"name": "_amount",
					"type": "uint256"
				}
			],
			"name": "addTier",
			"outputs": [],
			"stateMutability": "nonpayable",
			"type": "function"
		},
		{
			"inputs": [],
			"name": "deadline",
			"outputs": [
				{
					"internalType": "uint256",
					"name": "",
					"type": "uint256"
				}
			],
			"stateMutability": "view",
			"type": "function"
		},
		{
			"inputs": [],
			"name": "description",
			"outputs": [
				{
					"internalType": "string",
					"name": "",
					"type": "string"
				}
			],
			"stateMutability": "view",
			"type": "function"
		},
		{
			"inputs": [
				{
					"internalType": "uint256",
					"name": "_tierIndex",
					"type": "uint256"
				}
			],
			"name": "fund",
			"outputs": [],
			"stateMutability": "payable",
			"type": "function"
		},
		{
			"inputs": [],
			"name": "getContractBalance",
			"outputs": [
				{
					"internalType": "uint256",
					"name": "",
					"type": "uint256"
				}
			],
			"stateMutability": "view",
			"type": "function"
		},
		{
			"inputs": [],
			"name": "goal",
			"outputs": [
				{
					"internalType": "uint256",
					"name": "",
					"type": "uint256"
				}
			],
			"stateMutability": "view",
			"type": "function"
		},
		{
			"inputs": [],
			"name": "name",
			"outputs": [
				{
					"internalType": "string",
					"name": "",
					"type": "string"
				}
			],
			"stateMutability": "view",
			"type": "function"
		},
		{
			"inputs": [],
			"name": "owner",
			"outputs": [
				{
					"internalType": "address",
					"name": "",
					"type": "address"
				}
			],
			"stateMutability": "view",
			"type": "function"
		},
		{
			"inputs": [
				{
					"internalType": "uint256",
					"name": "_index",
					"type": "uint256"
				}
			],
			"name": "removeTier",
			"outputs": [],
			"stateMutability": "nonpayable",
			"type": "function"
		},
		{
			"inputs": [
				{
					"internalType": "uint256",
					"name": "",
					"type": "uint256"
				}
			],
			"name": "tiers",
			"outputs": [
				{
					"internalType": "string",
					"name": "name",
					"type": "string"
				},
				{
					"internalType": "uint256",
					"name": "amount",
					"type": "uint256"
				},
				{
					"internalType": "uint256",
					"name": "backers",
					"type": "uint256"
				}
			],
			"stateMutability": "view",
			"type": "function"
		},
		{
			"inputs": [],
			"name": "withdraw",
			"outputs": [],
			"stateMutability": "nonpayable",
			"type": "function"
		}
	]
}